:04000000BEEF10F04F
:0800080065EF00F000000000AC
:100010000000000000000000046ED8CF05F0E0CF23
:1000200006F00001E9CF0CF0EACF07F0E1CF08F0CD
:10003000E2CF09F0D9CF0AF0DACF0BF0F3CF12F00C
:10004000F4CF13F0FACF14F0F5CF15F0F6CF16F089
:10005000F7CF17F000C00EF001C00FF002C010F093
:1000600003C011F0F2AA38EF00F0F2B4D2EF01F0C1
:100070009DAA3EEF00F09EBA2FEF03F00EC000F0F5
:100080000FC001F010C002F011C003F00CC0E9FF76
:1000900007C0EAFF078E08C0E1FF09C0E2FF0AC0FF
:1000A000D9FF0BC0DAFF12C0F3FF13C0F4FF14C076
:1000B000FAFF15C0F5FF16C0F6FF17C0F7FF045092
:1000C00006C0E0FF05C0D8FF10001A6ED8CF1BF0A5
:1000D000E0CF1CF00001E9CF22F0EACF1DF0E1CF24
:1000E0001EF0E2CF1FF0D9CF20F0DACF21F0F3CF0E
:1000F00028F0F4CF29F0FACF2AF0F5CF2BF0F6CF85
:100100002CF0F7CF2DF000C024F001C025F002C084
:1001100026F003C027F09DA291EF00F09EB2EBEF16
:1001200001F024C000F025C001F026C002F027C075
:1001300003F022C0E9FF1DC0EAFF1D8E1EC0E1FFD3
:100140001FC0E2FF20C0D9FF21C0DAFF28C0F3FFA3
:1001500029C0F4FF2AC0FAFF2BC0F5FF2CC0F6FF20
:100160002DC0F7FF1A501CC0E0FF1BC0D8FF1000C5
:10017000F76A800FF66E010EF7220900F5501200A3
:1001800000C1814001C0804101C0804100C1814067
:1001900001C0804100C1814000C1814001C0804157
:1001A00001C0804100C1814000C1814001C0804147
:1001B00000C1814001C0804101C0804100C1814037
:1001C00001C0804100C1814000C1814001C0804127
:1001D00000C1814001C0804101C0804100C1814017
:1001E00000C1814001C0804101C0804100C1814007
:1001F00001C0804100C1814000C1814001C08041F7
:1002000001C0804100C1814000C1814001C08041E6
:1002100000C1814001C0804101C0804100C18140D6
:1002200000C1814001C0804101C0804100C18140C6
:1002300001C0804100C1814000C1814001C08041B6
:1002400000C1814001C0804101C0804100C18140A6
:1002500001C0804100C1814000C1814001C0804196
:1002600001C0804100C1814000C1814001C0804186
:1002700000C1814001C0804101C0804100C1814076
:10028000F76A900FF66E020EF7220900F550120081
:1002900000C0C101C30302C2C60607C705C5C40426
:1002A000CC0C0DCD0FCFCE0E0ACACB0BC90908C896
:1002B000D81819D91BDBDA1A1EDEDF1FDD1D1CDC86
:1002C00014D4D515D71716D6D21213D311D1D010F6
:1002D000F03031F133F3F23236F6F737F53534F4E6
:1002E0003CFCFD3DFF3F3EFEFA3A3BFB39F9F83856
:1002F00028E8E929EB2B2AEAEE2E2FEF2DEDEC2C46
:10030000E42425E527E7E62622E2E323E12120E0B5
:10031000A06061A163A3A26266A6A767A56564A4A5
:100320006CACAD6DAF6F6EAEAA6A6BAB69A9A86815
:1003300078B8B979BB7B7ABABE7E7FBF7DBDBC7C05
:10034000B47475B577B7B67672B2B373B17170B075
:100350005090915193535292965657975595945465
:100360009C5C5D9D5F9F9E5E5A9A9B5B99595898D5
:10037000884849894B8B8A4A4E8E8F4F8D4D4C8CC5
:100380004484854587474686824243834181804035
:10039000F29A0201E65304E0D76AD66AF294F28A2E
:1003A000000112000101B15102080AE1B25308E153
:1003B000B35306E1B0B104D0020EB55FB08101D0F5
:1003C000B091B369B269B16B0201E66B0001E0DF85
:1003D000F2943EEF00F00201E8A10CD00101993D3A
:1003E00005D09A3D03D0020105D00101992BD8B464
:1003F0009A2B0201E8A50CD001019B3D05D09C3D44
:1004000003D0020105D001019B2BD8B49C2B020123
:10041000E8A90CD001019D3D05D09E3D03D002010D
:1004200005D001019D2BD8B49E2B0201E89381B029
:10043000E883E8B342D00101B0B302D002013DD05D
:100440005F2AD8A403D00001602B0101010E000136
:100450006527D8B0662BD8B4672BD8B4682B0101B8
:10046000B0A523D00201E8919AC14EF099C14DF098
:100470004E50545C08E303E153504D5C04E24EC01F
:1004800054F04DC053F05A504E5C0DE303E14D5013
:10049000595C09E24D3C03D04E3C01D004D04EC023
:1004A0005AF04DC059F00101B095B0B506D09A6B25
:1004B000996B0201E8810101B0850101B09302014D
:1004C000E8A303D00101B0830201E89781B2E88775
:1004D000E8B73FD00101B0B702D002013AD0000125
:1004E000612BD8B4622B010E6927D8B06A2BD8B41F
:1004F0006B2BD8B46C2B0101B0A923D00201E89575
:100500009CC150F09BC14FF05050565C08E303E192
:1005100055504F5C04E250C056F04FC055F05C504F
:10052000505C0DE303E14F505B5C09E24F3C03D0AC
:10053000503C01D004D050C05CF04FC05BF00101D2
:10054000B099B0B906D09C6B9B6B0201E8850101A4
:10055000B0890101B0970201E8A703D00101B0877B
:100560000201E89B81B4E88BE8BB3FD00101B0BB3E
:1005700002D002013AD00001632BD8B4642B010EE3
:100580006D27D8B06E2BD8B46F2BD8B4702B010167
:10059000B0AD23D00201E8999EC152F09DC151F047
:1005A0005250585C08E303E15750515C04E252C0DA
:1005B00058F051C057F05E50525C0DE303E15150CA
:1005C0005D5C09E2513C03D0523C01D004D052C0E2
:1005D0005EF051C05DF00101B09DB0BD06D09E6BD4
:1005E0009D6B0201E8890101B08D0101B09B020100
:1005F000E8AB03D00101B08B0201BB2BBB510A0851
:1006000004E1BB6B0101AD8502019E92000191EFF7
:1006100000F09EAAFED7ABCF35F0AECF01F035A2E9
:1006200002D0AB98AB881200A4A8FED7736E39EF46
:1006300003F00101B3510201E619E76F036AE751C4
:10064000000196DD016E0101B2510118B36F036A1A
:100650000201E751000114DEE8CFB2F11200D9DF48
:1006600001C0E5F201018FA106D00201E5510001B0
:10067000DBD72DD00101B0B12BD0B15308E1B36964
:10068000B269E5C2B4F1B12BB56BB76B17D0B12D20
:1006900004D0E5C2B6F1B12B11D0B15102080EE180
:1006A000B53D02D0FE0EB56FB80EB525E96E010E50
:1006B000EA6ED8B0EA2AE5C2EFFFB52BE5C2E6F252
:1006C0000001B7DF010E0201E66F000161DE0101EA
:1006D0009E9A00013EEF00F023207063777820257A
:1006E000730D0A0033312D4F63742D3135002320F3
:1006F000726573746172745F636175736528293DF7
:10070000257520005744545F54494D454F555400BA
:100710004D434C525F46524F4D5F534C4545500040
:100720004D434C525F46524F4D5F52554E004E4F17
:10073000524D414C5F504F5745525F555000425209
:100740004F574E4F55545F52455354415254000039
:100750005744545F46524F4D5F534C45455000003F
:1007600052455345545F494E535452554354494F93
:100770004E00756E6B6E6F776E2100000D0A0000E3
:100780002320726561645F706172616D5F66696C80
:10079000652829207374617274696E67202E2E2E6D
:1007A000000020636F6D706C6574650D0A00232076
:1007B00077726974655F64656661756C745F70619A
:1007C00072616D5F66696C6528292073746172744B
:1007D000696E67202E2E2E0020636F6D706C65741D
:1007E000650D0A0023206D6F646275735F696E6921
:1007F000742829207374617274696E67202E2E2EFE
:10080000000020636F6D706C6574650D0A00232015
:10081000627269646765645F75617274733D2575A2
:100820000D0A00000201E051E203F3CF01F0F4CF22
:1008300000F0E303F3500026E151E203F3500020FF
:10084000026E00011200C290080E616EF19E000E51
:10085000926EFF0E936E920E946E800E956E969031
:100860009692969496960101AA6BAC6B020EAB6FB2
:10087000AD91AD93AD95AE69AF690201C66BC6513E
:10088000020856E3036AC6C202F0D8900236033665
:1008900002504D0FE96E000E0320EA6EEC6AED5235
:1008A000EF6A036AC6C202F0D890023603360250DD
:1008B000530FE96E000E0320EA6EEC68ED52EF680C
:1008C000036AC6C202F0D890023603360250590FAE
:1008D000E96E000E0320EA6EEC6AED52EF6A036ADD
:1008E000C6C202F0D8900236033602505F0FE96E9E
:1008F000000E0320EA6EEC6AED52EF6AE16BC6C2AD
:10090000E0F2E36B040EE26F00018CDF0150650F33
:10091000E96E000E0220EA6EEE52EE52EC6AED52E3
:10092000EF6AED52EF6AED52EF6A0201C62BA7D7CC
:100930000101836B826B856B846B876B866B896B24
:10094000886B8B6B8A6B8D6B8C6B816B8E6B8F91D5
:10095000916B906B4AC094F149C093F146C096F1F7
:1009600045C095F1986B976BF19CF19AF198000E48
:100970000509BA6E4A0EBB6E9D8200010EEF11F0A2
:100980000900F6CFC8F2F7CFC9F2F550A4A8FED7F8
:10099000736EC8C2F6FFC9C2F7FF0201C72F01D0AC
:1009A00002D00001EDD7000112000900F5520DE060
:1009B000F6CFC6F2F7CFC7F2F550A4A8FED7736EF4
:1009C000C6C2F6FFC7C2F7FFF0D712000201CA5134
:1009D000016AC95D03E2C9C200F00CD0006A080ECA
:1009E000CB6FC9370036CA51005CD8B0006E0136F3
:1009F000CB2FF7D7000112000150C7C2C9F2640E15
:100A00000201CA6F0001E2DF00C0C7F20150300EE0
:100A100008E10201C8A30ED0C8B70CD0C8B9200E97
:100A200004D00201C897C899C88101260150A4A822
:100A3000FED7736EC7C2C9F20A0ECA6F0001C6DFC5
:100A400000C0C7F20150300E08E10201C8B70BD058
:100A5000C8A109D0C8B9200E000101260150A4A8E0
:100A6000FED7736E0201300EC727C751A4A8FED768
:100A7000736E000112000201CF6BCEC203F0CD51A4
:100A8000D8B4CE07CD07D06F03C0D1F2D05302E166
:100A9000D15335E0CCC203F0CB51E96E03C0EAFF7D
:100AA000CA51036EC951C92BD8B4CA2BD26F03C027
:100AB000D3F2F2CFD4F2F29CF29ED3C2AAFFD2C2FA
:100AC000A9FFA69CA69EA680A850D4BDF28CD4BF38
:100AD000F28EEF6ECCC203F0CB51E96E03C0EAFF99
:100AE000EFCFD0F2CFC2E1F2D0C2E2F2E151E2198F
:100AF000016E01C0CFF2CB2BD8B4CC2BBED7CFC266
:100B000001F000012BEF06F00201DF6BDEC203F003
:100B1000DD51D8B4DE07DD07E06F03C0E1F2E0533A
:100B200002E1E1533FE0DCC203F0DB51E96E03C0B8
:100B3000EAFFEFCFE0F2DFC2E1F2E0C2E2F2E15120
:100B4000E219016E01C0DFF2DA51036ED951D92BDF
:100B5000D8B4DA2BE06F03C0E1F2DC51036EDB5155
:100B6000DB2BD8B4DC2BE96E03C0EAFFEFCFE2F257
:100B7000E1C2AAFFE0C2A9FFE2C2A8FFA69CA69E0E
:100B8000A684F250006EF29CF29E0F01550EA76EE5
:100B9000AA0EA76EA682A6B2FED7A6940050F212A5
:100BA0000201B4D7DFC201F00001E7EF05F0020156
:100BB000D86B360ED76FDA6B020ED96FD8C2DCF263
:100BC000D7C2DBF2DE6B170EDD6F00019DD701C0CF
:100BD000D6F2AA6AA96AD6C2A8FFA69CA69EA68437
:100BE000F250006EF29CF29E0F01550EA76EAA0EF7
:100BF000A76EA682A6B2FED7A6940050F2120001FC
:100C00001200960E0101AA6F800E366E500E386EDD
:100C1000260E3A6E940E396E3C6A140E3B6E3D6A97
:100C2000020E3F6E760E3E6E416A020E406E426AC2
:100C30000001BDDF12000201C86B360EC76FCA6B20
:100C4000020EC96FC8C2CCF2C7C2CBF2CE6B170E70
:100C5000CD6F000110D701C0C6F2F2CFC7F2F29CEF
:100C6000F29EAA6AA96AA69CA69EA680A850020126
:100C7000C7BDF28CC7BFF28EC65D03E00001C1DFC5
:100C80000201000195EF11F09EAA02D0C2DCFCD750
:100C90009D8A1200F9DFC60ED56EC00EF212B6EFB5
:100CA00011F08B968B8A8C940201C95303E1030ED9
:100CB000CD6F25D0C92D03D0130ECD6F20D0C951D3
:100CC000020803E10B0ECD6F1AD0C951030803E1EE
:100CD0001B0ECD6F14D0C951040803E1070ECD6F70
:100CE0000ED0C951050803E1170ECD6F08D0C951C8
:100CF000060803E10F0ECD6F02D01F0ECD6FCC6B37
:100D0000CC5104080BE38B96CDB102D08B9A01D065
:100D10008B8AD890CD338B86CC2BF2D7CB6BCA6B1A
:100D2000CC6BCC510D080BE38B9682B802D0D890D7
:100D300001D0D880CA37CB378B86CC2BF2D7CB9B50
:100D4000CB998C84CAC201F0CBC202F00001DFEF64
:100D500006F00101812B81510F0801E2816B020134
:100D6000C66BC651070846E3E16BC6C2E0F2E36B0F
:100D7000200EE26F000156DD02C003F00150340F77
:100D80000201C76F000E0220C86F036A010181C112
:100D900002F0D8900236033602500201C725016ED8
:100DA000C851032201504D0F016E000E032201C0F5
:100DB000C7F203C0C8F2C6C2C9F2000172D7C8C2E6
:100DC000EAFFC7C2E9FF02C0ECFFED5201C0EFFF2E
:100DD000036A0201C6C202F0D890023603360250FE
:100DE000710FE96E000E0320EA6EEC6AED52EF6AB5
:100DF000C62BB7D7000112000201E16BDAC2E0F2A4
:100E0000E36B200EE26F00010DDD02C003F0015024
:100E1000810F016E000E032201C0DEF2020103C049
:100E2000DFF2DC6BDB6BDD6BDD510F0811E3D8907B
:100E3000DD35036ADE25E96EDF510320EA6EECCF73
:100E400003F0ED52EF50DB270350DC23DD2BECD712
:100E5000080EDB25E06F000EDC21E16FE131036E4F
:100E6000E031026E033202320332023203320232C6
:100E70000F0E031602C001F003C002F000011200C1
:100E80000101AD95D8900201C135C66FC235C76F5B
:100E9000000E0101AFAB010E0201C613C6C2C1F2C2
:100EA000C751E009C26FC15303E1C251F00800E12C
:100EB0000101993D04D09A3D02D04E6A4D6A9B3D96
:100EC00004D09C3D02D0506A4F6A9D3D04D09E3DA7
:100ED00002D0526A516A81CFAEF182CFAFF18FA1B9
:100EE00002D0898606D0AA5302E1899602D089866B
:100EF000AA078C3D03D08D3D01D003D08C2BD8B4F4
:100F00008D2B0201BF2BD8B4C02BBF51E80842E1A2
:100F1000C05103083FE1C06BBF6B0101903D03D09E
:100F2000913D01D003D0902BD8B4912B3E5202E1D9
:100F30003F520FE03F50915D0CE303E190513E5C66
:100F400008E2AB5306E1AC5304E141C0ACF140C050
:100F5000ABF1AB5304E1AC5302E18B800BD08B902F
:100F6000AB51D8B4AC07AB07AB5304E1AC5302E1CF
:100F7000916B906B0201BC2BBC513C080BE1BC6B2C
:100F800001018A3D03D08B3D01D003D08A2BD8B418
:100F90008B2B0201C33D09D0C43D07D0DA6B0001A1
:100FA0002BDF02C0C4F201C0C3F20101ADA304D023
:100FB000AD930201BE6BBD6B0201BD2BD8B4BE2B3D
:100FC0003B50BD5D0AE13C50BE5D07E1BE6BBD6BB1
:100FD0000101AD810201C469C3690001F3EF11F0A1
:100FE0000101B0B104D0000E016E0AD006D0B6AF38
:100FF00004D0B8C1B7F1010EB56FB091010E016E0A
:101000000001A5EF0FF00201CE511F080CE1CF51F6
:101010004E0809E1D051200806E1D1514E0803E104
:10102000010E016E2ED0CF5102080FE2FF0A03E13C
:10103000CE51E7080AE2D151030807E303E1D0519A
:10104000F40803E3010E016E1CD0CF5106080FE235
:10105000FF0A03E1CE51CF080AE2D151090807E3A4
:1010600003E1D051D10803E3010E016E0AD0D15340
:1010700006E1D051340803E3010E016E02D0000EE8
:10108000016E0001E1EF0FF09EA8FED7AD6E4DEFAF
:1010900008F00201D8510001F7D7196AF2BC198C87
:1010A000F29CF2BE198EF29ED8C2E6F219EC03F061
:1010B00019BCF28C19BEF28E0400080E006E002ED0
:1010C000FED7000012000101B369B269B0919D9A88
:1010D00004001E0E006E002EFED70000D6C2D8F20D
:1010E0000001D7DFD7C2D8F2D4DF1200ACA2FED7FE
:1010F00085EF08F0B3C1D7F2B2C1D6F2D7C2D8F2A9
:10110000C8DFD6C2D8F2C5DFF1D704001E0E006ECC
:10111000002EFED70000B8DD0101B369B2690001FD
:1011200012000201CD518009D06FCEC2D1F2CCC2E3
:10113000D6F2D76F0001C7DFCFC2D8F2AADFDADF5D
:101140001200F29CF29EF2BEFDD70201E16BDAC200
:10115000E0F2E36B040EE26F000112EC04F002C057
:1011600003F00150650FE96E000E0220EA6EEFCF2A
:1011700000F0ECCF01F0ECCF02F0ECCF03F003C0B5
:10118000DEF202C0DDF201C0DCF200C0DBF2C00E14
:10119000F212DBC200F0DCC201F0DDC202F0DEC2FE
:1011A00003F01200F29CF29EF2BEFDD7606B5F6A04
:1011B000626B616B646B636B546853685668556807
:1011C000586857685A6A596A5C6A5B6A5E6A5D6AFF
:1011D00001018D6B8C6BC00EF21200016EEF0DF0F1
:1011E000F29CF29EF2BEFDD7686B676B666B656B17
:1011F0006C6B6B6B6A6B696B706B6F6B6E6B6D6B33
:10120000C00EF21276EF0DF00101836B826B856BDD
:10121000846B876B866B000196EF0DF00201D9514C
:1012200006082AE2FF0A03E1D851CF0825E2D95186
:10123000090822E303E1D851CF081EE3D00ED85DA0
:10124000DA6F070ED959DB6F020EDB27F2CFDCF223
:10125000F29CF29EDBC2AAFFDAC2A9FFA69CA69E60
:10126000A680A850DCBDF28CDCBFF28E036A016E52
:101270000350026EF7EF0DF0D851006ED951036E96
:10128000035005E100520001D8B406D20201035018
:1012900006E1010E005C0001D8B405D20201035042
:1012A00006E1020E005C0001D8B404D20201035032
:1012B00006E1030E005C0001D8B403D20201035022
:1012C00006E1040E005C0001D8B402D20201035012
:1012D00006E1050E005C0001D8B40DD202010350F6
:1012E00006E1060E005C0001D8B40CD202010350E6
:1012F00006E1070E005C0001D8B40BD202010350D6
:1013000006E1080E005C0001D8B40AD202010350C5
:1013100006E1090E005C0001D8B409D202010350B5
:1013200006E10A0E005C0001D8B408D202010350A5
:1013300006E10B0E005C0001D8B414D20201035088
:1013400006E10C0E005C0001D8B413D20201035078
:1013500006E10D0E005C0001D8B412D20201035068
:1013600006E10E0E005C0001D8B411D20201035058
:1013700006E10F0E005C0001D8B410D20201035048
:1013800006E1100E005C0001D8B40FD20201035038
:1013900006E1110E005C0001D8B41BD2020103501B
:1013A00006E1120E005C0001D8B41AD2020103500B
:1013B00006E1130E005C0001D8B429D202010350EB
:1013C00006E1140E005C0001D8B42DD202010350D6
:1013D00006E1150E005C0001D8B42CD202010350C6
:1013E00006E1160E005C0001D8B43BD202010350A6
:1013F00006E1170E005C0001D8B440D20201035090
:1014000006E1180E005C0001D8B43FD2020103507F
:1014100006E1190E005C0001D8B44ED2020103505F
:1014200006E11A0E005C0001D8B453D20201035049
:1014300006E11B0E005C0001D8B452D20201035039
:1014400006E11C0E005C0001D8B461D20201035019
:1014500006E11D0E005C0001D8B466D20201035003
:1014600006E11E0E005C0001D8B465D202010350F3
:1014700006E11F0E005C0001D8B474D202010350D3
:1014800006E1200E005C0001D8B479D202010350BD
:1014900006E1210E005C0001D8B478D202010350AD
:1014A00006E1220E005C0001D8B487D2020103508D
:1014B00006E1230E005C0001D8B48CD20201035077
:1014C00006E1240E005C0001D8B48BD20201035067
:1014D00006E1250E005C0001D8B49AD20201035047
:1014E00006E1260E005C0001D8B49FD20201035031
:1014F00006E1270E005C0001D8B49ED20201035021
:1015000006E1280E005C0001D8B4ADD20201035000
:1015100006E1290E005C0001D8B4B2D202010350EA
:1015200006E12A0E005C0001D8B4B1D202010350DA
:1015300006E12B0E005C0001D8B4B6D202010350C4
:1015400006E12C0E005C0001D8B4B6D202010350B3
:1015500006E12D0E005C0001D8B4B6D202010350A2
:1015600006E12E0E005C0001D8B4B6D20201035091
:1015700006E12F0E005C0001D8B4B6D20201035080
:1015800006E1300E005C0001D8B4B6D2020103506F
:1015900006E1310E005C0001D8B4B6D2020103505E
:1015A00006E1320E005C0001D8B4B6D2020103504D
:1015B00006E1330E005C0001D8B4B6D20201030E7E
:1015C000035C06E1E80E005C0001D8B4B5D202016C
:1015D000030E035C06E1E90E005C0001D8B4B4D24E
:1015E0000201030E035C06E1EA0E005C0001D8B4C0
:1015F000B2D20201030E035C06E1EB0E005C0001B7
:10160000D8B4B0D20201030E035C06E1EC0E005C1C
:101610000001D8B4AED20201030E035C06E1ED0E68
:10162000005C0001D8B4ACD20201030E035C06E1F9
:10163000EE0E005C0001D8B4AAD20201030E035CD6
:1016400006E1EF0E005C0001D8B4A9D20201030E3E
:10165000035C06E1F00E005C0001D8B4A7D20201E1
:10166000030E035C06E1F10E005C0001D8B4A6D2C3
:101670000201030E035C06E1F20E005C0001D8B427
:10168000A4D20201030E035C06E1F30E005C00012C
:10169000D8B4A2D20201A7D25FC001F060C002F0AC
:1016A0000201A5D200014D50016E4E50026E0201A2
:1016B0009ED200015350016E5450026E020197D227
:1016C00000015950016E5A50026E020190D2000181
:1016D0000201DA6B000135DD03C0BAF202C0B9F2D3
:1016E00001C0B8F200C0B7F20201B751016EB851A3
:1016F000026E7DD200010201B951016EBA51026E33
:1017000076D200016151016E6251026E02016FD208
:1017100000014F50016E5050026E020168D200016C
:101720005550016E5650026E020161D200015B50AD
:10173000016E5C50026E02015AD20001010E0201DC
:10174000DA6F0001FEDC03C0BAF202C0B9F201C0D8
:10175000B8F200C0B7F20201B751016EB851026E83
:1017600046D200010201B951016EBA51026E3FD258
:1017700000016351016E6451026E020138D2000112
:101780005150016E5250026E020131D20001575089
:10179000016E5850026E02012AD200015D50016EA6
:1017A0005E50026E020123D20001020E0201DA6FC6
:1017B0000001C7DC03C0BAF202C0B9F201C0B8F23E
:1017C00000C0B7F20201B751016EB851026E0FD2DC
:1017D00000010201B951016EBA51026E08D2000136
:1017E000036A01018151026ED8900236033602501D
:1017F000810FE96E000E0320EA6EECCF03F0ED528C
:10180000EF50016E0350026E0201F1D1000102019E
:10181000DA6B0001FCEC06F00150016E0250026E22
:101820000201E5D100017151016E7251026E020197
:10183000DED10001036A01018151026ED8900236A7
:1018400003360250A10FE96E000E0320EA6EECCFC2
:1018500003F0ED52EF50016E0350026E0201C7D14A
:101860000001010E0201DA6F0001FCEC06F00150EC
:10187000016E0250026E0201BAD100017351016E75
:101880007451026E0201B3D10001036A010181515A
:10189000026ED890023603360250C10FE96E000E78
:1018A0000320EA6EECCF03F0ED52EF50016E0350CF
:1018B000026E02019CD10001020E0201DA6F0001EA
:1018C000FCEC06F00150016E0250026E02018FD155
:1018D00000017551016E7651026E020188D100013E
:1018E000036A01018151026ED8900236033602501C
:1018F000E10FE96E000E0320EA6EECCF03F0ED522B
:10190000EF50016E0350026E020171D10001030E0F
:101910000201DA6F0001FCEC06F00150016E02508A
:10192000026E020164D100017751016E7851026E9E
:1019300002015DD10001036A01018151026ED8905C
:10194000023603360250010FE96E010E0320EA6EE3
:10195000ECCF03F0ED52EF50016E0350026E020126
:1019600046D10001040E0201DA6F0001FCEC06F022
:101970000150016E0250026E020139D1000179510D
:10198000016E7A51026E020132D10001036A010137
:101990008151026ED890023603360250210FE96E53
:1019A000010E0320EA6EECCF03F0ED52EF50016E12
:1019B0000350026E02011BD10001050E0201DA6F15
:1019C0000001FCEC06F00150016E0250026E0201B3
:1019D0000ED100017B51016E7C51026E020107D1D4
:1019E0000001036A01018151026ED890023603366C
:1019F0000250410FE96E010E0320EA6EECCF03F0B6
:101A0000ED52EF50016E0350026E0201F0D0000162
:101A1000060E0201DA6F0001FCEC06F00150016EC7
:101A20000250026E0201E3D000017D51016E7E5131
:101A3000026E0201DCD00001036A01018151026ED5
:101A4000D890023603360250610FE96E010E032072
:101A5000EA6EECCF03F0ED52EF50016E0350026ED0
:101A60000201C5D00001070E0201DA6F0001FCEC93
:101A700006F00150016E0250026E0201B8D0000162
:101A80007F51016E8051026E0201B1D0000101014F
:101A90008951036E8851882BD8B4892B016E03506D
:101AA000026E0201A4D0000101018C51016E8D5122
:101AB000026E02019CD0000101018A51016E8B511E
:101AC000026E020194D0000101019051016E91510A
:101AD000026E02018CD00001D2EF08F0000E016E00
:101AE000026E020184D00001F0EF08F0000E016EDA
:101AF000026E02017CD0000101018251016E83510E
:101B0000026E020174D0000101018451016E855101
:101B1000026E02016CD0000101018651016E8751F5
:101B2000026E020164D0000104EF09F0000E016EA4
:101B3000026E02015CD00001036A3850016E03504E
:101B4000026E020154D000013950016E3A50026E0B
:101B500002014DD00001500E016E000E026E020116
:101B600046D00001570E016E000E026E02013FD0FA
:101B70000001580E016E000E026E020138D0000105
:101B8000010E016E000E026E020131D00001036AE7
:101B90003650016E0350026E020129D000013B5005
:101BA000016E3C50026E020122D00001036A3D50DA
:101BB000016E0350026E02011AD000013E50016E08
:101BC0003F50026E020113D000014050016E41509F
:101BD000026E02010CD00001036A4250016E0350F4
:101BE000026E020104D0FF0E016E026E00D00001F1
:101BF00021EF0EF0CDC2D6F2CCC2D7F263EC08F0E2
:101C0000D8900201D035D66FD135D76FD6C2D8F271
:101C1000000149EC08F00201D36BD26BD351D15DC6
:101C200025E303E1D051D25D21E2D251CE25D66F1A
:101C3000D351CF21D76FD96FD6C2D8F200010EEFA2
:101C400009F002C0D5F201C0D4F2D5C2D6F2D5C295
:101C5000D8F249EC08F0D4C2D6F2D4C2D8F249EC9A
:101C600008F00201D22BD8B4D32BD8D700017AECDC
:101C700008F002EF10F00201D35106083BE2FF0A20
:101C800003E1D251CF0836E2D351090833E303E12F
:101C9000D251CF082FE3D551000808E2FF0A03E133
:101CA000D451000803E2030E016E03D1D00ED25DC1
:101CB000D66F070ED359D76F020ED727D7C2AAFF08
:101CC000D6C2A9FFD4C2A8FFA69CA69EA684F250A5
:101CD000006EF29CF29E0F01550EA76EAA0EA76E23
:101CE000A682A6B2FED7A6940050F212000E016E94
:101CF0000201DFD001018E531BE00201D251E8083E
:101D000009E1D351030806E1D4C238F0000E016E98
:101D1000D0D00DD0D251E9080AE1D351030807E130
:101D2000D5C23AF0D4C239F0000E016EC2D0010122
:101D30000201D251006ED351036E030E035C05E124
:101D4000EE0E005C000143E00201030E035C05E1BE
:101D5000EF0E005C000147E00201030E035C05E1A9
:101D6000F00E005C000147E00201030E035C05E198
:101D7000F10E005C00014BE00201030E035C05E183
:101D8000F20E005C000149E00201030E035C05E174
:101D9000F30E005C00014EE00201070E035C05E15A
:101DA000CE0E005C000152E00201070E035C05E16B
:101DB000CF0E005C000157E002014E0E035C06E10D
:101DC0001F0E005C0001D8B45BD002016DD002018F
:101DD000D55303E1D451800803E2030E016E69D0AC
:101DE000D4C236F064D00101AD83D5C23CF0D4C278
:101DF0003BF002015CD00201D55303E1D45101084C
:101E000003E2030E016E55D0D4C23DF050D0D5C2CE
:101E10003FF0D4C23EF002014AD00201D45305E1A2
:101E2000D55303E1030E016E44D0D5C241F0D4C2B4
:101E300040F03DD00201D55303E1D451010803E243
:101E4000030E016E36D0D4C242F031D00201D42D3F
:101E500002D0D55303E0030E016E2BD0000101EC3C
:101E600006F0020124D00201D42D02D0D55303E0A4
:101E7000030E016E1ED00001D7EC05F0020117D051
:101E80000201D4510A0803E1D551070806E0010117
:101E90008E6B030E016E02010CD0010E01018E6FDC
:101EA000C80EAA6F020103D0020E016E02D0000E0E
:101EB000016E00011200CEC2D6F2060E0201D76FEB
:101EC000000163EC08F0D0C2D3F2D0C2D8F249ECE2
:101ED00008F0CFC2D3F2CFC2D8F249EC08F0D2C298
:101EE000D3F2D2C2D8F249EC08F0D1C2D3F2D1C2B7
:101EF000D8F249EC08F07AEC08F03BEF10F0CCC2D5
:101F0000D6F2100E0201D76F000163EC08F0CEC2CA
:101F1000D1F2CEC2D8F249EC08F0CDC2D1F2CDC296
:101F2000D8F249EC08F0D0C2D1F2D0C2D8F249ECD4
:101F300008F0CFC2D1F2CFC2D8F249EC08F07AEC67
:101F400008F09CEF10F0F0EF07F00152D8B413D175
:101F50003650800806E036500101B45DD8A401D1A6
:101F600000010101823D03D0833D01D003D0822BCB
:101F7000D8B4832B140EAA6FB651030A000108E0EF
:101F8000070A06E0020A40E0160AD8B476D0D6D096
:101F9000B8C1C7F2B9C1C6F2BAC1C9F2BBC1C8F271
:101FA0000201C851C625CC6FC951C721CD6FC7C228
:101FB000CFF2C6C2CEF2D16FCCC2D0F2000103EF95
:101FC00008F0015212E1B4C1CCF20201CE6BB6C1ED
:101FD000CDF2020ECF6F000191EC08F00101876B8A
:101FE000020E866FAA6B0FD00001B6C1CCF2B4C14D
:101FF000CDF2C7C2CFF2C6C2CEF2C9C2D1F2C8C2B8
:10200000D0F2F8D50101AAD0B8C1C7F2B9C1C6F261
:10201000BAC1CDF2BBC1CCF2C7C2D3F2C6C2D2F2B2
:10202000BAC1D5F2BBC1D4F226DE01C0CAF20201A8
:10203000CA5311E0B4C1CCF2CE6BB6C1CDF2CAC264
:10204000CFF2000191EC08F00101876BCAC286F162
:10205000AA6B12D00201BAC1CDF2BBC1CCF2B4C19D
:10206000CEF2C7C2D0F2C6C2CFF2BAC1D2F2BBC161
:10207000D1F2000120D7010171D0B8C1C7F2B9C1B6
:10208000C6F2BAC1C9F2BBC1C8F20201CB6BC953D7
:1020900003E1C851CB5D42E2CB51C625CC6F000EA7
:1020A000C721CD6FD890CB35050FB80FE96E010E63
:1020B000EA6ED8B0EA2AEFCFCEF2D890CB35060F31
:1020C000B80FE96E010EEA6ED8B0EA2AEFCFCFF270
:1020D000CEC2D1F2CFC2D0F2CDC2D3F2CCC2D2F2B4
:1020E000CEC2D5F2CFC2D4F20001C5DD01C0CAF222
:1020F0000201CA5311E0B4C1CCF2CE6BB6C1CDF22D
:10210000CAC2CFF2000191EC08F00101876BCAC28C
:1021100086F1AA6B020102D0CB2BB9D7CA530CE1CE
:10212000B4C1CCF2C7C2CEF2C6C2CDF2C9C2D0F29F
:10213000C8C2CFF20001E3D6010110D0B4C1CCF285
:102140000201CE6BB6C1CDF2010ECF6F000191EC52
:1021500008F00101876B010E866FAA6B916B906B83
:102160000AD0843D03D0853D01D003D0842BD8B460
:10217000852B140EAA6F0001FCEF11F0F86AF194A0
:102180009F829F9AD08E078EEA6AE96A356AB8966E
:102190000C0EAF6EA60EAC6E900EAB6E70964D0E22
:1021A000756EA60E726E900E716E0101B091B16BDC
:1021B0000201BB6B0101B093B095B097B099B09B91
:1021C000B09D0201BC6BBE6BBD6BC06BBF6BC26BC5
:1021D000C16BC150F00BC16E000E0F01386F3C6F28
:1021E000396F3A6F3B6F0101886B776A786A796A59
:1021F0002F6A306A0201B76BB86BB96BBA6BC36BED
:10220000C46BD0500F0BD0A8000ED080D082D088E5
:10221000D886D888C56F000123EF04F08C828C80AB
:10222000D80EF66E060EF76E070E0201C76F00019C
:10223000C0EC04F0E40EF66E060EF76ED5EC04F07A
:102240000D0EA4A8FED7736E0A0EA4A8FED7736E57
:10225000EE0EF66E060EF76E120E0201C76F00014B
:10226000C0EC04F0C5C2C7F21B0E0201C86F00012A
:10227000FCEC04F0200EA4A8FED7736E0201C55139
:10228000070A00010DE00C0A12E0040A17E0030A35
:102290001CE0020A21E00D0A26E0030A2BE031D0FF
:1022A000040EF66E070EF76ED5EC04F030D0100E6B
:1022B000F66E070EF76ED5EC04F029D0200EF66E00
:1022C000070EF76ED5EC04F022D02E0EF66E070E38
:1022D000F76ED5EC04F01BD03E0EF66E070EF76ECF
:1022E000D5EC04F014D0500EF66E070EF76ED5EC58
:1022F00004F00DD0600EF66E070EF76ED5EC04F00C
:1023000006D0720EF66E070EF76ED5EC04F07C0E5A
:10231000F66E070EF76ED5EC04F0800EF66E070E23
:10232000F76ED5EC04F01BEF06F0A20EF66E070E6A
:10233000F76ED5EC04F0365080080EE2AE0EF66E65
:10234000070EF76ED5EC04F001EC06F0D80EF66E31
:10235000070EF76ED5EC04F0AB8EAB88E40EF66E8C
:10236000070EF76ED5EC04F04AEF06F0020EF66E9B
:10237000080EF76ED5EC04F0000E01018FB1010ECE
:102380000201C66F0E0EF66E080EF76E100EC76FC6
:102390000001C0EC04F0C6C2C7F21B0E0201C86FF8
:1023A0000001FCEC04F00D0EA4A8FED7736E0A0E1B
:1023B000A4A8FED7736E0201C56BC5511D0806E3C4
:1023C0000001A9EC06F00201C52BF7D742C092F13B
:1023D00072A2FED78C928C9004000101ADA504D0AE
:1023E000000140EF07F00101ADA104D0AD91000163
:0E23F000A9EC06F00001A7D50201EED703000C
:020000040030CA
:0E00000000231E3F003F81000FC00FE00F40A5
:00000001FF
;PIC18F46K22
;CRC=0EB5  CREATED="31-Oct-15 16:51"
