:04000000E8EF0FF026
:080008006BEF00F000000000A6
:100010000000000000000000046ED8CF05F0E0CF23
:1000200006F00001E9CF0CF0EACF07F0E1CF08F0CD
:10003000E2CF09F0D9CF0AF0DACF0BF0F3CF12F00C
:10004000F4CF13F0FACF14F0F5CF15F0F6CF16F089
:10005000F7CF17F000C00EF001C00FF002C010F093
:1000600003C011F0F2AA38EF00F0F2B4D8EF01F0BB
:100070009DAA3EEF00F09EBA46EF03F0A3AA44EF1C
:1000800000F0A4BA18EF03F00EC000F00FC001F0AA
:1000900010C002F011C003F00CC0E9FF07C0EAFF76
:1000A000078E08C0E1FF09C0E2FF0AC0D9FF0BC0FC
:1000B000DAFF12C0F3FF13C0F4FF14C0FAFF15C03B
:1000C000F5FF16C0F6FF17C0F7FF045006C0E0FFAB
:1000D00005C0D8FF10001A6ED8CF1BF0E0CF1CF07F
:1000E0000001E9CF22F0EACF1DF0E1CF1EF0E2CF10
:1000F0001FF0D9CF20F0DACF21F0F3CF28F0F4CFE2
:1001000029F0FACF2AF0F5CF2BF0F6CF2CF0F7CF6D
:100110002DF000C024F001C025F002C026F003C07D
:1001200027F09DA297EF00F09EB2F1EF01F024C0FE
:1001300000F025C001F026C002F027C003F022C065
:10014000E9FF1DC0EAFF1D8E1EC0E1FF1FC0E2FFD8
:1001500020C0D9FF21C0DAFF28C0F3FF29C0F4FF77
:100160002AC0FAFF2BC0F5FF2CC0F6FF2DC0F7FF09
:100170001A501CC0E0FF1BC0D8FF1000F76A8C0F9C
:10018000F66E010EF7220900F550120000C1814001
:1001900001C0804101C0804100C1814001C0804157
:1001A00000C1814000C1814001C0804101C0804147
:1001B00000C1814000C1814001C0804100C1814037
:1001C00001C0804101C0804100C1814001C0804127
:1001D00000C1814000C1814001C0804100C1814017
:1001E00001C0804101C0804100C1814000C1814007
:1001F00001C0804101C0804100C1814001C08041F7
:1002000000C1814000C1814001C0804101C08041E6
:1002100000C1814000C1814001C0804100C18140D6
:1002200001C0804101C0804100C1814000C18140C6
:1002300001C0804101C0804100C1814001C08041B6
:1002400000C1814000C1814001C0804100C18140A6
:1002500001C0804101C0804100C1814001C0804196
:1002600000C1814000C1814001C0804101C0804186
:1002700000C1814000C1814001C0804100C1814076
:1002800001C0804101C0804100C18140F76A9C0FDC
:10029000F66E020EF7220900F550120000C0C101EF
:1002A000C30302C2C60607C705C5C404CC0C0DCDE6
:1002B0000FCFCE0E0ACACB0BC90908C8D81819D956
:1002C0001BDBDA1A1EDEDF1FDD1D1CDC14D4D51586
:1002D000D71716D6D21213D311D1D010F03031F176
:1002E00033F3F23236F6F737F53534F43CFCFD3DA6
:1002F000FF3F3EFEFA3A3BFB39F9F83828E8E92996
:10030000EB2B2AEAEE2E2FEF2DEDEC2CE42425E545
:1003100027E7E62622E2E323E12120E0A06061A1B5
:1003200063A3A26266A6A767A56564A46CACAD6D65
:10033000AF6F6EAEAA6A6BAB69A9A86878B8B979D5
:10034000BB7B7ABABE7E7FBF7DBDBC7CB47475B505
:1003500077B7B67672B2B373B17170B050909151F5
:100360009353529296565797559594549C5C5D9D25
:100370005F9F9E5E5A9A9B5B995958988848498915
:100380004B8B8A4A4E8E8F4F8D4D4C8C44848545C5
:10039000874746868242438341818040F29A020128
:1003A000E75304E0D76AD66AF294F28A0001120099
:1003B0000101B25102080AE1B35308E1B45306E166
:1003C000B1B104D0020EB65FB18101D0B191B46970
:1003D000B369B26B0201E76B0001E0DFF29444EF16
:1003E00000F00201E9A10CD001019A3D05D09B3D2E
:1003F00003D0020105D001019A2BD8B49B2B020136
:10040000E9A50CD001019C3D05D09D3D03D0020122
:1004100005D001019C2BD8B49D2B0201E9A90CD079
:1004200001019E3D05D09F3D03D0020105D0010191
:100430009E2BD8B49F2B0201E99381B0E983E9B3E5
:100440003FD00101B1B302D002013AD00001602BCC
:10045000D8B4612B010E6627D8B0672BD8B4682BAF
:10046000D8B4692B0101B1A523D00201E9919BC148
:100470004FF09AC14EF04F50555C08E303E15450E1
:100480004E5C04E24FC055F04EC054F05B504F5CE0
:100490000DE303E14E505A5C09E24E3C03D04F3C61
:1004A00001D004D04FC05BF04EC05AF00101B195AD
:1004B000B1B506D09B6B9A6B0201E9810101B18550
:1004C0000101B1930201E9A303D00101B18302014B
:1004D000E99781B2E987E9B73FD00101B1B702D00E
:1004E00002013AD00001622BD8B4632B010E6A27B7
:1004F000D8B06B2BD8B46C2BD8B46D2B0101B1A93B
:1005000023D00201E9959DC151F09CC150F051509A
:10051000575C08E303E15650505C04E251C057F0C9
:1005200050C056F05D50515C0DE303E150505C5CEF
:1005300009E2503C03D0513C01D004D051C05DF0E1
:1005400050C05CF00101B199B1B906D09D6B9C6BB4
:100550000201E9850101B1890101B1970201E9A711
:1005600003D00101B1870201E99B81B4E98BE9BBAA
:100570003FD00101B1BB02D002013AD00001642B8F
:10058000D8B4652B010E6E27D8B06F2BD8B4702B62
:10059000D8B4712B0101B1AD23D00201E9999FC1FB
:1005A00053F09EC152F05350595C08E303E1585098
:1005B000525C04E253C059F052C058F05F50535C93
:1005C0000DE303E152505E5C09E2523C03D0533C20
:1005D00001D004D053C05FF052C05EF00101B19D64
:1005E000B1BD06D09F6B9E6B0201E9890101B18DFF
:1005F0000101B19B0201E9AB03D00101B18B020102
:10060000BC2BBC510A0804E1BC6B0101AE850201A0
:100610009E92000197EF00F0A4AAFED771CF35F0AB
:1006200074CF01F035A202D07198718819EF03F0F0
:10063000F3D701C0E6F2385200E0A49A44EF00F08C
:100640009EAAFED7ABCF35F0AECF01F035A202D0D7
:10065000AB98AB881200A4A8FED7736E50EF03F0DE
:100660000101B4510201E719E86F036AE851000182
:1006700085DD016E0101B3510118B46F036A0201F7
:10068000E851000103DEE8CFB3F11200D9DF01C069
:10069000E6F2010190A106D00201E6510001DBD78C
:1006A0002DD00101B1B12BD0B25308E1B469B369C7
:1006B000E6C2B5F1B22BB66BB86B17D0B22D04D031
:1006C000E6C2B7F1B22B11D0B25102080EE1B63D2D
:1006D00002D0FE0EB66FB90EB625E96E010EEA6EB7
:1006E000D8B0EA2AE6C2EFFFB62BE6C2E7F2000175
:1006F000B7DF010E0201E76F000150DE01019E9A93
:10070000000144EF00F00201E151E303F3CF01F0F7
:10071000F4CF00F0E403F3500026E251E303F3507A
:100720000020026E00011200C290080E616EF19E60
:10073000000E926EFF0E936E920E946E800E956E6A
:1007400096909692969496960101AB6BAD6B020EC5
:10075000AC6FAE91AE93AE95AF69B0690201C76B55
:10076000C751020856E3036AC7C202F0D8900236A6
:10077000033602504E0FE96E000E0320EA6EEC6A5B
:10078000ED52EF6A036AC7C202F0D8900236033610
:100790000250540FE96E000E0320EA6EEC68ED5231
:1007A000EF68036AC7C202F0D890023603360250DF
:1007B0005A0FE96E000E0320EA6EEC6AED52EF6A02
:1007C000036AC7C202F0D890023603360250600FA7
:1007D000E96E000E0320EA6EEC6AED52EF6AE26BFE
:1007E000C7C2E1F2E46B040EE36F00018CDF01503D
:1007F000660FE96E000E0220EA6EEE52EE52EC6ACF
:10080000ED52EF6AED52EF6AED52EF6A0201C72B2B
:10081000A7D70101846B836B866B856B886B876BB5
:100820008A6B896B8C6B8B6B8E6B8D6B826B8F6B1A
:100830009091926B916B4BC095F14AC094F147C077
:1008400097F146C096F1996B986BF19CF19AF198EB
:10085000000E0509BA6E4A0EBB6E9D82000139EF8B
:1008600010F00201D06BCFC203F0CE51D8B4CF0745
:10087000CE07D16F03C0D2F2D15302E1D25335E09B
:10088000CDC203F0CC51E96E03C0EAFFCB51036E39
:10089000CA51CA2BD8B4CB2BD36F03C0D4F2F2CF3A
:1008A000D5F2F29CF29ED4C2AAFFD3C2A9FFA69CA5
:1008B000A69EA680A850D5BDF28CD5BFF28EEF6E55
:1008C000CDC203F0CC51E96E03C0EAFFEFCFD1F205
:1008D000D0C2E2F2D1C2E3F2E251E319016E01C0EB
:1008E000D0F2CC2BD8B4CD2BBED7D0C201F00001B2
:1008F00023EF05F00201E06BDFC203F0DE51D8B454
:10090000DF07DE07E16F03C0E2F2E15302E1E253E9
:100910003FE0DDC203F0DC51E96E03C0EAFFEFCF38
:10092000E1F2E0C2E2F2E1C2E3F2E251E319016E68
:1009300001C0E0F2DB51036EDA51DA2BD8B4DB2BC5
:10094000E16F03C0E2F2DD51036EDC51DC2BD8B461
:10095000DD2BE96E03C0EAFFEFCFE3F2E2C2AAFFAC
:10096000E1C2A9FFE3C2A8FFA69CA69EA684F250FE
:10097000006EF29CF29E0F01550EA76EAA0EA76E96
:10098000A682A6B2FED7A6940050F2120201B4D7F6
:10099000E0C201F00001DDEF04F00201D96B360E78
:1009A000D86FDB6B020EDA6FD9C2DDF2D8C2DCF28F
:1009B000DF6B180EDE6F00019DD701C0D7F2AA6A67
:1009C000A96AD7C2A8FFA69CA69EA684F250006E74
:1009D000F29CF29E0F01550EA76EAA0EA76EA6827C
:1009E000A6B2FED7A6940050F21200011200960E95
:1009F0000101AB6F260E366E010E386E500E396E49
:100A0000260E3B6E940E3A6E3D6A140E3C6E3E6AA4
:100A1000020E406E760E3F6E426A020E416E436ACF
:100A20000001BBDF12000201C96B360EC86FCB6B31
:100A3000020ECA6FC9C2CDF2C8C2CCF2CF6B180E7B
:100A4000CE6F00010ED701C0C7F2F2CFC8F2F29C00
:100A5000F29EAA6AA96AA69CA69EA680A850020138
:100A6000C8BDF28CC8BFF28EC75D03E00001BFDFD6
:100A7000020100013DEF10F09EAA02D0E1DDFCD79B
:100A80009D8A1200F9DFC60ED56EC00EF21246EF37
:100A900010F08B968B8A8C940201CA5303E1030EEB
:100AA000CE6F25D0CA2D03D0130ECE6F20D0CA51E1
:100AB000020803E10B0ECE6F1AD0CA51030803E1FE
:100AC0001B0ECE6F14D0CA51040803E1070ECE6F7F
:100AD0000ED0CA51050803E1170ECE6F08D0CA51D7
:100AE000060803E10F0ECE6F02D01F0ECE6FCD6B46
:100AF000CD5104080BE38B96CEB102D08B9A01D076
:100B00008B8AD890CE338B86CD2BF2D7CC6BCB6B28
:100B1000CD6BCD510D080BE38B9682B802D0D890E7
:100B200001D0D880CB37CC378B86CD2BF2D7CC9B5E
:100B3000CC998C84CBC201F0CCC202F00001D7EF7B
:100B400005F00101822B82510F0801E2826B020144
:100B5000C76BC751070846E3E26BC7C2E1F2E46B1B
:100B6000200EE36F0001CFDD02C003F00150340F0F
:100B70000201C86F000E0220C96F036A010182C121
:100B800002F0D8900236033602500201C825016EE9
:100B9000C951032201504E0F016E000E032201C005
:100BA000C8F203C0C9F2C7C2CAF2000172D7C9C2F3
:100BB000EAFFC8C2E9FF02C0ECFFED5201C0EFFF3F
:100BC000036A0201C7C202F0D8900236033602500F
:100BD000720FE96E000E0320EA6EEC6AED52EF6AC6
:100BE000C72BB7D7000112000201E26BDBC2E1F2B2
:100BF000E46B200EE36F000186DD02C003F00150BC
:100C0000820F016E000E032201C0DFF2020103C059
:100C1000E0F2DD6BDC6BDE6BDE510F0811E3D89088
:100C2000DE35036ADF25E96EE0510320EA6EECCF82
:100C300003F0ED52EF50DC270350DD23DE2BECD721
:100C4000080EDC25E16F000EDD21E26FE231036E5C
:100C5000E131026E033202320332023203320232D7
:100C60000F0E031602C001F003C002F000011200D3
:100C70000101AE95D8900201C235C76FC335C86F68
:100C8000000E0101B0AB010E0201C713C7C2C2F2D0
:100C9000C851E009C36FC25303E1C351F00800E13A
:100CA00001019A3D04D09B3D02D04F6A4E6A9C3DA3
:100CB00004D09D3D02D0516A506A9E3D04D09F3DB4
:100CC00002D0536A526A81CFAFF182CFB0F190A1C6
:100CD00002D0898606D0AB5302E1899602D089867C
:100CE000AB078D3D03D08E3D01D003D08D2BD8B402
:100CF0008E2B0201C02BD8B4C12BC051E80842E1B1
:100D0000C15103083FE1C16BC06B0101913D03D0AC
:100D1000923D01D003D0912BD8B4922B3F5202E1E7
:100D200040520FE04050925D0CE303E191513F5C73
:100D300008E2AC5306E1AD5304E142C0ADF141C05D
:100D4000ACF1AC5304E1AD5302E18B800BD08B903E
:100D5000AC51D8B4AD07AC07AC5304E1AD5302E1DC
:100D6000926B916B0201BD2BBD513C080BE1BD6B39
:100D700001018B3D03D08C3D01D003D08B2BD8B427
:100D80008C2B0201C43D09D0C53D07D0DB6B0001AF
:100D90002BDF02C0C5F201C0C4F20101AEA304D032
:100DA000AE930201BF6BBE6B0201BE2BD8B4BF2B4A
:100DB0003C50BE5D0AE13D50BF5D07E1BF6BBE6BBD
:100DC0000101AE810201C569C46900015AEF10F04A
:100DD0000101B1B104D0000E016E0AD006D0B7AF48
:100DE00004D0B9C1B8F1010EB66FB191010E016E18
:100DF0000001C5EF0EF00201CF511F080CE1D051E8
:100E00004E0809E1D151200806E1D2514E0803E114
:100E1000010E016E2ED0D05102080FE2FF0A03E14D
:100E2000CF51E7080AE2D251030807E303E1D151A9
:100E3000F50803E3010E016E1CD0D05106080FE245
:100E4000FF0A03E1CF51CF080AE2D251090807E3B4
:100E500003E1D151D10803E3010E016E0AD0D25350
:100E600006E1D151340803E3010E016E02D0000EF9
:100E7000016E00010BEF0FF09EA8FED7AD6E45EF9F
:100E800007F00201D9510001F7D7196AF2BC198C99
:100E9000F29CF2BE198EF29ED9C2E7F230EC03F05A
:100EA00019BCF28C19BEF28E0400080E006E002EE2
:100EB000FED7000012000101B469B369B1919D9A97
:100EC00004001E0E006E002EFED70000D7C2D9F21D
:100ED0000001D7DFD8C2D9F2D4DF1200ACA2FED70E
:100EE0007DEF07F0B4C1D8F2B3C1D7F2D8C2D9F2BE
:100EF000C8DFD7C2D9F2C5DFF1D704001E0E006EDD
:100F0000002EFED70000B8DD0101B469B36900010D
:100F100012000201CE518009D16FCFC2D2F2CDC2F0
:100F2000D7F2D86F0001C7DFD0C2D9F2AADFDADF6B
:100F30001200F29CF29EF2BEFDD70201E26BDBC210
:100F4000E1F2E46B040EE36F000183EC03F002C0F6
:100F500003F00150660FE96E000E0220EA6EEFCF3B
:100F600000F0ECCF01F0ECCF02F0ECCF03F003C0C7
:100F7000DFF202C0DEF201C0DDF200C0DCF2C00E22
:100F8000F212DCC200F0DDC201F0DEC202F0DFC20C
:100F900003F01200F29CF29EF2BEFDD7616B606B13
:100FA000636B626B656B646B556854685768566811
:100FB000596858685B6A5A6A5D6A5C6A5F6A5E6A09
:100FC00001018E6B8D6BC00EF21200016FEF0CF001
:100FD000F29CF29EF2BEFDD7696B686B676B666B25
:100FE0006D6B6C6B6B6B6A6B716B706B6F6B6E6B3D
:100FF000C00EF21277EF0CF00101846B836B866BED
:10100000856B886B876B000197EF0CF00201DA515A
:1010100006082AE2FF0A03E1D951CF0825E2DA5196
:10102000090822E303E1D951CF081EE3D00ED95DB0
:10103000DB6F070EDA59DC6F020EDC27F2CFDDF230
:10104000F29CF29EDCC2AAFFDBC2A9FFA69CA69E70
:10105000A680A850DDBDF28CDDBFF28E036A016E62
:101060000350026E00EF0DF0D951006EDA51036E9D
:10107000035005E100520001D8B40FD20201035021
:1010800006E1010E005C0001D8B40ED2020103504B
:1010900006E1020E005C0001D8B40DD2020103503B
:1010A00006E1030E005C0001D8B40CD2020103502B
:1010B00006E1040E005C0001D8B40BD2020103501B
:1010C00006E1050E005C0001D8B416D202010350FF
:1010D00006E1060E005C0001D8B415D202010350EF
:1010E00006E1070E005C0001D8B414D202010350DF
:1010F00006E1080E005C0001D8B413D202010350CF
:1011000006E1090E005C0001D8B412D202010350BE
:1011100006E10A0E005C0001D8B411D202010350AE
:1011200006E10B0E005C0001D8B41DD20201035091
:1011300006E10C0E005C0001D8B41CD20201035081
:1011400006E10D0E005C0001D8B41BD20201035071
:1011500006E10E0E005C0001D8B41AD20201035061
:1011600006E10F0E005C0001D8B419D20201035051
:1011700006E1100E005C0001D8B418D20201035041
:1011800006E1110E005C0001D8B424D20201035024
:1011900006E1120E005C0001D8B423D20201035014
:1011A00006E1130E005C0001D8B432D202010350F4
:1011B00006E1140E005C0001D8B436D202010350DF
:1011C00006E1150E005C0001D8B435D202010350CF
:1011D00006E1160E005C0001D8B444D202010350AF
:1011E00006E1170E005C0001D8B449D20201035099
:1011F00006E1180E005C0001D8B448D20201035089
:1012000006E1190E005C0001D8B457D20201035068
:1012100006E11A0E005C0001D8B45CD20201035052
:1012200006E11B0E005C0001D8B45BD20201035042
:1012300006E11C0E005C0001D8B46AD20201035022
:1012400006E11D0E005C0001D8B46FD2020103500C
:1012500006E11E0E005C0001D8B46ED202010350FC
:1012600006E11F0E005C0001D8B47DD202010350DC
:1012700006E1200E005C0001D8B482D202010350C6
:1012800006E1210E005C0001D8B481D202010350B6
:1012900006E1220E005C0001D8B490D20201035096
:1012A00006E1230E005C0001D8B495D20201035080
:1012B00006E1240E005C0001D8B494D20201035070
:1012C00006E1250E005C0001D8B4A3D20201035050
:1012D00006E1260E005C0001D8B4A8D2020103503A
:1012E00006E1270E005C0001D8B4A7D2020103502A
:1012F00006E1280E005C0001D8B4B6D2020103500A
:1013000006E1290E005C0001D8B4BBD202010350F3
:1013100006E12A0E005C0001D8B4BAD202010350E3
:1013200006E12B0E005C0001D8B4BFD202010350CD
:1013300006E12C0E005C0001D8B4BFD202010350BC
:1013400006E12D0E005C0001D8B4BFD202010350AB
:1013500006E12E0E005C0001D8B4BFD2020103509A
:1013600006E12F0E005C0001D8B4BFD20201035089
:1013700006E1300E005C0001D8B4BFD20201035078
:1013800006E1310E005C0001D8B4BFD20201035067
:1013900006E1320E005C0001D8B4BFD20201035056
:1013A00006E1330E005C0001D8B4BFD20201030E87
:1013B000035C06E1E80E005C0001D8B4BED2020175
:1013C000030E035C06E1E90E005C0001D8B4BDD257
:1013D0000201030E035C06E1EA0E005C0001D8B4D2
:1013E000BBD20201030E035C06E1EB0E005C0001C0
:1013F000D8B4B9D20201030E035C06E1EC0E005C26
:101400000001D8B4B7D20201030E035C06E1ED0E71
:10141000005C0001D8B4B5D20201030E035C06E102
:10142000EE0E005C0001D8B4B3D20201030E035CDF
:1014300006E1EF0E005C0001D8B4B2D20201030E47
:10144000035C06E1F00E005C0001D8B4B0D20201EA
:10145000030E035C06E1F10E005C0001D8B4AFD2CC
:101460000201030E035C06E1F20E005C0001D8B439
:10147000ADD20201030E035C06E1F30E005C000135
:10148000D8B4ABD20201030E035C06E1F40E005C9B
:101490000001D8B4AAD20201AFD260C001F061C08D
:1014A00002F00201ADD200014E50016E4F50026EAB
:1014B0000201A6D200015450016E5550026E020185
:1014C0009FD200015A50016E5B50026E020198D209
:1014D00000010201DB6B00012CDD03C0BBF202C086
:1014E000BAF201C0B9F200C0B8F20201B851016EFF
:1014F000B951026E85D200010201BA51016EBB5191
:10150000026E7ED200016251016E6351026E0201D1
:1015100077D200015050016E5150026E020170D21C
:1015200000015650016E5750026E020169D200014F
:101530005C50016E5D50026E020162D20001010E2C
:101540000201DB6F0001F5DC03C0BBF202C0BAF29E
:1015500001C0B9F200C0B8F20201B851016EB95130
:10156000026E4ED200010201BA51016EBB51026EF1
:1015700047D200016451016E6551026E020140D2F2
:1015800000015250016E5350026E020139D2000127
:101590005850016E5950026E020132D200015E5065
:1015A000016E5F50026E02012BD20001020E020199
:1015B000DB6F0001BEDC03C0BBF202C0BAF201C0A7
:1015C000B9F200C0B8F20201B851016EB951026E11
:1015D00017D200010201BA51016EBB51026E10D246
:1015E0000001036A01018251026ED890023603366F
:1015F0000250820FE96E000E0320EA6EECCF03F07A
:10160000ED52EF50016E0350026E0201F9D100015C
:101610000201DB6B0001F4EC05F00150016E025099
:10162000026E0201EDD100017251016E7351026E22
:101630000201E6D10001036A01018251026ED890D5
:10164000023603360250A20FE96E000E0320EA6E46
:10165000ECCF03F0ED52EF50016E0350026E020129
:10166000CFD10001010E0201DB6F0001F4EC05F0A7
:101670000150016E0250026E0201C2D1000174518C
:10168000016E7551026E0201BBD10001036A0101B6
:101690008251026ED890023603360250C20FE96EB4
:1016A000000E0320EA6EECCF03F0ED52EF50016E16
:1016B0000350026E0201A4D10001020E0201DB6F91
:1016C0000001F4EC05F00150016E0250026E0201BF
:1016D00097D100017651016E7751026E020190D1CF
:1016E0000001036A01018251026ED890023603366E
:1016F0000250E20FE96E000E0320EA6EECCF03F019
:10170000ED52EF50016E0350026E020179D10001DB
:10171000030E0201DB6F0001F4EC05F00150016ED5
:101720000250026E02016CD100017851016E7951B4
:10173000026E020165D10001036A01018251026E4D
:10174000D890023603360250020FE96E010E0320D4
:10175000EA6EECCF03F0ED52EF50016E0350026ED3
:1017600002014ED10001040E0201DB6F0001F4EC16
:1017700005F00150016E0250026E020141D10001DC
:101780007A51016E7B51026E02013AD10001036A67
:1017900001018251026ED890023603360250220FA8
:1017A000E96E010E0320EA6EECCF03F0ED52EF502C
:1017B000016E0350026E020123D10001050E0201E9
:1017C000DB6F0001F4EC05F00150016E0250026E77
:1017D000020116D100017C51016E7D51026E0201A1
:1017E0000FD10001036A01018251026ED8900236C6
:1017F00003360250420FE96E010E0320EA6EECCF71
:1018000003F0ED52EF50016E0350026E0201F8D06A
:101810000001060E0201DB6F0001F4EC05F001503F
:10182000016E0250026E0201EBD000017E51016E8A
:101830007F51026E0201E4D00001036A010182516E
:10184000026ED890023603360250620FE96E010E26
:101850000320EA6EECCF03F0ED52EF50016E03501F
:10186000026E0201CDD00001070E0201DB6F000104
:10187000F4EC05F00150016E0250026E0201C0D07E
:1018800000018051016E8151026E0201B9D0000148
:1018900001018A51036E8951892BD8B48A2B016EBC
:1018A0000350026E0201ACD0000101018D51016EA6
:1018B0008E51026E0201A4D0000101018B51016E14
:1018C0008C51026E02019CD0000101019151016E08
:1018D0009251026E020194D00001CAEF07F0000E8F
:1018E000016E026E02018CD00001E8EF07F0000EDD
:1018F000016E026E020184D0000101018351016E6C
:101900008451026E02017CD0000101018551016EFB
:101910008651026E020174D0000101018751016EEF
:101920008851026E02016CD00001FCEF07F0000E3E
:10193000016E026E020164D00001036A3950016E2B
:101940000350026E02015CD000013A50016E3B5020
:10195000026E020155D00001500E016E000E026EA3
:1019600002014ED00001570E016E000E026E020100
:1019700047D00001580E016E000E026E020140D0E9
:101980000001010E016E000E026E020139D000014D
:10199000036A3650016E0350026E020131D000011D
:1019A0003C50016E3D50026E02012AD00001036AD4
:1019B0003E50016E0350026E020122D000013F50E2
:1019C000016E4050026E02011BD000014150016EB9
:1019D0004250026E020114D00001036A4350016EAE
:1019E0000350026E02010CD00001036A3850016EF0
:1019F0000350026E020104D0FF0E016E026E00D091
:101A000000012AEF0DF0CEC2D7F2CDC2D8F25BECC6
:101A100007F0D8900201D135D76FD235D86FD7C231
:101A2000D9F2000141EC07F00201D46BD36BD45121
:101A3000D25D25E303E1D151D35D21E2D351CF251E
:101A4000D76FD451D021D86FDA6FD7C2D9F2000145
:101A500006EF08F002C0D6F201C0D5F2D6C2D7F226
:101A6000D6C2D9F241EC07F0D5C2D7F2D5C2D9F22D
:101A700041EC07F00201D32BD8B4D42BD8D7000106
:101A800072EC07F02CEF0FF00201D45106083BE294
:101A9000FF0A03E1D351CF0836E2D451090833E3FA
:101AA00003E1D351CF082FE3D651000808E2FF0A23
:101AB00003E1D551000803E2030E016E1AD1D00EE6
:101AC000D35DD76F070ED459D86F020ED827D8C26E
:101AD000AAFFD7C2A9FFD5C2A8FFA69CA69EA6842E
:101AE000F250006EF29CF29E0F01550EA76EAA0EE8
:101AF000A76EA682A6B2FED7A6940050F212000EE0
:101B0000016E0201F6D001018F531BE00201D35197
:101B1000E80809E1D451030806E1D5C239F0000E06
:101B2000016EE7D00DD0D351E9080AE1D451030882
:101B300007E1D6C23BF0D5C23AF0000E016ED9D013
:101B400001010201D351006ED451036E030E035CF8
:101B500005E1EE0E005C00014EE00201030E035CA5
:101B600005E1EF0E005C000152E00201030E035C90
:101B700005E1F00E005C000152E00201030E035C7F
:101B800005E1F10E005C000156E00201030E035C6A
:101B900005E1F20E005C000154E00201030E035C5B
:101BA00005E1F30E005C000159E00201030E035C45
:101BB00006E1F40E005C0001D8B45CD00201070E0F
:101BC000035C06E1CE0E005C0001D8B45FD00201D8
:101BD000070E035C06E1CF0E005C0001D8B463D0B1
:101BE00002014E0E035C06E11F0E005C0001D8B43A
:101BF00067D0020179D00201D65303E1D5518008A4
:101C000003E2030E016E75D0D5C236F070D001012B
:101C1000AE83D6C23DF0D5C23CF0020168D00201CD
:101C2000D65303E1D551010803E2030E016E61D0E2
:101C3000D5C23EF05CD0D6C240F0D5C23FF0020122
:101C400056D00201D55305E1D65303E1030E016ED0
:101C500050D0D6C242F0D5C241F049D00201D6538D
:101C600003E1D551010803E2030E016E42D0D5C253
:101C700043F03DD00201D65303E1D551010803E200
:101C8000030E016E36D0D5C238F031D00201D52D09
:101C900002D0D65303E0030E016E2BD00001F7EC07
:101CA00004F0020124D00201D52D02D0D65303E066
:101CB000030E016E1ED00001CDEC04F0020117D01E
:101CC0000201D5510A0803E1D651070806E00101D7
:101CD0008F6B030E016E02010CD0010E01018F6F9C
:101CE000C80EAB6F020103D0020E016E02D0000ECF
:101CF000016E00011200CFC2D7F2060E0201D86FAA
:101D000000015BEC07F0D1C2D4F2D1C2D9F241ECB0
:101D100007F0D0C2D4F2D0C2D9F241EC07F0D3C25E
:101D2000D4F2D3C2D9F241EC07F0D2C2D4F2D2C27B
:101D3000D9F241EC07F072EC07F065EF0FF0CDC27D
:101D4000D7F2100E0201D86F00015BEC07F0CFC292
:101D5000D2F2CFC2D9F241EC07F0CEC2D2F2CEC25B
:101D6000D9F241EC07F0D1C2D2F2D1C2D9F241ECA2
:101D700007F0D0C2D2F2D0C2D9F241EC07F072EC37
:101D800007F0C6EF0FF0E8EF06F00152D8B41DD10E
:101D9000382C08D036500101B55DD8A402D000011E
:101DA00001D000013650800806E036500101B55DD3
:101DB000D8A401D100010101833D03D0843D01D0AD
:101DC00003D0832BD8B4842B140EAB6FB751030A06
:101DD000000108E0070A06E0020A40E0160AD8B44B
:101DE00076D0D6D0B9C1C8F2BAC1C7F2BBC1CAF267
:101DF000BCC1C9F20201C951C725CD6FCA51C82162
:101E0000CE6FC8C2D0F2C7C2CFF2D26FCDC2D1F26C
:101E10000001FBEF06F0015212E1B5C1CDF2020163
:101E2000CF6BB7C1CEF2020ED06F000189EC07F084
:101E30000101886B020E876FAB6B0FD00001B7C139
:101E4000CDF2B5C1CEF2C8C2D0F2C7C2CFF2CAC27B
:101E5000D2F2C9C2D1F2D7D50101AAD0B9C1C8F214
:101E6000BAC1C7F2BBC1CEF2BCC1CDF2C8C2D4F276
:101E7000C7C2D3F2BBC1D6F2BCC1D5F205DE01C0E8
:101E8000CBF20201CB5311E0B5C1CDF2CF6BB7C19C
:101E9000CEF2CBC2D0F2000189EC07F00101886BD1
:101EA000CBC287F1AB6B12D00201BBC1CEF2BCC179
:101EB000CDF2B5C1CFF2C8C2D1F2C7C2D0F2BBC118
:101EC000D3F2BCC1D2F2000116D7010171D0B9C161
:101ED000C8F2BAC1C7F2BBC1CAF2BCC1C9F20201A1
:101EE000CC6BCA5303E1C951CC5D42E2CC51C7254A
:101EF000CD6F000EC821CE6FD890CC35050FB90F2D
:101F0000E96E010EEA6ED8B0EA2AEFCFCFF2D89090
:101F1000CC35060FB90FE96E010EEA6ED8B0EA2A89
:101F2000EFCFD0F2CFC2D2F2D0C2D1F2CEC2D4F231
:101F3000CDC2D3F2CFC2D6F2D0C2D5F20001A4DD19
:101F400001C0CBF20201CB5311E0B5C1CDF2CF6B92
:101F5000B7C1CEF2CBC2D0F2000189EC07F001018B
:101F6000886BCBC287F1AB6B020102D0CC2BB9D707
:101F7000CB530CE1B5C1CDF2C8C2CFF2C7C2CEF28D
:101F8000CAC2D1F2C9C2D0F20001D9D6010110D023
:101F9000B5C1CDF20201CF6BB7C1CEF2010ED06F49
:101FA000000189EC07F00101886B010E876FAB6BB4
:101FB000926B916B0AD0853D03D0863D01D003D052
:101FC000852BD8B4862B140EAB6F000163EF10F095
:101FD000F86AF1949F829F9AA59AD08E078EEA6A3A
:101FE000E96A356AB8960C0EAF6EA60EAC6E900E0E
:101FF000AB6E70964D0E756EA60E726E900E716E73
:102000000101B191B26B0201BC6B0101B193B195B9
:10201000B197B199B19BB19D0201BD6BBF6BBE6B16
:10202000C16BC06BC36BC26BC150F00BC16E000EB5
:102030000F01386F3C6F396F3A6F3B6F0101886B4E
:10204000776A786A796A2F6A306A0201B86BB96B6D
:10205000BA6BBB6BC46BC56BD0500F0BD0A8000E16
:10206000D080D082D088D886D888C66F000194EFFF
:1020700003F08C828C8013EF05F03650800802E26A
:10208000F7EC04F0AB8EAB8842EF05F00201C66BB3
:10209000C6511D0806E30001A1EC05F00201C62BA4
:1020A000F7D743C093F104000101AEA504D00001AD
:1020B00038EF06F00101AEA104D0AE910001A1EC11
:0C20C00005F0000160D60201EED703001D
:020000040030CA
:0E00000000231E3F003F81000FC00FE00F40A5
:00000001FF
;PIC18F46K22
;CRC=8F75  CREATED="02-Nov-15 06:38"
