:04000000A7EF14F062
:080008006BEF00F000000000A6
:100010000000000000000000046ED8CF05F0E0CF23
:1000200006F00001E9CF0CF0EACF07F0E1CF08F0CD
:10003000E2CF09F0D9CF0AF0DACF0BF0F3CF12F00C
:10004000F4CF13F0FACF14F0F5CF15F0F6CF16F089
:10005000F7CF17F000C00EF001C00FF002C010F093
:1000600003C011F0F2AA38EF00F0F2B408EF02F08A
:100070009DAA3EEF00F09EBAB0EF03F0A3AA44EFB2
:1000800000F0A4BA4FEF03F00EC000F00FC001F073
:1000900010C002F011C003F00CC0E9FF07C0EAFF76
:1000A000078E08C0E1FF09C0E2FF0AC0D9FF0BC0FC
:1000B000DAFF12C0F3FF13C0F4FF14C0FAFF15C03B
:1000C000F5FF16C0F6FF17C0F7FF045006C0E0FFAB
:1000D00005C0D8FF10001A6ED8CF1BF0E0CF1CF07F
:1000E0000001E9CF22F0EACF1DF0E1CF1EF0E2CF10
:1000F0001FF0D9CF20F0DACF21F0F3CF28F0F4CFE2
:1001000029F0FACF2AF0F5CF2BF0F6CF2CF0F7CF6D
:100110002DF000C024F001C025F002C026F003C07D
:1001200027F09DA297EF00F09EB221EF02F024C0CD
:1001300000F025C001F026C002F027C003F022C065
:10014000E9FF1DC0EAFF1D8E1EC0E1FF1FC0E2FFD8
:1001500020C0D9FF21C0DAFF28C0F3FF29C0F4FF77
:100160002AC0FAFF2BC0F5FF2CC0F6FF2DC0F7FF09
:100170001A501CC0E0FF1BC0D8FF1000F76A8C0F9C
:10018000F66E010EF7220900F55012002447505276
:100190004D430000F76AA40FF66E010EF722090026
:1001A000F55012002447504747410000F76ABC0F42
:1001B000F66E010EF7220900F55012002447504751
:1001C00053560000F76AD40FF66E010EF7220900AD
:1001D000F55012002457494D44410000F76AEC0FD6
:1001E000F66E010EF7220900F550120000C18140A1
:1001F00001C0804101C0804100C1814001C08041F7
:1002000000C1814000C1814001C0804101C08041E6
:1002100000C1814000C1814001C0804100C18140D6
:1002200001C0804101C0804100C1814001C08041C6
:1002300000C1814000C1814001C0804100C18140B6
:1002400001C0804101C0804100C1814000C18140A6
:1002500001C0804101C0804100C1814001C0804196
:1002600000C1814000C1814001C0804101C0804186
:1002700000C1814000C1814001C0804100C1814076
:1002800001C0804101C0804100C1814000C1814066
:1002900001C0804101C0804100C1814001C0804156
:1002A00000C1814000C1814001C0804100C1814046
:1002B00001C0804101C0804100C1814001C0804136
:1002C00000C1814000C1814001C0804101C0804126
:1002D00000C1814000C1814001C0804100C1814016
:1002E00001C0804101C0804100C18140F76AFC0F1C
:1002F000F66E020EF7220900F550120000C0C1018F
:10030000C30302C2C60607C705C5C404CC0C0DCD85
:100310000FCFCE0E0ACACB0BC90908C8D81819D9F5
:100320001BDBDA1A1EDEDF1FDD1D1CDC14D4D51525
:10033000D71716D6D21213D311D1D010F03031F115
:1003400033F3F23236F6F737F53534F43CFCFD3D45
:10035000FF3F3EFEFA3A3BFB39F9F83828E8E92935
:10036000EB2B2AEAEE2E2FEF2DEDEC2CE42425E5E5
:1003700027E7E62622E2E323E12120E0A06061A155
:1003800063A3A26266A6A767A56564A46CACAD6D05
:10039000AF6F6EAEAA6A6BAB69A9A86878B8B97975
:1003A000BB7B7ABABE7E7FBF7DBDBC7CB47475B5A5
:1003B00077B7B67672B2B373B17170B05090915195
:1003C0009353529296565797559594549C5C5D9DC5
:1003D0005F9F9E5E5A9A9B5B9959589888484989B5
:1003E0004B8B8A4A4E8E8F4F8D4D4C8C4484854565
:1003F000874746868242438341818040F29A0801C2
:10040000E55304E0D76AD66AF294F28A000112003A
:100410000601C05102080AE1C15308E1C25306E1D6
:10042000BFB104D0020EC45FBF8101D0BF91C269C9
:10043000C169C06B0801E56B0001E0DFF29444EF95
:1004400000F00801E7A10CD00101E53D05D0E63D33
:1004500003D0080105D00101E52BD8B4E62B080133
:10046000E7A50CD00101E73D05D0E83D03D0080128
:1004700005D00101E72BD8B4E82B0801E7A90CD07F
:100480000101E93D05D0EA3D03D0080105D0010195
:10049000E92BD8B4EA2B0801E79381B0E783E7B3EF
:1004A00041D00601BFB302D008013CD00001A82B07
:1004B000D8B4A92B010EAE27D8B0AF2BD8B4B02B2F
:1004C000D8B4B12B0601BFA524D00801E791E6C13D
:1004D00097F0E5C196F0000197519D5D08E303E1B7
:1004E0009C51965D04E297C09DF096C09CF0A3518C
:1004F000975D0DE303E19651A25D09E2963D03D0BD
:10050000973D01D004D097C0A3F096C0A2F0060199
:10051000BF95BFB507D00101E66BE56B0801E78128
:100520000601BF850601BF930801E7A303D00601BA
:10053000BF830801E79781B2E787E7B741D006019B
:10054000BFB702D008013CD00001AA2BD8B4AB2B16
:10055000010EB227D8B0B32BD8B4B42BD8B4B52B76
:100560000601BFA924D00801E795E8C199F0E7C1C9
:1005700098F0000199519F5D08E303E19E51985D59
:1005800004E299C09FF098C09EF0A551995D0DE3DB
:1005900003E19851A45D09E2983D03D0993D01D053
:1005A00004D099C0A5F098C0A4F00601BF99BFB9C6
:1005B00007D00101E86BE76B0801E7850601BF89F9
:1005C0000601BF970801E7A703D00601BF8708010E
:1005D000E79B81B4E78BE7BB41D00601BFBB02D0EC
:1005E00008013CD00001AC2BD8B4AD2B010EB627CE
:1005F000D8B0B72BD8B4B82BD8B4B92B0601BFAD3F
:1006000024D00801E799EAC19BF0E9C19AF0000102
:100610009B51A15D08E303E1A0519A5D04E29BC0F8
:10062000A1F09AC0A0F0A7519B5D0DE303E19A51A0
:10063000A65D09E29A3D03D09B3D01D004D09BC04A
:10064000A7F09AC0A6F00601BF9DBFBD07D001016B
:10065000EA6BE96B0801E7890601BF8D0601BF9BC4
:100660000801E7AB03D00601BF8B08010701CA2BC5
:10067000CA510A0804E1CA6B0101F98507019E927B
:10068000000197EF00F0A4AAFED771CF35F074CF28
:1006900001F035A202D07198718850EF03F0F3D7C2
:1006A00001C0E4F80101E32BD8B4E42B382C11D0BD
:1006B0000201FE6BFD3D01D00AD0FD0EFD25E96E65
:1006C000010EEA6ED8B0EA2AE4C8EFFFFD2B22D073
:1006D0000101385002081FE10801E4510A0803E053
:1006E000E4510D0808E10201FD5303E0140EFE6F12
:1006F00000D010D008010201FE6BFD3D01D00AD0F0
:10070000FD0EFD25E96E010EEA6ED8B0EA2AE4C8B6
:10071000EFFFFD2B0101A49A000144EF00F09EAA17
:10072000FED7ABCF35F0AECF01F035A202D0AB98FB
:10073000AB8812000601C2510801E519E66F036A91
:10074000E65100014BDD016E0601C1510118C26F77
:10075000036A0801E6510001C9DDE8CFC1F61200C5
:10076000DEDF01C0E4F80101E12BD8B4E22B060181
:10077000BFB12BD0C05308E1C269C169E4C8C3F658
:10078000C02BC46BC66B17D0C02D04D0E4C8C5F60F
:10079000C02B11D0C05102080EE1C43D02D0FE0EA4
:1007A000C46FC70EC425E96E060EEA6ED8B0EA2AF9
:1007B000E4C8EFFFC42BE4C8E5F80001BBDF010E7D
:1007C0000801E56F00011ADE06019E9A000144EF60
:1007D00000F02320706377782025730D0A003233F0
:1007E0002D4E6F762D313500232072657374617242
:1007F000745F636175736528293D25752000574432
:10080000545F54494D454F5554004D434C525F463B
:10081000524F4D5F534C454550004D434C525F463F
:10082000524F4D5F52554E004E4F524D414C5F500E
:100830004F5745525F55500042524F574E4F5554F7
:100840005F5245535441525400005744545F46523E
:100850004F4D5F534C454550000052455345545F42
:10086000494E535452554354494F4E00756E6B6E6A
:100870006F776E2100000D0A0000232070637778E7
:100880002025730D0A0032332D4E6F762D31350041
:100890000801D951DB03F3CF01F0F4CF00F0DC0302
:1008A000F3500026DA51DB03F3500020026E000102
:1008B0001200016603D0026602D007D0022A00C0EF
:1008C000EEFF012EFCD7022EFAD71200C290080EBE
:1008D000616EF19E000E926EFF0E936E920E946EFC
:1008E000800E956E96909692969496960101F66B70
:1008F000F86B020EF76FF991F993F995FA69FB69B4
:100900000201FD6BFE690101FC910701D56BD55118
:10091000020857E3036AD5C702F0D89002360336BF
:100920000250960FE96E000E0320EA6EEC6AED525B
:10093000EF6A036AD5C702F0D89002360336025038
:100940009C0FE96E000E0320EA6EEC68ED52EF6832
:10095000036AD5C702F0D890023603360250A20FC0
:10096000E96E000E0320EA6EEC6AED52EF6A036A4C
:10097000D5C702F0D890023603360250A80FE96EB0
:10098000000E0320EA6EEC6AED52EF6A0801DA6BA2
:10099000D5C7D9F8DC6B040EDB6F000179DF01509D
:1009A000AE0FE96E000E0220EA6EEE52EE52EC6AD5
:1009B000ED52EF6AED52EF6AED52EF6A0701D52B67
:1009C000A6D70101CC6BCB6BCE6BCD6BD06BCF6B55
:1009D000D26BD16BD46BD36BD66BD56BCA6BD76B29
:1009E000D96BD86BE26BE16BE46BE36B020EEA6EE2
:1009F000E968006A030E026EC00E016E000159DF45
:100A00004BC0DCF14AC0DBF147C0DEF146C0DDF18E
:100A10000101E06BDF6B000E0509BA6E4A0EBB6E7A
:100A20009D82A38A0001F8EF14F00900F6CFD6F7F3
:100A3000F7CFD7F7F550A4A8FED7736ED6C7F6FF49
:100A4000D7C7F7FF0701D52F01D002D00001EDD79E
:100A5000000112000900F5520DE0F6CFD5F7F7CFEF
:100A6000D6F7F550A4A8FED7736ED5C7F6FFD6C744
:100A7000F7FFF0D712000701EE51016AED5D03E2C6
:100A8000EDC700F00CD0006A080EEF6FED370036AE
:100A9000EE51005CD8B0006E0136EF2FF7D70001A1
:100AA00012000150D5C7EDF7640E0701EE6F00018B
:100AB000E2DF00C0D5F70150300E08E10701D6A3F0
:100AC0000ED0D6B70CD0D6B9200E04D00701D697D9
:100AD000D699D68101260150A4A8FED7736ED5C73A
:100AE000EDF70A0EEE6F0001C6DF00C0D5F701502A
:100AF000300E08E10701D6B70BD0D6A109D0D6B980
:100B0000200E000101260150A4A8FED7736E070134
:100B1000300ED527D551A4A8FED7736E000124EF5F
:100B200015F00701DE6BDDC703F0DC51D8B4DD073B
:100B3000DC07DF6F03C0E0F7DF5302E1E05335E08D
:100B4000DBC703F0DA51E96E03C0EAFFD951036E47
:100B5000D851D82BD8B4D92BE16F03C0E2F7F2CF2C
:100B6000E3F7F29CF29EE2C7AAFFE1C7A9FFA69CA9
:100B7000A69EA680A850E3BDF28CE3BFF28EEF6E76
:100B8000DBC703F0DA51E96E03C0EAFFEFCFDFF70E
:100B9000DEC7F2F7DFC7F3F7F251F319016E01C0B8
:100BA000DEF7DA2BD8B4DB2BBED7DEC701F00001AD
:100BB000BBEF06F00701F06BEFC703F0EE51D8B4BE
:100BC000EF07EE07F16F03C0F2F7F15302E1F253C2
:100BD0003FE0EDC703F0EC51E96E03C0EAFFEFCF51
:100BE000F1F7F0C7F2F7F1C7F3F7F251F319016E1D
:100BF00001C0F0F7EB51036EEA51EA2BD8B4EB2BAE
:100C0000F16F03C0F2F7ED51036EEC51EC2BD8B449
:100C1000ED2BE96E03C0EAFFEFCFF3F7F2C7AAFFAF
:100C2000F1C7A9FFF3C7A8FFA69CA69EA684F25011
:100C3000006EF29CF29E0F01550EA76EAA0EA76ED3
:100C4000A682A6B2FED7A6940050F2120701B4D72E
:100C5000F0C701F000013DEF06F00701E96B360E29
:100C6000E86FEB6B020EEA6FE9C7EDF7E8C7ECF748
:100C7000EF6B600EEE6F00019DD701C0E7F7AA6A27
:100C8000A96AE7C7A8FFA69CA69EA684F250006E9C
:100C9000F29CF29E0F01550EA76EAA0EA76EA682B9
:100CA000A6B2FED7A6940050F21200011200960ED2
:100CB0000101F66F260E366E020E386E500E396E3A
:100CC000260E3B6E940E3A6E3D6A140E3C6E3E6AE2
:100CD000020E406E760E3F6E426A020E416E436A0D
:100CE000EA6A4E0EE96E006A026A480E016E000161
:100CF000E0DDEA6A4E0EE96E000EBEEC00F00A007E
:100D00000900F550EE6E0009FBE1EA6A540EE96E47
:100D1000000ECAEC00F00A000900F550EE6E000962
:100D2000FBE1EA6A5A0EE96E000ED6EC00F00A000A
:100D30000900F550EE6E0009FBE1EA6A8A0EE96EE1
:100D4000000EE2EC00F00A000900F550EE6E00091A
:100D5000FBE183DF12000701D76B360ED66FD96B2C
:100D6000020ED86FD7C7DBF7D6C7DAF7DD6B600E98
:100D7000DC6F0001D6D601C0D5F7F2CFD6F7F29CD2
:100D8000F29EAA6AA96AA69CA69EA680A850070100
:100D9000D6BDF28CD6BFF28ED55D03E0000187DFB1
:100DA0000701000179EF15F09EAA02D0B8DCFCD74C
:100DB0009D8A1200F9DFC60ED56EC00EF21282EFC8
:100DC00015F08B968B8A8C940701D85303E1030EA0
:100DD000DC6F25D0D82D03D0130EDC6F20D0D85176
:100DE000020803E10B0EDC6F1AD0D851030803E1AF
:100DF0001B0EDC6F14D0D851040803E1070EDC6F22
:100E00000ED0D851050803E1170EDC6F08D0D85179
:100E1000060803E10F0EDC6F02D01F0EDC6FDB6BE8
:100E2000DB5104080BE38B96DCB102D08B9A01D026
:100E30008B8AD890DC338B86DB2BF2D7DA6BD96BBD
:100E4000DB6BDB510D080BE38B9682B802D0D89098
:100E500001D0D880D937DA378B86DB2BF2D7DA9BF3
:100E6000DA998C84D9C701F0DAC702F0000170EF7B
:100E700007F00101CA2BCA510F0801E2CA6B070132
:100E8000D56BD551070847E30801DA6BD5C7D9F808
:100E9000DC6B200EDB6F0001FBDC02C003F00150B5
:100EA000340F0701D66F000E0220D76F036A0101CD
:100EB000CAC102F0D8900236033602500701D62587
:100EC000016ED75103220150960F016E000E0322CE
:100ED00001C0D6F703C0D7F7D5C7D8F7000171D73F
:100EE000D7C7EAFFD6C7E9FF02C0ECFFED5201C049
:100EF000EFFF036A0701D5C702F0D8900236033628
:100F00000250BA0FE96E000E0320EA6EEC6AED5251
:100F1000EF6AD52BB6D7000112000900F6CFD6F73D
:100F2000F7CFD7F7F5509EA8FED7AD6ED6C7F6FF20
:100F3000D7C7F7FF0701D52F01D002D00001EDD7A9
:100F400000019CEF15F00900F5520DE0F6CFD5F742
:100F5000F7CFD6F7F5509EA8FED7AD6ED5C7F6FFF2
:100F6000D6C7F7FFF0D7A2EF15F00801DA6BEDC78F
:100F7000D9F8DC6B200EDB6F00018ADC02C003F0C5
:100F80000150CA0F016E000E032201C0F1F70701E4
:100F900003C0F2F7EF6BEE6BF06BF0510F0811E34B
:100FA000D890F035036AF125E96EF2510320EA6E1C
:100FB000ECCF03F0ED52EF50EE270350EF23F02B70
:100FC000ECD7080EEE25F36F000EEF21F46FF4312D
:100FD000036EF331026E0332023203320232033205
:100FE00002320F0E031602C001F003C002F000012E
:100FF00012000101F995D8900701D035D56FD13590
:10100000D66F000E0101FBAB010E0701D513D5C74A
:10101000D0F7D651E009D16FD05303E1D151F00898
:1010200000E10101E53D06D0E63D04D00001976BEB
:10103000966B0101E73D06D0E83D04D00001996BB5
:10104000986B0101E93D06D0EA3D04D000019B6B9D
:101050009A6B010181CFFAF182CFFBF1F65302E1E5
:10106000899602D08986F607D53D03D0D63D01D0BA
:1010700003D0D52BD8B4D62B0701CE2BD8B4CF2B89
:10108000CE51E80842E1CF5103083FE1CF6BCE6B70
:101090000101D83D03D0D93D01D003D0D82BD8B41D
:1010A000D92B3F5202E140520FE04050D95D0CE392
:1010B00003E1D8513F5C08E2F75306E1F85304E13D
:1010C00042C0F8F141C0F7F1F75304E1F85302E1EF
:1010D0008B800BD08B90F751D8B4F807F707F753F4
:1010E00004E1F85302E1D96BD86B0701CB2BCB514C
:1010F0003C080BE1CB6B0101D33D03D0D43D01D0C3
:1011000003D0D32BD8B4D42B0701D23D09D0D33D83
:1011100007D0ED6B000129DF02C0D3F701C0D2F781
:101120000101F9A304D0F9930701CD6BCC6B070142
:10113000CC2BD8B4CD2B3C50CC5D0AE13D50CD5DDD
:1011400007E1CD6BCC6B0101F9810701D369D2694D
:101150000201FE3D01D001D0FE2BFE51090805E23F
:10116000FD5303E00101FC8102010001B1EF15F024
:101170000601BFB104D0000E016E0AD006D0C5AF83
:1011800004D0C7C6C6F6010EC46FBF91010E016E32
:101190000001FDEF11F0050E0701DC5F0AE3070E09
:1011A000EA6EDC0EE96EEF5004E001D00400EF2E91
:1011B000FDD700011200A4A8FED7736E120007012C
:1011C000DD511F080CE1DE514E0809E1DF51200816
:1011D00006E1E0514E0803E1010E016E64D0DE51DC
:1011E00016080FE2FF0A03E1DD516F080AE2E05141
:1011F000190807E303E1DF51500803E3010E016E14
:1012000052D0DE5112080FE2FF0A03E1DD518708D8
:101210000AE2E051170807E303E1DF51480803E35E
:10122000010E016E40D0DE5103080FE2FF0A03E118
:10123000DD514B080AE2E051040807E303E1DF5106
:10124000940803E3010E016E2ED0DE5102080FE276
:10125000FF0A03E1DD51E7080AE2E051030807E372
:1012600003E1DF51F50803E3010E016E1CD0DE51EE
:1012700006080FE2FF0A03E1DD51CF080AE2E05160
:10128000090807E303E1DF51D10803E3010E016E12
:101290000AD0E05306E1DF51360803E3010E016E88
:1012A00002D0000E016E000195EF12F09EA8FED74D
:1012B000AD6E12000701E7510001F8DF196AF2BCB8
:1012C000198CF29CF2BE198EF29EE7C7E5F89AECF3
:1012D00003F019BCF28C19BEF28E0400080E006EE9
:1012E000002EFED7000012000601C269C169BF913D
:1012F0009D9A04003C0E006E002EFED70000E5C74C
:10130000E7F70001D7DFE6C7E7F7D4DF1200ACA2AA
:10131000FED796EF09F0C2C6E6F7C1C6E5F7E6C705
:10132000E7F7C8DFE5C7E7F7C5DFF1D704003C0EF4
:10133000006E002EFED7000037DD0601C269C169CC
:10134000000112000701DC518009DF6FDDC7E0F703
:10135000DBC7E5F7E66F0001C7DFDEC7E7F7AADF07
:10136000DADF1200F29CF29EF2BEFDD70801DA6BC2
:10137000EDC7D9F8DC6B040EDB6F000148EC04F01C
:1013800002C003F00150AE0FE96E000E0220EA6EBB
:10139000EFCF00F0ECCF01F0ECCF02F0ECCF03F098
:1013A00003C0F1F702C0F0F701C0EFF700C0EEF79D
:1013B000C00EF212EEC700F0EFC701F0F0C702F066
:1013C000F1C703F01200F29CF29EF2BEFDD7A96BAA
:1013D000A86BAB6BAA6BAD6BAC6B9D699C699F698D
:1013E0009E69A169A069A36BA26BA56BA46BA76B97
:1013F000A66B0101D66BD56BC00EF212000134EF63
:101400000FF0F29CF29EF2BEFDD7B16BB06BAF6BEA
:10141000AE6BB56BB46BB36BB26BB96BB86BB76BD0
:10142000B66BC00EF2123CEF0FF00101CC6BCB6B30
:10143000CE6BCD6BD06BCF6B00015CEF0FF0070173
:10144000E85106082AE2FF0A03E1E751CF0825E246
:10145000E851090822E303E1E751CF081EE3D00E6B
:10146000E75DED6F070EE859EE6F020EEE27F2CF43
:10147000EFF7F29CF29EEEC7AAFFEDC7A9FFA69C6C
:10148000A69EA680A850EFBDF28CEFBFF28E036A35
:10149000016E0350026ED5EF0FF0E85103083FE2F2
:1014A000FF0A03E1E7514B083AE2E851040837E349
:1014B00003E1E751930833E34C0EE75DE96FE9C7B9
:1014C000EDF7060EEE6F00013BEC05F000C0EAF709
:1014D000E9C7EDF7060E0701EE6F00013BEC05F0E2
:1014E00001C0E9F70701E951060DF350036A180F2F
:1014F000ED6F000E0320EE6F036AEA51ED25016ED9
:10150000EE5103220150360FE96E000E0320EA6E01
:10151000EF50036A016E03C002F0D5EF0FF0E851FF
:10152000120820E2FF0A03E1E75187081BE2E851B5
:10153000170818E303E1E751470814E3880EE75F53
:10154000130EE85B020EEC6FEB69EB51E725E96ED9
:10155000EC51E821EA6EEF50036A016E03C002F01D
:10156000D5EF0FF0E851160834E2FF0A03E1E75126
:101570006F082FE2E85119082CE303E1E7514F0807
:1015800028E3700EE75F170EE85BD890E737E8377F
:10159000020EEC6FEB69EB51E725E96EEC51E821A7
:1015A000EA6EEFCFEDF7010EE725EE6F000EE821B2
:1015B000EF6FEB51EE25E96EEC51EF21EA6EEFCFC4
:1015C000F0F7EDC703F0F0C701F0EDC702F0D5EF7B
:1015D0000FF0E751006EE851036E035005E1005231
:1015E0000001D8B41FD20701035006E1010E005CD0
:1015F0000001D8B41ED20701035006E1020E005CC0
:101600000001D8B41DD20701035006E1030E005CAF
:101610000001D8B41CD20701035006E1040E005C9F
:101620000001D8B41BD20701035006E1050E005C8F
:101630000001D8B426D20701035006E1060E005C73
:101640000001D8B425D20701035006E1070E005C63
:101650000001D8B424D20701035006E1080E005C53
:101660000001D8B423D20701035006E1090E005C43
:101670000001D8B422D20701035006E10A0E005C33
:101680000001D8B421D20701035006E10B0E005C23
:101690000001D8B42DD20701035006E10C0E005C06
:1016A0000001D8B42CD20701035006E10D0E005CF6
:1016B0000001D8B42BD20701035006E10E0E005CE6
:1016C0000001D8B42AD20701035006E10F0E005CD6
:1016D0000001D8B429D20701035006E1100E005CC6
:1016E0000001D8B428D20701035006E1110E005CB6
:1016F0000001D8B434D20701035006E1120E005C99
:101700000001D8B433D20701035006E1130E005C88
:101710000001D8B442D20701035006E1140E005C68
:101720000001D8B446D20701035006E1150E005C53
:101730000001D8B445D20701035006E1160E005C43
:101740000001D8B454D20701035006E1170E005C23
:101750000001D8B459D20701035006E1180E005C0D
:101760000001D8B458D20701035006E1190E005CFD
:101770000001D8B467D20701035006E11A0E005CDD
:101780000001D8B46CD20701035006E11B0E005CC7
:101790000001D8B46BD20701035006E11C0E005CB7
:1017A0000001D8B47AD20701035006E11D0E005C97
:1017B0000001D8B47FD20701035006E11E0E005C81
:1017C0000001D8B47ED20701035006E11F0E005C71
:1017D0000001D8B48DD20701035006E1200E005C51
:1017E0000001D8B492D20701035006E1210E005C3B
:1017F0000001D8B491D20701035006E1220E005C2B
:101800000001D8B4A0D20701035006E1230E005C0A
:101810000001D8B4A5D20701035006E1240E005CF4
:101820000001D8B4A4D20701035006E1250E005CE4
:101830000001D8B4B3D20701035006E1260E005CC4
:101840000001D8B4B8D20701035006E1270E005CAE
:101850000001D8B4B7D20701035006E1280E005C9E
:101860000001D8B4C6D20701035006E1290E005C7E
:101870000001D8B4CBD20701035006E12A0E005C68
:101880000001D8B4CAD20701035006E12B0E005C58
:101890000001D8B4CFD20701035006E12C0E005C42
:1018A0000001D8B4CFD20701035006E12D0E005C31
:1018B0000001D8B4CFD20701035006E12E0E005C20
:1018C0000001D8B4CFD20701035006E12F0E005C0F
:1018D0000001D8B4CFD20701035006E1300E005CFE
:1018E0000001D8B4CFD20701035006E1310E005CED
:1018F0000001D8B4CFD20701035006E1320E005CDC
:101900000001D8B4CFD20701035006E1330E005CCA
:101910000001D8B4CFD20701035006E1340E005CB9
:101920000001D8B4CFD20701035006E1350E005CA8
:101930000001D8B4CFD20701030E035C06E1E80E24
:10194000005C0001D8B4CED20701030E035C06E1AF
:10195000E90E005C0001D8B4CDD20701030E035C90
:1019600006E1EA0E005C0001D8B4CBD20701030EF9
:10197000035C06E1EB0E005C0001D8B4C9D207019C
:10198000030E035C06E1EC0E005C0001D8B4C7D284
:101990000701030E035C06E1ED0E005C0001D8B404
:1019A000C5D20701030E035C06E1EE0E005C0001E8
:1019B000D8B4C3D20701030E035C06E1EF0E005C4E
:1019C0000001D8B4C2D20701030E035C06E1F00E99
:1019D000005C0001D8B4C0D20701030E035C06E12D
:1019E000F10E005C0001D8B4BFD20701030E035C06
:1019F00006E1F20E005C0001D8B4BDD20701030E6F
:101A0000035C06E1F30E005C0001D8B4BBD2070111
:101A1000030E035C06E1F40E005C0001D8B4BAD2F8
:101A20000701BFD2A8C001F0A9C002F00701BDD2D2
:101A300000019651016E9751026E0701B6D2000166
:101A40009C51016E9D51026E0701AFD20001A2515F
:101A5000016EA351026E0701A8D200010701ED6BD0
:101A6000000180DC03C0C9F702C0C8F701C0C7F796
:101A700000C0C6F70701C651016EC751026E95D26C
:101A800000010701C851016EC951026E8ED20001DA
:101A9000AA51016EAB51026E070187D20001985125
:101AA000016E9951026E070180D200019E51016EB4
:101AB0009F51026E070179D20001A451016EA55118
:101AC000026E070172D20001010E0701ED6F0001E5
:101AD00049DC03C0C9F702C0C8F701C0C7F700C09E
:101AE000C6F70701C651016EC751026E5ED20001F2
:101AF0000701C851016EC951026E57D20001AC51A5
:101B0000016EAD51026E070150D200019A51016E73
:101B10009B51026E070149D20001A051016EA151F3
:101B2000026E070142D20001A651016EA751026E5A
:101B300007013BD20001020E0701ED6F000112DC2C
:101B400003C0C9F702C0C8F701C0C7F700C0C6F795
:101B50000701C651016EC751026E27D2000107016D
:101B6000C851016EC951026E20D20001036A010101
:101B7000CA51026ED890023603360250CA0FE96E7F
:101B8000000E0320EA6EECCF03F0ED52EF50016E31
:101B90000350026E070109D200010701ED6B00013D
:101BA000B5EC07F00150016E0250026E0701FDD145
:101BB0000001BA51016EBB51026E0701F6D100015E
:101BC000036A0101CA51026ED890023603360250F0
:101BD000EA0FE96E000E0320EA6EECCF03F0ED523F
:101BE000EF50016E0350026E0701DFD10001010EBC
:101BF0000701ED6F0001B5EC07F00150016E0250D6
:101C0000026E0701D2D10001BC51016EBD51026EBE
:101C10000701CBD10001036A0101CA51026ED890BD
:101C20000236033602500A0FE96E010E0320EA6EF7
:101C3000ECCF03F0ED52EF50016E0350026E07013E
:101C4000B4D10001020E0701ED6F0001B5EC07F001
:101C50000150016E0250026E0701A7D10001BE5172
:101C6000016EBF51026E0701A0D10001036A01019C
:101C7000CA51026ED8900236033602502A0FE96E1E
:101C8000010E0320EA6EECCF03F0ED52EF50016E2F
:101C90000350026E070189D10001030E0701ED6FA9
:101CA0000001B5EC07F00150016E0250026E070111
:101CB0007CD10001C051016EC151026E070175D186
:101CC0000001036A0101CA51026ED8900236033640
:101CD00002504A0FE96E010E0320EA6EECCF03F0CA
:101CE000ED52EF50016E0350026E07015ED100010C
:101CF000040E0701ED6F0001B5EC07F00150016E15
:101D00000250026E070151D10001C251016EC35150
:101D1000026E07014AD10001036A0101CA51026E35
:101D2000D8900236033602506A0FE96E010E032086
:101D3000EA6EECCF03F0ED52EF50016E0350026EED
:101D4000070133D10001050E0701ED6F0001B5EC6D
:101D500007F00150016E0250026E070126D100010A
:101D6000C451016EC551026E07011FD10001036A03
:101D70000101CA51026ED8900236033602508A0F12
:101D8000E96E010E0320EA6EECCF03F0ED52EF5046
:101D9000016E0350026E070108D10001060E070113
:101DA000ED6F0001B5EC07F00150016E0250026EBC
:101DB0000701FBD00001C651016EC751026E070139
:101DC000F4D00001036A0101CA51026ED8900236B4
:101DD00003360250AA0FE96E010E0320EA6EECCF23
:101DE00003F0ED52EF50016E0350026E0701DDD09B
:101DF0000001070E0701ED6F0001B5EC07F001507F
:101E0000016E0250026E0701D0D00001C851016E70
:101E1000C951026E0701C9D000010101D251036E00
:101E2000D151D12BD8B4D22B016E0350026E0701D1
:101E3000BCD000010101D551016ED651026E0701DF
:101E4000B4D000010101D351016ED451026E0701DB
:101E5000ACD000010101D851016ED951026E0701C9
:101E6000A4D00001E3EF09F0000E016E026E07013D
:101E70009CD0000101EF0AF0000E016E026E070116
:101E800094D000010101CB51016ECC51026E0701CB
:101E90008CD000010101CD51016ECE51026E0701BF
:101EA00084D000010101CF51016ED051026E0701B3
:101EB0007CD0000115EF0AF0000E016E026E0701E2
:101EC00074D000010101E151016EE251026E07017F
:101ED0006CD000010101E351016EE451026E070173
:101EE00064D00001036A3950016E0350026E07018D
:101EF0005CD000013A50016E3B50026E070155D094
:101F00000001500E016E000E026E07014ED000015E
:101F1000570E016E000E026E070147D00001580EE9
:101F2000016E000E026E070140D00001010E016E2D
:101F3000000E026E070139D00001036A3650016EAF
:101F40000350026E070131D000013C50016E3D503C
:101F5000026E07012AD00001036A3E50016E035051
:101F6000026E070122D000013F50016E4050026E08
:101F700007011BD000014150016E4250026E070163
:101F800014D00001036A4350016E0350026E070132
:101F90000CD00001036A3850016E0350026E070135
:101FA00004D0FF0E016E026E00D00001FFEF0FF0B3
:101FB000DCC7E5F7DBC7E6F774EC09F0D89007015A
:101FC000DF35E56FE035E66FE5C7E7F700015AEC6E
:101FD00009F00701E26BE16BE251E05D25E303E10B
:101FE000DF51E15D21E2E151DD25E56FE251DE21C6
:101FF000E66FE86FE5C7E7F700011FEF0AF002C0E0
:10200000E4F701C0E3F7E4C7E5F7E4C7E7F75AEC04
:1020100009F0E3C7E5F7E3C7E7F75AEC09F0070172
:10202000E12BD8B4E22BD8D700018BEC09F0B6EF46
:1020300012F00701E25106083BE2FF0A03E1E15119
:10204000CF0836E2E251090833E303E1E151CF085A
:102050002FE3E451000808E2FF0A03E1E35100081E
:1020600003E2030E016E7DD1D00EE15DE76F070E36
:10207000E259E86F020EE827E8C7AAFFE7C7A9FF01
:10208000E3C7A8FFA69CA69EA684F250006EF29C11
:10209000F29E0F01550EA76EAA0EA76EA682A6B2DB
:1020A000FED7A6940050F212000E016E070159D11E
:1020B000E251030848E2FF0A03E1E1514B0843E221
:1020C000E251040840E303E1E15193083CE3E451A9
:1020D000000808E2FF0A03E1E351000803E2030EEF
:1020E000016E3FD14C0EE15DE56FE5C7EDF7060EE1
:1020F000EE6F00013BEC05F000C0E6F7E5C7EDF739
:10210000060E0701EE6F00013BEC05F001C0E5F79C
:102110000701E551060DF350036A180FE76F000E33
:102120000320E86F036AE651E725016EE8510322B8
:102130000150360FE96E000E0320EA6EE3C7EFFF91
:10214000000E016E0ED10101D7531BE00701E151D2
:10215000E80809E1E251030806E1E3C739F0000E9F
:10216000016EFFD00DD0E151E9080AE1E251030808
:1021700007E1E4C73BF0E3C73AF0000E016EF1D08F
:1021800001010701E151006EE251036E030E035C91
:1021900005E1EE0E005C00015CE00701030E035C4C
:1021A00006E1EF0E005C0001D8B45FD00701030E1A
:1021B000035C06E1F00E005C0001D8B45ED00701BC
:1021C000030E035C06E1F10E005C0001D8B461D09F
:1021D0000701030E035C06E1F20E005C0001D8B4B7
:1021E0005ED00701030E035C06E1F30E005C000104
:1021F000D8B462D00701030E035C06E1F40E005C64
:102200000001D8B465D00701070E035C06E1CD0ECE
:10221000005C0001D8B468D00701070E035C06E13A
:10222000CE0E005C0001D8B469D00701070E035C34
:1022300006E1CF0E005C0001D8B46DD007014E0E50
:10224000035C06E11F0E005C0001D8B471D00701E9
:1022500083D00701E45303E1E351800803E2030E56
:10226000016E7FD0E3C736F07AD00101F983E4C76D
:102270003DF0E3C73CF0070172D00701E45303E1EE
:10228000E351010803E2030E016E6BD0E3C73EF099
:1022900066D0E4C740F0E3C73FF0070160D0070114
:1022A000E35305E1E45303E1030E016E5AD0E4C7A2
:1022B00042F0E3C741F053D00701E45303E1E35197
:1022C000010803E2030E016E4CD0E3C743F047D090
:1022D0000701E45303E1E351020803E2030E016E38
:1022E00040D0E3C738F03BD00701E32D02D0E453E0
:1022F00003E0030E016E35D0FF0000010701E32D5E
:1023000002D0E45303E0030E016E2BD0000157EC22
:1023100006F0070124D00701E32D02D0E45303E0C7
:10232000030E016E1ED000012DEC06F0070117D040
:102330000701E3510A0803E1E451070806E001013F
:10234000D76B030E016E07010CD0010E0101D76F90
:10235000C80EF66F070103D0020E016E02D0000E08
:10236000016E00011200DDC7E5F7060E0701E66FFA
:10237000000174EC09F0DFC7E2F7DFC7E7F75AECBA
:1023800009F0DEC7E2F7DEC7E7F75AEC09F0E1C76C
:10239000E2F7E1C7E7F75AEC09F0E0C7E2F7E0C778
:1023A000E7F75AEC09F08BEC09F0EFEF12F0DBC71E
:1023B000E5F7100E0701E66F000174EC09F0DDC7C8
:1023C000E0F7DDC7E7F75AEC09F0DCC7E0F7DCC758
:1023D000E7F75AEC09F0DFC7E0F7DFC7E7F75AEC99
:1023E00009F0DEC7E0F7DEC7E7F75AEC09F08BEC3F
:1023F00009F050EF13F0B8EF08F00152D8B471D1E2
:10240000382C59D036500601C35DD8A402D0000143
:1024100052D08C828C800400020E0701DB6FB50E57
:10242000DC6F0001CBEC08F00701DB2FF8D70601C9
:10243000C3510001DBEC08F00400670E006E002EB3
:10244000FED700000601C5510001DBEC08F00400D6
:10245000670E006E002EFED700000701DA6B020E39
:102460000601C4250701DA5D16E2C70EDA25E96E1A
:10247000060EEA6ED8B0EA2AEFCFDBF7DB51000197
:10248000DBEC08F00400670E006E002EFED70000A3
:102490000701DA2BE4D772A2FED70400020EDB6F2D
:1024A000B50EDC6F0001CBEC08F00701DB2FF8D78D
:1024B0008C928C9000013650800806E03650060160
:1024C000C35DD8A403D100010101CB3D03D0CC3DB5
:1024D00001D003D0CB2BD8B4CC2B140EF66F060151
:1024E000C551030A000108E0070A06E0020A40E0BD
:1024F000160AD8B476D0D6D0C7C6D6F7C8C6D5F790
:10250000C9C6D8F7CAC6D7F70701D751D525DB6F9B
:10251000D851D621DC6FD6C7DEF7D5C7DDF7E06F1F
:10252000DBC7DFF70001DFEF08F0015212E1C3C69D
:10253000DBF70701DD6BC5C6DCF7020EDE6F0001BD
:10254000A2EC09F00101D06B020ECF6FF66B0FD039
:102550000001C5C6DBF7C3C6DCF7D6C7DEF7D5C7B3
:10256000DDF7D8C7E0F7D7C7DFF722D50101AAD03A
:10257000C7C6D6F7C8C6D5F7C9C6DCF7CAC6DBF7E3
:10258000D6C7E2F7D5C7E1F7C9C6E4F7CAC6E3F78D
:1025900050DD01C0D9F70701D95311E0C3C6DBF7FD
:1025A000DD6BC5C6DCF7D9C7DEF70001A2EC09F088
:1025B0000101D06BD9C7CFF1F66B12D00701C9C6A4
:1025C000DCF7CAC6DBF7C3C6DDF7D6C7DFF7D5C76A
:1025D000DEF7C9C6E1F7CAC6E0F70001C4D60101BB
:1025E00071D0C7C6D6F7C8C6D5F7C9C6D8F7CAC608
:1025F000D7F70701DA6BD85303E1D751DA5D42E22E
:10260000DA51D525DB6F000ED621DC6FD890DA3594
:10261000050FC70FE96E060EEA6ED8B0EA2AEFCFB3
:10262000DDF7D890DA35060FC70FE96E060EEA6EB1
:10263000D8B0EA2AEFCFDEF7DDC7E0F7DEC7DFF775
:10264000DCC7E2F7DBC7E1F7DDC7E4F7DEC7E3F796
:102650000001EFDC01C0D9F70701D95311E0C3C66F
:10266000DBF7DD6BC5C6DCF7D9C7DEF70001A2ECEE
:1026700009F00101D06BD9C7CFF1F66B070102D089
:10268000DA2BB9D7D9530CE1C3C6DBF7D6C7DDF7D0
:10269000D5C7DCF7D8C7DFF7D7C7DEF7000187D685
:1026A000010110D0C3C6DBF70701DD6BC5C6DCF73F
:1026B000010EDE6F0001A2EC09F00101D06B010EEA
:1026C000CF6FF66BD96BD86B0CD006010101CD3DF5
:1026D00003D0CE3D01D003D0CD2BD8B4CE2B0A0EE3
:1026E000F66F0001BAEF15F00801E06BDF51E05D15
:1026F00036E2036AE051DD25E96EDE510320EA6E21
:10270000EF522DE0036AE051DD25E96EDE51032032
:10271000EA6EEF500A0823E0036AE051DD25E96E16
:10272000DE510320EA6EEF500D0819E0036AE05114
:10273000DB25016EDC51032203C0E2F8036AE0519D
:10274000DD25E96EDE510320EA6EEFCFE3F8E2C843
:10275000EAFF01C0E9FFE3C8EFFFE02BC7D7DF5175
:10276000E05D0AE2036AE051DB25E96EDC510320FB
:10277000EA6EEF6AE02BF3D7010EDF5D036ADB251B
:10278000E96EDC510320EA6EEF6A000112000801D5
:10279000DF5302E1E05342E0DBC8E9FFDCC8EAFFB7
:1027A000EFCFE1F8DEC803F0DDC8E9FFDEC8EAFFDD
:1027B000EF50E15D17E0DCC803F0DBC8E9FFDCC8DF
:1027C000EAFFEFCFE1F8DEC803F0DDC8E9FFDEC8BD
:1027D000EAFFEF50E15D02E2FF0E01D0010E016E53
:1027E0001FD00BD0DCC803F0DBC8E9FFDCC8EAFF70
:1027F000EF5203E1000E016E13D0DCC803F0DB5191
:10280000DB2BD8B4DC2BDEC803F0DD51DD2BD8B4D4
:10281000DE2BDF51D8B4E007DF07BAD7000E016E18
:1028200000017BEF14F0FDC2D5F80201FD69070E2F
:10283000EA6ED50EE96E010EE26EFD0EE16E080144
:10284000D551016E04E0E6CFEEFF012EFCD7020168
:10285000FE6BFD6B382C1BD00801D76BD66BD753A2
:1028600014E1D551D65D11E2D50ED625E96E070EDD
:10287000D721EA6EEFCFD9F8D951000156EC09F013
:102880000801D62BD8B4D72BEAD75DD00201385037
:1028900002085AE1060E0801DC6F6F0EDB6F070EAF
:1028A000DE6FD50EDD6F4F0EDF6F00011DDF0601FD
:1028B000BE6B0801D551050801E345D0D86BD8514E
:1028C0000B0841E3D851060DF350036A4E0F016E19
:1028D000000E032201C0D9F803C0DAF8070EDC6F3E
:1028E000D50EDB6F03C0DEF801C0DDF8E06B060E2D
:1028F000DF6F00014CD7015201E022D00801DA6BF2
:10290000D8C8D9F8DC6B500EDB6F000148EC04F03E
:1029100002C003F00150FF0F016E020E032201C03E
:10292000D9F8080103C0DAF803C0DCF801C0DBF80D
:10293000070EDE6FD50EDD6F4F0EDF6F0001D4DEA8
:102940000801D82BBCD702010001C0EF15F0F86ACE
:10295000F1949F829F9AA59AD08E078EEA6AE96ABF
:10296000356AB8960C0EAF6EA60EAC6E900EAB6EBE
:1029700070964D0E756EA60E726E900E716E0601FB
:10298000BF91C06B0701CA6B0601BF93BF95BF978C
:10299000BF99BF9BBF9D0701CB6BCD6BCC6BCF6B42
:1029A000CE6BD16BD06BC150F00BC16E000E0F011E
:1029B000386F3C6F396F3A6F3B6F0101886B776AF4
:1029C000786A796A2F6A306A0701C66BC76BC86B71
:1029D000C96BD26BD36BD0500F0BD0A8000ED08038
:1029E000D082D088D886D888D46F000166EF04F0F2
:1029F0008C828C80D20EF66E070EF76E070E0701E2
:102A0000D56F000115EC05F0DE0EF66E070EF76EC1
:102A10002AEC05F00D0EA4A8FED7736E0A0EA4A82A
:102A2000FED7736EE80EF66E070EF76E120E0701F4
:102A3000D56F000115EC05F0D4C7D5F71B0E0701C3
:102A4000D66F000151EF05F0200EA4A8FED7736EDB
:102A50000701D451070A00010DE00C0A12E0040A34
:102A600017E0030A1CE0020A21E00D0A26E0030A2F
:102A70002BE031D0FE0EF66E070EF76E2AEC05F055
:102A800030D00A0EF66E080EF76E2AEC05F029D04B
:102A90001A0EF66E080EF76E2AEC05F022D0280EFC
:102AA000F66E080EF76E2AEC05F01BD0380EF66EA7
:102AB000080EF76E2AEC05F014D04A0EF66E080EDA
:102AC000F76E2AEC05F00DD05A0EF66E080EF76E72
:102AD0002AEC05F006D06C0EF66E080EF76E2AECA6
:102AE00005F0760EF66E080EF76E2AEC05F0ABEFE9
:102AF00006F03650800802E257EC06F0AB8EAB8849
:102B0000DAEF06F00701D46BD4511D0806E300018B
:102B100039EC07F00701D42BF7D743C0DAF172A2E2
:102B2000FED78C928C907A0EF66E080EF76E070E1A
:102B3000D56F00018DEF07F0860EF66E080EF76E6A
:102B4000A3EF07F00D0E9EA8FED7AD6E0A0E9EA84D
:102B5000FED7AD6E04000101F9A504D00001F9EF24
:102B600007F00101F9A104D0F991000139EC07F057
:102B7000000141D40101FCA104D0FC91000153D615
:082B800001010001E7D7030089
:020000040030CA
:0E00000000231E3F003F81000FC00FE00F40A5
:00000001FF
;PIC18F46K22
;CRC=D8D6  CREATED="23-Nov-15 11:49"
