:040000007FEF13F08B
:080008006BEF00F000000000A6
:100010000000000000000000046ED8CF05F0E0CF23
:1000200006F00001E9CF0CF0EACF07F0E1CF08F0CD
:10003000E2CF09F0D9CF0AF0DACF0BF0F3CF12F00C
:10004000F4CF13F0FACF14F0F5CF15F0F6CF16F089
:10005000F7CF17F000C00EF001C00FF002C010F093
:1000600003C011F0F2AA38EF00F0F2B4F0EF01F0A3
:100070009DAA3EEF00F09EBA74EF03F0A3AA44EFEE
:1000800000F0A4BA37EF03F00EC000F00FC001F08B
:1000900010C002F011C003F00CC0E9FF07C0EAFF76
:1000A000078E08C0E1FF09C0E2FF0AC0D9FF0BC0FC
:1000B000DAFF12C0F3FF13C0F4FF14C0FAFF15C03B
:1000C000F5FF16C0F6FF17C0F7FF045006C0E0FFAB
:1000D00005C0D8FF10001A6ED8CF1BF0E0CF1CF07F
:1000E0000001E9CF22F0EACF1DF0E1CF1EF0E2CF10
:1000F0001FF0D9CF20F0DACF21F0F3CF28F0F4CFE2
:1001000029F0FACF2AF0F5CF2BF0F6CF2CF0F7CF6D
:100110002DF000C024F001C025F002C026F003C07D
:1001200027F09DA297EF00F09EB209EF02F024C0E5
:1001300000F025C001F026C002F027C003F022C065
:10014000E9FF1DC0EAFF1D8E1EC0E1FF1FC0E2FFD8
:1001500020C0D9FF21C0DAFF28C0F3FF29C0F4FF77
:100160002AC0FAFF2BC0F5FF2CC0F6FF2DC0F7FF09
:100170001A501CC0E0FF1BC0D8FF1000F76A8C0F9C
:10018000F66E010EF7220900F55012002447505276
:100190004D430000F76AA40FF66E010EF722090026
:1001A000F55012002457494D44410000F76ABC0F36
:1001B000F66E010EF7220900F550120000C18140D1
:1001C00001C0804101C0804100C1814001C0804127
:1001D00000C1814000C1814001C0804101C0804117
:1001E00000C1814000C1814001C0804100C1814007
:1001F00001C0804101C0804100C1814001C08041F7
:1002000000C1814000C1814001C0804100C18140E6
:1002100001C0804101C0804100C1814000C18140D6
:1002200001C0804101C0804100C1814001C08041C6
:1002300000C1814000C1814001C0804101C08041B6
:1002400000C1814000C1814001C0804100C18140A6
:1002500001C0804101C0804100C1814000C1814096
:1002600001C0804101C0804100C1814001C0804186
:1002700000C1814000C1814001C0804100C1814076
:1002800001C0804101C0804100C1814001C0804166
:1002900000C1814000C1814001C0804101C0804156
:1002A00000C1814000C1814001C0804100C1814046
:1002B00001C0804101C0804100C18140F76ACC0F7C
:1002C000F66E020EF7220900F550120000C0C101BF
:1002D000C30302C2C60607C705C5C404CC0C0DCDB6
:1002E0000FCFCE0E0ACACB0BC90908C8D81819D926
:1002F0001BDBDA1A1EDEDF1FDD1D1CDC14D4D51556
:10030000D71716D6D21213D311D1D010F03031F145
:1003100033F3F23236F6F737F53534F43CFCFD3D75
:10032000FF3F3EFEFA3A3BFB39F9F83828E8E92965
:10033000EB2B2AEAEE2E2FEF2DEDEC2CE42425E515
:1003400027E7E62622E2E323E12120E0A06061A185
:1003500063A3A26266A6A767A56564A46CACAD6D35
:10036000AF6F6EAEAA6A6BAB69A9A86878B8B979A5
:10037000BB7B7ABABE7E7FBF7DBDBC7CB47475B5D5
:1003800077B7B67672B2B373B17170B050909151C5
:100390009353529296565797559594549C5C5D9DF5
:1003A0005F9F9E5E5A9A9B5B9959589888484989E5
:1003B0004B8B8A4A4E8E8F4F8D4D4C8C4484854595
:1003C000874746868242438341818040F29A0801F2
:1003D000E45304E0D76AD66AF294F28A000112006C
:1003E0000601BD5102080AE1BE5308E1BF5306E110
:1003F000BCB104D0020EC15FBC8101D0BC91BF6909
:10040000BE69BD6B0801E46B0001E0DFF29444EFCC
:1004100000F00801E6A10CD00101E23D05D0E33D6A
:1004200003D0080105D00101E22BD8B4E32B080169
:10043000E6A50CD00101E43D05D0E53D03D008015F
:1004400005D00101E42BD8B4E52B0801E6A90CD0B6
:100450000101E63D05D0E73D03D0080105D00101CB
:10046000E62BD8B4E72B0801E69381B0E683E6B328
:1004700041D00601BCB302D008013CD00001A82B3A
:10048000D8B4A92B010EAE27D8B0AF2BD8B4B02B5F
:10049000D8B4B12B0601BCA524D00801E691E3C174
:1004A00097F0E2C196F0000197519D5D08E303E1EA
:1004B0009C51965D04E297C09DF096C09CF0A351BC
:1004C000975D0DE303E19651A25D09E2963D03D0ED
:1004D000973D01D004D097C0A3F096C0A2F00601CA
:1004E000BC95BCB507D00101E36BE26B0801E68166
:1004F0000601BC850601BC930801E6A303D00601F2
:10050000BC830801E69781B2E687E6B741D00601D1
:10051000BCB702D008013CD00001AA2BD8B4AB2B49
:10052000010EB227D8B0B32BD8B4B42BD8B4B52BA6
:100530000601BCA924D00801E695E5C199F0E4C103
:1005400098F0000199519F5D08E303E19E51985D89
:1005500004E299C09FF098C09EF0A551995D0DE30B
:1005600003E19851A45D09E2983D03D0993D01D083
:1005700004D099C0A5F098C0A4F00601BC99BCB9FC
:1005800007D00101E56BE46B0801E6850601BC8933
:100590000601BC970801E6A703D00601BC87080145
:1005A000E69B81B4E68BE6BB41D00601BCBB02D022
:1005B00008013CD00001AC2BD8B4AD2B010EB627FE
:1005C000D8B0B72BD8B4B82BD8B4B92B0601BCAD72
:1005D00024D00801E699E7C19BF0E6C19AF000013A
:1005E0009B51A15D08E303E1A0519A5D04E29BC029
:1005F000A1F09AC0A0F0A7519B5D0DE303E19A51D1
:10060000A65D09E29A3D03D09B3D01D004D09BC07A
:10061000A7F09AC0A6F00601BC9DBCBD07D00101A1
:10062000E76BE66B0801E6890601BC8D0601BC9B01
:100630000801E6AB03D00601BC8B08010701C72BFC
:10064000C7510A0804E1C76B0101F68507019E92B4
:10065000000197EF00F0A4AAFED771CF35F074CF58
:1006600001F035A202D07198718838EF03F0F3D70A
:1006700001C0E3F8385210E00201FB6BFA3D01D0F3
:100680000AD0FA0EFA25E96E010EEA6ED8B0EA2A0F
:10069000E3C8EFFFFA2B0001A49A44EF00F09EAAF2
:1006A000FED7ABCF35F0AECF01F035A202D0AB987C
:1006B000AB881200A4A8FED7736E12000601BF51CA
:1006C0000801E419E56F036AE55100016FDD016E71
:1006D0000601BE510118BF6F036A0801E551000110
:1006E000EDDDE8CFBEF61200DADF01C0E3F801016C
:1006F000D8A105D00801E3510001DCDF2DD00601AF
:10070000BCB12BD0BD5308E1BF69BE69E3C8C0F6D8
:10071000BD2BC16BC36B17D0BD2D04D0E3C8C2F68F
:10072000BD2B11D0BD5102080EE1C13D02D0FE0E1D
:10073000C16FC40EC125E96E060EEA6ED8B0EA2A72
:10074000E3C8EFFFC12BE3C8E4F80001B7DF010EF7
:100750000801E46F00013ADE06019E9A000144EFB1
:1007600000F02320706377782025730D0A00323063
:100770002D4E6F762D3135000801D651D803F3CFB9
:1007800001F0F4CF00F0D903F3500026D751D8037D
:10079000F3500020026E00011200016603D00266D1
:1007A00002D007D0022A00C0EEFF012EFCD7022E95
:1007B000FAD71200C290080E616EF19E000E926E82
:1007C000FF0E936E920E946E800E956E969096929A
:1007D000969496960101F36BF56B020EF46FF69109
:1007E000F693F695F769F8690201FA6BFB69010166
:1007F000F9910701D26BD251020857E3036AD2C7BD
:1008000002F0D890023603360250960FE96E000EC1
:100810000320EA6EEC6AED52EF6A036AD2C702F077
:10082000D8900236033602509C0FE96E000E03206A
:10083000EA6EEC68ED52EF68036AD2C702F0D89016
:10084000023603360250A20FE96E000E0320EA6E54
:10085000EC6AED52EF6A036AD2C702F0D890023612
:1008600003360250A80FE96E000E0320EA6EEC6A10
:10087000ED52EF6A0801D76BD2C7D6F8D96B040ED8
:10088000D86F000179DF0150AE0FE96E000E022033
:10089000EA6EEE52EE52EC6AED52EF6AED52EF6AFA
:1008A000ED52EF6A0701D22BA6D70101CC6BCB6BBF
:1008B000CE6BCD6BD06BCF6BD26BD16BD46BD36B5C
:1008C000D66BD56BCA6BD76BD891DA6BD96B020E2E
:1008D000EA6EFC0EE96E006A030E026EC00E016E37
:1008E00000015BDF4BC0DDF14AC0DCF147C0DFF146
:1008F00046C0DEF10101E16BE06B000E0509BA6E46
:100900004A0EBB6E9D82A38A0001D0EF13F007014F
:10091000DB6BDAC703F0D951D8B4DA07D907DC6F3B
:1009200003C0DDF7DC5302E1DD5335E0D8C703F047
:10093000D751E96E03C0EAFFD651036ED551D52BCE
:10094000D8B4D62BDE6F03C0DFF7F2CFE0F7F29C0E
:10095000F29EDFC7AAFFDEC7A9FFA69CA69EA680BF
:10096000A850E0BDF28CE0BFF28EEF6ED8C703F066
:10097000D751E96E03C0EAFFEFCFDCF7DBC7EFF733
:10098000DCC7F0F7EF51F019016E01C0DBF7D72B90
:10099000D8B4D82BBED7DBC701F0000199EF05F022
:1009A0000701ED6BECC703F0EB51D8B4EC07EB0794
:1009B000EE6F03C0EFF7EE5302E1EF533FE0EAC7FB
:1009C00003F0E951E96E03C0EAFFEFCFEEF7EDC7A0
:1009D000EFF7EEC7F0F7EF51F019016E01C0EDF738
:1009E000E851036EE751E72BD8B4E82BEE6F03C054
:1009F000EFF7EA51036EE951E92BD8B4EA2BE96E1F
:100A000003C0EAFFEFCFF0F7EFC7AAFFEEC7A9FFD9
:100A1000F0C7A8FFA69CA69EA684F250006EF29C8A
:100A2000F29E0F01550EA76EAA0EA76EA682A6B261
:100A3000FED7A6940050F2120701B4D7EDC701F01B
:100A4000000133EF05F00701E66B360EE56FE86B4A
:100A5000020EE76FE6C7EAF7E5C7E9F7EC6B600E51
:100A6000EB6F00019DD701C0E4F7AA6AA96AE4C749
:100A7000A8FFA69CA69EA684F250006EF29CF29E51
:100A80000F01550EA76EAA0EA76EA682A6B2FED7BC
:100A9000A6940050F21200011200960E0101F36FAD
:100AA000260E366E010E386E500E396E260E3B6ED7
:100AB000940E3A6E3D6A140E3C6E3E6A020E406E13
:100AC000760E3F6E426A020E416E436AEA6A4E0E2D
:100AD000E96E006A026A480E016E00015EDEEA6A93
:100AE0004E0EE96E000EBEEC00F00A000900F55053
:100AF000EE6E0009FBE1EA6A540EE96E000ECAECE4
:100B000000F00A000900F550EE6E0009FBE19BDFE2
:100B100012000701D46B360ED36FD66B020ED56F61
:100B2000D4C7D8F7D3C7D7F7DA6B600ED96F0001F7
:100B3000EED601C0D2F7F2CFD3F7F29CF29EAA6AAA
:100B4000A96AA69CA69EA680A8500701D3BDF28CD8
:100B5000D3BFF28ED25D03E000019FDF07010001E9
:100B6000D2EF13F09EAA02D09ADDFCD79D8A120024
:100B7000F9DFC60ED56EC00EF212DBEF13F08B96C6
:100B80008B8A8C940701D55303E1030ED96F25D0CE
:100B9000D52D03D0130ED96F20D0D551020803E113
:100BA0000B0ED96F1AD0D551030803E11B0ED96F74
:100BB00014D0D551040803E1070ED96F0ED0D551DA
:100BC000050803E1170ED96F08D0D551060803E1D7
:100BD0000F0ED96F02D01F0ED96FD86BD8510408F1
:100BE0000BE38B96D9B102D08B9A01D08B8AD89027
:100BF000D9338B86D82BF2D7D76BD66BD86BD8511D
:100C00000D080BE38B9682B802D0D89001D0D88023
:100C1000D637D7378B86D82BF2D7D79BD7998C84EA
:100C2000D6C701F0D7C702F000014EEF06F0010170
:100C3000CA2BCA510F0801E2CA6B0701D26BD2510D
:100C4000070847E30801D76BD2C7D6F8D96B200E47
:100C5000D86F000191DD02C003F00150340F07018D
:100C6000D36F000E0220D46F036A0101CAC102F0E3
:100C7000D8900236033602500701D325016ED451B5
:100C800003220150960F016E000E032201C0D3F71C
:100C900003C0D4F7D2C7D5F7000171D7D4C7EAFF94
:100CA000D3C7E9FF02C0ECFFED5201C0EFFF036ABA
:100CB0000701D2C702F0D890023603360250BA0FAD
:100CC000E96E000E0320EA6EEC6AED52EF6AD22B59
:100CD000B6D7000112000900F6CFD3F7F7CFD4F74B
:100CE000F5509EA8FED7AD6ED3C7F6FFD4C7F7FF69
:100CF0000701D22F01D002D00001EDD70001F1EFA2
:100D000013F00900F5520DE0F6CFD2F7F7CFD3F785
:100D1000F5509EA8FED7AD6ED2C7F6FFD3C7F7FF3A
:100D2000F0D7F7EF13F00801D76BEAC7D6F8D96B05
:100D3000200ED86F000120DD02C003F00150CA0F61
:100D4000016E000E032201C0EEF7070103C0EFF7AA
:100D5000EC6BEB6BED6BED510F0811E3D890ED35BB
:100D6000036AEE25E96EEF510320EA6EECCF03F043
:100D7000ED52EF50EB270350EC23ED2BECD7080E90
:100D8000EB25F06F000EEC21F16FF131036EF031C5
:100D9000026E0332023203320232033202320F0E8B
:100DA000031602C001F003C002F0000112000101AD
:100DB000F695D8900701CD35D26FCE35D36F000EA2
:100DC0000101F8AB010E0701D213D2C7CDF7D35101
:100DD000E009CE6FCD5303E1CE51F00800E10101EF
:100DE000E23D06D0E33D04D00001976B966B010114
:100DF000E43D06D0E53D04D00001996B986B0101FC
:100E0000E63D06D0E73D04D000019B6B9A6B0101E3
:100E100081CFF7F182CFF8F1D8A102D0898606D030
:100E2000F35302E1899602D08986F307D53D03D0BA
:100E3000D63D01D003D0D52BD8B4D62B0701CB2B70
:100E4000D8B4CC2BCB51E80842E1CC5103083FE1A8
:100E5000CC6BCB6B0101D93D03D0DA3D01D003D07F
:100E6000D92BD8B4DA2B3F5202E140520FE0405068
:100E7000DA5D0CE303E1D9513F5C08E2F45306E18B
:100E8000F55304E142C0F5F141C0F4F1F45304E13B
:100E9000F55302E18B800BD08B90F451D8B4F50759
:100EA000F407F45304E1F55302E1DA6BD96B07015F
:100EB000C82BC8513C080BE1C86B0101D33D03D0DE
:100EC000D43D01D003D0D32BD8B4D42B0701CF3DD0
:100ED00009D0D03D07D0EA6B000125DF02C0D0F772
:100EE00001C0CFF70101F6A304D0F6930701CA6B46
:100EF000C96B0701C92BD8B4CA2B3C50C95D0AE1A4
:100F00003D50CA5D07E1CA6BC96B0101F68107015B
:100F1000D069CF690201FB3D01D001D0FB2BFB5111
:100F2000090805E2FA5303E00101F9810201000119
:100F300006EF14F00601BCB104D0000E016E0AD019
:100F400006D0C2AF04D0C4C6C3F6010EC16FBC91B7
:100F5000010E016E0001B9EF10F0050E0701D95F17
:100F60000AE3070EEA6ED90EE96EEF5004E001D0F5
:100F70000400EF2EFDD7000112000701DA511F080F
:100F80000CE1DB514E0809E1DC51200806E1DD519E
:100F90004E0803E1010E016E64D0DB5116080FE22A
:100FA000FF0A03E1DA516F080AE2DD51190807E38D
:100FB00003E1DC51500803E3010E016E52D0DB5116
:100FC00012080FE2FF0A03E1DA5187080AE2DD5155
:100FD000170807E303E1DC51480803E3010E016E43
:100FE00040D0DB5103080FE2FF0A03E1DA514B085E
:100FF0000AE2DD51040807E303E1DC51940803E34E
:10100000010E016E2ED0DB5102080FE2FF0A03E150
:10101000DA51E7080AE2DD51030807E303E1DC5196
:10102000F50803E3010E016E1CD0DB5106080FE248
:10103000FF0A03E1DA51CF080AE2DD51090807E3AC
:1010400003E1DC51D10803E3010E016E0AD0DD5348
:1010500006E1DC51340803E3010E016E02D0000EFC
:10106000016E000151EF11F09EA8FED7AD6E120087
:101070000701E4510001F8DF196AF2BC198CF29CF7
:10108000F2BE198EF29EE4C7E4F85EEC03F019BCE0
:10109000F28C19BEF28E0400080E006E002EFED7F0
:1010A000000012000601BF69BE69BC919D9A040050
:1010B0003C0E006E002EFED70000E2C7E4F70001F0
:1010C000D7DFE3C7E4F7D4DF1200ACA2FED774EF9A
:1010D00008F0BFC6E3F7BEC6E2F7E3C7E4F7C8DF30
:1010E000E2C7E4F7C5DFF1D704003C0E006E002E26
:1010F000FED7000037DD0601BF69BE69000112009E
:101100000701D9518009DC6FDAC7DDF7D8C7E2F7EC
:10111000E36F0001C7DFDBC7E4F7AADFDADF120005
:101120000701EB51016AEA5D03E2EAC700F00CD067
:10113000006A080EEC6FEA370036EB51005CD8B05D
:10114000006E0136EC2FF7D700011200F29CF29EE0
:10115000F2BEFDD70801D76BEAC7D6F8D96B040EEB
:10116000D86F0001BCEC03F002C003F00150AE0FD9
:10117000E96E000E0220EA6EEFCF00F0ECCF01F036
:10118000ECCF02F0ECCF03F003C0EEF702C0EDF7B6
:1011900001C0ECF700C0EBF7C00EF212EBC700F095
:1011A000ECC701F0EDC702F0EEC703F01200F29CAD
:1011B000F29EF2BEFDD7A96BA86BAB6BAA6BAD6BB1
:1011C000AC6B9D699C699F699E69A169A069A36BCD
:1011D000A26BA56BA46BA76BA66B0101D66BD56B3D
:1011E000C00EF212000118EF0EF0F29CF29EF2BE59
:1011F000FDD7B16BB06BAF6BAE6BB56BB46BB36B54
:10120000B26BB96BB86BB76BB66BC00EF21220EF56
:101210000EF00101CC6BCB6BCE6BCD6BD06BCF6B7B
:10122000000140EF0EF00701E55106082AE2FF0A2F
:1012300003E1E451CF0825E2E551090822E303E187
:10124000E451CF081EE3D00EE45DEA6F070EE559C6
:10125000EB6F020EEB27F2CFECF7F29CF29EEBC79E
:10126000AAFFEAC7A9FFA69CA69EA680A850ECBD2F
:10127000F28CECBFF28E036A016E0350026EA9EF8E
:101280000EF0E55103083DE2FF0A03E1E4514B088B
:1012900038E2E551040835E303E1E451930831E312
:1012A0004C0EE45DE66FE6C7EAF7060EEB6F000151
:1012B00037DF00C0E7F7E6C7EAF7060E0701EB6F76
:1012C00000012EDF01C0E6F70701E651060DF350DD
:1012D000036A180FEA6F000E0320EB6F036AE751F1
:1012E000EA25016EEB5103220150360FE96E000E24
:1012F0000320EA6EEF50036A016E03C002F0A9EF0B
:101300000EF0E551120821E2FF0A03E1E4518708DB
:101310001CE2E551170819E303E1E451470815E31E
:10132000880EE45F130EE55B020EE96FFC0EE86FBA
:10133000E851E425E96EE951E521EA6EEF50036AD0
:10134000016E03C002F0A9EF0EF0E551160835E278
:10135000FF0A03E1E4516F0830E2E55119082DE37B
:1013600003E1E4514F0829E3700EE45F170EE55BDB
:10137000D890E437E537020EE96FFC0EE86FE851CC
:10138000E425E96EE951E521EA6EEFCFEAF7010EB7
:10139000E425EB6F000EE521EC6FE851EB25E96EDB
:1013A000E951EC21EA6EEFCFEDF7EAC703F0EDC7A4
:1013B00001F0EAC702F0A9EF0EF0E451006EE5512A
:1013C000036E035005E100520001D8B40FD20701AB
:1013D000035006E1010E005C0001D8B40ED20701F3
:1013E000035006E1020E005C0001D8B40DD20701E3
:1013F000035006E1030E005C0001D8B40CD20701D3
:10140000035006E1040E005C0001D8B40BD20701C2
:10141000035006E1050E005C0001D8B416D20701A6
:10142000035006E1060E005C0001D8B415D2070196
:10143000035006E1070E005C0001D8B414D2070186
:10144000035006E1080E005C0001D8B413D2070176
:10145000035006E1090E005C0001D8B412D2070166
:10146000035006E10A0E005C0001D8B411D2070156
:10147000035006E10B0E005C0001D8B41DD2070139
:10148000035006E10C0E005C0001D8B41CD2070129
:10149000035006E10D0E005C0001D8B41BD2070119
:1014A000035006E10E0E005C0001D8B41AD2070109
:1014B000035006E10F0E005C0001D8B419D20701F9
:1014C000035006E1100E005C0001D8B418D20701E9
:1014D000035006E1110E005C0001D8B424D20701CC
:1014E000035006E1120E005C0001D8B423D20701BC
:1014F000035006E1130E005C0001D8B432D207019C
:10150000035006E1140E005C0001D8B436D2070186
:10151000035006E1150E005C0001D8B435D2070176
:10152000035006E1160E005C0001D8B444D2070156
:10153000035006E1170E005C0001D8B449D2070140
:10154000035006E1180E005C0001D8B448D2070130
:10155000035006E1190E005C0001D8B457D2070110
:10156000035006E11A0E005C0001D8B45CD20701FA
:10157000035006E11B0E005C0001D8B45BD20701EA
:10158000035006E11C0E005C0001D8B46AD20701CA
:10159000035006E11D0E005C0001D8B46FD20701B4
:1015A000035006E11E0E005C0001D8B46ED20701A4
:1015B000035006E11F0E005C0001D8B47DD2070184
:1015C000035006E1200E005C0001D8B482D207016E
:1015D000035006E1210E005C0001D8B481D207015E
:1015E000035006E1220E005C0001D8B490D207013E
:1015F000035006E1230E005C0001D8B495D2070128
:10160000035006E1240E005C0001D8B494D2070117
:10161000035006E1250E005C0001D8B4A3D20701F7
:10162000035006E1260E005C0001D8B4A8D20701E1
:10163000035006E1270E005C0001D8B4A7D20701D1
:10164000035006E1280E005C0001D8B4B6D20701B1
:10165000035006E1290E005C0001D8B4BBD207019B
:10166000035006E12A0E005C0001D8B4BAD207018B
:10167000035006E12B0E005C0001D8B4BFD2070175
:10168000035006E12C0E005C0001D8B4BFD2070164
:10169000035006E12D0E005C0001D8B4BFD2070153
:1016A000035006E12E0E005C0001D8B4BFD2070142
:1016B000035006E12F0E005C0001D8B4BFD2070131
:1016C000035006E1300E005C0001D8B4BFD2070120
:1016D000035006E1310E005C0001D8B4BFD207010F
:1016E000035006E1320E005C0001D8B4BFD20701FE
:1016F000035006E1330E005C0001D8B4BFD20701ED
:10170000030E035C06E1E80E005C0001D8B4BED213
:101710000701030E035C06E1E90E005C0001D8B48A
:10172000BDD20701030E035C06E1EA0E005C000176
:10173000D8B4BBD20701030E035C06E1EB0E005CDC
:101740000001D8B4B9D20701030E035C06E1EC0E28
:10175000005C0001D8B4B7D20701030E035C06E1B8
:10176000ED0E005C0001D8B4B5D20701030E035C96
:1017700006E1EE0E005C0001D8B4B3D20701030EFF
:10178000035C06E1EF0E005C0001D8B4B2D20701A1
:10179000030E035C06E1F00E005C0001D8B4B0D289
:1017A0000701030E035C06E1F10E005C0001D8B4F2
:1017B000AFD20701030E035C06E1F20E005C0001EC
:1017C000D8B4ADD20701030E035C06E1F30E005C52
:1017D0000001D8B4ABD20701030E035C06E1F40E9E
:1017E000005C0001D8B4AAD20701AFD2A8C001F0B2
:1017F000A9C002F00701ADD200019651016E9751C8
:10180000026E0701A6D200019C51016E9D51026E2D
:1018100007019FD20001A251016EA351026E070180
:1018200098D200010701EA6B000190DC03C0C6F703
:1018300002C0C5F701C0C4F700C0C3F70701C35118
:10184000016EC451026E85D200010701C551016EBF
:10185000C651026E7ED20001AA51016EAB51026EDA
:10186000070177D200019851016E9951026E07016C
:1018700070D200019E51016E9F51026E070169D224
:101880000001A451016EA551026E070162D2000150
:10189000010E0701EA6F000159DC03C0C6F702C060
:1018A000C5F701C0C4F700C0C3F70701C351016EFB
:1018B000C451026E4ED200010701C551016EC651DE
:1018C000026E47D20001AC51016EAD51026E0701AC
:1018D00040D200019A51016E9B51026E070139D22C
:1018E0000001A051016EA151026E070132D2000128
:1018F000A651016EA751026E07012BD20001020E04
:101900000701EA6F000122DC03C0C6F702C0C5F779
:1019100001C0C4F700C0C3F70701C351016EC45131
:10192000026E17D200010701C551016EC651026E49
:1019300010D20001036A0101CA51026ED89002362A
:1019400003360250CA0FE96E000E0320EA6EECCF98
:1019500003F0ED52EF50016E0350026E0701F9D112
:1019600000010701EA6B000193EC06F00150016EE3
:101970000250026E0701EDD10001BA51016EBB5158
:10198000026E0701E6D10001036A0101CA51026E2D
:10199000D890023603360250EA0FE96E000E03209B
:1019A000EA6EECCF03F0ED52EF50016E0350026E81
:1019B0000701CFD10001010E0701EA6F000193EC8E
:1019C00006F00150016E0250026E0701C2D1000103
:1019D000BC51016EBD51026E0701BBD10001036A0B
:1019E0000101CA51026ED8900236033602500A0F26
:1019F000E96E010E0320EA6EECCF03F0ED52EF50DA
:101A0000016E0350026E0701A4D10001020E07010E
:101A1000EA6F000193EC06F00150016E0250026E75
:101A2000070197D10001BE51016EBF51026E07013F
:101A300090D10001036A0101CA51026ED8900236AA
:101A4000033602502A0FE96E010E0320EA6EECCF36
:101A500003F0ED52EF50016E0350026E070179D191
:101A60000001030E0701EA6F000193EC06F001503C
:101A7000016E0250026E07016CD10001C051016E6F
:101A8000C151026E070165D10001036A0101CA510B
:101A9000026ED8900236033602504A0FE96E010EEC
:101AA0000320EA6EECCF03F0ED52EF50016E0350CD
:101AB000026E07014ED10001040E0701EA6F00011A
:101AC00093EC06F00150016E0250026E070141D105
:101AD0000001C251016EC351026E07013AD10001EB
:101AE000036A0101CA51026ED890023603360250D1
:101AF0006A0FE96E010E0320EA6EECCF03F0ED529F
:101B0000EF50016E0350026E070123D10001050E54
:101B10000701EA6F000193EC06F00150016E0250DC
:101B2000026E070116D10001C451016EC551026E4B
:101B300007010FD10001036A0101CA51026ED8905A
:101B40000236033602508A0FE96E010E0320EA6E58
:101B5000ECCF03F0ED52EF50016E0350026E07011F
:101B6000F8D00001060E0701EA6F000193EC06F0C1
:101B70000150016E0250026E0701EBD00001C65108
:101B8000016EC751026E0701E4D00001036A010132
:101B9000CA51026ED890023603360250AA0FE96E7F
:101BA000010E0320EA6EECCF03F0ED52EF50016E10
:101BB0000350026E0701CDD00001070E0701EA6F46
:101BC000000193EC06F00150016E0250026E070115
:101BD000C0D00001C851016EC951026E0701B9D0D1
:101BE00000010101D251036ED151D12BD8B4D22BB7
:101BF000016E0350026E0701ACD000010101D55106
:101C0000016ED651026E0701A4D000010101D3512B
:101C1000016ED451026E07019CD000010101D9511F
:101C2000016EDA51026E070194D00001D7EF08F07F
:101C3000000E016E026E07018CD00001F5EF08F076
:101C4000000E016E026E070184D000010101CB512C
:101C5000016ECC51026E07017CD000010101CD5113
:101C6000016ECE51026E070174D000010101CF5107
:101C7000016ED051026E07016CD0000109EF09F02E
:101C8000000E016E026E070164D00001036A395034
:101C9000016E0350026E07015CD000013A50016EE4
:101CA0003B50026E070155D00001500E016E000E30
:101CB000026E07014ED00001570E016E000E026E3B
:101CC000070147D00001580E016E000E026E070199
:101CD00040D00001010E016E000E026E070139D0E6
:101CE0000001036A3650016E0350026E070131D0C5
:101CF00000013C50016E3D50026E07012AD00001E8
:101D0000036A3E50016E0350026E070122D00001AB
:101D10003F50016E4050026E07011BD00001415040
:101D2000016E4250026E070114D00001036A435055
:101D3000016E0350026E07010CD00001036A385097
:101D4000016E0350026E070104D0FF0E016E026E99
:101D500000D00001D3EF0EF0D9C7E2F7D8C7E3F700
:101D600052EC08F0D8900701DC35E26FDD35E36F07
:101D7000E2C7E4F7000138EC08F00701DF6BDE6B27
:101D8000DF51DD5D25E303E1DC51DE5D21E2DE5163
:101D9000DA25E26FDF51DB21E36FE56FE2C7E4F79D
:101DA000000113EF09F002C0E1F701C0E0F7E1C75D
:101DB000E2F7E1C7E4F738EC08F0E0C7E2F7E0C784
:101DC000E4F738EC08F00701DE2BD8B4DF2BD8D7C6
:101DD000000169EC08F072EF11F00701DF5106080D
:101DE0003BE2FF0A03E1DE51CF0836E2DF5109088A
:101DF00033E303E1DE51CF082FE3E151000808E2AD
:101E0000FF0A03E1E051000803E2030E016E65D111
:101E1000D00EDE5DE46F070EDF59E56F020EE52799
:101E2000E5C7AAFFE4C7A9FFE0C7A8FFA69CA69E36
:101E3000A684F250006EF29CF29E0F01550EA76E22
:101E4000AA0EA76EA682A6B2FED7A6940050F212E2
:101E5000000E016E070141D1DF51030848E2FF0A7D
:101E600003E1DE514B0843E2DF51040840E303E1A4
:101E7000DE5193083CE3E151000808E2FF0A03E168
:101E8000E051000803E2030E016E27D14C0EDE5D27
:101E9000E26FE2C7EAF7060EEB6F000190EC08F084
:101EA00000C0E3F7E2C7EAF7060E0701EB6F000197
:101EB00090EC08F001C0E2F70701E251060DF35083
:101EC000036A180FE46F000E0320E56F036AE35105
:101ED000E425016EE55103220150360FE96E000E34
:101EE0000320EA6EE0C7EFFF000E016EF6D001019D
:101EF000D7531BE00701DE51E80809E1DF51030871
:101F000006E1E0C739F0000E016EE7D00DD0DE51DA
:101F1000E9080AE1DF51030807E1E1C73BF0E0C748
:101F20003AF0000E016ED9D001010701DE51006EBA
:101F3000DF51036E030E035C05E1EE0E005C000151
:101F40004EE00701030E035C05E1EF0E005C0001AB
:101F500052E00701030E035C05E1F00E005C000196
:101F600052E00701030E035C05E1F10E005C000185
:101F700056E00701030E035C05E1F20E005C000170
:101F800054E00701030E035C05E1F30E005C000161
:101F900059E00701030E035C06E1F40E005C00014A
:101FA000D8B45CD00701070E035C06E1CE0E005CDE
:101FB0000001D8B45FD00701070E035C06E1CF0E25
:101FC000005C0001D8B463D007014E0E035C06E14B
:101FD0001F0E005C0001D8B467D0070179D007015B
:101FE000E15303E1E051800803E2030E016E75D076
:101FF000E0C736F070D00101F683E1C73DF0E0C7DD
:102000003CF0070168D00701E15303E1E05101080A
:1020100003E2030E016E61D0E0C73EF05CD0E1C781
:1020200040F0E0C73FF0070156D00701E05305E15B
:10203000E15303E1030E016E50D0E1C742F0E0C767
:1020400041F049D00701E15303E1E051010803E207
:10205000030E016E42D0E0C743F03DD00701E153CB
:1020600003E1E051020803E2030E016E36D0E0C73F
:1020700038F031D00701E02D02D0E15303E0030E28
:10208000016E2BD000014DEC05F0070124D00701B3
:10209000E02D02D0E15303E0030E016E1ED00001DB
:1020A00023EC05F0070117D00701E0510A0803E10E
:1020B000E151070806E00101D76B030E016E07012D
:1020C0000CD0010E0101D76FC80EF36F070103D0CA
:1020D000020E016E02D0000E016E00011200DAC77E
:1020E000E2F7060E0701E36F000152EC08F0DCC7CF
:1020F000DFF7DCC7E4F738EC08F0DBC7DFF7DBC756
:10210000E4F738EC08F0DEC7DFF7DEC7E4F738ECB9
:1021100008F0DDC7DFF7DDC7E4F738EC08F069EC5D
:1021200008F0ABEF11F0D8C7E2F7100E0701E36F2C
:10213000000152EC08F0DAC7DDF7DAC7E4F738EC53
:1021400008F0D9C7DDF7D9C7E4F738EC08F0DCC7E9
:10215000DDF7DCC7E4F738EC08F0DBC7DDF7DBC7F9
:10216000E4F738EC08F069EC08F00CEF12F09AEFA5
:1021700007F00152D8B471D1382C59D0365006012D
:10218000C05DD8A402D0000152D08C828C800400A3
:10219000020E0701D86FB50ED96F0001ADEC07F044
:1021A0000701D82FF8D70601C05100015AEC03F0FF
:1021B0000400670E006E002EFED700000601C2511B
:1021C00000015AEC03F00400670E006E002EFED7EB
:1021D00000000701D76B020E0601C1250701D75D7C
:1021E00016E2C40ED725E96E060EEA6ED8B0EA2ACA
:1021F000EFCFD8F7D85100015AEC03F00400670E76
:10220000006E002EFED700000701D72BE4D772A284
:10221000FED70400020ED86FB50ED96F0001ADECE9
:1022200007F00701D82FF8D78C928C900001365018
:10223000800806E036500601C05DD8A403D1000135
:102240000101CB3D03D0CC3D01D003D0CB2BD8B482
:10225000CC2B140EF36F0601C251030A000108E0F3
:10226000070A06E0020A40E0160AD8B476D0D6D0B3
:10227000C4C6D3F7C5C6D2F7C6C6D5F7C7C6D4F706
:102280000701D451D225D86FD551D321D96FD3C7E7
:10229000DBF7D2C7DAF7DD6FD8C7DCF70001BDEF97
:1022A00007F0015212E1C0C6D8F70701DA6BC2C6C7
:1022B000D9F7020EDB6F000180EC08F00101D06B52
:1022C000020ECF6FF36B0FD00001C2C6D8F7C0C6A5
:1022D000D9F7D3C7DBF7D2C7DAF7D5C7DDF7D4C74D
:1022E000DCF73AD50101AAD0C4C6D3F7C5C6D2F7E8
:1022F000C6C6D9F7C7C6D8F7D3C7DFF7D2C7DEF748
:10230000C6C6E1F7C7C6E0F768DD01C0D6F707012A
:10231000D65311E0C0C6D8F7DA6BC2C6D9F7D6C714
:10232000DBF7000180EC08F00101D06BD6C7CFF1DC
:10233000F36B12D00701C6C6D9F7C7C6D8F7C0C617
:10234000DAF7D3C7DCF7D2C7DBF7C6C6DEF7C7C6F6
:10235000DDF70001C4D6010171D0C4C6D3F7C5C6EC
:10236000D2F7C6C6D5F7C7C6D4F70701D76BD55382
:1023700003E1D451D75D42E2D751D225D86F000E88
:10238000D321D96FD890D735050FC40FE96E060E4B
:10239000EA6ED8B0EA2AEFCFDAF7D890D735060F31
:1023A000C40FE96E060EEA6ED8B0EA2AEFCFDBF76B
:1023B000DAC7DDF7DBC7DCF7D9C7DFF7D8C7DEF749
:1023C000DAC7E1F7DBC7E0F7000107DD01C0D6F7A8
:1023D0000701D65311E0C0C6D8F7DA6BC2C6D9F7E9
:1023E000D6C7DBF7000180EC08F00101D06BD6C73F
:1023F000CFF1F36B070102D0D72BB9D7D6530CE13D
:10240000C0C6D8F7D3C7DAF7D2C7D9F7D5C7DCF734
:10241000D4C7DBF7000187D6010110D0C0C6D8F7BA
:102420000701DA6BC2C6D9F7010EDB6F000180EC41
:1024300008F00101D06B010ECF6FF36BDA6BD96B33
:102440000CD006010101CD3D03D0CE3D01D003D01B
:10245000CD2BD8B4CE2B0A0EF36F00010FEF14F082
:10246000D9C8DFF8D8C8DEF80801DC5302E1DD5333
:1024700027E0DBC803F0DAC8E9FFDBC8EAFFEF5268
:102480001FE0DFC803F0DE51DE2BD8B4DF2BE06F96
:1024900003C0E1F8DBC803F0DA51DA2BD8B4DB2B48
:1024A000E96E03C0EAFFEFCFE2F8E1C8EAFFE0C857
:1024B000E9FFE2C8EFFFDC51D8B4DD07DC07D5D770
:1024C000DC5302E1DD530FE0DFC803F0DE51DE2B09
:1024D000D8B4DF2BE96E03C0EAFFEF6ADC51D8B451
:1024E000DD07DC07EDD7D8C801F0D9C802F000013C
:1024F00012000801DC5302E1DD5342E0D8C8E9FFD5
:10250000D9C8EAFFEFCFDEF8DBC803F0DAC8E9FF8D
:10251000DBC8EAFFEF50DE5D17E0D9C803F0D8C88A
:10252000E9FFD9C8EAFFEFCFDEF8DBC803F0DAC86D
:10253000E9FFDBC8EAFFEF50DE5D02E2FF0E01D0EB
:10254000010E016E1FD00BD0D9C803F0D8C8E9FF27
:10255000D9C8EAFFEF5203E1000E016E13D0D9C8CB
:1025600003F0D851D82BD8B4D92BDBC803F0DA51FB
:10257000DA2BD8B4DB2BDC51D8B4DD07DC07BAD7B3
:10258000000E016E000137EF13F0FAC2D2F802011B
:10259000FA69070EEA6ED20EE96E010EE26EFA0ECD
:1025A000E16E0801D251016E04E0E6CFEEFF012E8C
:1025B000FCD70201FB6BFA6B382C1BD00801D46BE3
:1025C000D36BD45314E1D251D35D11E2D20ED32593
:1025D000E96E070ED421EA6EEFCFD6F8D65100018E
:1025E00034EC08F00801D32BD8B4D42BEAD783D02D
:1025F000020138500208D8A47FD0036A0801D251E2
:10260000D20FE96E070E0320EA6EEF6A060ED96F4D
:102610006C0ED86F070EDB6FD20EDA6FDD6B4F0ECC
:10262000DC6F00011DDF0601BB6B0801D2510508FC
:1026300001E361D0D56BD5510B085DE3D551060D93
:10264000F350036A4E0F016E000E032201C0D6F84C
:1026500003C0D7F8070ED96FD20ED86F03C0DBF8CE
:1026600001C0DAF8DD6B060EDC6F000142D70152C3
:1026700001E03ED00801D76BD5C8D6F8D96B500E13
:10268000D86F0001BCEC03F002C003F00150FC0F56
:10269000016E020E032201C0D6F8080103C0D7F86C
:1026A00003C0D9F801C0D8F8070EDB6FD20EDA6F7D
:1026B000DD6B4F0EDC6F0001D3DE0801D76BD5C890
:1026C000D6F8D96B500ED86F0001BCEC03F001C0F6
:1026D000D6F84F0E08010124016E000E0220036E91
:1026E0000150FC0FE96E020E0320EA6EEF6A000152
:1026F0000801D52BA0D70201000115EF14F0F86AEC
:10270000F1949F829F9AA59AD08E078EEA6AE96A11
:10271000356AB8960C0EAF6EA60EAC6E900EAB6E10
:1027200070964D0E756EA60E726E900E716E06014D
:10273000BC91BD6B0701C76B0601BC93BC95BC97F0
:10274000BC99BC9BBC9D0701C86BCA6BC96BCC6BA9
:10275000CB6BCE6BCD6BC150F00BC16E000E0F0179
:10276000386F3C6F396F3A6F3B6F0101886B776A46
:10277000786A796A2F6A306A0701C36BC46BC56BCC
:10278000C66BCF6BD06BD0500F0BD0A8000ED08093
:10279000D082D088D886D888D16F0001DAEF03F0D4
:1027A00089EF05F03650800802E24DEC05F0AB8E63
:1027B000AB88B8EF05F00701D16BD1511D0806E3D6
:1027C000000117EC06F00701D12BF7D743C0DBF16E
:1027D000620EF66E070EF76E070ED26F00016BEFFA
:1027E00006F06E0EF66E070EF76E81EF06F00D0E18
:1027F0009EA8FED7AD6E0A0E9EA8FED7AD6E040051
:102800000101F6A504D00001D7EF06F00101F6A101
:1028100004D0F691000117EC06F00001A8D40101E4
:10282000F9A104D0F9910001B0D601010001E7D768
:022830000300A3
:020000040030CA
:0E00000000231E3F003F81000FC00FE00F40A5
:00000001FF
;PIC18F46K22
;CRC=D8CF  CREATED="20-Nov-15 17:52"
