:04000000AAEF15F05E
:080008006BEF00F000000000A6
:100010000000000000000000046ED8CF05F0E0CF23
:1000200006F00001E9CF0CF0EACF07F0E1CF08F0CD
:10003000E2CF09F0D9CF0AF0DACF0BF0F3CF12F00C
:10004000F4CF13F0FACF14F0F5CF15F0F6CF16F089
:10005000F7CF17F000C00EF001C00FF002C010F093
:1000600003C011F0F2AA38EF00F0F2B408EF02F08A
:100070009DAA3EEF00F09EBAB0EF03F0A3AA44EFB2
:1000800000F0A4BA4FEF03F00EC000F00FC001F073
:1000900010C002F011C003F00CC0E9FF07C0EAFF76
:1000A000078E08C0E1FF09C0E2FF0AC0D9FF0BC0FC
:1000B000DAFF12C0F3FF13C0F4FF14C0FAFF15C03B
:1000C000F5FF16C0F6FF17C0F7FF045006C0E0FFAB
:1000D00005C0D8FF10001A6ED8CF1BF0E0CF1CF07F
:1000E0000001E9CF22F0EACF1DF0E1CF1EF0E2CF10
:1000F0001FF0D9CF20F0DACF21F0F3CF28F0F4CFE2
:1001000029F0FACF2AF0F5CF2BF0F6CF2CF0F7CF6D
:100110002DF000C024F001C025F002C026F003C07D
:1001200027F09DA297EF00F09EB221EF02F024C0CD
:1001300000F025C001F026C002F027C003F022C065
:10014000E9FF1DC0EAFF1D8E1EC0E1FF1FC0E2FFD8
:1001500020C0D9FF21C0DAFF28C0F3FF29C0F4FF77
:100160002AC0FAFF2BC0F5FF2CC0F6FF2DC0F7FF09
:100170001A501CC0E0FF1BC0D8FF1000F76A8C0F9C
:10018000F66E010EF7220900F55012002447505276
:100190004D430000F76AA40FF66E010EF722090026
:1001A000F55012002447504747410000F76ABC0F42
:1001B000F66E010EF7220900F55012002447504751
:1001C00053560000F76AD40FF66E010EF7220900AD
:1001D000F55012002457494D44410000F76AEC0FD6
:1001E000F66E010EF7220900F550120000C18140A1
:1001F00001C0804101C0804100C1814001C08041F7
:1002000000C1814000C1814001C0804101C08041E6
:1002100000C1814000C1814001C0804100C18140D6
:1002200001C0804101C0804100C1814001C08041C6
:1002300000C1814000C1814001C0804100C18140B6
:1002400001C0804101C0804100C1814000C18140A6
:1002500001C0804101C0804100C1814001C0804196
:1002600000C1814000C1814001C0804101C0804186
:1002700000C1814000C1814001C0804100C1814076
:1002800001C0804101C0804100C1814000C1814066
:1002900001C0804101C0804100C1814001C0804156
:1002A00000C1814000C1814001C0804100C1814046
:1002B00001C0804101C0804100C1814001C0804136
:1002C00000C1814000C1814001C0804101C0804126
:1002D00000C1814000C1814001C0804100C1814016
:1002E00001C0804101C0804100C18140F76AFC0F1C
:1002F000F66E020EF7220900F550120000C0C1018F
:10030000C30302C2C60607C705C5C404CC0C0DCD85
:100310000FCFCE0E0ACACB0BC90908C8D81819D9F5
:100320001BDBDA1A1EDEDF1FDD1D1CDC14D4D51525
:10033000D71716D6D21213D311D1D010F03031F115
:1003400033F3F23236F6F737F53534F43CFCFD3D45
:10035000FF3F3EFEFA3A3BFB39F9F83828E8E92935
:10036000EB2B2AEAEE2E2FEF2DEDEC2CE42425E5E5
:1003700027E7E62622E2E323E12120E0A06061A155
:1003800063A3A26266A6A767A56564A46CACAD6D05
:10039000AF6F6EAEAA6A6BAB69A9A86878B8B97975
:1003A000BB7B7ABABE7E7FBF7DBDBC7CB47475B5A5
:1003B00077B7B67672B2B373B17170B05090915195
:1003C0009353529296565797559594549C5C5D9DC5
:1003D0005F9F9E5E5A9A9B5B9959589888484989B5
:1003E0004B8B8A4A4E8E8F4F8D4D4C8C4484854565
:1003F000874746868242438341818040F29A0801C2
:10040000E75304E0D76AD66AF294F28A0001120038
:100410000601C15102080AE1C25308E1C35306E1D3
:10042000C0B104D0020EC55FC08101D0C091C369C4
:10043000C269C16B0801E76B0001E0DFF29444EF91
:1004400000F00801E9A10CD00101E63D05D0E73D2F
:1004500003D0080105D00101E62BD8B4E72B080131
:10046000E9A50CD00101E83D05D0E93D03D0080124
:1004700005D00101E82BD8B4E92B0801E9A90CD07B
:100480000101EA3D05D0EB3D03D0080105D0010193
:10049000EA2BD8B4EB2B0801E99381B0E983E9B3E7
:1004A00041D00601C0B302D008013CD00001A92B05
:1004B000D8B4AA2B010EAF27D8B0B02BD8B4B12B2B
:1004C000D8B4B22B0601C0A524D00801E991E7C138
:1004D00098F0E6C197F0000198519E5D08E303E1B2
:1004E0009D51975D04E298C09EF097C09DF0A45185
:1004F000985D0DE303E19751A35D09E2973D03D0B9
:10050000983D01D004D098C0A4F097C0A3F0060194
:10051000C095C0B507D00101E76BE66B0801E98122
:100520000601C0850601C0930801E9A303D00601B6
:10053000C0830801E99781B2E987E9B741D0060194
:10054000C0B702D008013CD00001AB2BD8B4AC2B13
:10055000010EB327D8B0B42BD8B4B52BD8B4B62B72
:100560000601C0A924D00801E995E9C19AF0E8C1C3
:1005700099F000019A51A05D08E303E19F51995D54
:1005800004E29AC0A0F099C09FF0A6519A5D0DE3D5
:1005900003E19951A55D09E2993D03D09A3D01D04F
:1005A00004D09AC0A6F099C0A5F00601C099C0B9C0
:1005B00007D00101E96BE86B0801E9850601C089F4
:1005C0000601C0970801E9A703D00601C08708010A
:1005D000E99B81B4E98BE9BB41D00601C0BB02D0E5
:1005E00008013CD00001AD2BD8B4AE2B010EB727CB
:1005F000D8B0B82BD8B4B92BD8B4BA2B0601C0AD3B
:1006000024D00801E999EBC19CF0EAC19BF00001FC
:100610009C51A25D08E303E1A1519B5D04E29CC0F3
:10062000A2F09BC0A1F0A8519C5D0DE303E19B519A
:10063000A75D09E29B3D03D09C3D01D004D09CC046
:10064000A8F09BC0A7F00601C09DC0BD07D0010166
:10065000EB6BEA6B0801E9890601C08D0601C09BBE
:100660000801E9AB03D00601C08B08010701CB2BC1
:10067000CB510A0804E1CB6B0101FA8507019E9278
:10068000000197EF00F0A4AAFED771CF35F074CF28
:1006900001F035A202D07198718850EF03F0F3D7C2
:1006A00001C0E6F80101E42BD8B4E52B382C11D0B9
:1006B0000201FF6BFE3D01D00AD0FE0EFE25E96E61
:1006C000010EEA6ED8B0EA2AE6C8EFFFFE2B22D070
:1006D0000101385002081FE10801E6510A0803E051
:1006E000E6510D0808E10201FE5303E0140EFF6F0E
:1006F00000D010D008010201FF6BFE3D01D00AD0EE
:10070000FE0EFE25E96E010EEA6ED8B0EA2AE6C8B2
:10071000EFFFFE2B0101A49A000144EF00F09EAA16
:10072000FED7ABCF35F0AECF01F035A202D0AB98FB
:10073000AB8812000601C3510801E719E86F036A8C
:10074000E85100014BDD016E0601C2510118C36F73
:10075000036A0801E8510001C9DDE8CFC2F61200C2
:10076000DEDF01C0E6F80101E22BD8B4E32B06017D
:10077000C0B12BD0C15308E1C369C269E6C8C4F651
:10078000C12BC56BC76B17D0C12D04D0E6C8C6F608
:10079000C12B11D0C15102080EE1C53D02D0FE0EA1
:1007A000C56FC80EC525E96E060EEA6ED8B0EA2AF6
:1007B000E6C8EFFFC52BE6C8E7F80001BBDF010E76
:1007C0000801E76F00011ADE06019E9A000144EF5E
:1007D00000F02320706377782025730D0A003233F0
:1007E0002D4E6F762D313500232072657374617242
:1007F000745F636175736528293D25752000574432
:10080000545F54494D454F5554004D434C525F463B
:10081000524F4D5F534C454550004D434C525F463F
:10082000524F4D5F52554E004E4F524D414C5F500E
:100830004F5745525F55500042524F574E4F5554F7
:100840005F5245535441525400005744545F46523E
:100850004F4D5F534C454550000052455345545F42
:10086000494E535452554354494F4E00756E6B6E6A
:100870006F776E2100000D0A0000232070637778E7
:100880002025730D0A0032332D4E6F762D31350041
:100890000801DA51DC03F3CF01F0F4CF00F0DD03FF
:1008A000F3500026DB51DC03F3500020026E000100
:1008B0001200016603D0026602D007D0022A00C0EF
:1008C000EEFF012EFCD7022EFAD712003950000A93
:1008D0000BE0010A11E0030A17E0060A1DE0010A15
:1008E00021E0030A27E02CD07086C30E756E090E36
:1008F000766EA60E726E2AD07086E10E756E040EAC
:10090000766EA60E726E22D07086700E756E020E16
:10091000766EA60E726E1AD07096260E756EA60EA4
:10092000726E14D070864D0E756E000E766EA60E29
:10093000726E0CD070960C0E756EA60E726E06D08E
:1009400070964D0E756EA60E726E00D01200C2909B
:10095000080E616EF19E000E926EFF0E936E920E67
:10096000946E800E956E969096929694969601014E
:10097000F76BF96B020EF86FFA91FA93FA95FB692F
:10098000FC690201FE6BFF690101FD910701D66B55
:10099000D651020857E3036AD6C702F0D890023650
:1009A00003360250970FE96E000E0320EA6EEC6AE0
:1009B000ED52EF6A036AD6C702F0D89002360336CA
:1009C00002509D0FE96E000E0320EA6EEC68ED52B6
:1009D000EF68036AD6C702F0D89002360336025099
:1009E000A30FE96E000E0320EA6EEC6AED52EF6A87
:1009F000036AD6C702F0D890023603360250A90F18
:100A0000E96E000E0320EA6EEC6AED52EF6A08010F
:100A1000DB6BD6C7DAF8DD6B040EDC6F000138DF64
:100A20000150AF0FE96E000E0220EA6EEE52EE5258
:100A3000EC6AED52EF6AED52EF6AED52EF6A070190
:100A4000D62BA6D70101CD6BCC6BCF6BCE6BD16B08
:100A5000D06BD36BD26BD56BD46BD76BD66BCB6BA8
:100A6000D86BDA6BD96BE36BE26BE56BE46B030E6F
:100A7000EA6EE96A006A026EC00E016E000119DFBB
:100A80004CC0DDF14BC0DCF148C0DFF147C0DEF106
:100A90000101E16BE06B000119DF000E0509BA6E80
:100AA0004A0EBB6E9D82A38AFBEF15F00900F6CFBC
:100AB000D7F7F7CFD8F7F550A4A8FED7736ED7C7EE
:100AC000F6FFD8C7F7FF0701D62F01D002D00001EB
:100AD000EDD7000112000900F5520DE0F6CFD6F770
:100AE000F7CFD7F7F550A4A8FED7736ED6C7F6FF99
:100AF000D7C7F7FFF0D712000701EF51016AEE5D8B
:100B000003E2EEC700F00CD0006A080EF06FEE377B
:100B10000036EF51005CD8B0006E0136F02FF7D7E9
:100B2000000112000150D6C7EEF7640E0701EF6F07
:100B30000001E2DF00C0D6F70150300E08E10701E6
:100B4000D7A30ED0D7B70CD0D7B9200E04D0070149
:100B5000D797D799D78101260150A4A8FED7736EE5
:100B6000D6C7EEF70A0EEF6F0001C6DF00C0D6F75A
:100B70000150300E08E10701D7B70BD0D7A109D03B
:100B8000D7B9200E000101260150A4A8FED7736E2C
:100B90000701300ED627D651A4A8FED7736E0001E8
:100BA00027EF16F00701DF6BDEC703F0DD51D8B485
:100BB000DE07DD07E06F03C0E1F7E05302E1E15338
:100BC00035E0DCC703F0DB51E96E03C0EAFFDA5120
:100BD000036ED951D92BD8B4DA2BE26F03C0E3F7F7
:100BE000F2CFE4F7F29CF29EE3C7AAFFE2C7A9FFA7
:100BF000A69CA69EA680A850E4BDF28CE4BFF28E0F
:100C0000EF6EDCC703F0DB51E96E03C0EAFFEFCF04
:100C1000E0F7DFC7F3F7E0C7F4F7F351F419016E1B
:100C200001C0DFF7DB2BD8B4DC2BBED7DFC701F068
:100C30000001FEEF06F00701F16BF0C703F0EF5182
:100C4000D8B4F007EF07F26F03C0F3F7F25302E1F5
:100C5000F3533FE0EEC703F0ED51E96E03C0EAFF46
:100C6000EFCFF2F7F1C7F3F7F2C7F4F7F351F41946
:100C7000016E01C0F1F7EC51036EEB51EB2BD8B4D0
:100C8000EC2BF26F03C0F3F7EE51036EED51ED2B39
:100C9000D8B4EE2BE96E03C0EAFFEFCFF4F7F3C749
:100CA000AAFFF2C7A9FFF4C7A8FFA69CA69EA68428
:100CB000F250006EF29CF29E0F01550EA76EAA0E26
:100CC000A76EA682A6B2FED7A6940050F212070124
:100CD000B4D7F1C701F000017EEF06F00701EA6B1F
:100CE000360EE96FEC6B020EEB6FEAC7EEF7E9C761
:100CF000EDF7F06B610EEF6F00019DD701C0E8F7D3
:100D0000AA6AA96AE8C7A8FFA69CA69EA684F25074
:100D1000006EF29CF29E0F01550EA76EAA0EA76EF2
:100D2000A682A6B2FED7A6940050F21200011200CD
:100D3000960E0101F76F260E366E030E396E020E07
:100D4000386E500E3A6E260E3C6E940E3B6E3E6A26
:100D5000140E3D6E3F6A020E416E760E406E436A7F
:100D6000020E426E446AEA6A4F0EE96E006A026A37
:100D7000480E016E00019DDDEA6A4F0EE96E000E1D
:100D8000BEEC00F00A000900F550EE6E0009FBE130
:100D9000EA6A550EE96E000ECAEC00F00A0009007E
:100DA000F550EE6E0009FBE1EA6A5B0EE96E000E9B
:100DB000D6EC00F00A000900F550EE6E0009FBE1E8
:100DC000EA6A8B0EE96E000EE2EC00F00A00090000
:100DD000F550EE6E0009FBE181DF12000701D86BD0
:100DE000360ED76FDA6B020ED96FD8C7DCF7D7C7CC
:100DF000DBF7DE6B610EDD6F0001D4D601C0D6F7E4
:100E0000F2CFD7F7F29CF29EAA6AA96AA69CA69E88
:100E1000A680A8500701D7BDF28CD7BFF28ED65D51
:100E200003E0000185DF070100017CEF16F09EAAB8
:100E300002D075DCFCD79D8A1200F9DFC60ED56E94
:100E4000C00EF21285EF16F08B968B8A8C940701F8
:100E5000D95303E1030EDD6F25D0D92D03D0130E36
:100E6000DD6F20D0D951020803E10B0EDD6F1AD0DF
:100E7000D951030803E11B0EDD6F14D0D9510408CA
:100E800003E1070EDD6F0ED0D951050803E1170EFF
:100E9000DD6F08D0D951060803E10F0EDD6F02D0D7
:100EA0001F0EDD6FDC6BDC5104080BE38B96DDB1AC
:100EB00002D08B9A01D08B8AD890DD338B86DC2BC5
:100EC000F2D7DB6BDA6BDC6BDC510D080BE38B9636
:100ED00082B802D0D89001D0D880DA37DB378B8641
:100EE000DC2BF2D7DB9BDB998C84DAC701F0DBC704
:100EF00002F00001B3EF07F00101CB2BCB510F083B
:100F000001E2CB6B0701D66BD651070847E3080116
:100F1000DB6BD6C7DAF8DD6B200EDC6F0001B8DCC6
:100F200002C003F00150340F0701D76F000E0220FA
:100F3000D86F036A0101CBC102F0D89002360336A4
:100F400002500701D725016ED85103220150970F97
:100F5000016E000E032201C0D7F703C0D8F7D6C731
:100F6000D9F7000171D7D8C7EAFFD7C7E9FF02C098
:100F7000ECFFED5201C0EFFF036A0701D6C702F094
:100F8000D890023603360250BB0FE96E000E0320E4
:100F9000EA6EEC6AED52EF6AD62BB6D7000112006A
:100FA0000900F6CFD7F7F7CFD8F7F5509EA8FED7B0
:100FB000AD6ED7C7F6FFD8C7F7FF0701D62F01D010
:100FC00002D00001EDD700019FEF16F00900F552A5
:100FD0000DE0F6CFD6F7F7CFD7F7F5509EA8FED79E
:100FE000AD6ED6C7F6FFD7C7F7FFF0D7A5EF16F05F
:100FF0000801DB6BEEC7DAF8DD6B200EDC6F000159
:1010000047DC02C003F00150CB0F016E000E03223B
:1010100001C0F2F7070103C0F3F7F06BEF6BF16B60
:10102000F1510F0811E3D890F135036AF225E96E0A
:10103000F3510320EA6EECCF03F0ED52EF50EF27AF
:101040000350F023F12BECD7080EEF25F46F000EC0
:10105000F021F56FF531036EF431026E0332023286
:1010600003320232033202320F0E031602C001F0C5
:1010700003C002F0000112000101FA95D8900701A7
:10108000D135D66FD235D76F000E0101FCAB010E02
:101090000701D613D6C7D1F7D751E009D26FD15384
:1010A00003E1D251F00800E10101E63D06D0E73D41
:1010B00004D00001986B976B0101E83D06D0E93D33
:1010C00004D000019A6B996B0101EA3D06D0EB3D1B
:1010D00004D000019C6B9B6B010181CFFBF182CF9F
:1010E000FCF1F75302E1899602D08986F707D63DD5
:1010F00003D0D73D01D003D0D62BD8B4D72B0701CE
:10110000CF2BD8B4D02BCF51E80842E1D0510308FF
:101110003FE1D06BCF6B0101D93D03D0DA3D01D067
:1011200003D0D92BD8B4DA2B405202E141520FE060
:101130004150DA5D0CE303E1D951405C08E2F85319
:1011400006E1F95304E143C0F9F142C0F8F1F85364
:1011500004E1F95302E18B800BD08B90F851D8B4A5
:10116000F907F807F85304E1F95302E1DA6BD96B98
:101170000701CC2BCC513C080BE1CC6B0101D43DD9
:1011800003D0D53D01D003D0D42BD8B4D52B070143
:10119000D33D09D0D43D07D0EE6B000129DF02C05A
:1011A000D4F701C0D3F70101FAA304D0FA930701E1
:1011B000CE6BCD6B0701CD2BD8B4CE2B3D50CD5D82
:1011C0000AE13E50CE5D07E1CE6BCD6B0101FA81A5
:1011D0000701D469D3690201FF3D01D001D0FF2B83
:1011E000FF51090805E2FE5303E00101FD81020100
:1011F0000001B4EF16F00601C0B104D0000E016E7C
:101200000AD006D0C6AF04D0C8C6C7F6010EC56F57
:10121000C091010E016E000100EF13F0050E0701F1
:10122000DD5F0AE3070EEA6EDD0EE96EEF5004E0C3
:1012300001D00400EF2EFDD700011200A4A8FED7B4
:10124000736E12000701DE511F080CE1DF514E08DA
:1012500009E1E051200806E1E1514E0803E1010EE9
:10126000016E64D0DF5116080FE2FF0A03E1DE5180
:101270006F080AE2E151190807E303E1E051500861
:1012800003E3010E016E52D0DF5112080FE2FF0A94
:1012900003E1DE5187080AE2E151170807E303E1A1
:1012A000E051480803E3010E016E40D0DF5103080E
:1012B0000FE2FF0A03E1DE514B080AE2E1510408A4
:1012C00007E303E1E051940803E3010E016E2ED021
:1012D000DF5102080FE2FF0A03E1DE51E7080AE2EC
:1012E000E151030807E303E1E051F60803E3010ECF
:1012F000016E1CD0DF5106080FE2FF0A03E1DE5148
:10130000CF080AE2E151090807E303E1E051D108FF
:1013100003E3010E016E0AD0E15306E1E051360805
:1013200003E3010E016E02D0000E016E000198EF82
:1013300013F09EA8FED7AD6E12000701E851000120
:10134000F8DF196AF2BC198CF29CF2BE198EF29E7B
:10135000E8C7E7F89AEC03F019BCF28C19BEF28EDC
:101360000400080E006E002EFED7000012000601D9
:10137000C369C269C0919D9A04003C0E006E002EA4
:10138000FED70000E6C7E8F70001D7DFE7C7E8F7B8
:10139000D4DF1200ACA2FED7D9EF09F0C3C6E7F73D
:1013A000C2C6E6F7E7C7E8F7C8DFE6C7E8F7C5DF74
:1013B000F1D704003C0E006E002EFED7000037DD92
:1013C0000601C369C269000112000701DD518009ED
:1013D000E06FDEC7E1F7DCC7E6F7E76F0001C7DFC4
:1013E000DFC7E8F7AADFDADF1200F29CF29EF2BE56
:1013F000FDD70801DB6BEEC7DAF8DD6B040EDC6F9E
:10140000000148EC04F002C003F00150AF0FE96E98
:10141000000E0220EA6EEFCF00F0ECCF01F0ECCF2F
:1014200002F0ECCF03F003C0F2F702C0F1F701C005
:10143000F0F700C0EFF7C00EF212EFC700F0F0C7F0
:1014400001F0F1C702F0F2C703F01200F29CF29E25
:10145000F2BEFDD7AA6BA96BAC6BAB6BAE6BAD6B81
:101460009E699D69A0699F69A269A169A46BA36B2C
:10147000A66BA56BA86BA76B0101D76BD66BC00ED3
:10148000F212000180EF0FF0F29CF29EF2BEFDD747
:10149000B26BB16BB06BAF6BB66BB56BB46BB36B60
:1014A000BA6BB96BB86BB76BC00EF21288EF0FF066
:1014B0000101CD6BCC6BCF6BCE6BD16BD06B0001D0
:1014C000A8EF0FF00701E95106082AE2FF0A03E13D
:1014D000E851CF0825E2E951090822E303E1E85188
:1014E000CF081EE3D00EE85DEE6F070EE959EF6FEF
:1014F000020EEF27F2CFF0F7F29CF29EEFC7AAFFA1
:10150000EEC7A9FFA69CA69EA680A850F0BDF28CAF
:10151000F0BFF28E036A016E0350026E62EF10F0AC
:10152000E95103083FE2FF0A03E1E8514B083AE2C0
:10153000E951040837E303E1E851930833E34C0E23
:10154000E85DEA6FEAC7EEF7060EEF6F00017CEC8C
:1015500005F000C0EBF7EAC7EEF7060E0701EF6FE4
:1015600000017CEC05F001C0EAF70701EA51060D25
:10157000F350036A190FEE6F000E0320EF6F036A3A
:10158000EB51EE25016EEF5103220150360FE96E4B
:10159000000E0320EA6EEF50036A016E03C002F0F2
:1015A00062EF10F0E951120820E2FF0A03E1E8516E
:1015B00087081BE2E951170818E303E1E8514708DF
:1015C00014E3880EE85F130EE95B030EED6FEC6B1E
:1015D000EC51E825E96EED51E921EA6EEF50036A1E
:1015E000016E03C002F062EF10F0E951160834E218
:1015F000FF0A03E1E8516F082FE2E95119082CE3D3
:1016000003E1E8514F0828E3700EE85F170EE95B2D
:10161000D890E837E937030EED6FEC6BEC51E82515
:10162000E96EED51E921EA6EEFCFEEF7010EE82504
:10163000EF6F000EE921F06FEC51EF25E96EED51EF
:10164000F021EA6EEFCFF1F7EEC703F0F1C701F03A
:10165000EEC702F062EF10F0E851006EE951036E40
:10166000035005E100520001D8B428D2070103500D
:1016700006E1010E005C0001D8B427D20701035037
:1016800006E1020E005C0001D8B426D20701035027
:1016900006E1030E005C0001D8B425D20701035017
:1016A00006E1040E005C0001D8B424D20701035007
:1016B00006E1050E005C0001D8B42FD207010350EB
:1016C00006E1060E005C0001D8B42ED207010350DB
:1016D00006E1070E005C0001D8B42DD207010350CB
:1016E00006E1080E005C0001D8B42CD207010350BB
:1016F00006E1090E005C0001D8B42BD207010350AB
:1017000006E10A0E005C0001D8B42AD2070103509A
:1017100006E10B0E005C0001D8B436D2070103507D
:1017200006E10C0E005C0001D8B435D2070103506D
:1017300006E10D0E005C0001D8B434D2070103505D
:1017400006E10E0E005C0001D8B433D2070103504D
:1017500006E10F0E005C0001D8B432D2070103503D
:1017600006E1100E005C0001D8B431D2070103502D
:1017700006E1110E005C0001D8B43DD20701035010
:1017800006E1120E005C0001D8B43CD20701035000
:1017900006E1130E005C0001D8B44BD207010350E0
:1017A00006E1140E005C0001D8B44FD207010350CB
:1017B00006E1150E005C0001D8B44ED207010350BB
:1017C00006E1160E005C0001D8B45DD2070103509B
:1017D00006E1170E005C0001D8B462D20701035085
:1017E00006E1180E005C0001D8B461D20701035075
:1017F00006E1190E005C0001D8B470D20701035055
:1018000006E11A0E005C0001D8B475D2070103503E
:1018100006E11B0E005C0001D8B474D2070103502E
:1018200006E11C0E005C0001D8B483D2070103500E
:1018300006E11D0E005C0001D8B488D207010350F8
:1018400006E11E0E005C0001D8B487D207010350E8
:1018500006E11F0E005C0001D8B496D207010350C8
:1018600006E1200E005C0001D8B49BD207010350B2
:1018700006E1210E005C0001D8B49AD207010350A2
:1018800006E1220E005C0001D8B4A9D20701035082
:1018900006E1230E005C0001D8B4AED2070103506C
:1018A00006E1240E005C0001D8B4ADD2070103505C
:1018B00006E1250E005C0001D8B4BCD2070103503C
:1018C00006E1260E005C0001D8B4C1D20701035026
:1018D00006E1270E005C0001D8B4C0D20701035016
:1018E00006E1280E005C0001D8B4CFD207010350F6
:1018F00006E1290E005C0001D8B4D4D207010350E0
:1019000006E12A0E005C0001D8B4D3D207010350CF
:1019100006E12B0E005C0001D8B4D8D207010350B9
:1019200006E12C0E005C0001D8B4D8D207010350A8
:1019300006E12D0E005C0001D8B4D8D20701035097
:1019400006E12E0E005C0001D8B4D8D20701035086
:1019500006E12F0E005C0001D8B4D8D20701035075
:1019600006E1300E005C0001D8B4D8D20701035064
:1019700006E1310E005C0001D8B4D8D20701035053
:1019800006E1320E005C0001D8B4D8D20701035042
:1019900006E1330E005C0001D8B4D8D20701035031
:1019A00006E1340E005C0001D8B4D8D20701035020
:1019B00006E1350E005C0001D8B4D8D20701030E51
:1019C000035C06E1E80E005C0001D8B4D7D2070141
:1019D000030E035C06E1E90E005C0001D8B4D6D228
:1019E0000701030E035C06E1EA0E005C0001D8B4B7
:1019F000D4D20701030E035C06E1EB0E005C00018C
:101A0000D8B4D2D20701030E035C06E1EC0E005CF1
:101A10000001D8B4D0D20701030E035C06E1ED0E3D
:101A2000005C0001D8B4CED20701030E035C06E1CE
:101A3000EE0E005C0001D8B4CCD20701030E035CAB
:101A400006E1EF0E005C0001D8B4CBD20701030E13
:101A5000035C06E1F00E005C0001D8B4C9D20701B6
:101A6000030E035C06E1F10E005C0001D8B4C8D29D
:101A70000701030E035C06E1F20E005C0001D8B41E
:101A8000C6D20701030E035C06E1F30E005C000101
:101A9000D8B4C4D20701030E035C06E1F40E005C67
:101AA0000001D8B4C3D20701030E035C06E1F50EB2
:101AB000005C0001D8B4C2D2070100D3A9C001F074
:101AC000AAC002F00701FED200019751016E9851A1
:101AD000026E0701F7D200019D51016E9E51026E08
:101AE0000701F0D20001A351016EA451026E07015B
:101AF000E9D200010701EE6B000177DC03C0CAF7F1
:101B000002C0C9F701C0C8F700C0C7F70701C75135
:101B1000016EC851026ED6D200010701C951016E93
:101B2000CA51026ECFD20001AB51016EAC51026EB0
:101B30000701C8D200019951016E9A51026E070146
:101B4000C1D200019F51016EA051026E0701BAD2AD
:101B50000001A551016EA651026E0701B3D200012A
:101B6000010E0701EE6F000140DC03C0CAF702C09E
:101B7000C9F701C0C8F700C0C7F70701C751016E18
:101B8000C851026E9FD200010701C951016ECA51AE
:101B9000026E98D20001AD51016EAE51026E070186
:101BA00091D200019B51016E9C51026E07018AD2B5
:101BB0000001A151016EA251026E070183D2000102
:101BC000A751016EA851026E07017CD20001020EDE
:101BD0000701EE6F000109DC03C0CAF702C0C9F7B4
:101BE00001C0C8F700C0C7F70701C751016EC8514F
:101BF000026E68D200010701C951016ECA51026E1E
:101C000061D20001036A0101CB51026ED890023605
:101C100003360250CB0FE96E000E0320EA6EECCFC4
:101C200003F0ED52EF50016E0350026E07014AD2ED
:101C300000010701EE6B0001F8EC07F00150016EA6
:101C40000250026E07013ED20001BB51016EBC5131
:101C5000026E070137D20001036A0101CB51026E07
:101C6000D890023603360250EB0FE96E000E0320C7
:101C7000EA6EECCF03F0ED52EF50016E0350026EAE
:101C8000070120D20001010E0701EE6F0001F8EC00
:101C900007F00150016E0250026E070113D20001DD
:101CA000BD51016EBE51026E07010CD20001036AE4
:101CB0000101CB51026ED8900236033602500B0F51
:101CC000E96E010E0320EA6EECCF03F0ED52EF5007
:101CD000016E0350026E0701F5D10001020E0701EB
:101CE000EE6F0001F8EC07F00150016E0250026E39
:101CF0000701E8D10001BF51016EC051026E07011A
:101D0000E1D10001036A0101CB51026ED890023685
:101D1000033602502B0FE96E010E0320EA6EECCF62
:101D200003F0ED52EF50016E0350026E0701CAD16D
:101D30000001030E0701EE6F0001F8EC07F00150FF
:101D4000016E0250026E0701BDD10001C151016E4A
:101D5000C251026E0701B6D10001036A0101CB51E5
:101D6000026ED8900236033602504B0FE96E010E18
:101D70000320EA6EECCF03F0ED52EF50016E0350FA
:101D8000026E07019FD10001040E0701EE6F0001F2
:101D9000F8EC07F00150016E0250026E070192D17B
:101DA0000001C351016EC451026E07018BD10001C5
:101DB000036A0101CB51026ED890023603360250FD
:101DC0006B0FE96E010E0320EA6EECCF03F0ED52CB
:101DD000EF50016E0350026E070174D10001050E31
:101DE0000701EE6F0001F8EC07F00150016E0250A0
:101DF000026E070167D10001C551016EC651026E26
:101E0000070160D10001036A0101CB51026ED89035
:101E10000236033602508B0FE96E010E0320EA6E84
:101E2000ECCF03F0ED52EF50016E0350026E07014C
:101E300049D10001060E0701EE6F0001F8EC07F032
:101E40000150016E0250026E07013CD10001C751E2
:101E5000016EC851026E070135D10001036A01010C
:101E6000CB51026ED890023603360250AB0FE96EAA
:101E7000010E0320EA6EECCF03F0ED52EF50016E3D
:101E80000350026E07011ED10001070E0701EE6F1D
:101E90000001F8EC07F00150016E0250026E0701DC
:101EA00011D10001C951016ECA51026E07010AD158
:101EB00000010101D351036ED251D22BD8B4D32BE0
:101EC000016E0350026E0701FDD000010101D651E1
:101ED000016ED751026E0701F5D000010101D45106
:101EE000016ED551026E0701EDD000010101D951FB
:101EF000016EDA51026E0701E5D0000126EF0AF00B
:101F0000000E016E026E0701DDD0000144EF0AF001
:101F1000000E016E026E0701D5D000010101CC5107
:101F2000016ECD51026E0701CDD000010101CE51ED
:101F3000016ECF51026E0701C5D000010101D051E1
:101F4000016ED151026E0701BDD0000158EF0AF0B9
:101F5000000E016E026E0701B5D000010101E251D1
:101F6000016EE351026E0701ADD000010101E451A1
:101F7000016EE551026E0701A5D00001036A3A50D7
:101F8000016E0350026E07019DD000013B50016EAF
:101F90003C50026E070196D00001500E016E000EFB
:101FA000026E07018FD00001570E016E000E026E07
:101FB000070188D00001580E016E000E026E070165
:101FC00081D00001010E016E000E026E07017AD071
:101FD0000001036A3650016E0350026E070172D091
:101FE00000013D50016E3E50026E07016BD00001B2
:101FF000036A3F50016E0350026E070163D0000177
:102000004050016E4150026E07015CD00001425009
:10201000016E4350026E070155D00001036A44501F
:10202000016E0350026E07014DD00001036A385063
:10203000016E0350026E070145D00001395207E1DD
:10204000B00E016E040E026E07013CD00001392C67
:1020500007D0600E016E090E026E070133D0000139
:102060003950020807E1C00E016E120E026E070120
:1020700029D000013950040807E1000E016E4B0E13
:10208000026E07011FD000013950050807E1000E5C
:10209000016E960E026E070115D000013950060838
:1020A00007E1000E016EE10E026E07010BD0000188
:1020B000800E016E250E026E070104D0FF0E016E28
:1020C000026E00D000018CEF10F0DDC7E6F7DCC730
:1020D000E7F7B7EC09F0D8900701E035E66FE13596
:1020E000E76FE6C7E8F700019DEC09F00701E36B35
:1020F000E26BE351E15D25E303E1E051E25D21E2C2
:10210000E251DE25E66FE351DF21E76FE96FE6C7B5
:10211000E8F7000162EF0AF002C0E5F701C0E4F75A
:10212000E5C7E6F7E5C7E8F79DEC09F0E4C7E6F791
:10213000E4C7E8F79DEC09F00701E22BD8B4E32BE4
:10214000D8D70001CEEC09F0B9EF13F00701E35145
:1021500006083BE2FF0A03E1E251CF0836E2E35111
:10216000090833E303E1E251CF082FE3E55100080A
:1021700008E2FF0A03E1E451000803E2030E016EE6
:10218000F3D1D00EE25DE86F070EE359E96F020E5E
:10219000E927E9C7AAFFE8C7A9FFE4C7A8FFA69CEB
:1021A000A69EA684F250006EF29CF29E0F01550E80
:1021B000A76EAA0EA76EA682A6B2FED7A69400505E
:1021C000F212000E016E0701CFD1E351030848E27D
:1021D000FF0A03E1E2514B0843E2E351040840E304
:1021E00003E1E25193083CE3E551000808E2FF0AED
:1021F00003E1E451000803E2030E016EB5D14C0E79
:10220000E25DE66FE6C7EEF7060EEF6F00017CECCD
:1022100005F000C0E7F7E6C7EEF7060E0701EF6F1F
:1022200000017CEC05F001C0E6F70701E651060D60
:10223000F350036A190FE86F000E0320E96F036A79
:10224000E751E825016EE95103220150360FE96E8E
:10225000000E0320EA6EE4C7EFFF000E016E84D18A
:102260000101D8531BE00701E251E80809E1E351FD
:10227000030806E1E4C73AF0000E016E75D10DD0F7
:10228000E251E9080AE1E351030807E1E5C73CF040
:10229000E4C73BF0000E016E67D101010701E25176
:1022A000006EE351036E030E035C06E1EE0E005C6C
:1022B0000001D8B46ED00701030E035C06E1EF0EF7
:1022C000005C0001D8B471D00701030E035C06E185
:1022D000F00E005C0001D8B470D00701030E035C5F
:1022E00006E1F10E005C0001D8B473D00701030EC3
:1022F000035C06E1F20E005C0001D8B470D0070167
:10230000030E035C06E1F30E005C0001D8B474D048
:102310000701030E035C06E1F40E005C0001D8B473
:1023200077D00701030E035C06E1F50E005C0001A7
:10233000D8B47AD00701070E035C06E1CC0E005C2E
:102340000001D8B4BFD00701070E035C06E1CD0E33
:10235000005C0001D8B4CBD00701070E035C06E196
:10236000CE0E005C0001D8B4CCD00701070E035C90
:1023700006E1CF0E005C0001D8B4D0D007014E0EAC
:10238000035C06E11F0E005C0001D8B4D4D0070145
:10239000E6D00701E55303E1E451800803E2030EB0
:1023A000016EE2D0E4C736F0DDD00101FA83E5C763
:1023B0003EF0E4C73DF00701D5D00701E55303E146
:1023C000E451010803E2030E016ECED0E4C73FF0F2
:1023D000C9D0E5C741F0E4C740F00701C3D0070109
:1023E000E45305E1E55303E1030E016EBDD0E5C7FB
:1023F00043F0E4C742F0B6D00701E55303E1E451EE
:10240000010803E2030E016EAFD0E4C744F0AAD086
:102410000701E55303E1E451020803E2030E016EF4
:10242000A3D0E4C738F09ED00701E66BE451B008B2
:1024300006E1E551040803E1010EE66F396AE45153
:10244000600806E1E551090803E1010EE66F396E07
:10245000E451C00807E1E551120804E1010EE66FFE
:10246000020E396EE451800807E1E551250804E1C8
:10247000010EE66F030E396EE45307E1E5514B0898
:1024800004E1010EE66F040E396EE45307E1E551F5
:10249000960804E1010EE66F050E396EE45307E17C
:1024A000E551E10804E1010EE66F060E396EE62DF6
:1024B00005D0000166EC04F005D00701030E016EA3
:1024C00053D00001030EEA6EE96A006A026EC00E84
:1024D000016E59EC04F0010EEA6EFE0EE96E006A20
:1024E000010E026E016A59EC04F007013BD00701AE
:1024F000E42D02D0E55303E0030E016E35D0FF005A
:1025000000010701E42D02D0E55303E0030E016E44
:102510002BD0000198EC06F0070124D00701E42D30
:1025200002D0E55303E0030E016E1ED000016EECF5
:1025300006F0070117D00701E4510A0803E1E5514D
:10254000070806E00101D86B030E016E07010CD0ED
:10255000010E0101D86FC80EF76F070103D0020EFC
:10256000016E02D0000E016E00011200DEC7E6F718
:10257000060E0701E76F0001B7EC09F0E0C7E3F7CB
:10258000E0C7E8F79DEC09F0DFC7E3F7DFC7E8F73E
:102590009DEC09F0E2C7E3F7E2C7E8F79DEC09F02C
:1025A000E1C7E3F7E1C7E8F79DEC09F0CEEC09F0ED
:1025B000F2EF13F0DCC7E6F7100E0701E76F00013A
:1025C000B7EC09F0DEC7E1F7DEC7E8F79DEC09F0EC
:1025D000DDC7E1F7DDC7E8F79DEC09F0E0C7E1F7FB
:1025E000E0C7E8F79DEC09F0DFC7E1F7DFC7E8F7E0
:1025F0009DEC09F0CEEC09F053EF14F0FBEF08F07E
:102600000152D8B471D1382C59D036500601C45D6E
:10261000D8A402D0000152D08C828C800400020E1B
:102620000701DC6FB50EDD6F00010EEC09F007014C
:10263000DC2FF8D70601C45100011EEC09F004009C
:10264000670E006E002EFED700000601C651000185
:102650001EEC09F00400670E006E002EFED700008D
:102660000701DB6B020E0601C5250701DB5D16E2E3
:10267000C80EDB25E96E060EEA6ED8B0EA2AEFCF67
:10268000DCF7DC5100011EEC09F00400670E006E5F
:10269000002EFED700000701DB2BE4D772A2FED785
:1026A0000400020EDC6FB50EDD6F00010EEC09F0C8
:1026B0000701DC2FF8D78C928C90000136508008EF
:1026C00006E036500601C45DD8A403D10001010123
:1026D000CC3D03D0CD3D01D003D0CC2BD8B4CD2BF5
:1026E000140EF76F0601C651030A000108E0070A3D
:1026F00006E0020A40E0160AD8B476D0D6D0C8C6A2
:10270000D7F7C9C6D6F7CAC6D9F7CBC6D8F70701D7
:10271000D851D625DC6FD951D721DD6FD7C7DFF768
:10272000D6C7DEF7E16FDCC7E0F7000122EF09F062
:10273000015212E1C4C6DCF70701DE6BC6C6DDF745
:10274000020EDF6F0001E5EC09F00101D16B020E12
:10275000D06FF76B0FD00001C6C6DCF7C4C6DDF73B
:10276000D7C7DFF7D6C7DEF7D9C7E1F7D8C7E0F795
:10277000ACD40101AAD0C8C6D7F7C9C6D6F7CAC615
:10278000DDF7CBC6DCF7D7C7E3F7D6C7E2F7CAC693
:10279000E5F7CBC6E4F7DADC01C0DAF70701DA5374
:1027A00011E0C4C6DCF7DE6BC6C6DDF7DAC7DFF7BB
:1027B0000001E5EC09F00101D16BDAC7D0F1F76B4C
:1027C00012D00701CAC6DDF7CBC6DCF7C4C6DEF7F8
:1027D000D7C7E0F7D6C7DFF7CAC6E2F7CBC6E1F73F
:1027E0000001C4D6010171D0C8C6D7F7C9C6D6F753
:1027F000CAC6D9F7CBC6D8F70701DB6BD95303E1BB
:10280000D851DB5D42E2DB51D625DC6F000ED721CB
:10281000DD6FD890DB35050FC80FE96E060EEA6E46
:10282000D8B0EA2AEFCFDEF7D890DB35060FC80F15
:10283000E96E060EEA6ED8B0EA2AEFCFDFF7DEC700
:10284000E1F7DFC7E0F7DDC7E3F7DCC7E2F7DEC794
:10285000E5F7DFC7E4F7000179DC01C0DAF707012B
:10286000DA5311E0C4C6DCF7DE6BC6C6DDF7DAC7A3
:10287000DFF70001E5EC09F00101D16BDAC7D0F117
:10288000F76B070102D0DB2BB9D7DA530CE1C4C6D2
:10289000DCF7D7C7DEF7D6C7DDF7D9C7E0F7D8C76B
:1028A000DFF7000187D6010110D0C4C6DCF70701AD
:1028B000DE6BC6C6DDF7010EDF6F0001E5EC09F047
:1028C0000101D16B010ED06FF76BDA6BD96B0CD0B5
:1028D00006010101CE3D03D0CF3D01D003D0CE2B68
:1028E000D8B4CF2B0A0EF76F0001BDEF16F0080128
:1028F000E26BE051E25D36E2036AE251DE25E96E09
:10290000DF510320EA6EEF522DE0036AE251DE252B
:10291000E96EDF510320EA6EEF500A0823E0036AF4
:10292000E251DE25E96EDF510320EA6EEF500D081B
:1029300019E0036AE251DC25016EDD51032203C078
:10294000E4F8036AE251DE25E96EDF510320EA6E06
:10295000EFCFE5F8E4C8EAFF01C0E9FFE5C8EFFF03
:10296000E22BC7D7E151E25D0AE2036AE251DC25BE
:10297000E96EDD510320EA6EEF6AE22BF3D7010E18
:10298000E15D036ADC25E96EDD510320EA6EEF6A42
:10299000000112000801E05302E1E15342E0DCC80B
:1029A000E9FFDDC8EAFFEFCFE2F8DFC803F0DEC8D9
:1029B000E9FFDFC8EAFFEF50E25D17E0DDC803F092
:1029C000DCC8E9FFDDC8EAFFEFCFE2F8DFC803F0BB
:1029D000DEC8E9FFDFC8EAFFEF50E25D02E2FF0E6A
:1029E00001D0010E016E1FD00BD0DDC803F0DCC892
:1029F000E9FFDDC8EAFFEF5203E1000E016E13D0DC
:102A0000DDC803F0DC51DC2BD8B4DD2BDFC803F0CC
:102A1000DE51DE2BD8B4DF2BE051D8B4E107E0075C
:102A2000BAD7000E016E00017EEF15F0FEC2D6F897
:102A30000201FE69070EEA6ED60EE96E010EE26E25
:102A4000FE0EE16E0801D651016E04E0E6CFEEFF06
:102A5000012EFCD70201FF6BFE6B382C1BD0080146
:102A6000D86BD76BD85314E1D651D75D11E2D60E8F
:102A7000D725E96E070ED821EA6EEFCFDAF8DA51E2
:102A8000000199EC09F00801D72BD8B4D82BEAD76C
:102A90005DD00201385002085AE1060E0801DD6FD0
:102AA000700EDC6F070EDF6FD60EDE6FD6C8E0F853
:102AB000500EE16F00011BDF0801D651050801E34C
:102AC00045D0D96BD9510B0841E3D951060DF350CC
:102AD000036A4F0F016E000E032201C0DAF803C033
:102AE000DBF8070EDD6FD60EDC6F03C0DFF801C028
:102AF000DEF8E16B060EE06F00014CD7015201E0F9
:102B000022D00801DB6BD9C8DAF8DD6B500EDC6F20
:102B1000000148EC04F002C003F00150030E03264C
:102B200001C0DAF8080103C0DBF803C0DDF801C01A
:102B3000DCF8070EDF6FD60EDE6FD6C8E0F8500E59
:102B4000E16F0001D4DE0801D92BBCD702010001DE
:102B5000C3EF16F0F86AF1949F829F9AA59AD08EDF
:102B6000078EEA6AE96A356AB8960C0EAF6EA60E51
:102B7000AC6E900EAB6E70964D0E756EA60E726EAC
:102B8000900E716E0601C091C16B0701CB6B0601FF
:102B9000C093C095C097C099C09BC09D0701CC6BE6
:102BA000CE6BCD6BD06BCF6BD26BD16BC150F00BBA
:102BB000C16E000E0F01386F3C6F396F3A6F3B6F7B
:102BC0000101886B776A786A796A2F6A306A07012F
:102BD000C76BC86BC96BCA6BD36BD46BD0500F0B70
:102BE000D0A8000ED080D082D088D886D888D56F63
:102BF0000001A7EF04F08C828C80D20EF66E070ED7
:102C0000F76E070E0701D66F000156EC05F0DE0ED9
:102C1000F66E070EF76E6BEC05F00D0EA4A8FED74E
:102C2000736E0A0EA4A8FED7736EE80EF66E070E3A
:102C3000F76E120E0701D66F000156EC05F0D5C7EE
:102C4000D6F71B0E0701D76F000192EF05F0200E9B
:102C5000A4A8FED7736E0701D551070A00010DE045
:102C60000C0A12E0040A17E0030A1CE0020A21E041
:102C70000D0A26E0030A2BE031D0FE0EF66E070E99
:102C8000F76E6BEC05F030D00A0EF66E080EF76E9C
:102C90006BEC05F029D01A0EF66E080EF76E6BEC91
:102CA00005F022D0280EF66E080EF76E6BEC05F0DC
:102CB0001BD0380EF66E080EF76E6BEC05F014D0D4
:102CC0004A0EF66E080EF76E6BEC05F00DD05A0E3C
:102CD000F66E080EF76E6BEC05F006D06C0EF66E15
:102CE000080EF76E6BEC05F0760EF66E080EF76EBA
:102CF0006BEC05F0EEEF06F03650800802E298EC3F
:102D000006F0AB8EAB881DEF07F00701D56BD551F0
:102D10001D0806E300017CEC07F00701D52BF7D76F
:102D200044C0DBF172A2FED78C928C907A0EF66EC4
:102D3000080EF76E070ED66F0001D0EF07F0860E73
:102D4000F66E080EF76EE6EF07F00D0E9EA8FED7A2
:102D5000AD6E0A0E9EA8FED7AD6E04000101FAA565
:102D600004D000013CEF08F00101FAA104D0FA916F
:102D700000017CEC07F0000141D40101FDA104D069
:0E2D8000FD91000153D601010001E7D70300C9
:020000040030CA
:0E00000000231E3F003F81000FC00FE00F40A5
:00000001FF
;PIC18F46K22
;CRC=D20F  CREATED="23-Nov-15 14:25"
