:04000000EAEF10F023
:080008006BEF00F000000000A6
:100010000000000000000000046ED8CF05F0E0CF23
:1000200006F00001E9CF0CF0EACF07F0E1CF08F0CD
:10003000E2CF09F0D9CF0AF0DACF0BF0F3CF12F00C
:10004000F4CF13F0FACF14F0F5CF15F0F6CF16F089
:10005000F7CF17F000C00EF001C00FF002C010F093
:1000600003C011F0F2AA38EF00F0F2B4D8EF01F0BB
:100070009DAA3EEF00F09EBA59EF03F0A3AA44EF09
:1000800000F0A4BA1CEF03F00EC000F00FC001F0A6
:1000900010C002F011C003F00CC0E9FF07C0EAFF76
:1000A000078E08C0E1FF09C0E2FF0AC0D9FF0BC0FC
:1000B000DAFF12C0F3FF13C0F4FF14C0FAFF15C03B
:1000C000F5FF16C0F6FF17C0F7FF045006C0E0FFAB
:1000D00005C0D8FF10001A6ED8CF1BF0E0CF1CF07F
:1000E0000001E9CF22F0EACF1DF0E1CF1EF0E2CF10
:1000F0001FF0D9CF20F0DACF21F0F3CF28F0F4CFE2
:1001000029F0FACF2AF0F5CF2BF0F6CF2CF0F7CF6D
:100110002DF000C024F001C025F002C026F003C07D
:1001200027F09DA297EF00F09EB2F1EF01F024C0FE
:1001300000F025C001F026C002F027C003F022C065
:10014000E9FF1DC0EAFF1D8E1EC0E1FF1FC0E2FFD8
:1001500020C0D9FF21C0DAFF28C0F3FF29C0F4FF77
:100160002AC0FAFF2BC0F5FF2CC0F6FF2DC0F7FF09
:100170001A501CC0E0FF1BC0D8FF1000F76A8C0F9C
:10018000F66E010EF7220900F550120000C1814001
:1001900001C0804101C0804100C1814001C0804157
:1001A00000C1814000C1814001C0804101C0804147
:1001B00000C1814000C1814001C0804100C1814037
:1001C00001C0804101C0804100C1814001C0804127
:1001D00000C1814000C1814001C0804100C1814017
:1001E00001C0804101C0804100C1814000C1814007
:1001F00001C0804101C0804100C1814001C08041F7
:1002000000C1814000C1814001C0804101C08041E6
:1002100000C1814000C1814001C0804100C18140D6
:1002200001C0804101C0804100C1814000C18140C6
:1002300001C0804101C0804100C1814001C08041B6
:1002400000C1814000C1814001C0804100C18140A6
:1002500001C0804101C0804100C1814001C0804196
:1002600000C1814000C1814001C0804101C0804186
:1002700000C1814000C1814001C0804100C1814076
:1002800001C0804101C0804100C18140F76A9C0FDC
:10029000F66E020EF7220900F550120000C0C101EF
:1002A000C30302C2C60607C705C5C404CC0C0DCDE6
:1002B0000FCFCE0E0ACACB0BC90908C8D81819D956
:1002C0001BDBDA1A1EDEDF1FDD1D1CDC14D4D51586
:1002D000D71716D6D21213D311D1D010F03031F176
:1002E00033F3F23236F6F737F53534F43CFCFD3DA6
:1002F000FF3F3EFEFA3A3BFB39F9F83828E8E92996
:10030000EB2B2AEAEE2E2FEF2DEDEC2CE42425E545
:1003100027E7E62622E2E323E12120E0A06061A1B5
:1003200063A3A26266A6A767A56564A46CACAD6D65
:10033000AF6F6EAEAA6A6BAB69A9A86878B8B979D5
:10034000BB7B7ABABE7E7FBF7DBDBC7CB47475B505
:1003500077B7B67672B2B373B17170B050909151F5
:100360009353529296565797559594549C5C5D9D25
:100370005F9F9E5E5A9A9B5B995958988848498915
:100380004B8B8A4A4E8E8F4F8D4D4C8C44848545C5
:10039000874746868242438341818040F29A090121
:1003A000D25304E0D76AD66AF294F28A00011200AE
:1003B0000701B85102080AE1B95308E1BA5306E14E
:1003C000B7B104D0020EBC5FB78101D0B791BA6952
:1003D000B969B86B0901D26B0001E0DFF29444EF18
:1003E00000F00901D4A10CD001019A3D05D09B3D3C
:1003F00003D0090105D001019A2BD8B49B2B090128
:10040000D4A50CD001019C3D05D09D3D03D0090130
:1004100005D001019C2BD8B49D2B0901D4A90CD087
:1004200001019E3D05D09F3D03D0090105D001018A
:100430009E2BD8B49F2B0901D49381B0D483D4B31D
:1004400040D00701B7B302D009013BD00001602BB7
:10045000D8B4612B010E6627D8B0672BD8B4682BAF
:10046000D8B4692B0701B7A523D00901D4919BC14A
:100470004FF09AC14EF04F50555C08E303E15450E1
:100480004E5C04E24FC055F04EC054F05B504F5CE0
:100490000DE303E14E505A5C09E24E3C03D04F3C61
:1004A00001D004D04FC05BF04EC05AF00701B795A1
:1004B000B7B507D001019B6B9A6B0901D481070185
:1004C000B7850701B7930901D4A303D00701B78308
:1004D0000901D49781B2D487D4B740D00701B7B708
:1004E00002D009013BD00001622BD8B4632B010E6E
:1004F0006A27D8B06B2BD8B46C2BD8B46D2B0701FE
:10050000B7A923D00901D4959DC151F09CC150F0E9
:100510005150575C08E303E15650505C04E251C06F
:1005200057F050C056F05D50515C0DE303E1505060
:100530005C5C09E2503C03D0513C01D004D051C076
:100540005DF050C05CF00701B799B7B907D0010161
:100550009D6B9C6B0901D4850701B7890701B7978B
:100560000901D4A703D00701B7870901D49B81B43F
:10057000D48BD4BB40D00701B7BB02D009013BD01C
:100580000001642BD8B4652B010E6E27D8B06F2BF9
:10059000D8B4702BD8B4712B0701B7AD23D00901A3
:1005A000D4999FC153F09EC152F05350595C08E357
:1005B00003E15850525C04E253C059F052C058F065
:1005C0005F50535C0DE303E152505E5C09E2523C24
:1005D00003D0533C01D004D053C05FF052C05EF052
:1005E0000701B79DB7BD07D001019F6B9E6B090145
:1005F000D4890701B78D0701B79B0901D4AB03D09C
:100600000701B78B09010801C22BC2510A0804E196
:10061000C26B0101AE8508019E92000197EF00F0C8
:10062000A4AAFED771CF35F074CF01F035A202D065
:10063000719871881DEF03F0F3D701C0D1F93852DA
:1006400010E00301B66BB53D01D00AD0B50EB5255B
:10065000E96E020EEA6ED8B0EA2AD1C9EFFFB52BD7
:100660000001A49A44EF00F09EAAFED7ABCF35F06C
:10067000AECF01F035A202D0AB98AB881200A4A88F
:10068000FED7736E12000701BA510901D219D36F58
:10069000036AD351000172DD016E0701B9510118DF
:1006A000BA6F036A0901D3510001F0DDE8CFB9F751
:1006B0001200DADF01C0D1F9010190A105D00901D2
:1006C000D1510001DCDF2DD00701B7B12BD0B853D9
:1006D00008E1BA69B969D1C9BBF7B82BBC6BBE6B6D
:1006E00017D0B82D04D0D1C9BDF7B82B11D0B8514F
:1006F00002080EE1BC3D02D0FE0EBC6FBF0EBC2551
:10070000E96E070EEA6ED8B0EA2AD1C9EFFFBC2B1A
:10071000D1C9D2F90001B7DF010E0901D26F000182
:100720003DDE07019E9A000144EF00F02320706334
:1007300077782025730D0A0032302D4E6F762D31DB
:1007400035000801E751E903F3CF01F0F4CF00F0E1
:10075000EA03F3500026E851E903F3500020026E4B
:1007600000011200C290080E616EF19E000E926EA2
:10077000FF0E936E920E946E800E956E96909692EA
:10078000969496960101AB6BAD6B020EAC6FAE9179
:10079000AE93AE95AF69B0690201B26BB369010166
:1007A000B1910301B56BB6690201B4910801CD6B3B
:1007B000CD51020856E3036ACDC802F0D890023644
:1007C000033602504E0FE96E000E0320EA6EEC6A0B
:1007D000ED52EF6A036ACDC802F0D89002360336B4
:1007E0000250540FE96E000E0320EA6EEC68ED52E1
:1007F000EF68036ACDC802F0D89002360336025083
:100800005A0FE96E000E0320EA6EEC6AED52EF6AB1
:10081000036ACDC802F0D890023603360250600F4A
:10082000E96E000E0320EA6EEC6AED52EF6AE86BA7
:10083000CDC8E7F8EA6B040EE96F000182DF0150D2
:10084000660FE96E000E0220EA6EEE52EE52EC6A7E
:10085000ED52EF6AED52EF6AED52EF6A0801CD2BCF
:10086000A7D70101846B836B866B856B886B876B65
:100870008A6B896B8C6B8B6B8E6B8D6B826B8F6BCA
:100880009091926B916B4BC095F14AC094F147C027
:1008900097F146C096F1996B986BF19CF19AF1989B
:1008A000000E0509BA6E4A0EBB6E9D82A38A000136
:1008B0003BEF11F00801D66BD5C803F0D451D8B482
:1008C000D507D407D76F03C0D8F8D75302E1D85360
:1008D00035E0D3C803F0D251E96E03C0EAFFD1512D
:1008E000036ED051D02BD8B4D12BD96F03C0DAF816
:1008F000F2CFDBF8F29CF29EDAC8AAFFD9C8A9FFB2
:10090000A69CA69EA680A850DBBDF28CDBBFF28E13
:10091000EF6ED3C803F0D251E96E03C0EAFFEFCF08
:10092000D7F8D6C8E8F8D7C8E9F8E851E919016E50
:1009300001C0D6F8D22BD8B4D32BBED7D6C801F07D
:1009400000014CEF05F00801E66BE5C803F0E45147
:10095000D8B4E507E407E76F03C0E8F8E75302E11E
:10096000E8533FE0E3C803F0E251E96E03C0EAFF59
:10097000EFCFE7F8E6C8E8F8E7C8E9F8E851E91981
:10098000016E01C0E6F8E151036EE051E02BD8B4EE
:10099000E12BE76F03C0E8F8E351036EE251E22B6D
:1009A000D8B4E32BE96E03C0EAFFEFCFE9F8E8C85B
:1009B000AAFFE7C8A9FFE9C8A8FFA69CA69EA6842F
:1009C000F250006EF29CF29E0F01550EA76EAA0E19
:1009D000A76EA682A6B2FED7A6940050F212080116
:1009E000B4D7E6C801F0000106EF05F00801DF6B9F
:1009F000360EDE6FE16B020EE06FDFC8E3F8DEC893
:100A0000E2F8E56B180EE46F00019DD701C0DDF838
:100A1000AA6AA96ADDC8A8FFA69CA69EA684F25071
:100A2000006EF29CF29E0F01550EA76EAA0EA76EE5
:100A3000A682A6B2FED7A6940050F21200011200C0
:100A4000960E0101AB6F260E366E010E386E500EFB
:100A5000396E260E3B6E940E3A6E3D6A140E3C6E55
:100A60003E6A020E406E760E3F6E426A020E416E84
:100A7000436A0001BBDF12000801CF6B360ECE6F58
:100A8000D16B020ED06FCFC8D3F8CEC8D2F8D56BD9
:100A9000180ED46F00010ED701C0CDF8F2CFCEF8FA
:100AA000F29CF29EAA6AA96AA69CA69EA680A8505D
:100AB0000801CEBDF28CCEBFF28ECD5D03E0000109
:100AC000BFDF080100013DEF11F09EAA02D0CCDD8E
:100AD000FCD79D8A1200F9DFC60ED56EC00EF21249
:100AE00046EF11F08B968B8A8C940801D05303E16A
:100AF000030ED46F25D0D02D03D0130ED46F20D089
:100B0000D051020803E10B0ED46F1AD0D051030864
:100B100003E11B0ED46F14D0D051040803E1070E7B
:100B2000D46F0ED0D051050803E1170ED46F08D052
:100B3000D051060803E10F0ED46F02D01F0ED46F00
:100B4000D36BD35104080BE38B96D4B102D08B9AAC
:100B500001D08B8AD890D4338B86D32BF2D7D26B2B
:100B6000D16BD36BD3510D080BE38B9682B802D0B7
:100B7000D89001D0D880D137D2378B86D32BF2D7FB
:100B8000D29BD2998C84D1C801F0D2C802F0000166
:100B900000EF06F00101822B82510F0801E2826B07
:100BA0000801CD6BCD51070846E3E86BCDC8E7F8E7
:100BB000EA6B200EE96F0001C4DD02C003F00150B2
:100BC000340F0801CE6F000E0220CF6F036A0101BF
:100BD00082C102F0D8900236033602500801CE25B9
:100BE000016ECF51032201504E0F016E000E032201
:100BF00001C0CEF803C0CFF8CDC8D0F8000172D73D
:100C0000CFC8EAFFCEC8E9FF02C0ECFFED5201C039
:100C1000EFFF036A0801CDC802F0D8900236033610
:100C20000250720FE96E000E0320EA6EEC6AED527C
:100C3000EF6ACD2BB7D7000112000900F6CFCEF82E
:100C4000F7CFCFF8F5509EA8FED7AD6ECEC8F6FF11
:100C5000CFC8F7FF0801CD2F01D002D00001EDD79A
:100C600000015CEF11F00900F5520DE0F6CFCDF870
:100C7000F7CFCEF8F5509EA8FED7AD6ECDC8F6FFE3
:100C8000CEC8F7FFF0D762EF11F00801E86BE1C8BA
:100C9000E7F8EA6B200EE96F000153DD02C003F0B4
:100CA0000150820F016E000E032201C0E5F8080119
:100CB00003C0E6F8E36BE26BE46BE4510F0811E369
:100CC000D890E435036AE525E96EE6510320EA6E23
:100CD000ECCF03F0ED52EF50E2270350E323E42B77
:100CE000ECD7080EE225E76F000EE321E86FE8314C
:100CF000036EE731026E03320232033202320332F4
:100D000002320F0E031602C001F003C002F0000110
:100D100012000101AE95D8900801C835CD6FC935D4
:100D2000CE6F000E0101B0AB010E0801CD13CDC88E
:100D3000C8F8CE51E009C96FC85303E1C951F008A2
:100D400000E101019A3D04D09B3D02D04F6A4E6AFA
:100D50009C3D04D09D3D02D0516A506A9E3D04D016
:100D60009F3D02D0536A526A81CFAFF182CFB0F17A
:100D700090A102D0898606D0AB5302E1899602D0B9
:100D80008986AB078D3D03D08E3D01D003D08D2BDE
:100D9000D8B48E2B0801C62BD8B4C72BC651E8088F
:100DA00042E1C75103083FE1C76BC66B0101913DAA
:100DB00003D0923D01D003D0912BD8B4922B3F5257
:100DC00002E140520FE04050925D0CE303E191518B
:100DD0003F5C08E2AC5306E1AD5304E142C0ADF123
:100DE00041C0ACF1AC5304E1AD5302E18B800BD0B8
:100DF0008B90AC51D8B4AD07AC07AC5304E1AD5304
:100E000002E1926B916B0801C32BC3513C080BE1CB
:100E1000C36B01018B3D03D08C3D01D003D08B2BE4
:100E2000D8B48C2B0801CA3D09D0CB3D07D0E16B6B
:100E300000012BDF02C0CBF801C0CAF80101AEA34C
:100E400004D0AE930801C56BC46B0801C42BD8B4A1
:100E5000C52B3C50C45D0AE13D50C55D07E1C56B43
:100E6000C46B0101AE810801CB69CA690201B33DBF
:100E700001D001D0B32B0301B63D01D001D0B62B78
:100E80000201B351090804E2B25302E00101B18149
:100E90000301B651090805E2B55303E00201B4812C
:100EA0000301000171EF11F00701B7B104D0000E8A
:100EB000016E0AD006D0BDAF04D0BFC7BEF7010E89
:100EC000BC6FB791010E016E000140EF0FF0050EEF
:100ED0000801D45F0AE3080EEA6ED40EE96EEF5003
:100EE00004E001D00400EF2EFDD70001120008013C
:100EF000D5511F080CE1D6514E0809E1D751200801
:100F000006E1D8514E0803E1010E016E2ED0D651F4
:100F100002080FE2FF0A03E1D551E7080AE2D851BF
:100F2000030807E303E1D751F50803E3010E016E5F
:100F30001CD0D65106080FE2FF0A03E1D551CF08B5
:100F40000AE2D851090807E303E1D751D10803E3C6
:100F5000010E016E0AD0D85306E1D751340803E3DD
:100F6000010E016E02D0000E016E0001D8EF0FF0ED
:100F70009EA8FED7AD6E12000801DF510001F8DF18
:100F8000196AF2BC198CF29CF2BE198EF29EDFC86F
:100F9000D2F943EC03F019BCF28C19BEF28E0400B6
:100FA000080E006E002EFED7000012000701BA697D
:100FB000B969B7919D9A04003C0E006E002EFED7D1
:100FC0000000DDC8DFF80001D7DFDEC8DFF8D4DFBE
:100FD0001200ACA2FED7F8EF07F0BAC7DEF8B9C727
:100FE000DDF8DEC8DFF8C8DFDDC8DFF8C5DFF1D720
:100FF00004003C0E006E002EFED7000066DD0701E7
:10100000BA69B969000112000801D4518009D76F8B
:10101000D5C8D8F8D3C8DDF8DE6F0001C7DFD6C861
:10102000DFF8AADFDADF1200F29CF29EF2BEFDD7F3
:101030000801E86BE1C8E7F8EA6B040EE96F00010C
:10104000A1EC03F002C003F00150660FE96E000E40
:101050000220EA6EEFCF00F0ECCF01F0ECCF02F00F
:10106000ECCF03F003C0E5F802C0E4F801C0E3F8F8
:1010700000C0E2F8C00EF212E2C800F0E3C801F0CE
:10108000E4C802F0E5C803F01200F29CF29EF2BE42
:10109000FDD7616B606B636B626B656B646B5568EE
:1010A000546857685668596858685B6A5A6A5D6A36
:1010B0005C6A5F6A5E6A01018E6B8D6BC00EF21214
:1010C0000001EAEF0CF0F29CF29EF2BEFDD7696BD4
:1010D000686B676B666B6D6B6C6B6B6B6A6B716B64
:1010E000706B6F6B6E6BC00EF212F2EF0CF00101C1
:1010F000846B836B866B856B886B876B000112EF4B
:101100000DF00801E05106082AE2FF0A03E1DF5171
:10111000CF0825E2E051090822E303E1DF51CF08BF
:101120001EE3D00EDF5DE16F070EE059E26F020EA5
:10113000E227F2CFE3F8F29CF29EE2C8AAFFE1C8F0
:10114000A9FFA69CA69EA680A850E3BDF28CE3BF93
:10115000F28E036A016E0350026E7BEF0DF0DF51D9
:10116000006EE051036E035005E100520001D8B457
:101170000FD20801035006E1010E005C0001D8B453
:101180000ED20801035006E1020E005C0001D8B443
:101190000DD20801035006E1030E005C0001D8B433
:1011A0000CD20801035006E1040E005C0001D8B423
:1011B0000BD20801035006E1050E005C0001D8B413
:1011C00016D20801035006E1060E005C0001D8B4F7
:1011D00015D20801035006E1070E005C0001D8B4E7
:1011E00014D20801035006E1080E005C0001D8B4D7
:1011F00013D20801035006E1090E005C0001D8B4C7
:1012000012D20801035006E10A0E005C0001D8B4B6
:1012100011D20801035006E10B0E005C0001D8B4A6
:101220001DD20801035006E10C0E005C0001D8B489
:101230001CD20801035006E10D0E005C0001D8B479
:101240001BD20801035006E10E0E005C0001D8B469
:101250001AD20801035006E10F0E005C0001D8B459
:1012600019D20801035006E1100E005C0001D8B449
:1012700018D20801035006E1110E005C0001D8B439
:1012800024D20801035006E1120E005C0001D8B41C
:1012900023D20801035006E1130E005C0001D8B40C
:1012A00032D20801035006E1140E005C0001D8B4EC
:1012B00036D20801035006E1150E005C0001D8B4D7
:1012C00035D20801035006E1160E005C0001D8B4C7
:1012D00044D20801035006E1170E005C0001D8B4A7
:1012E00049D20801035006E1180E005C0001D8B491
:1012F00048D20801035006E1190E005C0001D8B481
:1013000057D20801035006E11A0E005C0001D8B460
:101310005CD20801035006E11B0E005C0001D8B44A
:101320005BD20801035006E11C0E005C0001D8B43A
:101330006AD20801035006E11D0E005C0001D8B41A
:101340006FD20801035006E11E0E005C0001D8B404
:101350006ED20801035006E11F0E005C0001D8B4F4
:101360007DD20801035006E1200E005C0001D8B4D4
:1013700082D20801035006E1210E005C0001D8B4BE
:1013800081D20801035006E1220E005C0001D8B4AE
:1013900090D20801035006E1230E005C0001D8B48E
:1013A00095D20801035006E1240E005C0001D8B478
:1013B00094D20801035006E1250E005C0001D8B468
:1013C000A3D20801035006E1260E005C0001D8B448
:1013D000A8D20801035006E1270E005C0001D8B432
:1013E000A7D20801035006E1280E005C0001D8B422
:1013F000B6D20801035006E1290E005C0001D8B402
:10140000BBD20801035006E12A0E005C0001D8B4EB
:10141000BAD20801035006E12B0E005C0001D8B4DB
:10142000BFD20801035006E12C0E005C0001D8B4C5
:10143000BFD20801035006E12D0E005C0001D8B4B4
:10144000BFD20801035006E12E0E005C0001D8B4A3
:10145000BFD20801035006E12F0E005C0001D8B492
:10146000BFD20801035006E1300E005C0001D8B481
:10147000BFD20801035006E1310E005C0001D8B470
:10148000BFD20801035006E1320E005C0001D8B45F
:10149000BFD20801035006E1330E005C0001D8B44E
:1014A000BFD20801030E035C06E1E80E005C0001F8
:1014B000D8B4BED20801030E035C06E1E90E005C5D
:1014C0000001D8B4BDD20801030E035C06E1EA0EA8
:1014D000005C0001D8B4BBD20801030E035C06E136
:1014E000EB0E005C0001D8B4B9D20801030E035C16
:1014F00006E1EC0E005C0001D8B4B7D20801030E7F
:10150000035C06E1ED0E005C0001D8B4B5D2080121
:10151000030E035C06E1EE0E005C0001D8B4B3D20A
:101520000801030E035C06E1EF0E005C0001D8B475
:10153000B2D20801030E035C06E1F00E005C00016C
:10154000D8B4B0D20801030E035C06E1F10E005CD2
:101550000001D8B4AFD20801030E035C06E1F20E1D
:10156000005C0001D8B4ADD20801030E035C06E1B3
:10157000F30E005C0001D8B4ABD20801030E035C8B
:1015800006E1F40E005C0001D8B4AAD20801AFD283
:1015900060C001F061C002F00801ADD200014E5000
:1015A000016E4F50026E0801A6D200015450016E28
:1015B0005550026E08019FD200015A50016E5B50D7
:1015C000026E080198D200010801E16B00012CDDD8
:1015D00003C0C1F802C0C0F801C0BFF800C0BEF827
:1015E0000801BE51016EBF51026E85D20001080193
:1015F000C051016EC151026E7ED200016251016E76
:101600006351026E080177D200015050016E5150B3
:10161000026E080170D200015650016E5750026EE2
:10162000080169D200015C50016E5D50026E080134
:1016300062D20001010E0801E16F0001F5DC03C078
:10164000C1F802C0C0F801C0BFF800C0BEF8080170
:10165000BE51016EBF51026E4ED200010801C05151
:10166000016EC151026E47D200016451016E655195
:10167000026E080140D200015250016E5350026EBA
:10168000080139D200015850016E5950026E08010C
:1016900032D200015E50016E5F50026E08012BD203
:1016A0000001020E0801E16F0001BEDC03C0C1F8B9
:1016B00002C0C0F801C0BFF800C0BEF80801BE51AA
:1016C000016EBF51026E17D200010801C051016EB8
:1016D000C151026E10D20001036A01018251026EF3
:1016E000D890023603360250820FE96E000E0320B6
:1016F000EA6EECCF03F0ED52EF50016E0350026E34
:101700000801F9D100010801E16B000145EC06F088
:101710000150016E0250026E0801EDD100017251BC
:10172000016E7351026E0801E6D10001036A0101E6
:101730008251026ED890023603360250A20FE96E33
:10174000000E0320EA6EECCF03F0ED52EF50016E75
:101750000350026E0801CFD10001010E0801E16FB4
:10176000000145EC06F00150016E0250026E0801C6
:10177000C2D100017451016E7551026E0801BBD1D6
:101780000001036A01018251026ED89002360336CD
:101790000250C20FE96E000E0320EA6EECCF03F098
:1017A000ED52EF50016E0350026E0801A4D100010A
:1017B000020E0801E16F000145EC06F00150016ED8
:1017C0000250026E080197D100017651016E7751E7
:1017D000026E080190D10001036A01018251026E7C
:1017E000D890023603360250E20FE96E000E032055
:1017F000EA6EECCF03F0ED52EF50016E0350026E33
:10180000080179D10001030E0801E16F000145ECE8
:1018100006F00150016E0250026E08016CD1000109
:101820007851016E7951026E080165D10001036A99
:1018300001018251026ED890023603360250020F27
:10184000E96E010E0320EA6EECCF03F0ED52EF508B
:10185000016E0350026E08014ED10001040E080112
:10186000E16F000145EC06F00150016E0250026E7E
:10187000080141D100017A51016E7B51026E0801CD
:101880003AD10001036A01018251026ED8900236FA
:1018900003360250220FE96E010E0320EA6EECCFF0
:1018A00003F0ED52EF50016E0350026E080123D198
:1018B0000001050E0801E16F000145EC06F0015042
:1018C000016E0250026E080116D100017C51016EBA
:1018D0007D51026E08010FD10001036A010182519E
:1018E000026ED890023603360250420FE96E010EA6
:1018F0000320EA6EECCF03F0ED52EF50016E03507F
:10190000026E0801F8D00001060E0801E16F000127
:1019100045EC06F00150016E0250026E0801EBD05A
:1019200000017E51016E7F51026E0801E4D000017A
:10193000036A01018251026ED890023603360250CA
:10194000620FE96E010E0320EA6EECCF03F0ED5258
:10195000EF50016E0350026E0801CDD00001070E5A
:101960000801E16F000145EC06F00150016E0250E4
:10197000026E0801C0D000018051016E8151026EDB
:101980000801B9D0000101018A51036E8951892BE8
:10199000D8B48A2B016E0350026E0801ACD000014E
:1019A00001018D51016E8E51026E0801A4D000011B
:1019B00001018B51016E8C51026E08019CD0000117
:1019C00001019151016E9251026E080194D0000103
:1019D00045EF08F0000E016E026E08018CD0000188
:1019E00063EF08F0000E016E026E080184D0000162
:1019F00001018351016E8451026E08017CD0000107
:101A000001018551016E8651026E080174D00001FA
:101A100001018751016E8851026E08016CD00001EE
:101A200077EF08F0000E016E026E080164D000012D
:101A3000036A3950016E0350026E08015CD0000148
:101A40003A50016E3B50026E080155D00001500E15
:101A5000016E000E026E08014ED00001570E016E9D
:101A6000000E026E080147D00001580E016E000EF4
:101A7000026E080140D00001010E016E000E026EE0
:101A8000080139D00001036A3650016E0350026E1E
:101A9000080131D000013C50016E3D50026E08013A
:101AA0002AD00001036A3E50016E0350026E080105
:101AB00022D000013F50016E4050026E08011BD041
:101AC00000014150016E4250026E080114D0000125
:101AD000036A4350016E0350026E08010CD00001EE
:101AE000036A3850016E0350026E080104D0FF0EE5
:101AF000016E026E00D00001A5EF0DF0D4C8DDF834
:101B0000D3C8DEF8D6EC07F0D8900801D735DD6FE2
:101B1000D835DE6FDDC8DFF80001BCEC07F0080146
:101B2000DA6BD96BDA51D85D25E303E1D751D95D82
:101B300021E2D951D525DD6FDA51D621DE6FE06F74
:101B4000DDC8DFF8000181EF08F002C0DCF801C059
:101B5000DBF8DCC8DDF8DCC8DFF8BCEC07F0DBC87C
:101B6000DDF8DBC8DFF8BCEC07F00801D92BD8B4EE
:101B7000DA2BD8D70001EDEC07F0F9EF0FF00801F0
:101B8000DA5106083BE2FF0A03E1D951CF0836E2F9
:101B9000DA51090833E303E1D951CF082FE3DC51CF
:101BA000000808E2FF0A03E1DB51000803E2030E2C
:101BB000016E1AD1D00ED95DDD6F070EDA59DE6FD6
:101BC000020EDE27DEC8AAFFDDC8A9FFDBC8A8FF1A
:101BD000A69CA69EA684F250006EF29CF29E0F0177
:101BE000550EA76EAA0EA76EA682A6B2FED7A69421
:101BF0000050F212000E016E0801F6D001018F5361
:101C00001BE00801D951E80809E1DA51030806E1AF
:101C1000DBC839F0000E016EE7D00DD0D951E908CC
:101C20000AE1DA51030807E1DCC83BF0DBC83AF00F
:101C3000000E016ED9D001010801D951006EDA51B0
:101C4000036E030E035C05E1EE0E005C00014EE046
:101C50000801030E035C05E1EF0E005C000152E099
:101C60000801030E035C05E1F00E005C000152E088
:101C70000801030E035C05E1F10E005C000156E073
:101C80000801030E035C05E1F20E005C000154E064
:101C90000801030E035C05E1F30E005C000159E04E
:101CA0000801030E035C06E1F40E005C0001D8B4E9
:101CB0005CD00801070E035C06E1CE0E005C00015B
:101CC000D8B45FD00801070E035C06E1CF0E005CBC
:101CD0000001D8B463D008014E0E035C06E11F0E6C
:101CE000005C0001D8B467D0080179D00801DC534A
:101CF00003E1DB51800803E2030E016E75D0DBC8FF
:101D000036F070D00101AE83DCC83DF0DBC83CF09A
:101D1000080168D00801DC5303E1DB51010803E24C
:101D2000030E016E61D0DBC83EF05CD0DCC840F031
:101D3000DBC83FF0080156D00801DB5305E1DC5356
:101D400003E1030E016E50D0DCC842F0DBC841F065
:101D500049D00801DC5303E1DB51010803E2030E23
:101D6000016E42D0DBC843F03DD00801DC5303E1F3
:101D7000DB51020803E2030E016E36D0DBC838F0F7
:101D800031D00801DB2D02D0DC5303E0030E016EDD
:101D90002BD0000120EC05F0080124D00801DB2D38
:101DA00002D0DC5303E0030E016E1ED00001F6ECFE
:101DB00004F0080117D00801DB510A0803E1DC51E7
:101DC000070806E001018F6B030E016E08010CD0BD
:101DD000010E01018F6FC80EAB6F080103D0020E18
:101DE000016E02D0000E016E00011200D5C8DDF8B0
:101DF000060E0801DE6F0001D6EC07F0D7C8DAF84E
:101E0000D7C8DFF8BCEC07F0D6C8DAF8D6C8DFF8D8
:101E1000BCEC07F0D9C8DAF8D9C8DFF8BCEC07F099
:101E2000D8C8DAF8D8C8DFF8BCEC07F0EDEC07F05A
:101E300032EF10F0D3C8DDF8100E0801DE6F00019C
:101E4000D6EC07F0D5C8D8F8D5C8DFF8BCEC07F059
:101E5000D4C8D8F8D4C8DFF8BCEC07F0D7C8D8F895
:101E6000D7C8DFF8BCEC07F0D6C8D8F8D6C8DFF87A
:101E7000BCEC07F0EDEC07F093EF10F054EF07F037
:101E80000152D8B471D1382C59D036500701BB5DFE
:101E9000D8A402D0000152D08C828C800400020EA3
:101EA0000801D36FB50ED46F000167EC07F008018D
:101EB000D32FF8D70701BB5100013FEC03F004001A
:101EC000670E006E002EFED700000701BD51000115
:101ED0003FEC03F00400670E006E002EFED70000FA
:101EE0000801D26B020E0701BC250801D25D16E283
:101EF000BF0ED225E96E070EEA6ED8B0EA2AEFCF00
:101F0000D3F8D35100013FEC03F00400670E006EDC
:101F1000002EFED700000801D22BE4D772A2FED714
:101F20000400020ED36FB50ED46F000167EC07F00A
:101F30000801D32FF8D78C928C900001365080087E
:101F400006E036500701BB5DD8A403D100010101B2
:101F5000833D03D0843D01D003D0832BD8B4842BA0
:101F6000140EAB6F0701BD51030A000108E0070A18
:101F700006E0020A40E0160AD8B476D0D6D0BFC731
:101F8000CEF8C0C7CDF8C1C7D0F8C2C7CFF8080196
:101F9000CF51CD25D36FD051CE21D46FCEC8D6F836
:101FA000CDC8D5F8D86FD3C8D7F8000177EF07F0C0
:101FB000015212E1BBC7D3F80801D56BBDC7D4F8F5
:101FC000020ED66F000104EC08F00101886B020ECE
:101FD000876FAB6B0FD00001BDC7D3F8BBC7D4F878
:101FE000CEC8D6F8CDC8D5F8D0C8D8F8CFC8D7F85D
:101FF00085D50101AAD0BFC7CEF8C0C7CDF8C1C7EB
:10200000D4F8C2C7D3F8CEC8DAF8CDC8D9F8C1C75A
:10201000DCF8C2C7DBF8B3DD01C0D1F80801D15349
:1020200011E0BBC7D3F8D56BBDC7D4F8D1C8D6F87B
:10203000000104EC08F00101886BD1C887F1AB6B9B
:1020400012D00801C1C7D4F8C2C7D3F8BBC7D5F8AE
:10205000CEC8D7F8CDC8D6F8C1C7D9F8C2C7D8F806
:102060000001C4D6010171D0BFC7CEF8C0C7CDF8FA
:10207000C1C7D0F8C2C7CFF80801D26BD05303E173
:10208000CF51D25D42E2D251CD25D36F000ECE2189
:10209000D46FD890D235050FBF0FE96E070EEA6EE8
:1020A000D8B0EA2AEFCFD5F8D890D235060FBF0FB7
:1020B000E96E070EEA6ED8B0EA2AEFCFD6F8D5C897
:1020C000D8F8D6C8D7F8D4C8DAF8D3C8D9F8D5C85C
:1020D000DCF8D6C8DBF8000152DD01C0D1F80801F8
:1020E000D15311E0BBC7D3F8D56BBDC7D4F8D1C865
:1020F000D6F8000104EC08F00101886BD1C887F123
:10210000AB6B080102D0D22BB9D7D1530CE1BBC7BE
:10211000D3F8CEC8D5F8CDC8D4F8D0C8D7F8CFC832
:10212000D6F8000187D6010110D0BBC7D3F808014B
:10213000D56BBDC7D4F8010ED66F000104EC08F0D2
:102140000101886B010E876FAB6B926B916B0CD0AA
:1021500007010101853D03D0863D01D003D0852BC9
:10216000D8B4862B0A0EAB6F00017AEF11F0B5C31D
:10217000CDF90301B569080EEA6ECD0EE96E020EC7
:10218000E26EB50EE16E0901CD51016E04E0E6CFBD
:10219000EEFF012EFCD70301B66BB56B0901CF6BC7
:1021A000CE6BCF5314E1CD51CE5D11E2CD0ECE25D5
:1021B000E96E080ECF21EA6EEFCFD0F9D0510001C1
:1021C000B8EC07F00901CE2BD8B4CF2BEAD7000129
:1021D00080EF11F0F86AF1949F829F9AA59AD08EB1
:1021E000078EEA6AE96A356AB8960C0EAF6EA60EDB
:1021F000AC6E900EAB6E70964D0E756EA60E726E36
:10220000900E716E0701B791B86B0801C26B0701A0
:10221000B793B795B797B799B79BB79D0801C36BAD
:10222000C56BC46BC76BC66BC96BC86BC150F00B79
:10223000C16E000E0F01386F3C6F396F3A6F3B6F04
:102240000101886B776A786A796A2F6A306A0801B7
:10225000BE6BBF6BC06BC16BCA6BCB6BD0500F0B2F
:10226000D0A8000ED080D082D088D886D888CC6FF5
:102270000001B2EF03F03CEF05F03650800802E2B7
:1022800020EC05F0AB8EAB886BEF05F00801CC6B52
:10229000CC511D0806E30001CAEC05F00801CC2B67
:1022A000F7D743C093F12C0EF66E070EF76E070EAC
:1022B000CD6F00011DEF06F0380EF66E070EF76EBB
:1022C00033EF06F00D0E9EA8FED7AD6E0A0E9EA847
:1022D000FED7AD6E04000101AEA504D0000189EF68
:1022E00006F00101AEA104D0AE910001CAEC05F0E8
:1022F0000001C4D50201B4A104D0B491000137D7C4
:0823000002010001E7D7030010
:020000040030CA
:0E00000000231E3F003F81000FC00FE00F40A5
:00000001FF
;PIC18F46K22
;CRC=7ADA  CREATED="20-Nov-15 13:25"
