:04000000A2EF15F066
:0800080071EF00F000000000A0
:100010000000000000000000046ED8CF05F0E0CF23
:1000200006F00001E9CF0CF0EACF07F0E1CF08F0CD
:10003000E2CF09F0D9CF0AF0DACF0BF0F3CF12F00C
:10004000F4CF13F0FACF14F0F5CF15F0F6CF16F089
:10005000F7CF17F000C00EF001C00FF002C010F093
:1000600003C011F0F2AA38EF00F0F2B40EEF02F084
:100070009DAA3EEF00F09EBAD1EF03F09DA844EF99
:1000800000F09EB899EF03F0A3AA4AEF00F0A4BADB
:1000900055EF03F00EC000F00FC001F010C002F0E9
:1000A00011C003F00CC0E9FF07C0EAFF078E08C0CB
:1000B000E1FF09C0E2FF0AC0D9FF0BC0DAFF12C09E
:1000C000F3FF13C0F4FF14C0FAFF15C0F5FF16C00C
:1000D000F6FF17C0F7FF045006C0E0FF05C0D8FFC9
:1000E00010001A6ED8CF1BF0E0CF1CF00001E9CF52
:1000F00022F0EACF1DF0E1CF1EF0E2CF1FF0D9CF02
:1001000020F0DACF21F0F3CF28F0F4CF29F0FACFA6
:100110002AF0F5CF2BF0F6CF2CF0F7CF2DF000C062
:1001200024F001C025F002C026F003C027F09DA2F4
:100130009DEF00F09EB227EF02F024C000F025C032
:1001400001F026C002F027C003F022C0E9FF1DC065
:10015000EAFF1D8E1EC0E1FF1FC0E2FF20C0D9FFD5
:1001600021C0DAFF28C0F3FF29C0F4FF2AC0FAFF3C
:100170002BC0F5FF2CC0F6FF2DC0F7FF1A501CC096
:10018000E0FF1BC0D8FF1000F76A980FF66E010E53
:10019000F7220900F5501200244750524D43000049
:1001A000F76AB00FF66E010EF7220900F550120043
:1001B0002447504747410000F76AC80FF66E010E0A
:1001C000F7220900F550120024475047535600000B
:1001D000F76AE00FF66E010EF7220900F5501200E3
:1001E0002457494D44410000F76AF80FF66E010E9E
:1001F000F7220900F550120000C1814001C0804182
:1002000001C0804100C1814001C0804100C18140E6
:1002100000C1814001C0804101C0804100C18140D6
:1002200000C1814001C0804100C1814001C08041C6
:1002300001C0804100C1814001C0804100C18140B6
:1002400000C1814001C0804100C1814001C08041A6
:1002500001C0804100C1814000C1814001C0804196
:1002600001C0804100C1814001C0804100C1814086
:1002700000C1814001C0804101C0804100C1814076
:1002800000C1814001C0804100C1814001C0804166
:1002900001C0804100C1814000C1814001C0804156
:1002A00001C0804100C1814001C0804100C1814046
:1002B00000C1814001C0804100C1814001C0804136
:1002C00001C0804100C1814001C0804100C1814026
:1002D00000C1814001C0804101C0804100C1814016
:1002E00000C1814001C0804100C1814001C0804106
:1002F00001C0804100C18140F76A080FF66E030E0D
:10030000F7220900F550120000C0C101C30302C268
:10031000C60607C705C5C404CC0C0DCD0FCFCE0E45
:100320000ACACB0BC90908C8D81819D91BDBDA1AB5
:100330001EDEDF1FDD1D1CDC14D4D515D71716D625
:10034000D21213D311D1D010F03031F133F3F23295
:1003500036F6F737F53534F43CFCFD3DFF3F3EFE05
:10036000FA3A3BFB39F9F83828E8E929EB2B2AEA75
:10037000EE2E2FEF2DEDEC2CE42425E527E7E626E5
:1003800022E2E323E12120E0A06061A163A3A26255
:1003900066A6A767A56564A46CACAD6DAF6F6EAEC5
:1003A000AA6A6BAB69A9A86878B8B979BB7B7ABA35
:1003B000BE7E7FBF7DBDBC7CB47475B577B7B676A5
:1003C00072B2B373B17170B0509091519353529215
:1003D00096565797559594549C5C5D9D5F9F9E5E85
:1003E0005A9A9B5B99595898884849894B8B8A4AF5
:1003F0004E8E8F4F8D4D4C8C448485458747468665
:100400008242438341818040F29A0901EA5304E029
:10041000D76AD66AF294F28A000112000701C45129
:1004200002080AE1C55308E1C65306E1C3B104D08E
:10043000020EC85FC38101D0C391C669C569C46B90
:100440000901EA6B0001E0DFF2944AEF00F00901D4
:10045000ECA10CD00101E63D05D0E73D03D0090138
:1004600005D00101E62BD8B4E72B0901ECA50CD08F
:100470000101E83D05D0E93D03D0090105D00101A6
:10048000E82BD8B4E92B0901ECA90CD00101EA3D15
:1004900005D0EB3D03D0090105D00101EA2BD8B40A
:1004A000EB2B0901EC9381B0EC83ECB341D0070155
:1004B000C3B302D009013CD00001A92BD8B4AA2BA8
:1004C000010EAF27D8B0B02BD8B4B12BD8B4B22B13
:1004D0000701C3A524D00901EC91E7C198F0E6C15A
:1004E00097F0000198519E5D08E303E19D51975DEF
:1004F00004E298C09EF097C09DF0A451985D0DE372
:1005000003E19751A35D09E2973D03D0983D01D0E7
:1005100004D098C0A4F097C0A3F00701C395C3B559
:1005200007D00101E76BE66B0901EC810701C38588
:100530000701C3930901ECA303D00701C383090199
:10054000EC9781B2EC87ECB741D00701C3B702D07A
:1005500009013CD00001AB2BD8B4AC2B010EB32762
:10056000D8B0B42BD8B4B52BD8B4B62B0701C3A9D7
:1005700024D00901EC95E9C19AF0E8C199F0000195
:100580009A51A05D08E303E19F51995D04E29AC08E
:10059000A0F099C09FF0A6519A5D0DE303E1995137
:1005A000A55D09E2993D03D09A3D01D004D09AC0DF
:1005B000A6F099C0A5F00701C399C3B907D00101FE
:1005C000E96BE86B0901EC850701C3890701C39753
:1005D0000901ECA703D00701C3870901EC9B81B493
:1005E000EC8BECBB41D00701C3BB02D009013CD06E
:1005F0000001AD2BD8B4AE2B010EB727D8B0B82B65
:10060000D8B4B92BD8B4BA2B0701C3AD24D0090193
:10061000EC99EBC19CF0EAC19BF000019C51A25DFA
:1006200008E303E1A1519B5D04E29CC0A2F09BC0E2
:10063000A1F0A8519C5D0DE303E19B51A75D09E288
:100640009B3D03D09C3D01D004D09CC0A8F09BC032
:10065000A7F00701C39DC3BD07D00101EB6BEA6B97
:100660000901EC890701C38D0701C39B0901ECABAC
:1006700003D00701C38B09010801CE2BCE510A0814
:1006800004E1CE6B0101FA8508019E9200019DEF05
:1006900000F0A4AAFED771CF35F074CF01F035A2D7
:1006A00002D07198718856EF03F0F3D701C0E9F9D1
:1006B0000101E42BD8B4E52B382C11D00201FF6BDB
:1006C000FE3D01D00AD0FE0EFE25E96E010EEA6E57
:1006D000D8B0EA2AE9C9EFFFFE2B22D00101385039
:1006E00002081FE10901E9510A0803E0E9510D0878
:1006F00008E10201FE5303E0140EFF6F00D010D09A
:1007000009010201FF6BFE3D01D00AD0FE0EFE255D
:10071000E96E010EEA6ED8B0EA2AE9C9EFFFFE2BB6
:100720000101A49A00014AEF00F09EA8FED7AD6E29
:10073000120004010051015D03E302839D980CD077
:100740000151E96E030EEA6EEFCFE9F90901E951B3
:100750000001EBDF0401012B9E9800014AEF00F03D
:100760009EAAFED7ABCF35F0AECF01F035A202D0B6
:10077000AB98AB8812000701C6510901EA19EB6F6B
:10078000036AEB51000130DD016E0701C55101180C
:10079000C66F036A0901EB510001AEDDE8CFC5F772
:1007A0001200DEDF01C0E9F90101E22BD8B4E32B2E
:1007B0000701C3B12CD0C45309E18C86C669C56951
:1007C000E9C9C7F7C42BC86BCA6B17D0C42D04D0B6
:1007D000E9C9C9F7C42B11D0C45102080EE1C83DC4
:1007E00002D0FE0EC86FCB0EC825E96E070EEA6E6A
:1007F000D8B0EA2AE9C9EFFFC82BE9C9EAF9000134
:10080000BADF010E0901EA6F0001FEDD07019E9AC1
:1008100000014AEF00F02320706377782025730DE4
:100820000A0030372D4465632D3135002320726571
:1008300073746172745F636175736528293D2575F2
:1008400020005744545F54494D454F5554004D4383
:100850004C525F46524F4D5F534C454550004D43FF
:100860004C525F46524F4D5F52554E004E4F524DC7
:10087000414C5F504F5745525F55500042524F57C1
:100880004E4F55545F524553544152540000574403
:10089000545F46524F4D5F534C4545500000524502
:1008A0005345545F494E535452554354494F4E009B
:1008B000756E6B6E6F776E2100000D0A00002320AD
:1008C000706377782025730D0A0030372D446563F7
:1008D0002D3135000901DD51DF03F3CF01F0F4CFF5
:1008E00000F0E003F3500026DE51DF03F350002058
:1008F000026E00011200016603D0026602D007D02A
:10090000022A00C0EEFF012EFCD7022EFAD71200F9
:100910003950000A0BE0010A11E0030A17E0060A49
:100920001DE0010A21E0030A27E02CD07086C30EE7
:10093000756E090E766EA60E726E2AD07086E10E66
:10094000756E040E766EA60E726E22D07086700ED4
:10095000756E020E766EA60E726E1AD07096260E08
:10096000756EA60E726E14D070864D0E756E000EEA
:10097000766EA60E726E0CD070960C0E756EA60E6C
:10098000726E06D070964D0E756EA60E726E00D009
:100990001200C290080E616EF19E000E926EFF0E64
:1009A000936E920E946E800E956E9690969296949B
:1009B00096960101F76BF96B020EF86FFA91FA93B4
:1009C000FA95FB69FC690201FE6BFF690101FD916B
:1009D0000401006B016B029102930801D96BD9519C
:1009E000020857E3036AD9C802F0D89002360336EA
:1009F0000250970FE96E000E0320EA6EEC6AED528A
:100A0000EF6A036AD9C802F0D89002360336025062
:100A10009D0FE96E000E0320EA6EEC68ED52EF6860
:100A2000036AD9C802F0D890023603360250A30FE9
:100A3000E96E000E0320EA6EEC6AED52EF6A036A7B
:100A4000D9C802F0D890023603360250A90FE96ED9
:100A5000000E0320EA6EEC6AED52EF6A0901DE6BCC
:100A6000D9C8DDF9E06B040EDF6F000133DF015000
:100A7000AF0FE96E000E0220EA6EEE52EE52EC6A03
:100A8000ED52EF6AED52EF6AED52EF6A0801D92B91
:100A9000A6D70101CD6BCC6BCF6BCE6BD16BD06B7E
:100AA000D36BD26BD56BD46BD76BD66BCB6BD86B50
:100AB000DA6BD96BE36BE26BE56BE46B040EEA6E09
:100AC000030EE96E006A026EC00E016E000113DFB4
:100AD0004CC0DDF14BC0DCF148C0DFF147C0DEF1B6
:100AE0000101E16BE06B000113DF000E0509BA6E36
:100AF0004A0EBB6E9D82A38AF4EF15F00900F6CF73
:100B0000DAF8F7CFDBF8F550A4A8FED7736EDAC891
:100B1000F6FFDBC8F7FF0801D92F01D002D0000192
:100B2000EDD7000112000900F5520DE0F6CFD9F81B
:100B3000F7CFDAF8F550A4A8FED7736ED9C8F6FF40
:100B4000DAC8F7FFF0D712000801F251016AF15D2F
:100B500003E2F1C800F00CD0006A080EF36FF13721
:100B60000036F251005CD8B0006E0136F32FF7D793
:100B7000000112000150D9C8F1F8640E0801F26FAB
:100B80000001E2DF00C0D9F80150300E08E1080191
:100B9000DAA30ED0DAB70CD0DAB9200E04D00801EF
:100BA000DA97DA99DA8101260150A4A8FED7736E8C
:100BB000D9C8F1F80A0EF26F0001C6DF00C0D9F8FB
:100BC0000150300E08E10801DAB70BD0DAA109D0E4
:100BD000DAB9200E000101260150A4A8FED7736ED9
:100BE0000801300ED927D951A4A8FED7736E000191
:100BF00020EF16F00801E26BE1C803F0E051D8B431
:100C0000E107E007E36F03C0E4F8E35302E1E453D4
:100C100035E0DFC803F0DE51E96E03C0EAFFDD51C5
:100C2000036EDC51DC2BD8B4DD2BE56F03C0E6F896
:100C3000F2CFE7F8F29CF29EE6C8AAFFE5C8A9FF4A
:100C4000A69CA69EA680A850E7BDF28CE7BFF28EB8
:100C5000EF6EDFC803F0DE51E96E03C0EAFFEFCFAD
:100C6000E3F8E2C8F6F8E3C8F7F8F651F719016EB1
:100C700001C0E2F8DE2BD8B4DF2BBED7E2C801F00A
:100C8000000126EF07F00801F46BF3C803F0F251FE
:100C9000D8B4F307F207F56F03C0F6F8F55302E195
:100CA000F6533FE0F1C803F0F051E96E03C0EAFFEC
:100CB000EFCFF5F8F4C8F6F8F5C8F7F8F651F719DC
:100CC000016E01C0F4F8EF51036EEE51EE2BD8B473
:100CD000EF2BF56F03C0F6F8F151036EF051F02BD6
:100CE000D8B4F12BE96E03C0EAFFEFCFF7F8F6C8EE
:100CF000AAFFF5C8A9FFF7C8A8FFA69CA69EA684D0
:100D0000F250006EF29CF29E0F01550EA76EAA0ED5
:100D1000A76EA682A6B2FED7A6940050F2120801D2
:100D2000B4D7F4C801F00001A6EF06F00801ED6B9E
:100D3000360EEC6FEF6B020EEE6FEDC8F1F8ECC8FB
:100D4000F0F8F36B610EF26F00019DD701C0EBF874
:100D5000AA6AA96AEBC8A8FFA69CA69EA684F25020
:100D6000006EF29CF29E0F01550EA76EAA0EA76EA2
:100D7000A682A6B2FED7A6940050F212000112007D
:100D8000960E0101F76F260E366E030E396E020EB7
:100D9000386E500E3A6E260E3C6E940E3B6E3E6AD6
:100DA000140E3D6E3F6A020E416E760E406E436A2F
:100DB000020E426E446AEA6A4F0EE96E006A026AE7
:100DC000480E016E000197DDEA6A4F0EE96E000ED3
:100DD000C4EC00F00A000900F550EE6E0009FBE1DA
:100DE000EA6A550EE96E000ED0EC00F00A00090028
:100DF000F550EE6E0009FBE1EA6A5B0EE96E000E4B
:100E0000DCEC00F00A000900F550EE6E0009FBE191
:100E1000EA6A8B0EE96E000EE8EC00F00A000900A9
:100E2000F550EE6E0009FBE181DF12000801DB6B7B
:100E3000360EDA6FDD6B020EDC6FDBC8DFF8DAC866
:100E4000DEF8E16B610EE06F0001D4D601C0D9F885
:100E5000F2CFDAF8F29CF29EAA6AA96AA69CA69E34
:100E6000A680A8500801DABDF28CDABFF28ED95DF7
:100E700003E0000185DF0801000175EF16F09EAA6E
:100E800002D06EDCFCD79D8A1200F9DFC20ED56E4F
:100E9000C00EF2127EEF16F08B968B8A8C940801AE
:100EA000DC5303E1030EE06F25D0DC2D03D0130EDD
:100EB000E06F20D0DC51020803E10B0EE06F1AD086
:100EC000DC51030803E11B0EE06F14D0DC51040871
:100ED00003E1070EE06F0ED0DC51050803E1170EA9
:100EE000E06F08D0DC51060803E10F0EE06F02D07E
:100EF0001F0EE06FDF6BDF5104080BE38B96E0B150
:100F000002D08B9A01D08B8AD890E0338B86DF2B6E
:100F1000F2D7DE6BDD6BDF6BDF510D080BE38B96D9
:100F200082B802D0D89001D0D880DD37DE378B86EA
:100F3000DF2BF2D7DE9BDE998C84DDC801F0DEC8A2
:100F400002F00001DBEF07F00101CB2BCB510F08C2
:100F500001E2CB6B0801D96BD951070847E30901BE
:100F6000DE6BD9C8DDF9E06B200EDF6F0001B2DC6B
:100F700002C003F00150340F0801DA6F000E0220A6
:100F8000DB6F036A0101CBC102F0D8900236033651
:100F900002500801DA25016EDB5103220150970F40
:100FA000016E000E032201C0DAF803C0DBF8D9C8D5
:100FB000DCF8000171D7DBC8EAFFDAC8E9FF02C03C
:100FC000ECFFED5201C0EFFF036A0801D9C802F03F
:100FD000D890023603360250BB0FE96E000E032094
:100FE000EA6EEC6AED52EF6AD92BB6D70001120017
:100FF0000900F6CFDAF8F7CFDBF8F5509EA8FED758
:10100000AD6EDAC8F6FFDBC8F7FF0801D92F01D0B3
:1010100002D00001EDD7000198EF16F00900F5525B
:101020000DE0F6CFD9F8F7CFDAF8F5509EA8FED745
:10103000AD6ED9C8F6FFDAC8F7FFF0D79EEF16F00D
:101040000101FA95D8900801D435D96FD535DA6FFA
:10105000000E0101FCAB010E0801D913D9C8D4F868
:10106000DA51E009D56FD45303E1D551F00800E11E
:101070000101E63D06D0E73D04D00001986B976B77
:101080000101E83D06D0E93D04D000019A6B996B5F
:101090000101EA3D06D0EB3D04D000019C6B9B6B47
:1010A000010181CFFBF182CFFCF1F75302E1899678
:1010B00002D08986F707D63D03D0D73D01D003D0B3
:1010C000D62BD8B4D72B0801D22BD8B4D32BD251DE
:1010D000E80842E1D35103083FE1D36BD26B010131
:1010E000D93D03D0DA3D01D003D0D92BD8B4DA2BC7
:1010F000405202E141520FE04150DA5D0CE303E15E
:10110000D951405C08E2F85306E1F95304E143C0C9
:10111000F9F142C0F8F1F85304E1F95302E18B8090
:101120000BD08B90F851D8B4F907F807F85304E1C5
:10113000F95302E1DA6BD96B0801CF2BCF513C0890
:101140000BE1CF6B0101D43D03D0D53D01D003D0DD
:10115000D42BD8B4D52B08010101FAA304D0FA93FB
:101160000801D16BD06B0801D02BD8B4D12B3D50E6
:10117000D05D0AE13E50D15D07E1D16BD06B01013A
:10118000FA810801D769D6690201FF3D01D001D07B
:10119000FF2BFF51090805E2FE5303E00101FD8129
:1011A00002010001ADEF16F00701C3B104D0000E3B
:1011B000016E0AD006D0C9AF04D0CBC7CAF7010E62
:1011C000C86FC391010E016E0001F2EF12F0050E1F
:1011D0000801E05F0AE3080EEA6EE00EE96EEF50E8
:1011E00004E001D00400EF2EFDD700011200A4A8F6
:1011F000FED7736E12000801E1511F080CE1E251A5
:101200004E0809E1E351200806E1E4514E0803E1EC
:10121000010E016E64D0E25116080FE2FF0A03E1ED
:10122000E1516F080AE2E451190807E303E1E351D1
:10123000500803E3010E016E52D0E25112080FE292
:10124000FF0A03E1E15187080AE2E451170807E3C6
:1012500003E1E351480803E3010E016E40D0E2517F
:1012600003080FE2FF0A03E1E1514B080AE2E451EF
:10127000040807E303E1E351940803E3010E016E60
:101280002ED0E25102080FE2FF0A03E1E151E70824
:101290000AE2E451030807E303E1E351F60803E33C
:1012A000010E016E1CD0E25106080FE2FF0A03E1B5
:1012B000E151CF080AE2E451090807E303E1E351F1
:1012C000D10803E3010E016E0AD0E45306E1E351B5
:1012D000360803E3010E016E02D0000E016E00011C
:1012E0008BEF13F0040100C4E9FF030EEA6EEBC8B4
:1012F000EFFF002B196AF2BC198CF29CF2BE198E1A
:10130000F29EEBC8EAF90001BBEC03F019BCF28CC9
:1013100019BEF28E12000401006B016B0701C66951
:10132000C569C391E9C8EBF80001DCDFEAC8EBF856
:10133000D9DF1200C6C7EAF8C5C7E9F8EAC8EBF872
:10134000D1DFE9C8EBF8CEDF0701C669C569040142
:101350000281000112000801E0518009E36FE1C839
:10136000E4F8DFC8E9F8EA6F0001D5DFE2C8EBF87E
:10137000B9DFE0DF1200F29CF29EF2BEFDD7090158
:10138000DE6BF1C8DDF9E06B040EDF6F00016AEC83
:1013900004F002C003F00150AF0FE96E000E02200E
:1013A000EA6EEFCF00F0ECCF01F0ECCF02F0ECCF23
:1013B00003F003C0F5F802C0F4F801C0F3F800C070
:1013C000F2F8C00EF212F2C800F0F3C801F0F4C84F
:1013D00002F0F5C803F012000901DE6BF1C8DDF977
:1013E000E06B200EDF6F00016AEC04F002C003F036
:1013F0000150CB0F016E000E032201C0F5F8080169
:1014000003C0F6F8F36BF26BF46BF4510F0811E3C1
:10141000D890F435036AF525E96EF6510320EA6E9B
:10142000ECCF03F0ED52EF50F2270350F323F42BEF
:10143000ECD7080EF225F76F000EF321F86FF831A4
:10144000036EF731026E033202320332023203328C
:1014500002320F0E031602C001F003C002F00001B9
:101460001200F29CF29EF2BEFDD7AA6BA96BAC6B88
:10147000AB6BAE6BAD6B9E699D69A0699F69A269FC
:10148000A169A46BA36BA66BA56BA86BA76B0101ED
:10149000D76BD66BC00EF21200018FEF0FF0F29CEB
:1014A000F29EF2BEFDD7B26BB16BB06BAF6BB66B99
:1014B000B56BB46BB36BBA6BB96BB86BB76BC00E73
:1014C000F21297EF0FF00101CD6BCC6BCF6BCE6BAF
:1014D000D16BD06B0001B7EF0FF00801EC5106089B
:1014E0002AE2FF0A03E1EB51CF0825E2EC5109089B
:1014F00022E303E1EB51CF081EE3D00EEB5DF16F69
:10150000070EEC59F26F020EF227F2CFF3F8F29CBD
:10151000F29EF2C8AAFFF1C8A9FFA69CA69EA680CB
:10152000A850F3BDF28CF3BFF28E036A016E035034
:10153000026E71EF10F0EC5103083FE2FF0A03E185
:10154000EB514B083AE2EC51040837E303E1EB516D
:10155000930833E34C0EEB5DED6FEDC8F1F8060E2A
:10156000F26F0001A4EC05F000C0EEF8EDC8F1F850
:10157000060E0801F26F0001A4EC05F001C0EDF8C1
:101580000801ED51060DF350036A190FF16F000EBB
:101590000320F26F036AEE51F125016EF25103222E
:1015A0000150360FE96E000E0320EA6EEF50036A19
:1015B000016E03C002F071EF10F0EC51120821E24D
:1015C000FF0A03E1EB5187081CE2EC51170819E30D
:1015D00003E1EB51470815E3880EEB5F130EEC5B5C
:1015E000040EF06F030EEF6FEF51EB25E96EF05133
:1015F000EC21EA6EEF50036A016E03C002F071EF56
:1016000010F0EC51160835E2FF0A03E1EB516F08C8
:1016100030E2EC5119082DE303E1EB514F0829E3C7
:10162000700EEB5F170EEC5BD890EB37EC37040EC7
:10163000F06F030EEF6FEF51EB25E96EF051EC21E7
:10164000EA6EEFCFF1F8010EEB25F26F000EEC2100
:10165000F36FEF51F225E96EF051F321EA6EEFCF0F
:10166000F4F8F1C803F0F4C801F0F1C802F071EF2A
:1016700010F0EB51006EEC51036E035005E1005287
:101680000001D8B428D20801035006E1010E005C25
:101690000001D8B427D20801035006E1020E005C15
:1016A0000001D8B426D20801035006E1030E005C05
:1016B0000001D8B425D20801035006E1040E005CF5
:1016C0000001D8B424D20801035006E1050E005CE5
:1016D0000001D8B42FD20801035006E1060E005CC9
:1016E0000001D8B42ED20801035006E1070E005CB9
:1016F0000001D8B42DD20801035006E1080E005CA9
:101700000001D8B42CD20801035006E1090E005C98
:101710000001D8B42BD20801035006E10A0E005C88
:101720000001D8B42AD20801035006E10B0E005C78
:101730000001D8B437D20801035006E10C0E005C5A
:101740000001D8B436D20801035006E10D0E005C4A
:101750000001D8B435D20801035006E10E0E005C3A
:101760000001D8B434D20801035006E10F0E005C2A
:101770000001D8B433D20801035006E1100E005C1A
:101780000001D8B432D20801035006E1110E005C0A
:101790000001D8B43FD20801035006E1120E005CEC
:1017A0000001D8B43ED20801035006E1130E005CDC
:1017B0000001D8B44DD20801035006E1140E005CBC
:1017C0000001D8B451D20801035006E1150E005CA7
:1017D0000001D8B450D20801035006E1160E005C97
:1017E0000001D8B45FD20801035006E1170E005C77
:1017F0000001D8B464D20801035006E1180E005C61
:101800000001D8B463D20801035006E1190E005C50
:101810000001D8B472D20801035006E11A0E005C30
:101820000001D8B477D20801035006E11B0E005C1A
:101830000001D8B476D20801035006E11C0E005C0A
:101840000001D8B485D20801035006E11D0E005CEA
:101850000001D8B48AD20801035006E11E0E005CD4
:101860000001D8B489D20801035006E11F0E005CC4
:101870000001D8B498D20801035006E1200E005CA4
:101880000001D8B49DD20801035006E1210E005C8E
:101890000001D8B49CD20801035006E1220E005C7E
:1018A0000001D8B4ABD20801035006E1230E005C5E
:1018B0000001D8B4B0D20801035006E1240E005C48
:1018C0000001D8B4AFD20801035006E1250E005C38
:1018D0000001D8B4BED20801035006E1260E005C18
:1018E0000001D8B4C3D20801035006E1270E005C02
:1018F0000001D8B4C2D20801035006E1280E005CF2
:101900000001D8B4D1D20801035006E1290E005CD1
:101910000001D8B4D6D20801035006E12A0E005CBB
:101920000001D8B4D5D20801035006E12B0E005CAB
:101930000001D8B4DAD20801035006E12C0E005C95
:101940000001D8B4DAD20801035006E12D0E005C84
:101950000001D8B4DAD20801035006E12E0E005C73
:101960000001D8B4DAD20801035006E12F0E005C62
:101970000001D8B4DAD20801035006E1300E005C51
:101980000001D8B4DAD20801035006E1310E005C40
:101990000001D8B4DAD20801035006E1320E005C2F
:1019A0000001D8B4DAD20801035006E1330E005C1E
:1019B0000001D8B4DAD20801035006E1340E005C0D
:1019C0000001D8B4DAD20801035006E1350E005CFC
:1019D0000001D8B4DAD20801030E035C06E1E80E78
:1019E000005C0001D8B4D9D20801030E035C06E103
:1019F000E90E005C0001D8B4D8D20801030E035CE4
:101A000006E1EA0E005C0001D8B4D6D20801030E4C
:101A1000035C06E1EB0E005C0001D8B4D4D20801EF
:101A2000030E035C06E1EC0E005C0001D8B4D2D2D8
:101A30000801030E035C06E1ED0E005C0001D8B462
:101A4000D0D20801030E035C06E1EE0E005C00013B
:101A5000D8B4CED20801030E035C06E1EF0E005CA1
:101A60000001D8B4CDD20801030E035C06E1F00EEC
:101A7000005C0001D8B4CBD20801030E035C06E180
:101A8000F10E005C0001D8B4CAD20801030E035C59
:101A900006E1F20E005C0001D8B4C8D20801030EC2
:101AA000035C06E1F30E005C0001D8B4C6D2080165
:101AB000030E035C06E1F40E005C0001D8B4C5D24D
:101AC0000801030E035C06E1F50E005C0001D8B4CA
:101AD000C4D2080102D3A9C001F0AAC002F00801D3
:101AE00000D300019751016E9851026E0801F9D29E
:101AF00000019D51016E9E51026E0801F2D200015B
:101B0000A351016EA451026E0801EBD2000108013D
:101B1000F16B000130DC03C0CDF802C0CCF801C08D
:101B2000CBF800C0CAF80801CA51016ECB51026E51
:101B3000D8D200010801CC51016ECD51026ED1D234
:101B40000001AB51016EAC51026E0801CAD2000116
:101B50009951016E9A51026E0801C3D200019F5142
:101B6000016EA051026E0801BCD20001A551016EA8
:101B7000A651026E0801B5D20001010E0801F16FF5
:101B80000001BBEC09F003C0CDF802C0CCF801C0E5
:101B9000CBF800C0CAF80801CA51016ECB51026EE1
:101BA000A0D200010801CC51016ECD51026E99D234
:101BB0000001AD51016EAE51026E080192D20001DA
:101BC0009B51016E9C51026E08018BD20001A15104
:101BD000016EA251026E080184D20001A751016E6C
:101BE000A851026E08017DD20001020E0801F16FBA
:101BF0000001BBEC09F003C0CDF802C0CCF801C075
:101C0000CBF800C0CAF80801CA51016ECB51026E70
:101C100068D200010801CC51016ECD51026E61D233
:101C20000001036A0101CB51026ED89002360336DF
:101C30000250CB0FE96E000E0320EA6EECCF03F0EA
:101C4000ED52EF50016E0350026E08014AD20001BE
:101C50000801F16B0001ECEC09F00150016E02503B
:101C6000026E08013ED20001BB51016EBC51026EF2
:101C7000080137D20001036A0101CB51026ED890EE
:101C8000023603360250EB0FE96E000E0320EA6EB7
:101C9000ECCF03F0ED52EF50016E0350026E0801DD
:101CA00020D20001010E0801F16F0001ECEC09F0F7
:101CB0000150016E0250026E080113D20001BD51A5
:101CC000016EBE51026E08010CD20001036A0101CF
:101CD000CB51026ED8900236033602500B0FE96EDC
:101CE000010E0320EA6EECCF03F0ED52EF50016ECF
:101CF0000350026E0801F5D10001020E0801F16FD8
:101D00000001ECEC09F00150016E0250026E080176
:101D1000E8D10001BF51016EC051026E0801E1D14E
:101D20000001036A0101CB51026ED89002360336DE
:101D300002502B0FE96E010E0320EA6EECCF03F088
:101D4000ED52EF50016E0350026E0801CAD100013E
:101D5000030E0801F16F0001ECEC09F00150016E77
:101D60000250026E0801BDD10001C151016EC25185
:101D7000026E0801B6D10001036A0101CB51026E67
:101D8000D8900236033602504B0FE96E010E032045
:101D9000EA6EECCF03F0ED52EF50016E0350026E8D
:101DA00008019FD10001040E0801F16F0001ECEC65
:101DB00009F00150016E0250026E080192D100013B
:101DC000C351016EC451026E08018BD10001036A38
:101DD0000101CB51026ED8900236033602506B0FD0
:101DE000E96E010E0320EA6EECCF03F0ED52EF50E6
:101DF000016E0350026E080174D10001050E080146
:101E0000F16F0001ECEC09F00150016E0250026E1E
:101E1000080167D10001C551016EC651026E08016B
:101E200060D10001036A0101CB51026ED8900236E5
:101E3000033602508B0FE96E010E0320EA6EECCFE1
:101E400003F0ED52EF50016E0350026E080149D1CC
:101E50000001060E0801F16F0001ECEC09F00150E1
:101E6000016E0250026E08013CD10001C751016EA3
:101E7000C851026E080135D10001036A0101CB513E
:101E8000026ED890023603360250AB0FE96E010E97
:101E90000320EA6EECCF03F0ED52EF50016E0350D9
:101EA000026E08011ED10001070E0801F16F00014A
:101EB000ECEC09F00150016E0250026E080111D1E4
:101EC0000001C951016ECA51026E08010AD1000118
:101ED0000101D351036ED251D22BD8B4D32B016E52
:101EE0000350026E0801FDD000010101D651016EC0
:101EF000D751026E0801F5D000010101D451016EE5
:101F0000D551026E0801EDD000010101D951016ED9
:101F1000DA51026E0801E5D0000131EF0AF0000E3F
:101F2000016E026E0801DDD000014FEF0AF0000ED5
:101F3000016E026E0801D5D000010101CC51016E85
:101F4000CD51026E0801CDD000010101CE51016ECC
:101F5000CF51026E0801C5D000010101D051016EC0
:101F6000D151026E0801BDD0000163EF0AF0000EEE
:101F7000016E026E0801B5D000010101E251016E4F
:101F8000E351026E0801ADD000010101E451016E80
:101F9000E551026E0801A5D00001036A3A50016EB6
:101FA0000350026E08019DD000013B50016E3C5071
:101FB000026E080196D00001500E016E000E026EF6
:101FC00008018FD00001570E016E000E026E08014D
:101FD00088D00001580E016E000E026E080181D0FB
:101FE0000001010E016E000E026E08017AD00001A0
:101FF000036A3650016E0350026E080172D0000170
:102000003D50016E3E50026E08016BD00001036A24
:102010003F50016E0350026E080163D00001405032
:10202000016E4150026E08015CD000014250016E09
:102030004350026E080155D00001036A4450016EFE
:102040000350026E08014DD00001036A3850016E42
:102050000350026E080145D00001395207E1B00E6D
:10206000016E040E026E08013CD00001392C07D02D
:10207000600E016E090E026E080133D00001395066
:10208000020807E1C00E016E120E026E080129D08F
:1020900000013950040807E1000E016E4B0E026E7C
:1020A00008011FD000013950050807E1000E016E3C
:1020B000960E026E080115D000013950060807E19E
:1020C000000E016EE10E026E08010BD00001800EC1
:1020D000016E250E026E080104D0FF0E016E026E25
:1020E00000D000019BEF10F0E0C8E9F8DFC8EAF883
:1020F0008BEC09F0D8900801E335E96FE435EA6F1D
:10210000E9C8EBF8000172EC09F00801E66BE56B39
:10211000E651E45D25E303E1E351E55D21E2E551AC
:10212000E125E96FE651E221EA6FEC6FE9C8EBF8CF
:1021300000016DEF0AF002C0E8F801C0E7F8E8C856
:10214000E9F8E8C8EBF872EC09F0E7C8E9F8E7C885
:10215000EBF872EC09F00801E52BD8B4E62BD8D7E0
:1021600000019AEC09F0ACEF13F00801E651060803
:102170003BE2FF0A03E1E551CF0836E2E6510908E8
:1021800033E303E1E551CF082FE3E851000808E20B
:10219000FF0A03E1E751000803E2030E016ED6D106
:1021A000D00EE55DEB6F070EE659EC6F020EEC27E3
:1021B000ECC8AAFFEBC8A9FFE7C8A8FFA69CA69E8B
:1021C000A684F250006EF29CF29E0F01550EA76E8F
:1021D000AA0EA76EA682A6B2FED7A6940050F2124F
:1021E000000E016E0801B2D1E651030848E2FF0A71
:1021F00003E1E5514B0843E2E651040840E303E103
:10220000E55193083CE3E851000808E2FF0A03E1C6
:10221000E751000803E2030E016E98D14C0EE55D14
:10222000E96FE9C8F1F8060EF26F0001A4EC05F0C1
:1022300000C0EAF8E9C8F1F8060E0801F26F0001E3
:10224000A4EC05F001C0E9F80801E951060DF350CE
:10225000036A190FEB6F000E0320EC6F036AEA515B
:10226000EB25016EEC5103220150360FE96E000E92
:102270000320EA6EE7C8EFFF000E016E67D101018F
:10228000D8531BE00801E551E80809E1E6510308CD
:1022900006E1E7C83AF0000E016E58D10DD0E551C5
:1022A000E9080AE1E651030807E1E8C83CF0E7C89D
:1022B0003BF0000E016E4AD101010801E551006EAC
:1022C000E651036E030E035C06E1EE0E005C0001B6
:1022D000D8B465D00801030E035C06E1EF0E005C84
:1022E0000001D8B468D00801030E035C06E1F00ECB
:1022F000005C0001D8B467D00801030E035C06E15E
:10230000F10E005C0001D8B46AD00801030E035C32
:1023100006E1F20E005C0001D8B467D00801030E9C
:10232000035C06E1F30E005C0001D8B46BD0080139
:10233000030E035C06E1F40E005C0001D8B46ED01D
:102340000801030E035C06E1F50E005C0001D8B441
:1023500071D00801070E035C06E1CD0E005C0001A0
:10236000D8B4B7D00801070E035C06E1CE0E005CBE
:102370000001D8B4B8D00801070E035C06E1CF0E07
:10238000005C0001D8B4BCD008014E0E035C06E12D
:102390001F0E005C0001D8B4C0D00801D2D00801E3
:1023A000E85303E1E751800803E2030E016ECED04B
:1023B000E7C836F0C9D00101FA83E8C83EF0E7C8A3
:1023C0003DF00801C1D00801E85303E1E7510108DD
:1023D00003E2030E016EBAD0E7C83FF0B5D0E8C8FB
:1023E00041F0E7C840F00801AFD00801E75305E12C
:1023F000E85303E1030E016EA9D0E8C843F0E7C833
:1024000042F0A2D00801E85303E1E751010803E2DA
:10241000030E016E9BD0E7C844F096D00801E85344
:1024200003E1E751020803E2030E016E8FD0E7C813
:1024300038F08AD00801E96BE751B00806E1E851AD
:10244000040803E1010EE96F396AE751600806E10B
:10245000E851090803E1010EE96F396EE751C00840
:1024600007E1E851120804E1010EE96F020E396E2E
:10247000E751800807E1E851250804E1010EE96F02
:10248000030E396EE75307E1E8514B0804E1010EF2
:10249000E96F040E396EE75307E1E851960804E14D
:1024A000010EE96F050E396EE75307E1E851E108C7
:1024B00004E1010EE96F060E396EE92D05D0000129
:1024C00088EC04F004D00801030E016E3FD008012F
:1024D0003BD00801E72D02D0E85303E0030E016E64
:1024E00035D0FF0000010801E72D02D0E85303E0DA
:1024F000030E016E2BD00001C0EC06F0080124D0C1
:102500000801E72D02D0E85303E0030E016E1ED050
:10251000000196EC06F0080117D00801E7510A08FF
:1025200003E1E851070806E00101D86B030E016ED4
:1025300008010CD0010E0101D86FC80EF76F080119
:1025400003D0020E016E02D0000E016E00011200D7
:10255000E1C8E9F8060E0801EA6F00018BEC09F00A
:10256000E3C8E6F8E3C8EBF872EC09F0E2C8E6F875
:10257000E2C8EBF872EC09F0E5C8E6F8E5C8EBF85C
:1025800072EC09F0E4C8E6F8E4C8EBF872EC09F084
:102590009AEC09F0E5EF13F0DFC8E9F8100E080136
:1025A000EA6F00018BEC09F0E1C8E4F8E1C8EBF850
:1025B00072EC09F0E0C8E4F8E0C8EBF872EC09F05E
:1025C000E3C8E4F8E3C8EBF872EC09F0E2C8E4F819
:1025D000E2C8EBF872EC09F09AEC09F046EF14F05F
:1025E000D4EF08F00152D8B472D18C96382C59D05F
:1025F00036500701C75DD8A402D0000152D08C82AA
:102600008C800400020E0801DF6FB50EE06F000140
:10261000E7EC08F00801DF2FF8D70701C7510001E8
:10262000F7EC08F00400670E006E002EFED70000E5
:102630000701C9510001F7EC08F00400670E006EB5
:10264000002EFED700000801DE6B020E0701C82530
:102650000801DE5D16E2CB0EDE25E96E070EEA6E9E
:10266000D8B0EA2AEFCFDFF8DF510001F7EC08F02D
:102670000400670E006E002EFED700000801DE2B5E
:10268000E4D772A2FED70400020EDF6FB50EE06F32
:102690000001E7EC08F00801DF2FF8D78C928C904E
:1026A00000013650800806E036500701C75DD8A407
:1026B00003D100010101CC3D03D0CD3D01D003D0B9
:1026C000CC2BD8B4CD2B140EF76F0701C951030AD8
:1026D000000108E0070A06E0020A40E0160AD8B442
:1026E00076D0D6D0CBC7DAF8CCC7D9F8CDC7DCF8CE
:1026F000CEC7DBF80801DB51D925DF6FDC51DA21C9
:10270000E06FDAC8E2F8D9C8E1F8E46FDFC8E3F8AF
:102710000001FBEF08F0015212E1C7C7DFF8080122
:10272000E16BC9C7E0F8020EE26F0001ABEC09F003
:102730000101D16B020ED06FF76B0FD00001C9C73A
:10274000DFF8C7C7E0F8DAC8E2F8D9C8E1F8DCC8B2
:10275000E4F8DBC8E3F8C8D40101AAD0CBC7DAF8A3
:10276000CCC7D9F8CDC7E0F8CEC7DFF8DAC8E6F8AD
:10277000D9C8E5F8CDC7E8F8CEC7E7F8F6DC01C060
:10278000DDF80801DD5311E0C7C7DFF8E16BC9C709
:10279000E0F8DDC8E2F80001ABEC09F00101D16B13
:1027A000DDC8D0F1F76B12D00801CDC7E0F8CEC775
:1027B000DFF8C7C7E1F8DAC8E3F8D9C8E2F8CDC74F
:1027C000E5F8CEC7E4F80001C3D6010171D0CBC74C
:1027D000DAF8CCC7D9F8CDC7DCF8CEC7DBF80801EA
:1027E000DE6BDC5303E1DB51DE5D42E2DE51D925D5
:1027F000DF6F000EDA21E06FD890DE35050FCB0FCA
:10280000E96E070EEA6ED8B0EA2AEFCFE1F8D89069
:10281000DE35060FCB0FE96E070EEA6ED8B0EA2A56
:10282000EFCFE2F8E1C8E4F8E2C8E3F8E0C8E6F880
:10283000DFC8E5F8E1C8E8F8E2C8E7F8000195DC90
:1028400001C0DDF80801DD5311E0C7C7DFF8E16B17
:10285000C9C7E0F8DDC8E2F80001ABEC09F00101FE
:10286000D16BDDC8D0F1F76B080102D0DE2BB9D7F0
:10287000DD530CE1C7C7DFF8DAC8E1F8D9C8E0F8E2
:10288000DCC8E3F8DBC8E2F8000186D6010110D00D
:10289000C7C7DFF80801E16BC9C7E0F8010EE26FB6
:1028A0000001ABEC09F00101D16B010ED06FF76BA9
:1028B000DA6BD96B0CD007010101CE3D03D0CF3DBF
:1028C00001D003D0CE2BD8B4CF2B0A0EF76F000166
:1028D000B6EF16F00901E56BE351E55D39E2E4512D
:1028E000E55D36E2036AE551E125E96EE251032038
:1028F000EA6EEF522DE0036AE551E125E96EE251FF
:102900000320EA6EEF500A0823E0036AE551E1254F
:10291000E96EE2510320EA6EEF500D0819E0036AF8
:10292000E551DF25016EE051032203C0E7F9036A98
:10293000E551E125E96EE2510320EA6EEFCFE8F9B7
:10294000E7C9EAFF01C0E9FFE8C9EFFFE52BC4D7FB
:10295000E451E55D0AE2036AE551DF25E96EE051E5
:102960000320EA6EEF6AE52BF3D7010EE45D036AFC
:10297000DF25E96EE0510320EA6EEF6A00011200E4
:102980000901E35302E1E45342E0DFC9E9FFE0C992
:10299000EAFFEFCFE5F9E2C903F0E1C9E9FFE2C9D7
:1029A000EAFFEF50E55D17E0E0C903F0DFC9E9FF9A
:1029B000E0C9EAFFEFCFE5F9E2C903F0E1C9E9FFB9
:1029C000E2C9EAFFEF50E55D02E2FF0E01D0010E21
:1029D000016E1FD00BD0E0C903F0DFC9E9FFE0C9E9
:1029E000EAFFEF5203E1000E016E13D0E0C903F0DD
:1029F000DF51DF2BD8B4E02BE2C903F0E151E12B2A
:102A0000D8B4E22BE351D8B4E407E307BAD7000EF9
:102A1000016E000174EF15F0FEC2D9F90201FE69E2
:102A2000080EEA6ED90EE96E010EE26EFE0EE16E40
:102A30000901D951016E04E0E6CFEEFF012EFCD76B
:102A40000201FF6BFE6B382C1BD00901DB6BDA6BCC
:102A5000DB5314E1D951DA5D11E2D90EDA25E96EC2
:102A6000080EDB21EA6EEFCFDDF9DD51000195ECB8
:102A700003F00901DA2BD8B4DB2BEAD75FD00201CF
:102A8000385002085CE1070E0901E06F730EDF6F3A
:102A9000080EE26FD90EE16FD9C9E3F9500EE46F69
:102AA000000118DF0901D951050801E347D0DC6BAB
:102AB000DC510B0843E3DC51060DF350036A4F0F62
:102AC000016E000E032201C0DDF903C0DEF9080E1D
:102AD000E06FD90EDF6F03C0E2F901C0E1F9E46BEA
:102AE000060EE36F00014CD7015201E024D009012A
:102AF000DE6BDCC9DDF9E06B500EDF6F00016AECC4
:102B000004F002C003F00150030F016E040E032213
:102B100001C0DDF9090103C0DEF903C0E0F901C01D
:102B2000DFF9080EE26FD90EE16FD9C9E3F9500E53
:102B3000E46F0001CFDE0901DC2BBAD702010001EE
:102B4000D4EF16F0F86AF1949F829F9A9F98A59A05
:102B5000D08E078EEA6AE96A356AB8960C0EAF6EB7
:102B6000A60EAC6E900EAB6E70964D0E756EA60EE8
:102B7000726E900E716E0701C391C46B0801CE6B2B
:102B80000701C393C395C397C399C39BC39D080112
:102B9000CF6BD16BD06BD36BD26BD56BD46BC15079
:102BA000F00BC16E000E0F01386F3C6F396F3A6F3A
:102BB0003B6F0101886B776A786A796A2F6A306A9D
:102BC0000801CA6BCB6BCC6BCD6BD66BD76BD0507F
:102BD0000F0BD0A8000ED080D082D088D886D8889D
:102BE000D86F0001C9EF04F08C828C80160EF66E4F
:102BF000080EF76E070E0801D96F00017EEC05F094
:102C0000220EF66E080EF76E93EC05F00D0EA4A8DA
:102C1000FED7736E0A0EA4A8FED7736E2C0EF66E46
:102C2000080EF76E120E0801D96F00017EEC05F058
:102C3000D8C8D9F81B0E0801DA6F0001BAEF05F009
:102C4000200EA4A8FED7736E0801D851070A000110
:102C50000DE00C0A12E0040A17E0030A1CE0020A65
:102C600021E00D0A26E0030A2BE031D0420EF66E79
:102C7000080EF76E93EC05F030D04E0EF66E080E8F
:102C8000F76E93EC05F029D05E0EF66E080EF76E27
:102C900093EC05F022D06C0EF66E080EF76E93ECF6
:102CA00005F01BD07C0EF66E080EF76E93EC05F067
:102CB00014D08E0EF66E080EF76E93EC05F00DD064
:102CC0009E0EF66E080EF76E93EC05F006D0B00E71
:102CD000F66E080EF76E93EC05F0BA0EF66E080E5F
:102CE000F76E93EC05F016EF07F03650800802E21D
:102CF000C0EC06F0AB8EAB8845EF07F00801D86B4F
:102D0000D8511D0806E30001A4EC07F00801D82BF8
:102D1000F7D744C0DBF172A2FED78C928C90BE0E26
:102D2000F66E080EF76E070ED96F0001F8EF07F088
:102D3000CA0EF66E080EF76E0EEF08F00D0E9EA886
:102D4000FED7AD6E0A0E9EA8FED7AD6E040001013F
:102D5000FAA504D0000120EF08F00101FAA104D087
:102D6000FA910001A4EC07F000013AD4040102A199
:102D700009D002919D9A04003C0E006E002EFED7F1
:102D800000009D8802A30AD0029304003C0E006E4E
:102D9000002EFED7000000013FEC07F00101FDA16D
:102DA00004D0FD91000138D601010001CFD7030006
:020000040030CA
:0E00000000231E3F003F81000FC00FE00F40A5
:00000001FF
;PIC18F46K22
;CRC=BBB0  CREATED="07-Dec-15 14:40"
