:04000000DFEF10F02E
:080008006BEF00F000000000A6
:100010000000000000000000046ED8CF05F0E0CF23
:1000200006F00001E9CF0CF0EACF07F0E1CF08F0CD
:10003000E2CF09F0D9CF0AF0DACF0BF0F3CF12F00C
:10004000F4CF13F0FACF14F0F5CF15F0F6CF16F089
:10005000F7CF17F000C00EF001C00FF002C010F093
:1000600003C011F0F2AA38EF00F0F2B4D8EF01F0BB
:100070009DAA3EEF00F09EBA59EF03F0A3AA44EF09
:1000800000F0A4BA1CEF03F00EC000F00FC001F0A6
:1000900010C002F011C003F00CC0E9FF07C0EAFF76
:1000A000078E08C0E1FF09C0E2FF0AC0D9FF0BC0FC
:1000B000DAFF12C0F3FF13C0F4FF14C0FAFF15C03B
:1000C000F5FF16C0F6FF17C0F7FF045006C0E0FFAB
:1000D00005C0D8FF10001A6ED8CF1BF0E0CF1CF07F
:1000E0000001E9CF22F0EACF1DF0E1CF1EF0E2CF10
:1000F0001FF0D9CF20F0DACF21F0F3CF28F0F4CFE2
:1001000029F0FACF2AF0F5CF2BF0F6CF2CF0F7CF6D
:100110002DF000C024F001C025F002C026F003C07D
:1001200027F09DA297EF00F09EB2F1EF01F024C0FE
:1001300000F025C001F026C002F027C003F022C065
:10014000E9FF1DC0EAFF1D8E1EC0E1FF1FC0E2FFD8
:1001500020C0D9FF21C0DAFF28C0F3FF29C0F4FF77
:100160002AC0FAFF2BC0F5FF2CC0F6FF2DC0F7FF09
:100170001A501CC0E0FF1BC0D8FF1000F76A8C0F9C
:10018000F66E010EF7220900F550120000C1814001
:1001900001C0804101C0804100C1814001C0804157
:1001A00000C1814000C1814001C0804101C0804147
:1001B00000C1814000C1814001C0804100C1814037
:1001C00001C0804101C0804100C1814001C0804127
:1001D00000C1814000C1814001C0804100C1814017
:1001E00001C0804101C0804100C1814000C1814007
:1001F00001C0804101C0804100C1814001C08041F7
:1002000000C1814000C1814001C0804101C08041E6
:1002100000C1814000C1814001C0804100C18140D6
:1002200001C0804101C0804100C1814000C18140C6
:1002300001C0804101C0804100C1814001C08041B6
:1002400000C1814000C1814001C0804100C18140A6
:1002500001C0804101C0804100C1814001C0804196
:1002600000C1814000C1814001C0804101C0804186
:1002700000C1814000C1814001C0804100C1814076
:1002800001C0804101C0804100C18140F76A9C0FDC
:10029000F66E020EF7220900F550120000C0C101EF
:1002A000C30302C2C60607C705C5C404CC0C0DCDE6
:1002B0000FCFCE0E0ACACB0BC90908C8D81819D956
:1002C0001BDBDA1A1EDEDF1FDD1D1CDC14D4D51586
:1002D000D71716D6D21213D311D1D010F03031F176
:1002E00033F3F23236F6F737F53534F43CFCFD3DA6
:1002F000FF3F3EFEFA3A3BFB39F9F83828E8E92996
:10030000EB2B2AEAEE2E2FEF2DEDEC2CE42425E545
:1003100027E7E62622E2E323E12120E0A06061A1B5
:1003200063A3A26266A6A767A56564A46CACAD6D65
:10033000AF6F6EAEAA6A6BAB69A9A86878B8B979D5
:10034000BB7B7ABABE7E7FBF7DBDBC7CB47475B505
:1003500077B7B67672B2B373B17170B050909151F5
:100360009353529296565797559594549C5C5D9D25
:100370005F9F9E5E5A9A9B5B995958988848498915
:100380004B8B8A4A4E8E8F4F8D4D4C8C44848545C5
:10039000874746868242438341818040F29A040126
:1003A000CF5304E0D76AD66AF294F28A00011200B1
:1003B0000201B55102080AE1B65308E1B75306E15C
:1003C000B4B104D0020EB95FB48101D0B491B76961
:1003D000B669B56B0401CF6B0001E0DFF29444EF26
:1003E00000F00401D1A10CD001019A3D05D09B3D44
:1003F00003D0040105D001019A2BD8B49B2B040132
:10040000D1A50CD001019C3D05D09D3D03D0040138
:1004100005D001019C2BD8B49D2B0401D1A90CD08F
:1004200001019E3D05D09F3D03D0040105D001018F
:100430009E2BD8B49F2B0401D19381B0D183D1B32B
:1004400040D00201B4B302D004013BD00001602BC4
:10045000D8B4612B010E6627D8B0672BD8B4682BAF
:10046000D8B4692B0201B4A523D00401D1919BC15A
:100470004FF09AC14EF04F50555C08E303E15450E1
:100480004E5C04E24FC055F04EC054F05B504F5CE0
:100490000DE303E14E505A5C09E24E3C03D04F3C61
:1004A00001D004D04FC05BF04EC05AF00201B495A9
:1004B000B4B507D001019B6B9A6B0401D181020195
:1004C000B4850201B4930401D1A303D00201B48323
:1004D0000401D19781B2D187D1B740D00201B4B71E
:1004E00002D004013BD00001622BD8B4632B010E73
:1004F0006A27D8B06B2BD8B46C2BD8B46D2B020103
:10050000B4A923D00401D1959DC151F09CC150F0F4
:100510005150575C08E303E15650505C04E251C06F
:1005200057F050C056F05D50515C0DE303E1505060
:100530005C5C09E2503C03D0513C01D004D051C076
:100540005DF050C05CF00201B499B4B907D001016C
:100550009D6B9C6B0401D1850201B4890201B497A3
:100560000401D1A703D00201B4870401D19B81B457
:10057000D18BD1BB40D00201B4BB02D004013BD02F
:100580000001642BD8B4652B010E6E27D8B06F2BF9
:10059000D8B4702BD8B4712B0201B4AD23D00401B0
:1005A000D1999FC153F09EC152F05350595C08E35A
:1005B00003E15850525C04E253C059F052C058F065
:1005C0005F50535C0DE303E152505E5C09E2523C24
:1005D00003D0533C01D004D053C05FF052C05EF052
:1005E0000201B49DB4BD07D001019F6B9E6B040155
:1005F000D1890201B48D0201B49B0401D1AB03D0B7
:100600000201B48B04010301BF2BBF510A0804E1AE
:10061000BF6B0101AE8503019E92000197EF00F0D0
:10062000A4AAFED771CF35F074CF01F035A202D065
:10063000719871881DEF03F0F3D701C0CEF43852E2
:1006400010E00201B36BB23D01D00AD0B20EB22568
:10065000E96E010EEA6ED8B0EA2ACEC4EFFFB22BE3
:100660000001A49A44EF00F09EAAFED7ABCF35F06C
:10067000AECF01F035A202D0AB98AB881200A4A88F
:10068000FED7736E12000201B7510401CF19D06F6B
:10069000036AD051000172DD016E0201B6510118EA
:1006A000B76F036A0401D0510001F0DDE8CFB6F264
:1006B0001200DADF01C0CEF4010190A105D00401DF
:1006C000CE510001DCDF2DD00201B4B12BD0B553E7
:1006D00008E1B769B669CEC4B8F2B52BB96BBB6B8C
:1006E00017D0B52D04D0CEC4BAF2B52B11D0B55168
:1006F00002080EE1B93D02D0FE0EB96FBC0EB9255D
:10070000E96E020EEA6ED8B0EA2ACEC4EFFFB92B2A
:10071000CEC4CFF40001B7DF010E0401CF6F00019A
:100720003DDE02019E9A000144EF00F02320706339
:1007300077782025730D0A0032302D4E6F762D31DB
:1007400035000301E451E603F3CF01F0F4CF00F0EC
:10075000E703F3500026E551E603F3500020026E54
:1007600000011200C290080E616EF19E000E926EA2
:10077000FF0E936E920E946E800E956E96909692EA
:10078000969496960101AB6BAD6B020EAC6FAE9179
:10079000AE93AE95AF69B0690201B26BB369010166
:1007A000B1910301CA6BCA51020856E3036ACAC376
:1007B00002F0D8900236033602504E0FE96E000E5A
:1007C0000320EA6EEC6AED52EF6A036ACAC302F0D4
:1007D000D890023603360250540FE96E000E032003
:1007E000EA6EEC68ED52EF68036ACAC302F0D89073
:1007F0000236033602505A0FE96E000E0320EA6EED
:10080000EC6AED52EF6A036ACAC302F0D89002366E
:1008100003360250600FE96E000E0320EA6EEC6AA8
:10082000ED52EF6AE56BCAC3E4F3E76B040EE66FC3
:10083000000187DF0150660FE96E000E0220EA6EAC
:10084000EE52EE52EC6AED52EF6AED52EF6AED5263
:10085000EF6A0301CA2BA7D70101846B836B866BF8
:10086000856B886B876B8A6B896B8C6B8B6B8E6BE4
:100870008D6B826B8F6B9091926B916B4BC095F1EE
:100880004AC094F147C097F146C096F1996B986BB6
:10089000F19CF19AF198000E0509BA6E4A0EBB6EF2
:1008A0009D82A38A000130EF11F00301D36BD2C304
:1008B00003F0D151D8B4D207D107D46F03C0D5F318
:1008C000D45302E1D55335E0D0C303F0CF51E96EE4
:1008D00003C0EAFFCE51036ECD51CD2BD8B4CE2B41
:1008E000D66F03C0D7F3F2CFD8F3F29CF29ED7C3F2
:1008F000AAFFD6C3A9FFA69CA69EA680A850D8BDD5
:10090000F28CD8BFF28EEF6ED0C303F0CF51E96EF8
:1009100003C0EAFFEFCFD4F3D3C3E5F3D4C3E6F3C8
:10092000E551E619016E01C0D3F3CF2BD8B4D02B1B
:10093000BED7D3C301F0000147EF05F00301E36B1D
:10094000E2C303F0E151D8B4E207E107E46F03C06A
:10095000E5F3E45302E1E5533FE0E0C303F0DF5188
:10096000E96E03C0EAFFEFCFE4F3E3C3E5F3E4C3CA
:10097000E6F3E551E619016E01C0E3F3DE51036EC3
:10098000DD51DD2BD8B4DE2BE46F03C0E5F3E0517D
:10099000036EDF51DF2BD8B4E02BE96E03C0EAFF12
:1009A000EFCFE6F3E5C3AAFFE4C3A9FFE6C3A8FFC0
:1009B000A69CA69EA684F250006EF29CF29E0F01A9
:1009C000550EA76EAA0EA76EA682A6B2FED7A69453
:1009D0000050F2120301B4D7E3C301F0000101EFAC
:1009E00005F00301DC6B360EDB6FDE6B020EDD6F94
:1009F000DCC3E0F3DBC3DFF3E26B180EE16F000151
:100A00009DD701C0DAF3AA6AA96ADAC3A8FFA69C37
:100A1000A69EA684F250006EF29CF29E0F01550E27
:100A2000A76EAA0EA76EA682A6B2FED7A694005005
:100A3000F21200011200960E0101AB6F260E366E07
:100A4000010E386E500E396E260E3B6E940E3A6EC5
:100A50003D6A140E3C6E3E6A020E406E760E3F6E8C
:100A6000426A020E416E436A0001BBDF12000301BD
:100A7000CC6B360ECB6FCE6B020ECD6FCCC3D0F3EA
:100A8000CBC3CFF3D26B180ED16F00010ED701C0CC
:100A9000CAF3F2CFCBF3F29CF29EAA6AA96AA69C93
:100AA000A69EA680A8500301CBBDF28CCBBFF28ED0
:100AB000CA5D03E00001BFDF0301000132EF11F066
:100AC0009EAA02D0D1DDFCD79D8A1200F9DFC60EA6
:100AD000D56EC00EF2123BEF11F08B968B8A8C9480
:100AE0000301CD5303E1030ED16F25D0CD2D03D0EB
:100AF000130ED16F20D0CD51020803E10B0ED16F40
:100B00001AD0CD51030803E11B0ED16F14D0CD5183
:100B1000040803E1070ED16F0ED0CD51050803E1A3
:100B2000170ED16F08D0CD51060803E10F0ED16F1B
:100B300002D01F0ED16FD06BD05104080BE38B96FF
:100B4000D1B102D08B9A01D08B8AD890D1338B86C9
:100B5000D02BF2D7CF6BCE6BD06BD0510D080BE3FF
:100B60008B9682B802D0D89001D0D880CE37CF37BC
:100B70008B86D02BF2D7CF9BCF998C84CEC301F03C
:100B8000CFC302F00001FBEF05F00101822B82517F
:100B90000F0801E2826B0301CA6BCA51070846E3E2
:100BA000E56BCAC3E4F3E76B200EE66F0001C9DD15
:100BB00002C003F00150340F0301CB6F000E02207E
:100BC000CC6F036A010182C102F0D890023603366D
:100BD00002500301CB25016ECC51032201504E0F70
:100BE000016E000E032201C0CBF303C0CCF3CAC3D5
:100BF000CDF3000172D7CCC3EAFFCBC3E9FF02C03B
:100C0000ECFFED5201C0EFFF036A0301CAC302F01B
:100C1000D890023603360250720FE96E000E0320A0
:100C2000EA6EEC6AED52EF6ACA2BB7D700011200E8
:100C30000900F6CFCBF3F7CFCCF3F5509EA8FED743
:100C4000AD6ECBC3F6FFCCC3F7FF0301CA2F01D0B3
:100C500002D00001EDD7000151EF11F00900F5526B
:100C60000DE0F6CFCAF3F7CFCBF3F5509EA8FED731
:100C7000AD6ECAC3F6FFCBC3F7FFF0D757EF11F045
:100C80000301E56BDEC3E4F3E76B200EE66F0001C2
:100C900058DD02C003F00150820F016E000E0322E6
:100CA00001C0E2F3030103C0E3F3E06BDF6BE16B30
:100CB000E1510F0811E3D890E135036AE225E96EAE
:100CC000E3510320EA6EECCF03F0ED52EF50DF2743
:100CD0000350E023E12BECD7080EDF25E46F000E74
:100CE000E021E56FE531036EE431026E033202323A
:100CF00003320232033202320F0E031602C001F039
:100D000003C002F0000112000101AE95D89003016A
:100D1000C535CA6FC635CB6F000E0101B0AB010EF1
:100D20000301CA13CAC3C5F3CB51E009C66FC5534B
:100D300003E1C651F00800E101019A3D04D09B3D5A
:100D400002D04F6A4E6A9C3D04D09D3D02D0516A4C
:100D5000506A9E3D04D09F3D02D0536A526A81CFB3
:100D6000AFF182CFB0F190A102D0898606D0AB530B
:100D700002E1899602D08986AB078D3D03D08E3D76
:100D800001D003D08D2BD8B48E2B0301C32BD8B444
:100D9000C42BC351E80842E1C45103083FE1C46BCE
:100DA000C36B0101913D03D0923D01D003D0912B43
:100DB000D8B4922B3F5202E140520FE04050925D76
:100DC0000CE303E191513F5C08E2AC5306E1AD5303
:100DD00004E142C0ADF141C0ACF1AC5304E1AD530C
:100DE00002E18B800BD08B90AC51D8B4AD07AC072F
:100DF000AC5304E1AD5302E1926B916B0301C02B44
:100E0000C0513C080BE1C06B01018B3D03D08C3D10
:100E100001D003D08B2BD8B48C2B0301C73D09D054
:100E2000C83D07D0DE6B00012BDF02C0C8F301C054
:100E3000C7F30101AEA304D0AE930301C26BC16B33
:100E40000301C12BD8B4C22B3C50C15D0AE13D5017
:100E5000C25D07E1C26BC16B0101AE810301C869CC
:100E6000C7690201B33D01D001D0B32BB3510908CA
:100E700005E2B25303E00101B1810201000166EF16
:100E800011F00201B4B104D0000E016E0AD006D0F8
:100E9000BAAF04D0BCC2BBF2010EB96FB491010E5F
:100EA000016E00012DEF0FF0050E0301D15F0AE383
:100EB000030EEA6ED10EE96EEF5004E001D004009B
:100EC000EF2EFDD7000112000301D2511F080CE1E3
:100ED000D3514E0809E1D451200806E1D5514E08FE
:100EE00003E1010E016E2ED0D35102080FE2FF0A7A
:100EF00003E1D251E7080AE2D551030807E303E111
:100F0000D451F50803E3010E016E1CD0D35106083D
:100F10000FE2FF0A03E1D251CF080AE2D5510908D6
:100F200007E303E1D451D10803E3010E016E0AD0B7
:100F3000D55306E1D451340803E3010E016E02D00B
:100F4000000E016E0001C5EF0FF09EA8FED7AD6E3A
:100F500012000301DC510001F8DF196AF2BC198CA0
:100F6000F29CF2BE198EF29EDCC3CFF443EC03F088
:100F700019BCF28C19BEF28E0400080E006E002E11
:100F8000FED7000012000201B769B669B4919D9ABC
:100F900004003C0E006E002EFED70000DAC3DCF326
:100FA0000001D7DFDBC3DCF3D4DF1200ACA2FED735
:100FB000E5EF07F0B7C2DBF3B6C2DAF3DBC3DCF36D
:100FC000C8DFDAC3DCF3C5DFF1D704003C0E006EE6
:100FD000002EFED7000074DD0201B769B66900017A
:100FE00012000301D1518009D46FD2C3D5F3D0C30D
:100FF000DAF3DB6F0001C7DFD3C3DCF3AADFDADF8C
:101000001200F29CF29EF2BEFDD70301E56BDEC337
:10101000E4F3E76B040EE66F0001A1EC03F002C0FD
:1010200003F00150660FE96E000E0220EA6EEFCF6A
:1010300000F0ECCF01F0ECCF02F0ECCF03F003C0F6
:10104000E2F302C0E1F301C0E0F300C0DFF3C00E41
:10105000F212DFC300F0E0C301F0E1C302F0E2C32B
:1010600003F01200F29CF29EF2BEFDD7616B606B42
:10107000636B626B656B646B556854685768566840
:10108000596858685B6A5A6A5D6A5C6A5F6A5E6A38
:1010900001018E6B8D6BC00EF2120001D7EF0CF0C8
:1010A000F29CF29EF2BEFDD7696B686B676B666B54
:1010B0006D6B6C6B6B6B6A6B716B706B6F6B6E6B6C
:1010C000C00EF212DFEF0CF00101846B836B866BB4
:1010D000856B886B876B0001FFEF0CF00301DD511E
:1010E00006082AE2FF0A03E1DC51CF0825E2DD51C0
:1010F000090822E303E1DC51CF081EE3D00EDC5DDA
:10110000DE6F070EDD59DF6F020EDF27F2CFE0F34F
:10111000F29CF29EDFC3AAFFDEC3A9FFA69CA69E97
:10112000A680A850E0BDF28CE0BFF28E036A016E8B
:101130000350026E68EF0DF0DC51006EDD51036E5E
:10114000035005E100520001D8B40FD2030103504F
:1011500006E1010E005C0001D8B40ED20301035079
:1011600006E1020E005C0001D8B40DD20301035069
:1011700006E1030E005C0001D8B40CD20301035059
:1011800006E1040E005C0001D8B40BD20301035049
:1011900006E1050E005C0001D8B416D2030103502D
:1011A00006E1060E005C0001D8B415D2030103501D
:1011B00006E1070E005C0001D8B414D2030103500D
:1011C00006E1080E005C0001D8B413D203010350FD
:1011D00006E1090E005C0001D8B412D203010350ED
:1011E00006E10A0E005C0001D8B411D203010350DD
:1011F00006E10B0E005C0001D8B41DD203010350C0
:1012000006E10C0E005C0001D8B41CD203010350AF
:1012100006E10D0E005C0001D8B41BD2030103509F
:1012200006E10E0E005C0001D8B41AD2030103508F
:1012300006E10F0E005C0001D8B419D2030103507F
:1012400006E1100E005C0001D8B418D2030103506F
:1012500006E1110E005C0001D8B424D20301035052
:1012600006E1120E005C0001D8B423D20301035042
:1012700006E1130E005C0001D8B432D20301035022
:1012800006E1140E005C0001D8B436D2030103500D
:1012900006E1150E005C0001D8B435D203010350FD
:1012A00006E1160E005C0001D8B444D203010350DD
:1012B00006E1170E005C0001D8B449D203010350C7
:1012C00006E1180E005C0001D8B448D203010350B7
:1012D00006E1190E005C0001D8B457D20301035097
:1012E00006E11A0E005C0001D8B45CD20301035081
:1012F00006E11B0E005C0001D8B45BD20301035071
:1013000006E11C0E005C0001D8B46AD20301035050
:1013100006E11D0E005C0001D8B46FD2030103503A
:1013200006E11E0E005C0001D8B46ED2030103502A
:1013300006E11F0E005C0001D8B47DD2030103500A
:1013400006E1200E005C0001D8B482D203010350F4
:1013500006E1210E005C0001D8B481D203010350E4
:1013600006E1220E005C0001D8B490D203010350C4
:1013700006E1230E005C0001D8B495D203010350AE
:1013800006E1240E005C0001D8B494D2030103509E
:1013900006E1250E005C0001D8B4A3D2030103507E
:1013A00006E1260E005C0001D8B4A8D20301035068
:1013B00006E1270E005C0001D8B4A7D20301035058
:1013C00006E1280E005C0001D8B4B6D20301035038
:1013D00006E1290E005C0001D8B4BBD20301035022
:1013E00006E12A0E005C0001D8B4BAD20301035012
:1013F00006E12B0E005C0001D8B4BFD203010350FC
:1014000006E12C0E005C0001D8B4BFD203010350EA
:1014100006E12D0E005C0001D8B4BFD203010350D9
:1014200006E12E0E005C0001D8B4BFD203010350C8
:1014300006E12F0E005C0001D8B4BFD203010350B7
:1014400006E1300E005C0001D8B4BFD203010350A6
:1014500006E1310E005C0001D8B4BFD20301035095
:1014600006E1320E005C0001D8B4BFD20301035084
:1014700006E1330E005C0001D8B4BFD20301030EB5
:10148000035C06E1E80E005C0001D8B4BED20301A3
:10149000030E035C06E1E90E005C0001D8B4BDD286
:1014A0000301030E035C06E1EA0E005C0001D8B400
:1014B000BBD20301030E035C06E1EB0E005C0001EE
:1014C000D8B4B9D20301030E035C06E1EC0E005C54
:1014D0000001D8B4B7D20301030E035C06E1ED0EA0
:1014E000005C0001D8B4B5D20301030E035C06E131
:1014F000EE0E005C0001D8B4B3D20301030E035C0E
:1015000006E1EF0E005C0001D8B4B2D20301030E75
:10151000035C06E1F00E005C0001D8B4B0D2030118
:10152000030E035C06E1F10E005C0001D8B4AFD2FB
:101530000301030E035C06E1F20E005C0001D8B467
:10154000ADD20301030E035C06E1F30E005C000163
:10155000D8B4ABD20301030E035C06E1F40E005CC9
:101560000001D8B4AAD20301AFD260C001F061C0BB
:1015700002F00301ADD200014E50016E4F50026ED9
:101580000301A6D200015450016E5550026E0301B2
:101590009FD200015A50016E5B50026E030198D237
:1015A00000010301DE6B00012CDD03C0BEF302C0AD
:1015B000BDF301C0BCF300C0BBF30301BB51016E1E
:1015C000BC51026E85D200010301BD51016EBE51B6
:1015D000026E7ED200016251016E6351026E030100
:1015E00077D200015050016E5150026E030170D24B
:1015F00000015650016E5750026E030169D200017E
:101600005C50016E5D50026E030162D20001010E5A
:101610000301DE6F0001F5DC03C0BEF302C0BDF3C1
:1016200001C0BCF300C0BBF30301BB51016EBC5150
:10163000026E4ED200010301BD51016EBE51026E19
:1016400047D200016451016E6551026E030140D220
:1016500000015250016E5350026E030139D2000155
:101660005850016E5950026E030132D200015E5093
:10167000016E5F50026E03012BD20001020E0301C6
:10168000DE6F0001BEDC03C0BEF302C0BDF301C0CB
:10169000BCF300C0BBF30301BB51016EBC51026E31
:1016A00017D200010301BD51016EBE51026E10D26E
:1016B0000001036A01018251026ED890023603369E
:1016C0000250820FE96E000E0320EA6EECCF03F0A9
:1016D000ED52EF50016E0350026E0301F9D100018B
:1016E0000301DE6B000140EC06F00150016E025078
:1016F000026E0301EDD100017251016E7351026E51
:101700000301E6D10001036A01018251026ED89003
:10171000023603360250A20FE96E000E0320EA6E75
:10172000ECCF03F0ED52EF50016E0350026E030157
:10173000CFD10001010E0301DE6F000140EC06F085
:101740000150016E0250026E0301C2D100017451BA
:10175000016E7551026E0301BBD10001036A0101E4
:101760008251026ED890023603360250C20FE96EE3
:10177000000E0320EA6EECCF03F0ED52EF50016E45
:101780000350026E0301A4D10001020E0301DE6FBB
:10179000000140EC06F00150016E0250026E0301A0
:1017A00097D100017651016E7751026E030190D1FD
:1017B0000001036A01018251026ED890023603369D
:1017C0000250E20FE96E000E0320EA6EECCF03F048
:1017D000ED52EF50016E0350026E030179D100010A
:1017E000030E0301DE6F000140EC06F00150016EB4
:1017F0000250026E03016CD100017851016E7951E3
:10180000026E030165D10001036A01018251026E7B
:10181000D890023603360250020FE96E010E032003
:10182000EA6EECCF03F0ED52EF50016E0350026E02
:1018300003014ED10001040E0301DE6F000140ECF4
:1018400006F00150016E0250026E030141D1000109
:101850007A51016E7B51026E03013AD10001036A95
:1018600001018251026ED890023603360250220FD7
:10187000E96E010E0320EA6EECCF03F0ED52EF505B
:10188000016E0350026E030123D10001050E030116
:10189000DE6F000140EC06F00150016E0250026E56
:1018A000030116D100017C51016E7D51026E0301CE
:1018B0000FD10001036A01018251026ED8900236F5
:1018C00003360250420FE96E010E0320EA6EECCFA0
:1018D00003F0ED52EF50016E0350026E0301F8D099
:1018E0000001060E0301DE6F000140EC06F001501E
:1018F000016E0250026E0301EBD000017E51016EB9
:101900007F51026E0301E4D00001036A010182519C
:10191000026ED890023603360250620FE96E010E55
:101920000320EA6EECCF03F0ED52EF50016E03504E
:10193000026E0301CDD00001070E0301DE6F00012E
:1019400040EC06F00150016E0250026E0301C0D05F
:1019500000018051016E8151026E0301B9D0000176
:1019600001018A51036E8951892BD8B48A2B016EEB
:101970000350026E0301ACD0000101018D51016ED4
:101980008E51026E0301A4D0000101018B51016E42
:101990008C51026E03019CD0000101019151016E36
:1019A0009251026E030194D0000132EF08F0000E54
:1019B000016E026E03018CD0000150EF08F0000EA2
:1019C000016E026E030184D0000101018351016E9A
:1019D0008451026E03017CD0000101018551016E2A
:1019E0008651026E030174D0000101018751016E1E
:1019F0008851026E03016CD0000164EF08F0000E04
:101A0000016E026E030164D00001036A3950016E59
:101A10000350026E03015CD000013A50016E3B504E
:101A2000026E030155D00001500E016E000E026ED1
:101A300003014ED00001570E016E000E026E03012D
:101A400047D00001580E016E000E026E030140D017
:101A50000001010E016E000E026E030139D000017B
:101A6000036A3650016E0350026E030131D000014B
:101A70003C50016E3D50026E03012AD00001036A02
:101A80003E50016E0350026E030122D000013F5010
:101A9000016E4050026E03011BD000014150016EE7
:101AA0004250026E030114D00001036A4350016EDC
:101AB0000350026E03010CD00001036A3850016E1E
:101AC0000350026E030104D0FF0E016E026E00D0BF
:101AD000000192EF0DF0D1C3DAF3D0C3DBF3C3EC16
:101AE00007F0D8900301D435DA6FD535DB6FDAC350
:101AF000DCF30001A9EC07F00301D76BD66BD751DB
:101B0000D55D25E303E1D451D65D21E2D651D2253E
:101B1000DA6FD751D321DB6FDD6FDAC3DCF300015D
:101B20006EEF08F002C0D9F301C0D8F3D9C3DAF3DD
:101B3000D9C3DCF3A9EC07F0D8C3DAF3D8C3DCF3DC
:101B4000A9EC07F00301D62BD8B4D72BD8D70001C6
:101B5000DAEC07F0E6EF0FF00301D75106083BE29D
:101B6000FF0A03E1D651CF0836E2D751090833E323
:101B700003E1D651CF082FE3D951000808E2FF0A4C
:101B800003E1D851000803E2030E016E1AD1D00E12
:101B9000D65DDA6F070ED759DB6F020EDB27DBC38A
:101BA000AAFFDAC3A9FFD8C3A8FFA69CA69EA68455
:101BB000F250006EF29CF29E0F01550EA76EAA0E17
:101BC000A76EA682A6B2FED7A6940050F212000E0F
:101BD000016E0301F6D001018F531BE00301D651C2
:101BE000E80809E1D751030806E1D8C339F0000E2F
:101BF000016EE7D00DD0D651E9080AE1D7510308AC
:101C000007E1D9C33BF0D8C33AF0000E016ED9D03A
:101C100001010301D651006ED751036E030E035C20
:101C200005E1EE0E005C00014EE00301030E035CD3
:101C300005E1EF0E005C000152E00301030E035CBE
:101C400005E1F00E005C000152E00301030E035CAD
:101C500005E1F10E005C000156E00301030E035C98
:101C600005E1F20E005C000154E00301030E035C89
:101C700005E1F30E005C000159E00301030E035C73
:101C800006E1F40E005C0001D8B45CD00301070E3D
:101C9000035C06E1CE0E005C0001D8B45FD0030106
:101CA000070E035C06E1CF0E005C0001D8B463D0E0
:101CB00003014E0E035C06E11F0E005C0001D8B468
:101CC00067D0030179D00301D95303E1D8518008CB
:101CD00003E2030E016E75D0D8C336F070D0010157
:101CE000AE83D9C33DF0D8C33CF0030168D00301F3
:101CF000D95303E1D851010803E2030E016E61D00C
:101D0000D8C33EF05CD0D9C340F0D8C33FF0030144
:101D100056D00301D85305E1D95303E1030E016EF8
:101D200050D0D9C342F0D8C341F049D00301D953B0
:101D300003E1D851010803E2030E016E42D0D8C37B
:101D400043F03DD00301D95303E1D851020803E227
:101D5000030E016E36D0D8C338F031D00301D82D30
:101D600002D0D95303E0030E016E2BD000011BEC0F
:101D700005F0030124D00301D82D02D0D95303E08C
:101D8000030E016E1ED00001F1EC04F0030117D028
:101D90000301D8510A0803E1D951070806E00101FF
:101DA0008F6B030E016E03010CD0010E01018F6FCA
:101DB000C80EAB6F030103D0020E016E02D0000EFD
:101DC000016E00011200D2C3DAF3060E0301DB6FCD
:101DD0000001C3EC07F0D4C3D7F3D4C3DCF3A9EC00
:101DE00007F0D3C3D7F3D3C3DCF3A9EC07F0D6C312
:101DF000D7F3D6C3DCF3A9EC07F0D5C3D7F3D5C32B
:101E0000DCF3A9EC07F0DAEC07F01FEF10F0D0C319
:101E1000DAF3100E0301DB6F0001C3EC07F0D2C34D
:101E2000D5F3D2C3DCF3A9EC07F0D1C3D5F3D1C30A
:101E3000DCF3A9EC07F0D4C3D5F3D4C3DCF3A9ECED
:101E400007F0D3C3D5F3D3C3DCF3A9EC07F0DAEC86
:101E500007F080EF10F041EF07F00152D8B471D1D4
:101E6000382C59D036500201B85DD8A402D00001F8
:101E700052D08C828C800400020E0301D06FB50E0C
:101E8000D16F000154EC07F00301D02FF8D7020105
:101E9000B85100013FEC03F00400670E006E002E05
:101EA000FED700000201BA5100013FEC03F004002C
:101EB000670E006E002EFED700000301CF6B020EEE
:101EC0000201B9250301CF5D16E2BC0ECF25E96EF4
:101ED000020EEA6ED8B0EA2AEFCFD0F3D05100015B
:101EE0003FEC03F00400670E006E002EFED70000EA
:101EF0000301CF2BE4D772A2FED70400020ED06FED
:101F0000B50ED16F000154EC07F00301D02FF8D7C4
:101F10008C928C9000013650800806E03650020109
:101F2000B85DD8A403D100010101833D03D0843DF5
:101F300001D003D0832BD8B4842B140EAB6F0201D5
:101F4000BA51030A000108E0070A06E0020A40E06D
:101F5000160AD8B476D0D6D0BCC2CBF3BDC2CAF371
:101F6000BEC2CDF3BFC2CCF30301CC51CA25D06FA2
:101F7000CD51CB21D16FCBC3D3F3CAC3D2F3D56F2D
:101F8000D0C3D4F3000164EF07F0015212E1B8C2EC
:101F9000D0F30301D26BBAC2D1F3020ED36F0001AA
:101FA000F1EC07F00101886B020E876FAB6B0FD06D
:101FB0000001BAC2D0F3B8C2D1F3CBC3D3F3CAC3C2
:101FC000D2F3CDC3D5F3CCC3D4F385D50101AAD0C8
:101FD000BCC2CBF3BDC2CAF3BEC2D1F3BFC2D0F301
:101FE000CBC3D7F3CAC3D6F3BEC2D9F3BFC2D8F3AB
:101FF000B3DD01C0CEF30301CE5311E0B8C2D0F37C
:10200000D26BBAC2D1F3CEC3D3F30001F1EC07F027
:102010000101886BCEC387F1AB6B12D00301BEC246
:10202000D1F3BFC2D0F3B8C2D2F3CBC3D4F3CAC387
:10203000D3F3BEC2D6F3BFC2D5F30001C4D60101AB
:1020400071D0BCC2CBF3BDC2CAF3BEC2CDF3BFC216
:10205000CCF30301CF6BCD5303E1CC51CF5D42E212
:10206000CF51CA25D06F000ECB21D16FD890CF357C
:10207000050FBC0FE96E020EEA6ED8B0EA2AEFCF68
:10208000D2F3D890CF35060FBC0FE96E020EEA6E80
:10209000D8B0EA2AEFCFD3F3D2C3D5F3D3C3D4F366
:1020A000D1C3D7F3D0C3D6F3D2C3D9F3D3C3D8F3B4
:1020B000000152DD01C0CEF30301CE5311E0B8C2DE
:1020C000D0F3D26BBAC2D1F3CEC3D3F30001F1EC9B
:1020D00007F00101886BCEC387F1AB6B030102D01F
:1020E000CF2BB9D7CE530CE1B8C2D0F3CBC3D2F3C8
:1020F000CAC3D1F3CDC3D4F3CCC3D3F3000187D685
:10210000010110D0B8C2D0F30301D26BBAC2D1F32F
:10211000010ED36F0001F1EC07F00101886B010E95
:10212000876FAB6B926B916B0CD002010101853D07
:1021300003D0863D01D003D0852BD8B4862B0A0E60
:10214000AB6F00016FEF11F0B2C2CAF40201B269C5
:10215000030EEA6ECA0EE96E010EE26EB20EE16E79
:102160000401CA51016E04E0E6CFEEFF012EFCD758
:102170000201B36BB26B382C1BD00401CC6BCB6B60
:10218000CC5314E1CA51CB5D11E2CA0ECB25E96EE6
:10219000030ECC21EA6EEFCFCDF4CD510001A5ECBA
:1021A00007F00401CB2BD8B4CC2BEAD705D0020121
:1021B0003850020800E10401000175EF11F0F86ADF
:1021C000F1949F829F9AA59AD08E078EEA6AE96A57
:1021D000356AB8960C0EAF6EA60EAC6E900EAB6E56
:1021E00070964D0E756EA60E726E900E716E020197
:1021F000B491B56B0301BF6B0201B493B495B4976E
:10220000B499B49BB49D0301C06BC26BC16BC46B2A
:10221000C36BC66BC56BC150F00BC16E000E0F01D6
:10222000386F3C6F396F3A6F3B6F0101886B776A8B
:10223000786A796A2F6A306A0301BB6BBC6BBD6B2D
:10224000BE6BC76BC86BD0500F0BD0A8000ED080F0
:10225000D082D088D886D888C96F0001B2EF03F049
:1022600037EF05F03650800802E21BEC05F0AB8E2C
:10227000AB8866EF05F00301C96BC9511D0806E381
:102280000001C5EC05F00301C92BF7D743C093F15A
:102290002C0EF66E070EF76E070ECA6F000118EFD0
:1022A00006F0380EF66E070EF76E2EEF06F00D0EE6
:1022B0009EA8FED7AD6E0A0E9EA8FED7AD6E040096
:1022C0000101AEA504D0000184EF06F00101AEA12A
:1022D00004D0AE910001C5EC05F00001BCD50101B0
:1022E000B1A104D0B19100012FD701010001E7D7BE
:0222F0000300E9
:020000040030CA
:0E00000000231E3F003F81000FC00FE00F40A5
:00000001FF
;PIC18F46K22
;CRC=6DE8  CREATED="20-Nov-15 13:34"
