:0400000065EF18F0A0
:0800080071EF00F000000000A0
:100010000000000000000000046ED8CF05F0E0CF23
:1000200006F00001E9CF0CF0EACF07F0E1CF08F0CD
:10003000E2CF09F0D9CF0AF0DACF0BF0F3CF12F00C
:10004000F4CF13F0FACF14F0F5CF15F0F6CF16F089
:10005000F7CF17F000C00EF001C00FF002C010F093
:1000600003C011F0F2AA38EF00F0F2B4DEEF01F0B5
:100070009DAA3EEF00F09EBAA4EF03F09DA844EFC6
:1000800000F09EB869EF03F0A3AA4AEF00F0A4BA0B
:1000900025EF03F00EC000F00FC001F010C002F019
:1000A00011C003F00CC0E9FF07C0EAFF078E08C0CB
:1000B000E1FF09C0E2FF0AC0D9FF0BC0DAFF12C09E
:1000C000F3FF13C0F4FF14C0FAFF15C0F5FF16C00C
:1000D000F6FF17C0F7FF045006C0E0FF05C0D8FFC9
:1000E00010001A6ED8CF1BF0E0CF1CF00001E9CF52
:1000F00022F0EACF1DF0E1CF1EF0E2CF1FF0D9CF02
:1001000020F0DACF21F0F3CF28F0F4CF29F0FACFA6
:100110002AF0F5CF2BF0F6CF2CF0F7CF2DF000C062
:1001200024F001C025F002C026F003C027F09DA2F4
:100130009DEF00F09EB2F7EF01F024C000F025C063
:1001400001F026C002F027C003F022C0E9FF1DC065
:10015000EAFF1D8E1EC0E1FF1FC0E2FF20C0D9FFD5
:1001600021C0DAFF28C0F3FF29C0F4FF2AC0FAFF3C
:100170002BC0F5FF2CC0F6FF2DC0F7FF1A501CC096
:10018000E0FF1BC0D8FF1000F76A980FF66E010E53
:10019000F7220900F550120000C1814001C08041E2
:1001A00001C0804100C1814001C0804100C1814047
:1001B00000C1814001C0804101C0804100C1814037
:1001C00000C1814001C0804100C1814001C0804127
:1001D00001C0804100C1814001C0804100C1814017
:1001E00000C1814001C0804100C1814001C0804107
:1001F00001C0804100C1814000C1814001C08041F7
:1002000001C0804100C1814001C0804100C18140E6
:1002100000C1814001C0804101C0804100C18140D6
:1002200000C1814001C0804100C1814001C08041C6
:1002300001C0804100C1814000C1814001C08041B6
:1002400001C0804100C1814001C0804100C18140A6
:1002500000C1814001C0804100C1814001C0804196
:1002600001C0804100C1814001C0804100C1814086
:1002700000C1814001C0804101C0804100C1814076
:1002800000C1814001C0804100C1814001C0804166
:1002900001C0804100C18140F76AA80FF66E020ECE
:1002A000F7220900F550120000C0C101C30302C2C9
:1002B000C60607C705C5C404CC0C0DCD0FCFCE0EA6
:1002C0000ACACB0BC90908C8D81819D91BDBDA1A16
:1002D0001EDEDF1FDD1D1CDC14D4D515D71716D686
:1002E000D21213D311D1D010F03031F133F3F232F6
:1002F00036F6F737F53534F43CFCFD3DFF3F3EFE66
:10030000FA3A3BFB39F9F83828E8E929EB2B2AEAD5
:10031000EE2E2FEF2DEDEC2CE42425E527E7E62645
:1003200022E2E323E12120E0A06061A163A3A262B5
:1003300066A6A767A56564A46CACAD6DAF6F6EAE25
:10034000AA6A6BAB69A9A86878B8B979BB7B7ABA95
:10035000BE7E7FBF7DBDBC7CB47475B577B7B67605
:1003600072B2B373B17170B0509091519353529275
:1003700096565797559594549C5C5D9D5F9F9E5EE5
:100380005A9A9B5B99595898884849894B8B8A4A55
:100390004E8E8F4F8D4D4C8C4484854587474686C5
:1003A0008242438341818040F29A0A01115304E062
:1003B000D76AD66AF294F28A000112000701EB5163
:1003C00002080AE1EC5308E1ED5306E1EAB104D07A
:1003D000020EEF5FEA8101D0EA91ED69EC69EB6B07
:1003E0000A01116B0001E0DFF2944AEF00F00A010C
:1003F00013A10CD00101E93D05D0EA3D03D00A016B
:1004000005D00101E92BD8B4EA2B0A0113A50CD0C1
:100410000101EB3D05D0EC3D03D00A0105D00101FF
:10042000EB2BD8B4EC2B0A0113A90CD00101ED3D44
:1004300005D0EE3D03D00A0105D00101ED2BD8B463
:10044000EE2B0A01139381B0138313B341D007013C
:10045000EAB302D00A013CD00001AA2BD8B4AB2BDE
:10046000010EB027D8B0B12BD8B4B22BD8B4B32B6F
:100470000701EAA524D00A011391EAC199F0E9C164
:1004800098F0000199519F5D08E303E19E51985D4A
:1004900004E299C09FF098C09EF0A551995D0DE3CC
:1004A00003E19851A45D09E2983D03D0993D01D044
:1004B00004D099C0A5F098C0A4F00701EA95EAB568
:1004C00007D00101EA6BE96B0A0113810701EA8594
:1004D0000701EA930A0113A303D00701EA830A0183
:1004E000139781B2138713B741D00701EAB702D03F
:1004F0000A013CD00001AC2BD8B4AD2B010EB427BF
:10050000D8B0B52BD8B4B62BD8B4B72B0701EAA90D
:1005100024D00A011395ECC19BF0EBC19AF00001C5
:100520009B51A15D08E303E1A0519A5D04E29BC0E9
:10053000A1F09AC0A0F0A7519B5D0DE303E19A5191
:10054000A65D09E29A3D03D09B3D01D004D09BC03B
:10055000A7F09AC0A6F00701EA99EAB907D001010D
:10056000EC6BEB6B0A0113850701EA890701EA9737
:100570000A0113A703D00701EA870A01139B81B47C
:10058000138B13BB41D00701EABB02D00A013CD058
:100590000001AE2BD8B4AF2B010EB827D8B0B92BC1
:1005A000D8B4BA2BD8B4BB2B0701EAAD24D00A01CA
:1005B0001399EEC19DF0EDC19CF000019D51A35D2A
:1005C00008E303E1A2519C5D04E29DC0A3F09CC03E
:1005D000A2F0A9519D5D0DE303E19C51A85D09E2E4
:1005E0009C3D03D09D3D01D004D09DC0A9F09CC08E
:1005F000A8F00701EA9DEABD07D00101EE6BED6BA3
:100600000A0113890701EA8D0701EA9B0A0113AB6E
:1006100003D00701EA8B0A010801F52BF5510A08FE
:1006200004E1F56B0101FD8508019E9200019DEF3B
:1006300000F0A4AAFED771CF35F074CF01F035A237
:1006400002D07198718826EF03F0F3D701C010FA39
:100650000101E52BD8B4E62B382C11D00301026B35
:10066000013D01D00AD0010E0125E96E020EEA6EAD
:10067000D8B0EA2A10CAEFFF012B22D0010138506E
:1006800002081FE10A0110510A0803E010510D0889
:1006900008E10301015303E0140E026F00D010D0F3
:1006A0000A010301026B013D01D00AD0010E0125B0
:1006B000E96E020EEA6ED8B0EA2A10CAEFFF012BEB
:1006C0000101A49A00014AEF00F09EA8FED7AD6E8A
:1006D000120004010351045D03E305839D980FD0CC
:1006E000030E0425E96E030EEA6ED8B0EA2AEFCFB6
:1006F00010FA0A0110510001E8DF0401042B9E9852
:1007000000014AEF00F09EAAFED7ABCF35F0AECF86
:1007100001F035A202D0AB98AB8812000701ED5171
:100720000A011119126F036A125100012DDD016EC9
:100730000701EC510118ED6F036A0A011251000123
:10074000ABDDE8CFECF71200DEDF01C010FA0101EB
:10075000E32BD8B4E42B0701EAB12BD0EB5308E12B
:10076000ED69EC6910CAEEF7EB2BEF6BF16B17D06C
:10077000EB2D04D010CAF0F7EB2B11D0EB5102088F
:100780000EE1EF3D02D0FE0EEF6FF20EEF25E96EA7
:10079000070EEA6ED8B0EA2A10CAEFFFEF2B10CA94
:1007A00011FA0001BBDF010E0A01116F0001FCDD2F
:1007B00007019E9A00014AEF00F0232070637778CA
:1007C0002025730D0A0032302D4D61722D31360017
:1007D0002320726573746172745F63617573652839
:1007E000293D257520005744545F54494D454F55C8
:1007F00054004D434C525F46524F4D5F534C45455C
:1008000050004D434C525F46524F4D5F52554E0083
:100810004E4F524D414C5F504F5745525F5550001F
:1008200042524F574E4F55545F52455354415254C4
:1008300000005744545F46524F4D5F534C4545505E
:10084000000052455345545F494E5354525543544A
:10085000494F4E00756E6B6E6F776E2100000D0A6A
:1008600000002320706377782025730D0A00323052
:100870002D4D61722D3136000A0102510403F3CF70
:1008800001F0F4CF00F00503F350002603510403F8
:10089000F3500020026E00011200016603D00266D0
:1008A00002D007D0022A00C0EEFF012EFCD7022E94
:1008B000FAD71200C290080E616EF19E000E926E81
:1008C000FF0E936E920E946E800E956E9690969299
:1008D000969496960101FA6BFC6B020EFB6FFD91EC
:1008E000FD93FD95FE69FF690301016B0269020139
:1008F00000910401036B046B059105930801FE6BE5
:10090000FE51020857E3036AFEC802F0D89002368F
:1009100003360250980FE96E000E0320EA6EEC6A6F
:10092000ED52EF6A036AFEC802F0D8900236033631
:1009300002509E0FE96E000E0320EA6EEC68ED5245
:10094000EF68036AFEC802F0D89002360336025000
:10095000A40FE96E000E0320EA6EEC6AED52EF6A16
:10096000036AFEC802F0D890023603360250AA0F7E
:10097000E96E000E0320EA6EEC6AED52EF6A0A019E
:10098000036BFEC802FA056B040E046F000174DFEE
:100990000150B00FE96E000E0220EA6EEE52EE52E8
:1009A000EC6AED52EF6AED52EF6AED52EF6A080120
:1009B000FE2BA6D70101CE6BCD6BD06BCF6BD26B6C
:1009C000D16BD46BD36BD66BD56BD86BD76BCC6B31
:1009D000D96BDB6BDA6BE46BE36BE66BE56BE76BB8
:1009E000E86B040EEA6E060EE96E006A030E026EF4
:1009F000E40E016E000151DF0801FE6BFE510B0891
:100A000019E3036AFEC802F0D8900236033602509A
:100A1000C60FE96E070E0320EA6EEC68ED52EF6830
:100A2000DE0EFE25E96E070EEA6ED8B0EA2AEF6AFE
:100A3000FE2BE4D74CC0DEF14BC0DDF148C0E0F145
:100A400047C0DFF10101E26BE16B000E0509BA6EF0
:100A50004A0EBB6E9D82A38A0001B5EF18F0090013
:100A6000F6CFFFF8F7CF00F9F550A4A8FED7736EC4
:100A7000FFC8F6FF00C9F7FF0801FE2F01D002D022
:100A80000001EDD7000112000900F5520DE0F6CF8C
:100A9000FEF8F7CFFFF8F550A4A8FED7736EFEC896
:100AA000F6FFFFC8F7FFF0D7120009011951016ADC
:100AB000185D03E218C900F00CD0006A080E1A6F26
:100AC000183700361951005CD8B0006E01361A2F65
:100AD000F7D7000112000150FEC818F9640E090191
:100AE000196F0001E2DF00C0FEF80150300E08E18E
:100AF0000801FFA30ED0FFB70CD0FFB9200E04D021
:100B00000801FF97FF99FF8101260150A4A8FED795
:100B1000736EFEC818F90A0E0901196F0001C5DFCE
:100B200000C0FEF80150300E08E10801FFB70BD0FD
:100B3000FFA109D0FFB9200E000101260150A4A891
:100B4000FED7736E0801300EFE27FE51A4A8FED713
:100B5000736E0001E1EF18F00901076B06C903F09D
:100B60000551D8B406070507086F03C009F90853F3
:100B700002E1095335E004C903F00351E96E03C0F3
:100B8000EAFF0251036E0151012BD8B4022B0A6F08
:100B900003C00BF9F2CF0CF9F29CF29E0BC9AAFF2D
:100BA0000AC9A9FFA69CA69EA680A8500CBDF28CDF
:100BB0000CBFF28EEF6E04C903F00351E96E03C05F
:100BC000EAFFEFCF08F907C91DF908C91EF91D5141
:100BD0001E19016E01C007F9032BD8B4042BBED730
:100BE00007C901F00001ADEF06F009011B6B1AC93E
:100BF00003F01951D8B41A0719071C6F03C01DF967
:100C00001C5302E11D533FE018C903F01751E96E70
:100C100003C0EAFFEFCF1CF91BC91DF91CC91EF95F
:100C20001D511E19016E01C01BF91651036E15519D
:100C3000152BD8B4162B1C6F03C01DF91851036E69
:100C40001751172BD8B4182BE96E03C0EAFFEFCF6A
:100C50001EF91DC9AAFF1CC9A9FF1EC9A8FFA69C91
:100C6000A69EA684F250006EF29CF29E0F01550ED5
:100C7000A76EAA0EA76EA682A6B2FED7A6940050B3
:100C8000F2120901B4D71BC901F0000158EF06F0B8
:100C90000901146B360E136F166B020E156F14C913
:100CA00018F913C917F91A6B620E196F00019DD755
:100CB00001C012F9AA6AA96A12C9A8FFA69CA69E39
:100CC000A684F250006EF29CF29E0F01550EA76EA4
:100CD000AA0EA76EA682A6B2FED7A6940050F21264
:100CE00000011200960E0101FA6F260E366E030EF9
:100CF000396E020E386E500E3A6E260E3C6E940E11
:100D00003B6E3E6A140E3D6E3F6A020E416E760ED9
:100D1000406E436A020E426E446A010E4F6EEA6AEA
:100D2000500EE96E2A0E006E026A480E016E000136
:100D3000B4DDAEDF12000901006B360E0801FF6F53
:100D40000901026B020E016F00C904F9FFC803F923
:100D5000066B620E056F0001FFD601C0FEF8F2CFF0
:100D6000FFF8F29CF29EAA6AA96AA69CA69EA6809B
:100D7000A8500801FFBDF28CFFBFF28EFE5D03E0BC
:100D80000001B0DF0801000136EF19F03950000A08
:100D90000BE0010A11E0030A17E0060A1DE0010A50
:100DA00021E0030A27E02CD07086C30E756E090E71
:100DB000766EA60E726E2AD07086E10E756E040EE7
:100DC000766EA60E726E22D07086700E756E020E52
:100DD000766EA60E726E1AD07096260E756EA60EE0
:100DE000726E14D070864D0E756E000E766EA60E65
:100DF000726E0CD070960C0E756EA60E726E06D0CA
:100E000070964D0E756EA60E726E00D012009EAAE0
:100E100002D079DCFCD79D8A1200F9DFC20ED56EB4
:100E2000C00EF21241EF19F08B968B8A8C94090157
:100E3000015303E1030E056F25D0012D03D0130EDE
:100E4000056F20D00151020803E10B0E056F1AD087
:100E50000151030803E11B0E056F14D00151040872
:100E600003E1070E056F0ED00151050803E1170ECF
:100E7000056F08D00151060803E10F0E056F02D07F
:100E80001F0E056F046B045104080BE38B9605B12C
:100E900002D08B9A01D08B8AD89005338B86042B95
:100EA000F2D7036B026B046B04510D080BE38B96B6
:100EB00082B802D0D89001D0D880023703378B8611
:100EC000042BF2D7039B03998C8402C901F003C958
:100ED00002F00001A5EF07F00101CC2BCC510F0867
:100EE00001E2CC6B0801FE6BFE51070849E30A01E1
:100EF000036BFEC802FA056B200E046F0001BCDC18
:100F000002C003F00150340F0801FF6F000E0220F1
:100F10000901006F036A0101CCC102F0D8900236CA
:100F2000033602500801FF25016E0901005103221A
:100F30000150980F016E000E032201C0FFF803C09C
:100F400000F9FEC801F900016FD700C9EAFFFFC828
:100F5000E9FF02C0ECFFED5201C0EFFF036A080198
:100F6000FEC802F0D890023603360250BC0FE96E7C
:100F7000000E0320EA6EEC6AED52EF6AFE2BB4D746
:100F8000000112000900F6CFFFF8F7CF00F9F55085
:100F90009EA8FED7AD6EFFC8F6FF00C9F7FF080197
:100FA000FE2F01D002D00001EDD700015BEF19F058
:100FB0000900F5520DE0F6CFFEF8F7CFFFF8F55037
:100FC0009EA8FED7AD6EFEC8F6FFFFC8F7FFF0D7AC
:100FD00061EF19F00101FD95D8900801FB35FF6F15
:100FE000FC350901006F000E0101FEA7010E08018A
:100FF000FF13FFC8FBF809010051E0090801FC6F6D
:10100000FB5309E1FC51F00806E1010E0101E76F15
:10101000E86F03D008010101E76B4FA004D0E8534B
:1010200002E08C8601D08C96E93D06D0EA3D04D0E2
:101030000001996B986B0101EB3D06D0EC3D04D0AB
:1010400000019B6B9A6B0101ED3D06D0EE3D04D093
:1010500000019D6B9C6B010181CFFEF182CFFFF1FE
:10106000FA5302E1899602D08986FA07D73D03D068
:10107000D83D01D003D0D72BD8B4D82B3850020894
:101080002CE10801FE6BFE510B0827E3036AFEC842
:1010900002F0D890023603360250C60FE96E070EF2
:1010A0000320EA6EECCF03F0ED52EF50FF0803E1AE
:1010B000033C01D010D0036AFEC802F0D89002367B
:1010C00003360250C60FE96E070E0320EA6E010ECA
:1010D000EE2601E3EF2AFE2BD6D70801F92BD8B470
:1010E000FA2BF951E80842E1FA5103083FE1FA6BA3
:1010F000F96B0101DA3D03D0DB3D01D003D0DA2BDF
:10110000D8B4DB2B405202E141520FE04150DB5D8D
:101110000CE303E1DA51405C08E2FB5306E1FC53C7
:1011200004E143C0FCF142C0FBF1FB5304E1FC537A
:1011300002E18B800BD08B90FB51D8B4FC07FB07EE
:10114000FB5304E1FC5302E1DB6BDA6B0801F62B85
:10115000F6513C080BE1F66B0101D53D03D0D63DBD
:1011600001D003D0D52BD8B4D62B08010101FDA3A3
:1011700004D0FD930801F86BF76B0801F72BD8B486
:10118000F82B3D50F75D07E13E50F85D04E1F86B48
:10119000F76B0101FD810301023D01D001D0022B5B
:1011A0000251090805E2015303E002010081030135
:1011B000000170EF19F00701EAB104D0000E016ED2
:1011C0000AD006D0F0AF04D0F2C7F1F7010EEF6FEE
:1011D000EA91010E016E000185EF15F0050E09017F
:1011E000075F0AE3090EEA6E070EE96EEF5004E0AE
:1011F00001D00400EF2EFDD700011200A4A8FED7F5
:10120000736E1200090108511F080CE109514E08C4
:1012100009E10A51200806E10B514E0803E1010ED5
:10122000016E76D0095118080FE2FF0A03E1085158
:1012300063080AE20B51190807E303E10A517C082D
:1012400003E3010E016E64D0095116080FE2FF0A94
:1012500003E108516F080AE20B51190807E303E1A3
:101260000A51500803E3010E016E52D009511208D1
:101270000FE2FF0A03E1085187080AE20B51170841
:1012800007E303E10A51480803E3010E016E40D071
:10129000095103080FE2FF0A03E108514B080AE273
:1012A0000B51040807E303E10A51940803E3010E1C
:1012B000016E2ED0095102080FE2FF0A03E1085126
:1012C000E7080AE20B51030807E303E10A51F708B4
:1012D00003E3010E016E1CD0095106080FE2FF0A5C
:1012E00003E10851CF080AE20B51090807E303E1C3
:1012F0000A51D10803E3010E016E0AD00B5306E137
:101300000A51380803E3010E016E02D0000E016E8F
:10131000000121EF16F0030E04010325E96E030E10
:10132000EA6ED8B0EA2A12C9EFFF032B196AF2BCA1
:10133000198CF29CF2BE198EF29E12C911FA0001AC
:101340008EEC03F019BCF28C19BEF28E120004016F
:10135000036B046B0701ED69EC69EA9110C912F99E
:101360000001D9DF11C912F9D6DF1200EDC711F95A
:10137000ECC710F911C912F9CEDF10C912F9CBDF91
:101380000701ED69EC690401058100011200090102
:10139000075180090A6F08C90BF906C910F9116FC6
:1013A0000001D5DF09C912F9B6DFE0DF1200F29CB7
:1013B000F29EF2BEFDD70A01036B18C902FA056B53
:1013C000040E046F00013CEC04F002C003F0015075
:1013D000B00FE96E000E0220EA6EEFCF00F0ECCF06
:1013E00001F0ECCF02F0ECCF03F003C01CF902C017
:1013F0001BF901C01AF900C019F9C00EF21219C97F
:1014000000F01AC901F01BC902F01CC903F0120058
:101410000A01036B18C902FA056B200E046F000164
:101420003CEC04F002C003F00150CC0F016E000E42
:10143000032201C01CF9090103C01DF91A6B196BC5
:101440001B6B1B510F0811E3D8901B35036A1C2539
:10145000E96E1D510320EA6EECCF03F0ED52EF5020
:10146000192703501A231B2BECD7080E19251E6FC2
:10147000000E1A211F6F1F31036E1E31026E0332E0
:10148000023203320232033202320F0E031602C05E
:1014900001F003C002F000011200F29CF29EF2BEC5
:1014A000FDD7AB6BAA6BAD6BAC6BAF6BAE6B9F69D3
:1014B0009E69A169A069A369A269A56BA46BA76BCA
:1014C000A66BA96BA86B0101D86BD76BC00EF2128B
:1014D00000010DEF11F0F29CF29EF2BEFDD7B36B4E
:1014E000B26BB16BB06BB76BB66BB56BB46BBB6B00
:1014F000BA6BB96BB86BC00EF21215EF11F00101A7
:10150000CE6BCD6BD06BCF6BD26BD16B000135EF57
:1015100011F00901135106082AE2FF0A03E11251F2
:10152000CF0825E21351090822E303E11251CF0845
:101530001EE3D00E125D186F070E1359196F020EBD
:101540001927F2CF1AF9F29CF29E19C9AAFF18C9FD
:10155000A9FFA69CA69EA680A8501ABDF28C1ABF11
:10156000F28E036A016E0350026ED5EF12F0135132
:1015700003083FE2FF0A03E112514B083AE213511C
:10158000040837E303E11251930833E34C0E125D74
:10159000146F14C918F9060E196F000155EC05F007
:1015A00000C015F914C918F9060E0901196F0001D8
:1015B00055EC05F001C014F909011451060DF35062
:1015C000036A1A0F186F000E0320196F036A155172
:1015D0001825016E195103220150360FE96E000ED5
:1015E0000320EA6EEF50036A016E03C002F0D5EFEC
:1015F00012F01351120821E2FF0A03E11251870889
:101600001CE21351170819E303E11251470815E3CF
:10161000880E125F130E135B040E176F060E166F03
:1016200016511225E96E17511321EA6EEF50036A25
:10163000016E03C002F0D5EF12F01351160835E227
:10164000FF0A03E112516F0830E2135119082DE32C
:1016500003E112514F0829E3700E125F170E135B5E
:10166000D89012371337040E176F060E166F1651E7
:101670001225E96E17511321EA6EEFCF18F9010E0A
:101680001225196F000E13211A6F16511925E96ED4
:1016900017511A21EA6EEFCF1BF918C903F01BC9C5
:1016A00001F018C902F0D5EF12F01251006E13517B
:1016B000036E035006E100520001D8B4D8EF0EF0DB
:1016C0000901035007E1010E005C0001D8B4E0EF0E
:1016D0000EF00901035007E1020E005C0001D8B4CE
:1016E000E8EF0EF00901035007E1030E005C000172
:1016F000D8B4F0EF0EF00901035007E1040E005CCE
:101700000001D8B4F8EF0EF00901035007E1050E0F
:10171000005C0001D8B40EEF0FF00901035007E19F
:10172000060E005C0001D8B417EF0FF0090103505A
:1017300007E1070E005C0001D8B41FEF0FF00901AC
:10174000035007E1080E005C0001D8B427EF0FF04A
:101750000901035007E1090E005C0001D8B42FEF26
:101760000FF00901035007E10A0E005C0001D8B434
:1017700037EF0FF00901035007E10B0E005C000189
:10178000D8B44DEF0FF00901035007E10C0E005CD7
:101790000001D8B455EF0FF00901035007E10D0E19
:1017A000005C0001D8B45CEF0FF00901035007E1C1
:1017B0000E0E005C0001D8B463EF0FF00901035076
:1017C00007E10F0E005C0001D8B46AEF0FF00901C9
:1017D000035007E1100E005C0001D8B471EF0FF068
:1017E0000901035007E1110E005C0001D8B487EF36
:1017F0000FF00901035007E1120E005C0001D8B49C
:101800008FEF0FF00901035007E1130E005C000198
:10181000D8B4A6EF0FF00901035007E1140E005CE5
:101820000001D8B4B2EF0FF00901035007E1150E23
:10183000005C0001D8B4B9EF0FF00901035007E1D3
:10184000160E005C0001D8B4D0EF0FF00901035070
:1018500007E1170E005C0001D8B4DDEF0FF00901BD
:10186000035007E1180E005C0001D8B4E4EF0FF05C
:101870000901035007E1190E005C0001D8B4FBEF29
:101880000FF00901035007E11A0E005C0001D8B403
:1018900008EF10F00901035007E11B0E005C000186
:1018A000D8B40FEF10F00901035007E11C0E005CE3
:1018B0000001D8B426EF10F00901035007E11D0E16
:1018C000005C0001D8B433EF10F00901035007E1C8
:1018D0001E0E005C0001D8B43AEF10F0090103506D
:1018E00007E11F0E005C0001D8B451EF10F00901B0
:1018F000035007E1200E005C0001D8B45EEF10F049
:101900000901035007E1210E005C0001D8B465EF26
:1019100010F00901035007E1220E005C0001D8B469
:101920007CEF10F00901035007E1230E005C000179
:10193000D8B489EF10F00901035007E1240E005CD0
:101940000001D8B490EF10F00901035007E1250E13
:10195000005C0001D8B4A7EF10F00901035007E1C3
:10196000260E005C0001D8B4B4EF10F0090103505A
:1019700007E1270E005C0001D8B4BBEF10F00901AD
:10198000035007E1280E005C0001D8B4D2EF10F03C
:101990000901035007E1290E005C0001D8B4DFEF14
:1019A00010F00901035007E12A0E005C0001D8B4D1
:1019B000E6EF10F00901035007E12B0E005C000177
:1019C000D8B4F3EF10F00901035007E12C0E005CCE
:1019D0000001D8B4FBEF10F00901035007E12D0E10
:1019E000005C0001D8B403EF11F00901035007E1D6
:1019F0002E0E005C0001D8B40BEF11F0090103506A
:101A000007E12F0E005C0001D8B413EF11F00901BB
:101A1000035007E1300E005C0001D8B41BEF11F059
:101A20000901035007E1310E005C0001D8B423EF37
:101A300011F00901035007E1320E005C0001D8B437
:101A40002BEF11F00901035007E1330E005C000198
:101A5000D8B433EF11F00901035007E1340E005CF4
:101A60000001D8B43BEF11F00901035007E1350E36
:101A7000005C0001D8B443EF11F00901035007E105
:101A8000360E005C0001D8B44BEF11F00901035091
:101A900007E1370E005C0001D8B454EF11F00901E2
:101AA000030E035C07E1E80E005C0001D8B45DEFB3
:101AB00011F00901030E035C07E1E90E005C00016F
:101AC000D8B465EF11F00901030E035C07E1EA0EDB
:101AD000005C0001D8B46CEF11F00901030E035C47
:101AE00007E1EB0E005C0001D8B473EF11F00901BF
:101AF000030E035C07E1EC0E005C0001D8B47AEF42
:101B000011F00901030E035C07E1ED0E005C00011A
:101B1000D8B481EF11F00901030E035C07E1EE0E6A
:101B2000005C0001D8B488EF11F00901030E035CDA
:101B300007E1EF0E005C0001D8B490EF11F009014D
:101B4000030E035C07E1F00E005C0001D8B497EFD0
:101B500011F00901030E035C07E1F10E005C0001C6
:101B6000D8B49FEF11F00901030E035C07E1F20EF8
:101B7000005C0001D8B4A6EF11F00901030E035C6C
:101B800007E1F30E005C0001D8B4ADEF11F00901DC
:101B9000030E035C07E1F40E005C0001D8B4B5EF5E
:101BA00011F00901030E035C07E1F50E005C000172
:101BB000D8B4BDEF11F00901030E035C07E1F60E86
:101BC000005C0001D8B4FEEF11F00901190E035CAE
:101BD00007E1640E005C0001D8B406EF12F00901C1
:101BE000190E035C07E1650E005C0001D8B40EEF2E
:101BF00012F00901190E035C07E1660E005C00019A
:101C0000D8B417EF12F00901190E035C07E1670E53
:101C1000005C0001D8B41FEF12F00901190E035C3B
:101C200007E1680E005C0001D8B428EF12F009014A
:101C3000190E035C07E1690E005C0001D8B430EFB7
:101C400012F00901190E035C07E16A0E005C000145
:101C5000D8B439EF12F00901190E035C07E16B0EDD
:101C6000005C0001D8B441EF12F00901190E035CC9
:101C700007E16C0E005C0001D8B44AEF12F00901D4
:101C8000190E035C07E16D0E005C0001D8B452EF41
:101C900012F00901190E035C07E16E0E005C0001F1
:101CA000D8B45BEF12F00901190E035C07E16F0E67
:101CB000005C0001D8B463EF12F00901190E035C57
:101CC00007E1700E005C0001D8B46CEF12F009015E
:101CD000190E035C07E1710E005C0001D8B474EFCB
:101CE00012F00901190E035C07E1720E005C00019D
:101CF000D8B47DEF12F00901190E035C07E1730EF1
:101D0000005C0001D8B485EF12F00901190E035CE4
:101D100007E1740E005C0001D8B48EEF12F00901E7
:101D2000190E035C07E1750E005C0001D8B496EF54
:101D300012F00901190E035C07E1760E005C000148
:101D4000D8B49FEF12F00901190E035C07E1770E7A
:101D5000005C0001D8B4A7EF12F00901190E035C72
:101D600007E1780E005C0001D8B4B0EF12F0090171
:101D7000190E035C07E1790E005C0001D8B4B8EFDE
:101D800012F00901190E035C07E17A0E005C0001F4
:101D9000D8B4C1EF12F00901190E035C07E17B0E04
:101DA000005C0001D8B4C9EF12F00901D1EF12F0C4
:101DB000AAC001F0ABC002F00901D5EF12F000019A
:101DC0009851016E9951026E0901D5EF12F0000190
:101DD0009E51016E9F51026E0901D5EF12F0000174
:101DE000A451016EA551026E0901D5EF12F0000158
:101DF0000901186B0001D7EC09F003C0F4F802C028
:101E0000F3F801C0F2F800C0F1F80801F151016ED9
:101E1000F251026E0901D5EF12F000010801F351F1
:101E2000016EF451026E0901D5EF12F00001AC51C0
:101E3000016EAD51026E0901D5EF12F000019A5109
:101E4000016E9B51026E0901D5EF12F00001A05105
:101E5000016EA151026E0901D5EF12F00001A651E9
:101E6000016EA751026E0901D5EF12F00001010EBB
:101E70000901186F0001D7EC09F003C0F4F802C0A3
:101E8000F3F801C0F2F800C0F1F80801F151016E59
:101E9000F251026E090189D300010801F351016E6C
:101EA000F451026E090181D30001AE51016EAF51B0
:101EB000026E09017AD300019C51016E9D51026EA0
:101EC000090173D30001A251016EA351026E0901F1
:101ED0006CD30001A851016EA951026E090165D3AE
:101EE0000001020E0901186F0001D7EC09F003C0D0
:101EF000F4F802C0F3F801C0F2F800C0F1F80801EC
:101F0000F151016EF251026E09014FD30001080137
:101F1000F351016EF451026E090147D30001036AC7
:101F20000101CC51026ED890023603360250CC0F1C
:101F3000E96E000E0320EA6EECCF03F0ED52EF5095
:101F4000016E0350026E090130D300010901186BC4
:101F5000000108EC0AF00150016E0250026E090106
:101F600024D30001BC51016EBD51026E09011DD385
:101F70000001036A0101CC51026ED890023603368B
:101F80000250EC0FE96E000E0320EA6EECCF03F076
:101F9000ED52EF50016E0350026E090106D30001AD
:101FA000010E0901186F000108EC0AF00150016EE2
:101FB0000250026E0901F9D20001BE51016EBF51FB
:101FC000026E0901F2D20001036A0101CC51026ED6
:101FD000D8900236033602500C0FE96E010E032032
:101FE000EA6EECCF03F0ED52EF50016E0350026E3B
:101FF0000901DBD20001020E0901186F000108EC93
:102000000AF00150016E0250026E0901CED20001A9
:10201000C051016EC151026E0901C7D20001036AAD
:102020000101CC51026ED8900236033602502C0FBB
:10203000E96E010E0320EA6EECCF03F0ED52EF5093
:10204000016E0350026E0901B0D20001030E0901B6
:10205000186F000108EC0AF00150016E0250026E88
:102060000901A3D20001C251016EC351026E0901E0
:102070009CD20001036A0101CC51026ED890023655
:10208000033602504C0FE96E010E0320EA6EECCFCE
:1020900003F0ED52EF50016E0350026E090185D23C
:1020A0000001040E0901186F000108EC0AF001504C
:1020B000016E0250026E090178D20001C451016E16
:1020C000C551026E090171D20001036A0101CC51B0
:1020D000026ED8900236033602506C0FE96E010E84
:1020E0000320EA6EECCF03F0ED52EF50016E035087
:1020F000026E09015AD20001050E0901186F000194
:1021000008EC0AF00150016E0250026E09014DD236
:102110000001C651016EC751026E090146D200018D
:10212000036A0101CC51026ED89002360336025088
:102130008C0FE96E010E0320EA6EECCF03F0ED5236
:10214000EF50016E0350026E09012FD20001060EFE
:102150000901186F000108EC0AF00150016E0250ED
:10216000026E090122D20001C851016EC951026EEE
:1021700009011BD20001036A0101CC51026ED89003
:10218000023603360250AC0FE96E010E0320EA6EF0
:10219000ECCF03F0ED52EF50016E0350026E0901D7
:1021A00004D20001070E0901186F000108EC0AF0C3
:1021B0000150016E0250026E0901F7D10001CA51AF
:1021C000016ECB51026E0901F0D100010101D45121
:1021D000036ED351D32BD8B4D42B016E0350026EAF
:1021E0000901E3D100010101D751016ED851026EFE
:1021F0000901DBD100010101D551016ED651026EFA
:102200000901D3D100010101DA51016EDB51026EE7
:102210000901CBD100014DEF0AF0000E016E026EF4
:102220000901C3D100016BEF0AF0000E016E026ECE
:102230000901BBD100010101CD51016ECE51026EE9
:102240000901B3D100010101CF51016ED051026EDD
:102250000901ABD100010101D151016ED251026ED1
:102260000901A3D100017FEF0AF0000E016E026E9A
:1022700009019BD100010101E351016EE451026E9D
:10228000090193D100010101E551016EE651026E91
:1022900009018BD10001036A0101E751016E03506E
:1022A000026E090182D10001036A0101E851016E49
:1022B0000350026E090179D10001036A3A50016EA0
:1022C0000350026E090171D100013B50016E3C5078
:1022D000026E09016AD10001500E016E000E026EFD
:1022E000090163D10001570E016E000E026E090153
:1022F0005CD10001580E016E000E026E090155D12D
:102300000001010E016E000E026E09014ED10001A6
:10231000036A3650016E0350026E090146D1000176
:102320003D50016E3E50026E09013FD10001036A2B
:102330003F50016E0350026E090137D10001405039
:10234000016E4150026E090130D100014250016E10
:102350004350026E090129D10001036A4450016E05
:102360000350026E090121D10001036A3850016E49
:102370000350026E090119D10001395207E1B00E74
:10238000016E040E026E090110D10001392C07D034
:10239000600E016E090E026E090107D1000139506D
:1023A000020807E1C00E016E120E026E0901FDD097
:1023B00000013950040807E1000E016E4B0E026E59
:1023C0000901F3D000013950050807E1000E016E44
:1023D000960E026E0901E9D000013950060807E1A6
:1023E000000E016EE10E026E0901DFD00001800EC9
:1023F000016E250E026E0901D8D00001036A4F500C
:10240000016E0350026E0901D0D000010701C651D0
:10241000016EC751026E0901C8D00001036A0701AD
:10242000DE51016E0350026E0901BFD000010701A9
:10243000C851016EC951026E0901B7D00001036A8B
:102440000701DF51016E0350026E0901AED0000199
:102450000701CA51016ECB51026E0901A6D00001DD
:10246000036A0701E051016E0350026E09019DD01D
:1024700000010701CC51016ECD51026E090195D0CA
:102480000001036A0701E151016E0350026E090168
:102490008CD000010701CE51016ECF51026E0901AF
:1024A00084D00001036A0701E251016E0350026EFD
:1024B00009017BD000010701D051016ED151026E9C
:1024C000090173D00001036A0701E351016E035053
:1024D000026E09016AD000010701D251016ED35189
:1024E000026E090162D00001036A0701E451016E26
:1024F0000350026E090159D000010701D451016E49
:10250000D551026E090151D00001036A0701E5515E
:10251000016E0350026E090148D000010701D65137
:10252000016ED751026E090140D00001036A070114
:10253000E651016E0350026E090137D00001070118
:10254000D851016ED951026E09012FD00001036AE2
:102550000701E751016E0350026E090126D0000108
:102560000701DA51016EDB51026E09011ED0000134
:10257000036A0701E851016E0350026E090115D08C
:1025800000010701DC51016EDD51026E09010DD021
:102590000001036A0701E951016E0350026E09014F
:1025A00004D0FF0E016E026E00D00001FFEF12F0AA
:1025B00007C910F906C911F9A7EC09F0D89009016B
:1025C0000A35106F0B35116F10C912F900018BEC31
:1025D00009F009010D6B0C6B0D510B5D25E303E157
:1025E0000A510C5D21E20C510825106F0D51092193
:1025F000116F136F10C912F9000189EF0AF002C0C0
:102600000FF901C00EF90FC910F90FC912F98BECBF
:1026100009F00EC910F90EC912F98BEC09F0090185
:102620000C2BD8B40D2BD8D70001B6EC09F042EF33
:1026300016F009010D5106083BE2FF0A03E10C51B7
:10264000CF0836E20D51090833E303E10C51CF08FE
:102650002FE30F51000808E2FF0A03E10E510008C2
:1026600003E2030E016E05D2D00E0C5D126F070E51
:102670000D59136F020E132713C9AAFF12C9A9FF20
:102680000EC9A8FFA69CA69EA684F250006EF29CDE
:10269000F29E0F01550EA76EAA0EA76EA682A6B2D5
:1026A000FED7A6940050F212000E016E0901E1D18E
:1026B0000D51030848E2FF0A03E10C514B0843E2C5
:1026C0000D51040840E303E10C5193083CE30F5122
:1026D000000808E2FF0A03E10E51000803E2030EBE
:1026E000016EC7D14C0E0C5D106F10C918F9060EA3
:1026F000196F000155EC05F000C011F910C918F967
:10270000060E0901196F000155EC05F001C010F922
:1027100009011051060DF350036A1A0F126F000ED3
:102720000320136F036A11511225016E1351032206
:102730000150360FE96E000E0320EA6E0EC9EFFF5E
:10274000000E016E96D10101D9531BE009010C5115
:10275000E80809E10D51030806E10EC93AF0000E40
:10276000016E87D10DD00C51E9080AE10D51030823
:1027700007E10FC93CF00EC93BF0000E016E79D1A4
:10278000010109010C51006E0D51036E035006E169
:10279000370E005C0001D8B477D00901030E035C4A
:1027A00006E1EE0E005C0001D8B479D00901030EF9
:1027B000035C06E1EF0E005C0001D8B47DD0090196
:1027C000030E035C06E1F00E005C0001D8B47BD080
:1027D0000901030E035C06E1F10E005C0001D8B4B0
:1027E0007FD00901030E035C06E1F20E005C0001DC
:1027F000D8B47CD00901030E035C06E1F30E005C43
:102800000001D8B481D00901030E035C06E1F40E87
:10281000005C0001D8B485D00901030E035C06E119
:10282000F50E005C0001D8B489D00901030E035CE9
:1028300006E1F60E005C0001D8B4CFD00901070E06
:10284000035C06E1CD0E005C0001D8B4D3D00901D1
:10285000070E035C06E1CE0E005C0001D8B4D4D0B4
:102860000901070E035C06E1CF0E005C0001D8B43D
:10287000D8D009014E0E035C06E11F0E005C00017A
:10288000D8B4DCD00901EED009010E5302E10F5398
:1028900003E0030E016EEDD00101E86BE7D0090102
:1028A0000F5303E10E51800803E2030E016EE1D0E5
:1028B0000EC936F00101DAD00101FD830FC93EF0E7
:1028C0000EC93DF0D3D009010F5303E10E510108A9
:1028D00003E2030E016ECDD00EC93FF00101C6D058
:1028E0000FC941F00EC940F00101C0D009010E53DB
:1028F00005E10F5303E1030E016EBBD00FC943F096
:102900000EC942F00101B2D009010F5303E10E518B
:10291000010803E2030E016EACD00EC944F00101C0
:10292000A5D009010F5303E10E51020803E2030E83
:10293000016E9FD00EC938F0010198D00901106BCB
:102940000E51B00806E10F51040803E1010E106FAB
:10295000396A0E51600806E10F51090803E1010EC2
:10296000106F396E0E51C00807E10F51120804E1D3
:10297000010E106F020E396E0E51800807E10F51E3
:10298000250804E1010E106F030E396E0E5307E1A6
:102990000F514B0804E1010E106F040E396E0E53F7
:1029A00007E10F51960804E1010E106F050E396E14
:1029B0000E5307E10F51E10804E1010E106F060EFE
:1029C000396E102D05D00001C6EC06F004D00901C7
:1029D000030E016E4ED0010149D009010F5303E1EE
:1029E0000E51010803E2030E016E43D00EC94FF0F1
:1029F00001013CD009010E2D02D00F5303E0030E5C
:102A0000016E37D0FF00000109010E2D02D00F53D7
:102A100003E0030E016E2DD0000172EC06F00101FF
:102A200025D009010E2D02D00F5303E0030E016ED5
:102A300020D0000148EC06F0010118D009010E5128
:102A40000A0803E10F51070806E00101D96B030EE4
:102A5000016E09010ED0010E0101D96FC80EFA6F87
:102A600005D00901020E016E04D00101000E016EB5
:102A700009010001120008C910F9060E0901116FC1
:102A80000001A7EC09F00AC90DF90AC912F98BEC8B
:102A900009F009C90DF909C912F98BEC09F00CC943
:102AA0000DF90CC912F98BEC09F00BC90DF90BC922
:102AB00012F98BEC09F0B6EC09F07BEF16F006C9C1
:102AC00010F9100E0901116F0001A7EC09F008C9F7
:102AD0000BF908C912F98BEC09F007C90BF907C902
:102AE00012F98BEC09F00AC90BF90AC912F98BEC3F
:102AF00009F009C90BF909C912F98BEC09F0B6EC18
:102B000009F0E0EF16F0DBEF08F00152D8B479D10C
:102B1000382C59D036500701EE5DD8A402D0000100
:102B200052D08C828C800400020E0901046FB50E15
:102B3000076F0001EEEC08F00901042FF8D7070138
:102B4000EE510001FEEC08F00400670E006E002E4E
:102B5000FED700000701F0510001FEEC08F0040070
:102B6000670E006E002EFED700000901036B020EF7
:102B70000701EF250901035D16E2F20E0325E96E58
:102B8000070EEA6ED8B0EA2AEFCF04F9045100012B
:102B9000FEEC08F00400670E006E002EFED7000069
:102BA0000901032BE4D772A2FED70400020E046FC2
:102BB000B50E076F0001EEEC08F00901042FF8D7FD
:102BC0008C928C9000013650800806E03650070148
:102BD000EE5DD8A40BD100010101CD3D03D0CE3D67
:102BE00001D003D0CD2BD8B4CE2B140EFA6F070131
:102BF000F051030A000108E0070A06E0020A44E077
:102C0000160AD8B47AD0DED0F2C7FFF8F3C7FEF8C0
:102C1000F4C701F9F5C700F9090100510801FE25C3
:102C20000901046F01510801FF210901056FFFC867
:102C300009F9FEC808F90B6F04C90AF9000102EF8F
:102C400009F0015212E1EEC706F90901086BF0C75D
:102C500007F9020E096F0001C7EC09F00101D26B00
:102C6000020ED16FFA6B0FD00001F0C706F9EEC764
:102C700007F9FFC809F9FEC808F901C90BF900C92D
:102C80000AF996D40101AED0F2C7FFF8F3C7FEF8F7
:102C9000F4C705F9F5C704F9FFC80DF9FEC80CF92A
:102CA000F4C70FF9F5C70EF9C4DC01C002F9090138
:102CB000025311E0EEC706F9086BF0C707F902C925
:102CC00009F90001C7EC09F00101D26B02C9D1F189
:102CD000FA6B12D00901F4C705F9F5C704F9EEC77C
:102CE00008F9FFC80AF9FEC809F9F4C70CF9F5C7D5
:102CF0000BF90001C0D6010175D0F2C7FFF8F3C788
:102D0000FEF8F4C701F9F5C700F90901036B015397
:102D100003E10051035D46E203510801FE2509016C
:102D2000046F000E0801FF210901056FD8900335DB
:102D3000050FF20FE96E070EEA6ED8B0EA2AEFCF60
:102D400006F9D8900335060FF20FE96E070EEA6E0A
:102D5000D8B0EA2AEFCF07F906C909F907C908F977
:102D600005C90DF904C90CF906C90FF907C90EF90F
:102D700000015FDC01C002F90901025311E0EEC756
:102D800006F9086BF0C707F902C909F90001C7EC99
:102D900009F00101D26B02C9D1F1FA6B090102D02D
:102DA000032BB5D702530CE1EEC706F9FFC808F9AB
:102DB000FEC807F901C90AF900C909F900017FD65F
:102DC000010110D0EEC706F90901086BF0C707F939
:102DD000010E096F0001C7EC09F00101D26B010E71
:102DE000D16FFA6BDB6BDA6B0CD007010101CF3DC1
:102DF00003D0D03D01D003D0CF2BD8B4D02B0A0EB6
:102E0000FA6F000179EF19F00A01085302E1095342
:102E100042E004CAE9FF05CAEAFFEFCF0AFA07CA8F
:102E200003F006CAE9FF07CAEAFFEF500A5D17E0A0
:102E300005CA03F004CAE9FF05CAEAFFEFCF0AFAA0
:102E400007CA03F006CAE9FF07CAEAFFEF500A5DA6
:102E500002E2FF0E01D0010E016E1FD00BD005CA99
:102E600003F004CAE9FF05CAEAFFEF5203E1000ECE
:102E7000016E13D005CA03F00451042BD8B4052BFE
:102E800007CA03F00651062BD8B4072B0851D8B453
:102E900009070807BAD7000E016E00010DEF18F000
:102EA0000A010A6B08510A5D39E209510A5D36E2EE
:102EB000036A0A510625E96E07510320EA6EEF52B4
:102EC0002DE0036A0A510625E96E07510320EA6ED8
:102ED000EF500A0823E0036A0A510625E96E0751FC
:102EE0000320EA6EEF500D0819E0036A0A51042529
:102EF000016E0551032203C00CFA036A0A5106252C
:102F0000E96E07510320EA6EEFCF0DFA0CCAEAFF13
:102F100001C0E9FF0DCAEFFF0A2BC4D709510A5DB2
:102F20000AE2036A0A510425E96E05510320EA6E9C
:102F3000EF6A0A2BF3D7010E095D036A0425E96ED7
:102F400005510320EA6EEF6A000144EF18F001C357
:102F5000FEF903010169080EEA6EFE0EE96E020E2B
:102F6000E26E010EE16E0901FE51016E04E0E6CF52
:102F7000EEFF012EFCD70301026B016B382C26D02B
:102F80000A01006B0901FF6B0A0100531DE10901F1
:102F9000FE51FF5DD8A002D00A0116D0FE0EFF251B
:102FA000E96E080E0A010021EA6EEFCF02FA025123
:102FB000000165EC03F00901FF2BD8A403D00A013E
:102FC000002B0901E1D70A017BD003013850020828
:102FD000D8A477D00901FE51050801E373D00A0196
:102FE000016B01510B086CE30151060DF350036AAC
:102FF000500F016E000E032201C002FA03C003FA53
:10300000080E056FFE0E046F03C007FA01C006FA32
:10301000096B060E086F0001F7D6015211E00A0194
:103020000151060DF350036A500FE96E000E0320A4
:10303000EA6EEF502A08D8A402D0000101D03ED099
:103040000A01036B01CA02FA056B500E046F0001FE
:103050003CEC04F002C003F00150060F016E040EB8
:10306000032201C002FA0A0103C003FA03C005FAF1
:1030700001C004FA080E076FFE0E066FFEC908FABB
:10308000500E096F00010CD7036A0A0101CA02F051
:10309000D890023603360250C60FE96E070E0320A1
:1030A000EA6EEC6AED52EF6ADE0E0125E96E070E5C
:1030B000EA6ED8B0EA2AFEC9EFFF02D0012B91D701
:1030C00003010901000197EF19F0F86AF1949F825A
:1030D0009F9A9F98A59AD08E078EEA6AE96A356A08
:1030E000B8960C0EAF6EA60EAC6E900EAB6E7096D0
:1030F0004D0E756EA60E726E900E716E0701EA91FE
:10310000EB6B0801F56B0701EA93EA95EA97EA99F8
:10311000EA9BEA9D0801F66BF86BF76BFA6BF96BAB
:10312000FC6BFB6BC150F00BC16E000E0F01386FD2
:103130003C6F396F3A6F3B6F0101886B776A786A31
:10314000796A2F6A306A0801F16BF26BF36BF46BEA
:10315000D0500F0BD0A8000ED080D082D088D88657
:10316000D888FD6F00015AEF04F08C828C80BA0E73
:10317000F66E070EF76E070E0801FE6F00012FECCA
:1031800005F0C60EF66E070EF76E44EC05F00D0E58
:10319000A4A8FED7736E0A0EA4A8FED7736ED00E35
:1031A000F66E070EF76E120E0801FE6F00012FEC8F
:1031B00005F0FDC8FEF81B0E0801FF6F00016BEF64
:1031C00005F0200EA4A8FED7736E0801FD51070A72
:1031D00000010DE00C0A12E0040A17E0030A1CE0EB
:1031E000020A21E00D0A26E0030A2BE031D0E60EA8
:1031F000F66E070EF76E44EC05F030D0F20EF66E68
:10320000070EF76E44EC05F029D0020EF66E080E9C
:10321000F76E44EC05F022D0100EF66E080EF76E35
:1032200044EC05F01BD0200EF66E080EF76E44EC51
:1032300005F014D0320EF66E080EF76E44EC05F071
:103240000DD0420EF66E080EF76E44EC05F006D077
:10325000540EF66E080EF76E44EC05F05E0EF66E38
:10326000080EF76E44EC05F09BEF06F0C6EC06F096
:103270003650800802E272EC06F0AB8EAB880DEFA0
:1032800007F00801FD6BFD511D0806E300016CEC21
:1032900007F00801FD2BF7D744C0DCF172A2FED77E
:1032A0008C928C90620EF66E080EF76E070EFE6F13
:1032B0000001C2EF07F06E0EF66E080EF76ED8EF43
:1032C00007F00D0E9EA8FED7AD6E0A0E9EA8FED783
:1032D000AD6E04000101FDA504D00001EAEF07F086
:1032E0000101FDA104D0FD9100016CEC07F000018B
:1032F0000AD4040105A109D005919D9A04003C0E51
:10330000006E002EFED700009D8805A30AD005930D
:1033100004003C0E006E002EFED70000000107ECFA
:1033200007F0020100A104D00091000110D60201B3
:063330000001CFD70300ED
:020000040030CA
:0E00000000231E3F003F81000FC00FE00F40A5
:00000001FF
;PIC18F46K22
;CRC=1696  CREATED="20-Mar-16 09:50"
