:0400000088EF18F07D
:0800080071EF00F000000000A0
:100010000000000000000000046ED8CF05F0E0CF23
:1000200006F00001E9CF0CF0EACF07F0E1CF08F0CD
:10003000E2CF09F0D9CF0AF0DACF0BF0F3CF12F00C
:10004000F4CF13F0FACF14F0F5CF15F0F6CF16F089
:10005000F7CF17F000C00EF001C00FF002C010F093
:1000600003C011F0F2AA38EF00F0F2B417EF02F07B
:100070009DAA3EEF00F09EBAE1EF03F09DA844EF89
:1000800000F09EB8A6EF03F0A3AA4AEF00F0A4BACE
:100090005EEF03F00EC000F00FC001F010C002F0E0
:1000A00011C003F00CC0E9FF07C0EAFF078E08C0CB
:1000B000E1FF09C0E2FF0AC0D9FF0BC0DAFF12C09E
:1000C000F3FF13C0F4FF14C0FAFF15C0F5FF16C00C
:1000D000F6FF17C0F7FF045006C0E0FF05C0D8FFC9
:1000E00010001A6ED8CF1BF0E0CF1CF00001E9CF52
:1000F00022F0EACF1DF0E1CF1EF0E2CF1FF0D9CF02
:1001000020F0DACF21F0F3CF28F0F4CF29F0FACFA6
:100110002AF0F5CF2BF0F6CF2CF0F7CF2DF000C062
:1001200024F001C025F002C026F003C027F09DA2F4
:100130009DEF00F09EB230EF02F024C000F025C029
:1001400001F026C002F027C003F022C0E9FF1DC065
:10015000EAFF1D8E1EC0E1FF1FC0E2FF20C0D9FFD5
:1001600021C0DAFF28C0F3FF29C0F4FF2AC0FAFF3C
:100170002BC0F5FF2CC0F6FF2DC0F7FF1A501CC096
:10018000E0FF1BC0D8FF1000F76A980FF66E010E53
:10019000F7220900F5501200244750524D43000049
:1001A000F76AB00FF66E010EF7220900F550120043
:1001B0002447504747410000F76AC80FF66E010E0A
:1001C000F7220900F550120024475047535600000B
:1001D000F76AE00FF66E010EF7220900F5501200E3
:1001E0002457494D44410000F76AF80FF66E010E9E
:1001F000F7220900F55012002A00F76A0A0FF66E7E
:10020000020EF7220900F550120000C1814001C022
:10021000804101C0804100C1814001C0804100C1D6
:10022000814000C1814001C0804101C0804100C1C6
:10023000814000C1814001C0804100C1814001C0B6
:10024000804101C0804100C1814001C0804100C1A6
:10025000814000C1814001C0804100C1814001C096
:10026000804101C0804100C1814000C1814001C086
:10027000804101C0804100C1814001C0804100C176
:10028000814000C1814001C0804101C0804100C166
:10029000814000C1814001C0804100C1814001C056
:1002A000804101C0804100C1814000C1814001C046
:1002B000804101C0804100C1814001C0804100C136
:1002C000814000C1814001C0804100C1814001C026
:1002D000804101C0804100C1814001C0804100C116
:1002E000814000C1814001C0804101C0804100C106
:1002F000814000C1814001C0804100C1814001C0F6
:10030000804101C0804100C18140F76A1A0FF66E3A
:10031000030EF7220900F550120000C0C101C3030B
:1003200002C2C60607C705C5C404CC0C0DCD0FCF4D
:10033000CE0E0ACACB0BC90908C8D81819D91BDBBD
:10034000DA1A1EDEDF1FDD1D1CDC14D4D515D7170D
:1003500016D6D21213D311D1D010F03031F133F3BD
:10036000F23236F6F737F53534F43CFCFD3DFF3F0D
:100370003EFEFA3A3BFB39F9F83828E8E929EB2B3D
:100380002AEAEE2E2FEF2DEDEC2CE42425E527E7CD
:10039000E62622E2E323E12120E0A06061A163A33D
:1003A000A26266A6A767A56564A46CACAD6DAF6FCD
:1003B0006EAEAA6A6BAB69A9A86878B8B979BB7B3D
:1003C0007ABABE7E7FBF7DBDBC7CB47475B577B78D
:1003D000B67672B2B373B17170B0509091519353BD
:1003E000529296565797559594549C5C5D9D5F9F8D
:1003F0009E5E5A9A9B5B99595898884849894B8BBD
:100400008A4A4E8E8F4F8D4D4C8C4484854587474C
:1004100046868242438341818040F29A0A01125308
:1004200004E0D76AD66AF294F28A0001120007014A
:10043000E95102080AE1EA5308E1EB5306E1E8B1A9
:1004400004D0020EED5FE88101D0E891EB69EA6922
:10045000E96B0A01126B0001E0DFF2944AEF00F051
:100460000A0114A10CD00101E73D05D0E83D03D0FD
:100470000A0105D00101E72BD8B4E82B0A0114A525
:100480000CD00101E93D05D0EA3D03D00A0105D0B9
:100490000101E92BD8B4EA2B0A0114A90CD00101FF
:1004A000EB3D05D0EC3D03D00A0105D00101EB2B5B
:1004B000D8B4EC2B0A01149381B0148314B341D047
:1004C0000701E8B302D00A013CD00001A92BD8B43F
:1004D000AA2B010EAF27D8B0B02BD8B4B12BD8B40B
:1004E000B22B0701E8A524D00A011491E8C198F0C5
:1004F000E7C197F0000198519E5D08E303E19D512B
:10050000975D04E298C09EF097C09DF0A451985D5D
:100510000DE303E19751A35D09E2973D03D0983DB8
:1005200001D004D098C0A4F097C0A3F00701E895CB
:10053000E8B507D00101E86BE76B0A0114810701F8
:10054000E8850701E8930A0114A303D00701E883B3
:100550000A01149781B2148714B741D00701E8B794
:1005600002D00A013CD00001AB2BD8B4AC2B010E59
:10057000B327D8B0B42BD8B4B52BD8B4B62B070159
:10058000E8A924D00A011495EAC19AF0E9C199F0CA
:1005900000019A51A05D08E303E19F51995D04E2D7
:1005A0009AC0A0F099C09FF0A6519A5D0DE303E1B7
:1005B0009951A55D09E2993D03D09A3D01D004D03F
:1005C0009AC0A6F099C0A5F00701E899E8B907D04C
:1005D0000101EA6BE96B0A0114850701E88907014B
:1005E000E8970A0114A703D00701E8870A01149BC2
:1005F00081B4148B14BB41D00701E8BB02D00A01BF
:100600003CD00001AD2BD8B4AE2B010EB727D8B02B
:10061000B82BD8B4B92BD8B4BA2B0701E8AD24D085
:100620000A011499ECC19CF0EBC19BF000019C51B4
:10063000A25D08E303E1A1519B5D04E29CC0A2F02E
:100640009BC0A1F0A8519C5D0DE303E19B51A75D08
:1006500009E29B3D03D09C3D01D004D09CC0A8F092
:100660009BC0A7F00701E89DE8BD07D00101EC6B36
:10067000EB6B0A0114890701E88D0701E89B0A0169
:1006800014AB03D00701E88B0A010801F32BF351E7
:100690000A0804E1F36B0101FB8508019E92000149
:1006A0009DEF00F0A4AAFED771CF35F074CF01F012
:1006B00035A202D0719871885FEF03F0F3D701C0C3
:1006C00011FA0101E42BD8B4E52B382C12D0030128
:1006D000006B0201FF3D01D00AD0FF0EFF25E96E3D
:1006E000010EEA6ED8B0EA2A11CAEFFFFF2B25D01F
:1006F00001013850020822E10A0111510A0803E001
:1007000011510D080AE10201FF5305E0140E030127
:10071000006F00D0020111D00A010301006B020139
:10072000FF3D01D00AD0FF0EFF25E96E010EEA6EF3
:10073000D8B0EA2A11CAEFFFFF2B0101A49A0001E9
:100740004AEF00F09EA8FED7AD6E120004010151E1
:10075000025D03E303839D980FD0010E0225E96E2D
:10076000030EEA6ED8B0EA2AEFCF11FA0A0111514E
:100770000001E8DF0401022B9E9800014AEF00F01F
:100780009EAAFED7ABCF35F0AECF01F035A202D096
:10079000AB98AB8812000701EB510A011219136FD5
:1007A000036A1351000129DD016E0701EA510118A6
:1007B000EB6F036A0A0113510001A7DDE8CFEAF7E6
:1007C0001200DEDF01C011FA0101E22BD8B4E32BE5
:1007D0000701E8B12CD0E95309E18C86EB69EA699D
:1007E00011CAECF7E92BED6BEF6B17D0E92D04D0B4
:1007F00011CAEEF7E92B11D0E95102080EE1ED3DE7
:1008000002D0FE0EED6FF00EED25E96E070EEA6EDA
:10081000D8B0EA2A11CAEFFFED2B11CA12FA000173
:10082000BADF010E0A01126F0001F7DD07019E9A7F
:1008300000014AEF00F02320706377782025730DC4
:100840000A0031332D4465632D3135002320726554
:1008500073746172745F636175736528293D2575D2
:1008600020005744545F54494D454F5554004D4363
:100870004C525F46524F4D5F534C454550004D43DF
:100880004C525F46524F4D5F52554E004E4F524DA7
:10089000414C5F504F5745525F55500042524F57A1
:1008A0004E4F55545F5245535441525400005744E3
:1008B000545F46524F4D5F534C45455000005245E2
:1008C0005345545F494E535452554354494F4E007B
:1008D000756E6B6E6F776E2100000D0A000023208D
:1008E000706377782025730D0A0031332D446563DA
:1008F0002D3135000A0100510203F3CF01F0F4CF8E
:1009000000F00303F350002601510203F3500020CE
:10091000026E00011200016603D0026602D007D009
:10092000022A00C0EEFF012EFCD7022EFAD71200D9
:10093000C290080E616EF19E000E926EFF0E936ED5
:10094000920E946E800E956E9690969296949696D0
:100950000101F86BFA6B020EF96FFB91FB93FB95AB
:10096000FC69FD690201FF6B030100690101FE9151
:100970000401016B026B039103930801FC6BFC51B2
:10098000020857E3036AFCC802F0D8900236033627
:100990000250970FE96E000E0320EA6EEC6AED52EA
:1009A000EF6A036AFCC802F0D890023603360250A0
:1009B0009D0FE96E000E0320EA6EEC68ED52EF68C1
:1009C000036AFCC802F0D890023603360250A30F27
:1009D000E96E000E0320EA6EEC6AED52EF6A036ADC
:1009E000FCC802F0D890023603360250A90FE96E17
:1009F000000E0320EA6EEC6AED52EF6A0A01016B09
:100A0000FCC800FA036B040E026F000173DF015093
:100A1000AF0FE96E000E0220EA6EEE52EE52EC6A63
:100A2000ED52EF6AED52EF6AED52EF6A0801FC2BCE
:100A3000A6D70101CD6BCC6BCF6BCE6BD16BD06BDE
:100A4000D36BD26BD56BD46BD76BD66BCB6BD86BB0
:100A5000DA6BD96BE36BE26BE56BE46BE66B040E70
:100A6000EA6EE96E006A030E026EE40E016E00018A
:100A700052DF0801FC6BFC510B0819E3036AFCC848
:100A800002F0D890023603360250C40FE96E070E0A
:100A90000320EA6EEC68ED52EF68DC0EFC25E96E8F
:100AA000070EEA6ED8B0EA2AEF6AFC2BE4D74CC0F6
:100AB000DDF14BC0DCF148C0DFF147C0DEF10101E0
:100AC000E16BE06B000E0509BA6E4A0EBB6E9D82AB
:100AD000A38A0001D8EF18F00900F6CFFDF8F7CF90
:100AE000FEF8F550A4A8FED7736EFDC8F6FFFEC849
:100AF000F7FF0801FC2F01D002D00001EDD7000163
:100B000012000900F5520DE0F6CFFCF8F7CFFDF822
:100B1000F550A4A8FED7736EFCC8F6FFFDC8F7FF1A
:100B2000F0D7120009011951016A185D03E218C9D2
:100B300000F00CD0006A080E1A6F183700361951F1
:100B4000005CD8B0006E01361A2FF7D700011200F2
:100B50000150FCC818F9640E0901196F0001E2DFA9
:100B600000C0FCF80150300E08E10801FDA30ED0D2
:100B7000FDB70CD0FDB9200E04D00801FD97FD99FA
:100B8000FD8101260150A4A8FED7736EFCC818F998
:100B90000A0E0901196F0001C5DF00C0FCF8015001
:100BA000300E08E10801FDB70BD0FDA109D0FDB959
:100BB000200E000101260150A4A8FED7736E080183
:100BC000300EFC27FC51A4A8FED7736E000104EF81
:100BD00019F00901056B04C903F00351D8B40407E7
:100BE0000307066F03C007F9065302E107533AE013
:100BF00002C903F00151E96E03C0EAFF0051036E20
:100C00000801FF51FF2BD8A403D00901002B0801D4
:100C10000901086F03C009F9F2CF0AF9F29CF29EAC
:100C200009C9AAFF08C9A9FFA69CA69EA680A8502C
:100C30000ABDF28C0ABFF28EEF6E02C903F00151B9
:100C4000E96E03C0EAFFEFCF06F905C91DF906C931
:100C50001EF91D511E19016E01C005F9012BD8B4F2
:100C6000022BB9D705C901F0000129EF07F00901EE
:100C70001B6B1AC903F01951D8B41A0719071C6F56
:100C800003C01DF91C5302E11D533FE018C903F0D6
:100C90001751E96E03C0EAFFEFCF1CF91BC91DF91C
:100CA0001CC91EF91D511E19016E01C01BF91651F8
:100CB000036E1551152BD8B4162B1C6F03C01DF9EC
:100CC0001851036E1751172BD8B4182BE96E03C0B7
:100CD000EAFFEFCF1EF91DC9AAFF1CC9A9FF1EC953
:100CE000A8FFA69CA69EA684F250006EF29CF29EDF
:100CF0000F01550EA76EAA0EA76EA682A6B2FED74A
:100D0000A6940050F2120901B4D71BC901F00001EA
:100D10009AEF06F00901146B360E136F166B020E74
:100D2000156F14C918F913C917F91A6B610E196FE9
:100D300000019DD701C012F9AA6AA96A12C9A8FFC9
:100D4000A69CA69EA684F250006EF29CF29E0F0115
:100D5000550EA76EAA0EA76EA682A6B2FED7A694BF
:100D60000050F21200011200960E0101F86F260EDB
:100D7000366E030E396E020E386E500E3A6E260E27
:100D80003C6E940E3B6E3E6A140E3D6E3F6A020E40
:100D9000416E760E406E436A020E426E446AEA6A03
:100DA0004F0EE96E006A026A480E016E0001B3DD63
:100DB000EA6A4F0EE96E000EC4EC00F00A0009006A
:100DC000F550EE6E0009FBE1EA6A550EE96E000E81
:100DD000D0EC00F00A000900F550EE6E0009FBE1CE
:100DE000EA6A5B0EE96E000EDCEC00F00A00090016
:100DF000F550EE6E0009FBE1EA6A610EE96E000E45
:100E0000E8EC00F00A000900F550EE6E0009FBE185
:100E1000EA6A730EE96E000EF4EC00F00A000900B5
:100E2000F550EE6E0009FBE175DF12000801FE6B64
:100E3000360EFD6F0901006B020E0801FF6FFEC840
:100E400002F9FDC801F90901046B610E036F00018D
:100E5000C0D601C0FCF8F2CFFDF8F29CF29EAA6A5F
:100E6000A96AA69CA69EA680A8500801FDBDF28C8A
:100E7000FDBFF28EFC5D03E0000176DF080100019A
:100E800059EF19F03950000A0BE0010A11E0030A8A
:100E900017E0060A1DE0010A21E0030A27E02CD032
:100EA0007086C30E756E090E766EA60E726E2AD00F
:100EB0007086E10E756E040E766EA60E726E22D0EE
:100EC0007086700E756E020E766EA60E726E1AD059
:100ED0007096260E756EA60E726E14D070864D0E2C
:100EE000756E000E766EA60E726E0CD070960C0E9D
:100EF000756EA60E726E06D070964D0E756EA60EAD
:100F0000726E00D012009EAA02D03ADCFCD79D8AF5
:100F10001200F9DFC20ED56EC00EF21264EF19F0A6
:100F20008B968B8A8C940801FF5305E1030E09010F
:100F3000036F32D00801FF2D05D0130E0901036F96
:100F40002BD00801FF51020805E10B0E0901036FC8
:100F500023D00801FF51030805E11B0E0901036FAF
:100F60001BD00801FF51040805E1070E0901036FBA
:100F700013D00801FF51050805E1170E0901036FA1
:100F80000BD00801FF51060804E10F0E0901036FA1
:100F900003D01F0E0901036F026B025104080BE31B
:100FA0008B9603B102D08B9A01D08B8AD8900333F1
:100FB0008B86022BF2D7016B006B026B02510D087E
:100FC0000BE38B9682B802D0D89001D0D88000373E
:100FD00001378B86022BF2D7019B01998C8400C9C3
:100FE00001F001C902F000012DEF08F00101CB2B47
:100FF000CB510F0801E2CB6B0801FC6BFC510708D9
:1010000047E30A01016BFCC800FA036B200E026F74
:10101000000170DC02C003F00150340F0801FD6FC5
:10102000000E0220FE6F036A0101CBC102F0D890CE
:101030000236033602500801FD25016EFE510322DF
:101040000150970F016E000E032201C0FDF803C08E
:10105000FEF8FCC8FFF8000163D7FEC8EAFFFDC830
:10106000E9FF02C0ECFFED5201C0EFFF036A080187
:10107000FCC802F0D890023603360250BB0FE96E6E
:10108000000E0320EA6EEC6AED52EF6AFC2BB6D735
:10109000000112000900F6CFFDF8F7CFFEF8F55079
:1010A0009EA8FED7AD6EFDC8F6FFFEC8F7FF08018B
:1010B000FC2F01D002D00001EDD700017EEF19F026
:1010C0000900F5520DE0F6CFFCF8F7CFFDF8F5502A
:1010D0009EA8FED7AD6EFCC8F6FFFDC8F7FFF0D79F
:1010E00084EF19F00101FB95D8900801F935FD6FE7
:1010F000FA35FE6F000E0101FCA7010E0801FD1379
:10110000FDC8F9F8FE51E009FA6FF95308E1FA5108
:10111000F00805E1010E0101E66F03D008010101AD
:10112000E66BE73D06D0E83D04D00001986B976B75
:101130000101E93D06D0EA3D04D000019A6B996BAC
:101140000101EB3D06D0EC3D04D000019C6B9B6B94
:10115000010181CFFCF182CFFDF1F85302E18996C4
:1011600002D08986F807D63D03D0D73D01D003D001
:10117000D62BD8B4D72B385002082CE10801FC6BD1
:10118000FC510B0827E3036AFCC802F0D890023632
:1011900003360250C40FE96E070E0320EA6EECCF4F
:1011A00003F0ED52EF50FF0803E1033C01D010D0F3
:1011B000036AFCC802F0D890023603360250C40F0E
:1011C000E96E070E0320EA6E010EEE2601E3EF2A18
:1011D000FC2BD6D70801F72BD8B4F82BF751E80829
:1011E00042E1F85103083FE1F86BF76B0101D93D8B
:1011F00003D0DA3D01D003D0D92BD8B4DA2B40523A
:1012000002E141520FE04150DA5D0CE303E1D951B4
:10121000405C08E2F95306E1FA5304E143C0FAF1F5
:1012200042C0F9F1F95304E1FA5302E18B800BD08B
:101230008B90F951D8B4FA07F907F95304E1FA533E
:1012400002E1DA6BD96B0801F42BF4513C080BE195
:10125000F46B0101D43D03D0D53D01D003D0D42B94
:10126000D8B4D52B08010101FBA304D0FB930801DE
:10127000F66BF56B0801F52BD8B4F62B3D50F55DF8
:1012800007E13E50F65D04E1F66BF56B0101FB8171
:101290000301003D01D001D0002B0051090809E2F3
:1012A0000201FF53D8A402D0030103D00101FE8143
:1012B0000301000193EF19F00701E8B104D0000E1B
:1012C000016E0AD006D0EEAF04D0F0C7EFF7010EE2
:1012D000ED6FE891010E016E0001AFEF15F0050E04
:1012E0000901075F0AE3090EEA6E070EE96EEF5087
:1012F00004E001D00400EF2EFDD700011200A4A8E5
:10130000FED7736E1200090108511F080CE1095144
:101310004E0809E10A51200806E10B514E0803E18D
:10132000010E016E76D0095118080FE2FF0A03E1A1
:10133000085163080AE20B51190807E303E10A5157
:101340007C0803E3010E016E64D0095116080FE218
:10135000FF0A03E108516F080AE20B51190807E37D
:1013600003E10A51500803E3010E016E52D0095106
:1013700012080FE2FF0A03E1085187080AE20B5145
:10138000170807E303E10A51480803E3010E016E61
:1013900040D0095103080FE2FF0A03E108514B084E
:1013A0000AE20B51040807E303E10A51940803E33E
:1013B000010E016E2ED0095102080FE2FF0A03E16F
:1013C0000851E7080AE20B51030807E303E10A5159
:1013D000F60803E3010E016E1CD0095106080FE266
:1013E000FF0A03E10851CF080AE20B51090807E39D
:1013F00003E10A51D10803E3010E016E0AD00B5339
:1014000006E10A51370803E3010E016E02D0000E17
:10141000016E00014BEF16F0010E04010125E96E8B
:10142000030EEA6ED8B0EA2A12C9EFFF012B196A3F
:10143000F2BC198CF29CF2BE198EF29E12C912FAFD
:101440000001CBEC03F019BCF28C19BEF28E120035
:101450000401016B026B0701EB69EA69E89110C9AD
:1014600012F90001D9DF11C912F9D6DF1200EBC75A
:1014700011F9EAC710F911C912F9CEDF10C912F932
:10148000CBDF0701EB69EA69040103810001120067
:101490000901075180090A6F08C90BF906C910F93B
:1014A000116F0001D5DF09C912F9B6DFE0DF1200C4
:1014B000F29CF29EF2BEFDD70A01016B18C900FA38
:1014C000036B040E026F00017AEC04F002C003F01B
:1014D0000150AF0FE96E000E0220EA6EEFCF00F070
:1014E000ECCF01F0ECCF02F0ECCF03F003C01CF91D
:1014F00002C01BF901C01AF900C019F9C00EF2129E
:1015000019C900F01AC901F01BC902F01CC903F087
:1015100012000A01016B18C900FA036B200E026F5A
:1015200000017AEC04F002C003F00150CB0F016E11
:10153000000E032201C01CF9090103C01DF91A6B3A
:10154000196B1B6B1B510F0811E3D8901B35036AF5
:101550001C25E96E1D510320EA6EECCF03F0ED521D
:10156000EF50192703501A231B2BECD7080E19250F
:101570001E6F000E1A211F6F1F31036E1E31026E87
:101580000332023203320232033202320F0E0316EA
:1015900002C001F003C002F000011200F29CF29EB2
:1015A000F2BEFDD7AA6BA96BAC6BAB6BAE6BAD6B30
:1015B0009E699D69A0699F69A269A169A46BA36BDB
:1015C000A66BA56BA86BA76B0101D76BD66BC00E82
:1015D000F212000177EF11F0F29CF29EF2BEFDD7FD
:1015E000B26BB16BB06BAF6BB66BB56BB46BB36B0F
:1015F000BA6BB96BB86BB76BC00EF2127FEF11F01C
:101600000101CD6BCC6BCF6BCE6BD16BD06B00017E
:101610009FEF11F00901135106082AE2FF0A03E1C6
:101620001251CF0825E21351090822E303E11251B8
:10163000CF081EE3D00E125D186F070E1359196FF5
:10164000020E1927F2CF1AF9F29CF29E19C9AAFFCD
:1016500018C9A9FFA69CA69EA680A8501ABDF28C08
:101660001ABFF28E036A016E0350026E2EEF13F062
:10167000135103083FE2FF0A03E112514B083AE21B
:101680001351040837E303E11251930833E34C0E7E
:10169000125D146F14C918F9060E196F000192EC4F
:1016A00005F000C015F914C918F9060E0901196FE3
:1016B000000192EC05F001C014F909011451060D66
:1016C000F350036A190F186F000E0320196F036A95
:1016D00015511825016E195103220150360FE96E7C
:1016E000000E0320EA6EEF50036A016E03C002F0A1
:1016F0002EEF13F01351120820E2FF0A03E11251FA
:1017000087081BE21351170818E303E11251470839
:1017100014E3880E125F130E135B040E176F166F1F
:1017200016511225E96E17511321EA6EEF50036A24
:10173000016E03C002F02EEF13F01351160834E2CD
:10174000FF0A03E112516F082FE2135119082CE32D
:1017500003E112514F0828E3700E125F170E135B5E
:10176000D89012371337040E176F166F16511225C3
:10177000E96E17511321EA6EEFCF18F9010E122509
:10178000196F000E13211A6F16511925E96E1751A2
:101790001A21EA6EEFCF1BF918C903F01BC901F03B
:1017A00018C902F02EEF13F01251006E1351036EA0
:1017B000035006E100520001D8B444EF0FF00901D4
:1017C000035007E1010E005C0001D8B44CEF0FF0AC
:1017D0000901035007E1020E005C0001D8B454EF88
:1017E0000FF00901035007E1030E005C0001D8B4BB
:1017F0005CEF0FF00901035007E1040E005C0001EB
:10180000D8B464EF0FF00901035007E1050E005C46
:101810000001D8B47AEF0FF00901035007E1060E7A
:10182000005C0001D8B483EF0FF00901035007E119
:10183000070E005C0001D8B48BEF0FF009010350D4
:1018400007E1080E005C0001D8B493EF0FF0090126
:10185000035007E1090E005C0001D8B49AEF0FF0C5
:101860000901035007E10A0E005C0001D8B4A1EFA2
:101870000FF00901035007E10B0E005C0001D8B422
:10188000B7EF0FF00901035007E10C0E005C0001F7
:10189000D8B4BFEF0FF00901035007E10D0E005C53
:1018A0000001D8B4C6EF0FF00901035007E10E0E96
:1018B000005C0001D8B4CDEF0FF00901035007E13F
:1018C0000F0E005C0001D8B4D4EF0FF009010350F3
:1018D00007E1100E005C0001D8B4DBEF0FF0090146
:1018E000035007E1110E005C0001D8B4F1EF0FF0D6
:1018F0000901035007E1120E005C0001D8B4F9EFB2
:101900000FF00901035007E1130E005C0001D8B489
:1019100010EF10F00901035007E1140E005C000104
:10192000D8B41CEF10F00901035007E1150E005C5C
:101930000001D8B423EF10F00901035007E1160E9F
:10194000005C0001D8B43AEF10F00901035007E140
:10195000170E005C0001D8B447EF10F009010350E6
:1019600007E1180E005C0001D8B44EEF10F0090139
:10197000035007E1190E005C0001D8B465EF10F0C8
:101980000901035007E11A0E005C0001D8B472EFA0
:1019900010F00901035007E11B0E005C0001D8B4F0
:1019A00079EF10F00901035007E11C0E005C000103
:1019B000D8B490EF10F00901035007E11D0E005C50
:1019C0000001D8B49DEF10F00901035007E11E0E8D
:1019D000005C0001D8B4A4EF10F00901035007E146
:1019E0001F0E005C0001D8B4BBEF10F009010350DA
:1019F00007E1200E005C0001D8B4C8EF10F0090127
:101A0000035007E1210E005C0001D8B4CFEF10F0C5
:101A10000901035007E1220E005C0001D8B4E6EF93
:101A200010F00901035007E1230E005C0001D8B457
:101A3000F3EF10F00901035007E1240E005C0001F0
:101A4000D8B4FAEF10F00901035007E1250E005C4D
:101A50000001D8B411EF11F00901035007E1260E7F
:101A6000005C0001D8B41EEF11F00901035007E13A
:101A7000270E005C0001D8B425EF11F009010350D6
:101A800007E1280E005C0001D8B43CEF11F0090119
:101A9000035007E1290E005C0001D8B449EF11F0B2
:101AA0000901035007E12A0E005C0001D8B450EF91
:101AB00011F00901035007E12B0E005C0001D8B4BE
:101AC0005DEF11F00901035007E12C0E005C0001ED
:101AD000D8B465EF11F00901035007E12D0E005C49
:101AE0000001D8B46DEF11F00901035007E12E0E8B
:101AF000005C0001D8B475EF11F00901035007E153
:101B00002F0E005C0001D8B47DEF11F009010350E5
:101B100007E1300E005C0001D8B485EF11F0090137
:101B2000035007E1310E005C0001D8B48DEF11F0D5
:101B30000901035007E1320E005C0001D8B495EFB3
:101B400011F00901035007E1330E005C0001D8B425
:101B50009DEF11F00901035007E1340E005C000114
:101B6000D8B4A5EF11F00901035007E1350E005C70
:101B70000001D8B4ADEF11F00901035007E1360EB2
:101B8000005C0001D8B4B5EF11F00901030E035C4D
:101B900007E1E80E005C0001D8B4BEEF11F00901C6
:101BA000030E035C07E1E90E005C0001D8B4C6EF48
:101BB00011F00901030E035C07E1EA0E005C00016D
:101BC000D8B4CDEF11F00901030E035C07E1EB0E71
:101BD000005C0001D8B4D4EF11F00901030E035CDE
:101BE00007E1EC0E005C0001D8B4DBEF11F0090155
:101BF000030E035C07E1ED0E005C0001D8B4E2EFD8
:101C000011F00901030E035C07E1EE0E005C000118
:101C1000D8B4E9EF11F00901030E035C07E1EF0E00
:101C2000005C0001D8B4F1EF11F00901030E035C70
:101C300007E1F00E005C0001D8B4F8EF11F00901E3
:101C4000030E035C07E1F10E005C0001D8B400EF65
:101C500012F00901030E035C07E1F20E005C0001C3
:101C6000D8B407EF12F00901030E035C07E1F30E8D
:101C7000005C0001D8B40EEF12F00901030E035C02
:101C800007E1F40E005C0001D8B416EF12F0090170
:101C9000030E035C07E1F50E005C0001D8B41EEFF3
:101CA00012F00901190E035C07E1640E005C0001EB
:101CB000D8B45FEF12F00901190E035C07E1650E5D
:101CC000005C0001D8B467EF12F00901190E035C43
:101CD00007E1660E005C0001D8B470EF12F0090154
:101CE000190E035C07E1670E005C0001D8B478EFC1
:101CF00012F00901190E035C07E1680E005C000197
:101D0000D8B481EF12F00901190E035C07E1690EE6
:101D1000005C0001D8B489EF12F00901190E035CD0
:101D200007E16A0E005C0001D8B492EF12F00901DD
:101D3000190E035C07E16B0E005C0001D8B49AEF4A
:101D400012F00901190E035C07E16C0E005C000142
:101D5000D8B4A3EF12F00901190E035C07E16D0E70
:101D6000005C0001D8B4ABEF12F00901190E035C5E
:101D700007E16E0E005C0001D8B4B4EF12F0090167
:101D8000190E035C07E16F0E005C0001D8B4BCEFD4
:101D900012F00901190E035C07E1700E005C0001EE
:101DA000D8B4C5EF12F00901190E035C07E1710EFA
:101DB000005C0001D8B4CDEF12F00901190E035CEC
:101DC00007E1720E005C0001D8B4D6EF12F00901F1
:101DD000190E035C07E1730E005C0001D8B4DEEF5E
:101DE00012F00901190E035C07E1740E005C00019A
:101DF000D8B4E7EF12F00901190E035C07E1750E84
:101E0000005C0001D8B4EFEF12F00901190E035C79
:101E100007E1760E005C0001D8B4F8EF12F009017A
:101E2000190E035C07E1770E005C0001D8B400EFE7
:101E300013F00901190E035C07E1780E005C000144
:101E4000D8B409EF13F00901190E035C07E1790E0C
:101E5000005C0001D8B411EF13F00901190E035C06
:101E600007E17A0E005C0001D8B41AEF13F0090103
:101E7000190E035C07E17B0E005C0001D8B422EF71
:101E800013F009012AEF13F0A9C001F0AAC002F073
:101E900009012EEF13F000019751016E9851026E67
:101EA00009012EEF13F000019D51016E9E51026E4B
:101EB00009012EEF13F00001A351016EA451026E2F
:101EC00009012EEF13F000010901186B000158EC15
:101ED0000AF003C0F2F802C0F1F801C0F0F800C047
:101EE000EFF80801EF51016EF051026E09012EEF7B
:101EF00013F000010801F151016EF251026E090167
:101F00002EEF13F00001AB51016EAC51026E0901CE
:101F10002EEF13F000019951016E9A51026E0901E2
:101F20002EEF13F000019F51016EA051026E0901C6
:101F300095D30001A551016EA651026E09018ED301
:101F40000001010E0901186F000158EC0AF003C0EE
:101F5000F2F802C0F1F801C0F0F800C0EFF8080193
:101F6000EF51016EF051026E090178D300010801B2
:101F7000F151016EF251026E090170D30001AD51B1
:101F8000016EAE51026E090169D300019B51016ED1
:101F90009C51026E090162D30001A151016EA25150
:101FA000026E09015BD30001A751016EA851026EB8
:101FB000090154D30001020E0901186F000158EC09
:101FC0000AF003C0F2F802C0F1F801C0F0F800C056
:101FD000EFF80801EF51016EF051026E09013ED396
:101FE00000010801F151016EF251026E090136D370
:101FF0000001036A0101CB51026ED890023603360C
:102000000250CB0FE96E000E0320EA6EECCF03F016
:10201000ED52EF50016E0350026E09011FD3000113
:102020000901186B000189EC0AF00150016E0250A1
:10203000026E090113D30001BB51016EBC51026E47
:1020400009010CD30001036A0101CB51026ED89043
:10205000023603360250EB0FE96E000E0320EA6EE3
:10206000ECCF03F0ED52EF50016E0350026E090108
:10207000F5D20001010E0901186F000189EC0AF088
:102080000150016E0250026E0901E8D20001BD51FB
:10209000016EBE51026E0901E1D20001036A010125
:1020A000CB51026ED8900236033602500B0FE96E08
:1020B000010E0320EA6EECCF03F0ED52EF50016EFB
:1020C0000350026E0901CAD20001020E0901186F05
:1020D000000189EC0AF00150016E0250026E090104
:1020E000BDD20001BF51016EC051026E0901B6D2CE
:1020F0000001036A0101CB51026ED890023603360B
:1021000002502B0FE96E010E0320EA6EECCF03F0B4
:10211000ED52EF50016E0350026E09019FD2000193
:10212000030E0901186F000189EC0AF00150016EDD
:102130000250026E090192D20001C151016EC251DA
:10214000026E09018BD20001036A0101CB51026EBC
:10215000D8900236033602504B0FE96E010E032071
:10216000EA6EECCF03F0ED52EF50016E0350026EB9
:10217000090174D20001040E0901186F000189ECF5
:102180000AF00150016E0250026E090167D200018F
:10219000C351016EC451026E090160D20001036A8D
:1021A0000101CB51026ED8900236033602506B0FFC
:1021B000E96E010E0320EA6EECCF03F0ED52EF5012
:1021C000016E0350026E090149D20001050E09019A
:1021D000186F000189EC0AF00150016E0250026E86
:1021E00009013CD20001C551016EC651026E0901C0
:1021F00035D20001036A0101CB51026ED89002363C
:10220000033602508B0FE96E010E0320EA6EECCF0D
:1022100003F0ED52EF50016E0350026E09011ED221
:102220000001060E0901186F000189EC0AF0015047
:10223000016E0250026E090111D20001C751016EF8
:10224000C851026E09010AD20001036A0101CB5193
:10225000026ED890023603360250AB0FE96E010EC3
:102260000320EA6EECCF03F0ED52EF50016E035005
:10227000026E0901F3D10001070E0901186F000178
:1022800089EC0AF00150016E0250026E0901E6D19C
:102290000001C951016ECA51026E0901DFD100016E
:1022A0000101D351036ED251D22BD8B4D32B016E7E
:1022B0000350026E0901D2D100010101D651016E15
:1022C000D751026E0901CAD100010101D451016E3A
:1022D000D551026E0901C2D100010101D951016E2F
:1022E000DA51026E0901BAD10001CEEF0AF0000EF8
:1022F000016E026E0901B2D10001ECEF0AF0000E8E
:10230000016E026E0901AAD100010101CC51016EDA
:10231000CD51026E0901A2D100010101CE51016E21
:10232000CF51026E09019AD100010101D051016E15
:10233000D151026E090192D1000100EF0BF0000EA5
:10234000016E026E09018AD100010101E251016EA4
:10235000E351026E090182D100010101E451016ED5
:10236000E551026E09017AD10001036A0101E651CB
:10237000016E0350026E090171D10001036A3A50E7
:10238000016E0350026E090169D100013B50016EDC
:102390003C50026E090162D10001500E016E000E28
:1023A000026E09015BD10001570E016E000E026E34
:1023B000090154D10001580E016E000E026E090190
:1023C0004DD10001010E016E000E026E090146D1D1
:1023D0000001036A3650016E0350026E09013ED1BE
:1023E00000013D50016E3E50026E090137D10001DF
:1023F000036A3F50016E0350026E09012FD10001A4
:102400004050016E4150026E090128D10001425036
:10241000016E4350026E090121D10001036A44504C
:10242000016E0350026E090119D10001036A385090
:10243000016E0350026E090111D10001395207E10A
:10244000B00E016E040E026E090108D10001392C94
:1024500007D0600E016E090E026E0901FFD0000167
:102460003950020807E1C00E016E120E026E09011A
:10247000F5D000013950040807E1000E016E4B0E43
:10248000026E0901EBD000013950050807E1000E8A
:10249000016E960E026E0901E1D000013950060866
:1024A00007E1000E016EE10E026E0901D7D00001B6
:1024B000800E016E250E026E0901D0D000010701C9
:1024C000C451016EC551026E0901C8D00001036AF2
:1024D0000701DC51016E0350026E0901BFD00001FB
:1024E0000701C651016EC751026E0901B7D0000144
:1024F000036A0701DD51016E0350026E0901AED07F
:1025000000010701C851016EC951026E0901A6D030
:102510000001036A0701DE51016E0350026E0901DA
:102520009DD000010701CA51016ECB51026E090115
:1025300095D00001036A0701DF51016E0350026E5E
:1025400009018CD000010701CC51016ECD51026E02
:10255000090184D00001036A0701E051016E0350B4
:10256000026E09017BD000010701CE51016ECF51EF
:10257000026E090173D00001036A0701E151016E87
:102580000350026E09016AD000010701D051016EAB
:10259000D151026E090162D00001036A0701E251C4
:1025A000016E0350026E090159D000010701D2519A
:1025B000016ED351026E090151D00001036A070177
:1025C000E351016E0350026E090148D0000107017A
:1025D000D451016ED551026E090140D00001036A49
:1025E0000701E451016E0350026E090137D000016A
:1025F0000701D651016ED751026E09012FD000019B
:10260000036A0701E551016E0350026E090126D0ED
:1026100000010701D851016ED951026E09011ED087
:102620000001036A0701E651016E0350026E0901C1
:1026300015D000010701DA51016EDB51026E09016C
:102640000DD00001036A0701E751016E0350026ECD
:10265000090104D0FF0E016E026E00D0000158EF98
:1026600013F007C910F906C911F928EC0AF0D8903F
:1026700009010A35106F0B35116F10C912F90001ED
:102680000CEC0AF009010D6B0C6B0D510B5D25E391
:1026900003E10A510C5D21E20C510825106F0D5128
:1026A0000921116F136F10C912F900010AEF0BF025
:1026B00002C00FF901C00EF90FC910F90FC912F9C4
:1026C0000CEC0AF00EC910F90EC912F90CEC0AF064
:1026D00009010C2BD8B40D2BD8D7000137EC0AF028
:1026E0006CEF16F009010D5106083BE2FF0A03E109
:1026F0000C51CF0836E20D51090833E303E10C51C8
:10270000CF082FE30F51000808E2FF0A03E10E5142
:10271000000803E2030E016ED6D1D00E0C5D126FDD
:10272000070E0D59136F020E132713C9AAFF12C902
:10273000A9FF0EC9A8FFA69CA69EA684F250006E13
:10274000F29CF29E0F01550EA76EAA0EA76EA682EE
:10275000A6B2FED7A6940050F212000E016E090137
:10276000B2D10D51030848E2FF0A03E10C514B08B6
:1027700043E20D51040840E303E10C5193083CE3AC
:102780000F51000808E2FF0A03E10E51000803E2BE
:10279000030E016E98D14C0E0C5D106F10C918F924
:1027A000060E196F000192EC05F000C011F910C976
:1027B00018F9060E0901196F000192EC05F001C02D
:1027C00010F909011051060DF350036A190F126F29
:1027D000000E0320136F036A11511225016E13516D
:1027E00003220150360FE96E000E0320EA6E0EC977
:1027F000EFFF000E016E67D10101D8531BE0090104
:102800000C51E80809E10D51030806E10EC93AF040
:10281000000E016E58D10DD00C51E9080AE10D519E
:10282000030807E10FC93CF00EC93BF0000E016E32
:102830004AD1010109010C51006E0D51036E030EC6
:10284000035C06E1EE0E005C0001D8B465D009011E
:10285000030E035C06E1EF0E005C0001D8B468D003
:102860000901030E035C06E1F00E005C0001D8B420
:1028700067D00901030E035C06E1F10E005C000164
:10288000D8B46AD00901030E035C06E1F20E005CC5
:102890000001D8B467D00901030E035C06E1F30E12
:1028A000005C0001D8B46BD00901030E035C06E1A3
:1028B000F40E005C0001D8B46ED00901030E035C75
:1028C00006E1F50E005C0001D8B471D00901070ED5
:1028D000035C06E1CD0E005C0001D8B4B7D009015D
:1028E000070E035C06E1CE0E005C0001D8B4B8D040
:1028F0000901070E035C06E1CF0E005C0001D8B4AD
:10290000BCD009014E0E035C06E11F0E005C000105
:10291000D8B4C0D00901D2D009010F5303E10E5140
:10292000800803E2030E016ECED00EC936F0C9D086
:102930000101FB830FC93EF00EC93DF00901C1D072
:1029400009010F5303E10E51010803E2030E016E6A
:10295000BAD00EC93FF0B5D00FC941F00EC940F052
:102960000901AFD009010E5305E10F5303E1030E36
:10297000016EA9D00FC943F00EC942F0A2D00901DF
:102980000F5303E10E51010803E2030E016E9BD0C9
:102990000EC944F096D009010F5303E10E5102080D
:1029A00003E2030E016E8FD00EC938F08AD0090100
:1029B000106B0E51B00806E10F51040803E1010E3F
:1029C000106F396A0E51600806E10F51090803E1E2
:1029D000010E106F396E0E51C00807E10F51120839
:1029E00004E1010E106F020E396E0E51800807E1EE
:1029F0000F51250804E1010E106F030E396E0E53BE
:102A000007E10F514B0804E1010E106F040E396EFF
:102A10000E5307E10F51960804E1010E106F050EE9
:102A2000396E0E5307E10F51E10804E1010E106FFA
:102A3000060E396E102D05D0000142EC07F004D0CF
:102A40000901030E016E3FD009013BD009010E2D93
:102A500002D00F5303E0030E016E35D0FF000001DA
:102A600009010E2D02D00F5303E0030E016E2BD08F
:102A70000001B4EC06F0090124D009010E2D02D0AA
:102A80000F5303E0030E016E1ED000018AEC06F026
:102A9000090117D009010E510A0803E10F51070877
:102AA00006E00101D86B030E016E09010CD0010E86
:102AB0000101D86FC80EF86F090103D0020E016E34
:102AC00002D0000E016E0001120008C910F9060EB6
:102AD0000901116F000128EC0AF00AC90DF90AC9B1
:102AE00012F90CEC0AF009C90DF909C912F90CEC3C
:102AF0000AF00CC90DF90CC912F90CEC0AF00BC95B
:102B00000DF90BC912F90CEC0AF037EC0AF0A5EF3D
:102B100016F006C910F9100E0901116F000128EC1A
:102B20000AF008C90BF908C912F90CEC0AF007C938
:102B30000BF907C912F90CEC0AF00AC90BF90AC91A
:102B400012F90CEC0AF009C90BF909C912F90CECDD
:102B50000AF037EC0AF00EEF17F05CEF09F00152C3
:102B6000D8B47DD18C96382C59D036500701EC5D05
:102B7000D8A402D0000152D08C828C800400020EB6
:102B80000901026FB50E076F00016FEC09F0090132
:102B9000022FF8D70701EC5100017FEC09F0040087
:102BA000670E006E002EFED700000701EE510001F7
:102BB0007FEC09F00400670E006E002EFED70000C7
:102BC0000901016B020E0701ED250901015D16E205
:102BD000F00E0125E96E070EEA6ED8B0EA2AEFCFB3
:102BE00002F9025100017FEC09F00400670E006E4B
:102BF000002EFED700000901012BE4D772A2FED7F8
:102C00000400020E026FB50E076F00016FEC09F0B1
:102C10000901022FF8D78C928C9000013650800861
:102C200006E036500701EC5DD8A40ED10001010189
:102C3000CC3D03D0CD3D01D003D0CC2BD8B4CD2B8F
:102C4000140EF86F0701EE51030A000108E0070AAD
:102C500006E0020A43E0160AD8B479D0E1D0F0C702
:102C6000FDF8F1C7FCF8F2C7FFF8F3C7FEF808015A
:102C7000FE51FC250901026F0801FF51FD210901E8
:102C8000036FFDC809F9FCC808F90B6F02C90AF9FE
:102C9000000183EF09F0015212E1ECC706F90901C6
:102CA000086BEEC707F9020E096F000148EC0AF045
:102CB0000101D16B020ED06FF86B0FD00001EEC78F
:102CC00006F9ECC707F9FDC809F9FCC808F9FFC8FF
:102CD0000BF9FEC80AF9C5D40101B2D0F0C7FDF85E
:102CE000F1C7FCF8F2C703F9F3C702F9FDC80DF903
:102CF000FCC80CF9F2C70FF9F3C70EF9F3DC01C0F9
:102D000000F90901005311E0ECC706F9086BEEC7A2
:102D100007F900C909F9000148EC0AF00101D16B7B
:102D200000C9D0F1F86B12D00901F2C703F9F3C75B
:102D300002F9ECC708F9FDC80AF9FCC809F9F2C79D
:102D40000CF9F3C70BF90001C0D6010179D0F0C727
:102D5000FDF8F1C7FCF8F2C7FFF8F3C7FEF8090168
:102D6000016B0801FF5305E1FE510901015D48E2D5
:102D70000801090101510801FC250901026F000E3B
:102D80000801FD210901036FD8900135050FF00FEF
:102D9000E96E070EEA6ED8B0EA2AEFCF04F9D890B0
:102DA0000135060FF00FE96E070EEA6ED8B0EA2A79
:102DB000EFCF05F904C907F905C906F903C90DF9EB
:102DC00002C90CF904C90FF905C90EF900018ADC22
:102DD00001C000F90901005311E0ECC706F9086BC6
:102DE000EEC707F900C909F9000148EC0AF0010132
:102DF000D16B00C9D0F1F86B090102D0012BB1D71A
:102E000000530CE1ECC706F9FDC808F9FCC807F946
:102E1000FFC80AF9FEC809F900017BD6010110D0EC
:102E2000ECC706F90901086BEEC707F9010E096F37
:102E3000000148EC0AF00101D16B010ED06FF86B74
:102E4000DA6BD96B0CD007010101CE3D03D0CF3D29
:102E500001D003D0CE2BD8B4CF2B0A0EF86F0001CF
:102E60009CEF19F00A01065302E1075342E002CA3F
:102E7000E9FF03CAEAFFEFCF08FA05CA03F004CA64
:102E8000E9FF05CAEAFFEF50085D17E003CA03F047
:102E900002CAE9FF03CAEAFFEFCF08FA05CA03F046
:102EA00004CAE9FF05CAEAFFEF50085D02E2FF0E1F
:102EB00001D0010E016E1FD00BD003CA03F002CA6D
:102EC000E9FF03CAEAFFEF5203E1000E016E13D0DF
:102ED00003CA03F00251022BD8B4032B05CA03F036
:102EE0000451042BD8B4052B0651D8B407070607A4
:102EF000BAD7000E016E000131EF18F00A01086B1D
:102F00000651085D39E20751085D36E2036A08514F
:102F10000425E96E05510320EA6EEF522DE0036AA5
:102F200008510425E96E05510320EA6EEF500A08A6
:102F300023E0036A08510425E96E05510320EA6E77
:102F4000EF500D0819E0036A08510225016E035184
:102F5000032203C00AFA036A08510425E96E0551E9
:102F60000320EA6EEFCF0BFA0ACAEAFF01C0E9FFBD
:102F70000BCAEFFF082BC4D70751085D0AE2036AAA
:102F800008510225E96E03510320EA6EEF6A082B0F
:102F9000F3D7010E075D036A0225E96E0351032092
:102FA000EA6EEF6A000168EF18F0FFC2FCF9020157
:102FB000FF69080EEA6EFC0EE96E010EE26EE16832
:102FC0000901FC51016E04E0E6CFEEFF012EFCD7B3
:102FD0000301006B0201FF6B382C1CD00901FE6B52
:102FE000FD6BFE5315E1FC51FD5D12E2FC0EFD256B
:102FF000E96E080EFE21EA6EEFCF00FA0A010051D9
:103000000001A2EC03F00901FD2BD8B4FE2BE9D797
:103010007BD0020138500208D8A477D00901FC51B6
:10302000050801E371D0FF6BFF510B086DE3FF5101
:10303000060DF350036A4F0F016E000E032201C00C
:1030400000FA0A0103C001FA080E036FFC0E026FBA
:1030500003C005FA01C004FA076B060E066F0001F3
:1030600001D7015211E00901FF51060DF350036A27
:103070004F0FE96E000E0320EA6EEF502A08D8A425
:1030800002D0000101D03ED00A01016BFFC900FA55
:10309000036B500E026F00017AEC04F002C003F0E3
:1030A0000150040F016E040E032201C000FA0A0150
:1030B00003C001FA03C003FA01C002FA080E056F4B
:1030C000FC0E046FFCC906FA500E076F000116D7FC
:1030D000036A0901FFC902F0D89002360336025094
:1030E000C40FE96E070E0320EA6EEC6AED52EF6A38
:1030F000DC0EFF25E96E070EEA6ED8B0EA2AFCC99D
:10310000EFFF02D0FF2B90D702010001BAEF19F0B8
:10311000F86AF1949F829F9A9F98A59AD08E078E05
:10312000EA6AE96A356AB8960C0EAF6EA60EAC6E06
:10313000900EAB6E70964D0E756EA60E726E900E62
:10314000716E0701E891E96B0801F36B0701E893E1
:10315000E895E897E899E89BE89D0801F46BF66B21
:10316000F56BF86BF76BFA6BF96BC150F00BC16E36
:10317000000E0F01386F3C6F396F3A6F3B6F0101E2
:10318000886B776A786A796A2F6A306A0801EF6B10
:10319000F06BF16BF26BD0500F0BD0A8000ED0800B
:1031A000D082D088D886D888FB6F000198EF04F0D1
:1031B0008C828C80360EF66E080EF76E070E0801B4
:1031C000FC6F00016CEC05F0420EF66E080EF76E17
:1031D00081EC05F00D0EA4A8FED7736E0A0EA4A80C
:1031E000FED7736E4C0EF66E080EF76E120E0801C7
:1031F000FC6F00016CEC05F0FBC8FCF81B0E08012D
:10320000FD6F0001A8EF05F0200EA4A8FED7736E95
:103210000801FB51070A00010DE00C0A12E0040A44
:1032200017E0030A1CE0020A21E00D0A26E0030A67
:103230002BE031D0620EF66E080EF76E81EC05F0D1
:1032400030D06E0EF66E080EF76E81EC05F029D0C8
:103250007E0EF66E080EF76E81EC05F022D08C0E15
:10326000F66E080EF76E81EC05F01BD09C0EF66E24
:10327000080EF76E81EC05F014D0AE0EF66E080E57
:10328000F76E81EC05F00DD0BE0EF66E080EF76EEF
:1032900081EC05F006D0D00EF66E080EF76E81ECCC
:1032A00005F0DA0EF66E080EF76E81EC05F016EFFB
:1032B00007F042EC07F03650800802E2B4EC06F06A
:1032C000AB8EAB8889EF07F00801FB6BFB511D0843
:1032D00006E30001F6EC07F00801FB2BF7D744C02A
:1032E000DBF172A2FED78C928C90DE0EF66E080E89
:1032F000F76E070EFC6F00014AEF08F0EA0EF66E5B
:10330000080EF76E60EF08F00D0E9EA8FED7AD6EAA
:103310000A0E9EA8FED7AD6E04000101FBA504D0E5
:10332000000172EF08F00101FBA104D0FB91000144
:10333000F6EC07F0000111D4040103A109D00391B8
:103340009D9A04003C0E006E002EFED700009D8862
:1033500003A30AD0039304003C0E006E002EFED798
:103360000000000183EC07F00101FEA104D0FE91F2
:0C33700000011BD601010001CFD70300B3
:020000040030CA
:0E00000000231E3F003F81000FC00FE00F40A5
:00000001FF
;PIC18F46K22
;CRC=5EC9  CREATED="13-Dec-15 13:40"
