:0400000055EF10F0B8
:0800080065EF00F000000000AC
:100010000000000000000000046ED8CF05F0E0CF23
:1000200006F00001E9CF0CF0EACF07F0E1CF08F0CD
:10003000E2CF09F0D9CF0AF0DACF0BF0F3CF12F00C
:10004000F4CF13F0FACF14F0F5CF15F0F6CF16F089
:10005000F7CF17F000C00EF001C00FF002C010F093
:1000600003C011F0F2AA38EF00F0F2B433EF02F05F
:100070009DAA3EEF00F09EBAA5EF03F00EC000F07F
:100080000FC001F010C002F011C003F00CC0E9FF76
:1000900007C0EAFF078E08C0E1FF09C0E2FF0AC0FF
:1000A000D9FF0BC0DAFF12C0F3FF13C0F4FF14C076
:1000B000FAFF15C0F5FF16C0F6FF17C0F7FF045092
:1000C00006C0E0FF05C0D8FF10001A6ED8CF1BF0A5
:1000D000E0CF1CF00001E9CF22F0EACF1DF0E1CF24
:1000E0001EF0E2CF1FF0D9CF20F0DACF21F0F3CF0E
:1000F00028F0F4CF29F0FACF2AF0F5CF2BF0F6CF85
:100100002CF0F7CF2DF000C024F001C025F002C084
:1001100026F003C027F09DA291EF00F09EB24CEFB5
:1001200002F024C000F025C001F026C002F027C074
:1001300003F022C0E9FF1DC0EAFF1D8E1EC0E1FFD3
:100140001FC0E2FF20C0D9FF21C0DAFF28C0F3FFA3
:1001500029C0F4FF2AC0FAFF2BC0F5FF2CC0F6FF20
:100160002DC0F7FF1A501CC0E0FF1BC0D8FF1000C5
:10017000F76A800FF66E010EF7220900F5501200A3
:100180000000060701020405F76A980FF66E010EDB
:10019000F7220900F550120000C1814001C08041E2
:1001A00001C0804100C1814001C0804100C1814047
:1001B00000C1814001C0804101C0804100C1814037
:1001C00000C1814001C0804100C1814001C0804127
:1001D00001C0804100C1814001C0804100C1814017
:1001E00000C1814001C0804100C1814001C0804107
:1001F00001C0804100C1814000C1814001C08041F7
:1002000001C0804100C1814001C0804100C18140E6
:1002100000C1814001C0804101C0804100C18140D6
:1002200000C1814001C0804100C1814001C08041C6
:1002300001C0804100C1814000C1814001C08041B6
:1002400001C0804100C1814001C0804100C18140A6
:1002500000C1814001C0804100C1814001C0804196
:1002600001C0804100C1814001C0804100C1814086
:1002700000C1814001C0804101C0804100C1814076
:1002800000C1814001C0804100C1814001C0804166
:1002900001C0804100C18140F76AA80FF66E020ECE
:1002A000F7220900F550120000C0C101C30302C2C9
:1002B000C60607C705C5C404CC0C0DCD0FCFCE0EA6
:1002C0000ACACB0BC90908C8D81819D91BDBDA1A16
:1002D0001EDEDF1FDD1D1CDC14D4D515D71716D686
:1002E000D21213D311D1D010F03031F133F3F232F6
:1002F00036F6F737F53534F43CFCFD3DFF3F3EFE66
:10030000FA3A3BFB39F9F83828E8E929EB2B2AEAD5
:10031000EE2E2FEF2DEDEC2CE42425E527E7E62645
:1003200022E2E323E12120E0A06061A163A3A262B5
:1003300066A6A767A56564A46CACAD6DAF6F6EAE25
:10034000AA6A6BAB69A9A86878B8B979BB7B7ABA95
:10035000BE7E7FBF7DBDBC7CB47475B577B7B67605
:1003600072B2B373B17170B0509091519353529275
:1003700096565797559594549C5C5D9D5F9F9E5EE5
:100380005A9A9B5B99595898884849894B8B8A4A55
:100390004E8E8F4F8D4D4C8C4484854587474686C5
:1003A0008242438341818040232072656164696E8B
:1003B00067207374617274696E67202E2E2E0000A0
:1003C00020636F6D706C65746500232073657475B0
:1003D000705F74696D65725F3020737461727469E7
:1003E0006E67202E2E2E0D0A000023207365747573
:1003F000705F74696D65725F3020636F6D706C65DE
:1004000074650D0A00002320656E61626C655F698A
:100410006E746572727570747328474C4F42414C0C
:1004200029207374617274696E67202E2E2E0D0A56
:1004300000002320656E61626C6520696E746572D0
:10044000727570747320636F6D706C6574650D0ADE
:100450000000F29A0201E35304E0D76AD66AF294EC
:10046000F28A000112000101AE5102080AE1AF5305
:1004700008E1B05306E1ADB104D0020EB25FAD8128
:1004800001D0AD91B069AF69AE6B0201E36B0001C1
:10049000E0DFF2943EEF00F00201E5A10CD0010193
:1004A000983D05D0993D03D0020105D00101982B5C
:1004B000D8B4992B0201E5A50CD001019A3D05D0D5
:1004C0009B3D03D0020105D001019A2BD8B49B2B90
:1004D0000201E5A90CD001019C3D05D09D3D03D052
:1004E000020105D001019C2BD8B49D2B0201E5939C
:1004F00081B0E583E5B33DD00101ADB302D0020187
:1005000038D05E2AD8B45F2A010E6426D8B0652A96
:10051000D8B4662AD8B4672AADA523D00201E591E4
:1005200099C14DF098C14CF04D50535C08E303E184
:1005300052504C5C04E24DC053F04CC052F0595044
:100540004D5C0DE303E14C50585C09E24C3C03D098
:100550004D3C01D004D04DC059F04CC058F00101C1
:10056000AD95ADB506D0996B986B0201E58101019F
:10057000AD850101AD930201E5A303D00101AD8377
:100580000201E59781B2E587E5B73DD00101ADB73E
:1005900002D0020138D0602AD8B4612A010E682640
:1005A000D8B0692AD8B46A2AD8B46B2AADA923D0A6
:1005B0000201E5959BC14FF09AC14EF04F50555C3A
:1005C00008E303E154504E5C04E24FC055F04EC0C6
:1005D00054F05B504F5C0DE303E14E505A5C09E26E
:1005E0004E3C03D04F3C01D004D04FC05BF04EC016
:1005F0005AF00101AD99ADB906D09B6B9A6B02011F
:10060000E5850101AD890101AD970201E5A703D0A0
:100610000101AD870201E59B81B4E58BE5BB3DD0CF
:100620000101ADBB02D0020138D0622AD8B4632ADE
:10063000010E6C26D8B06D2AD8B46E2AD8B46F2AB1
:10064000ADAD23D00201E5999DC151F09CC150F0A0
:100650005150575C08E303E15650505C04E251C02E
:1006600057F050C056F05D50515C0DE303E150501F
:100670005C5C09E2503C03D0513C01D004D051C035
:100680005DF050C05CF00101AD9DADBD06D09D6B2D
:100690009C6B0201E5890101AD8D0101AD9B020159
:1006A000E5AB03D00101AD8B0201B82BB8510A08AC
:1006B00004E1B86B0101AA8502019E92000191EF4D
:1006C00000F09EAAFED7ABCF35F0AECF01F035A239
:1006D00002D0AB98AB881200959C8C9C080E016EE2
:1006E00000D00000018E10D0019E0201E333000112
:1006F000D8B08C8CD8A08C9C018C06D0019C012E8B
:10070000F4D700D000008C8C610EE96EE92EFED784
:1007100000D0000001BEE8D701BCF0D712000101F3
:10072000B0510201E319E46F036AE45100012CDDCA
:10073000016E0101AF510118B06F036A0201E4516B
:100740000001AADDE8CFAFF11200BBDF01C0E2F289
:1007500001018EA106D0E2C2E3F20001BDDF2DD07F
:100760000101ADB12BD0AE5308E1B069AF69E2C26F
:10077000B1F1AE2BB26BB46B17D0AE2D04D0E2C288
:10078000B3F1AE2B11D0AE5102080EE1B23D02D052
:10079000FE0EB26FB50EB225E96E010EEA6ED8B04C
:1007A000EA2AE2C2EFFFB22BE2C2E3F20001B7DFB6
:1007B000010E0201E36F00014CDE01019E9A00016F
:1007C0003EEF00F02320706943616D6572615765EB
:1007D0006174686572582025730D0A0032372D4AFE
:1007E000756C2D3135002320726573746172745FEE
:1007F000636175736528293D257520005744545F52
:1008000054494D454F5554004D434C525F46524F4D
:100810004D5F534C454550004D434C525F46524F3F
:100820004D5F52554E004E4F524D414C5F504F5709
:1008300045525F55500042524F574E4F55545F52EC
:1008400045535441525400005744545F46524F4D53
:100850005F534C454550000052455345545F494E47
:10086000535452554354494F4E00756E6B6E6F771B
:100870006E2100000D0A00002320726561645F7024
:100880006172616D5F66696C65282920737461729D
:1008900074696E67202E2E2E000020636F6D706CC1
:1008A0006574650D0A00232077726974655F64655D
:1008B0006661756C745F706172616D5F66696C65AD
:1008C0002829207374617274696E67202E2E2E00A1
:1008D00020636F6D706C6574650D0A0023206D6F69
:1008E000646275735F696E6974282920737461721C
:1008F00074696E67202E2E2E000020636F6D706C61
:100900006574650D0A002320627269646765645F1F
:1009100075617274733D25750D0A00000201DD5189
:10092000DF03F3CF01F0F4CF00F0E003F350002633
:10093000DE51DF03F3500020026E00011200C150AF
:10094000C00B1709C16EC050C00B3D09C06EC08EF0
:10095000C2802F0E926EDF0E936EA20E946E840EE6
:10096000956E96809682968496960101A96BAA91BF
:10097000AA93AA95AB69AC690201C36BC351020883
:1009800056E3036AC3C202F0D8900236033602501F
:100990004C0FE96E000E0320EA6EEC6AED52EF6A2E
:1009A000036AC3C202F0D890023603360250520FD7
:1009B000E96E000E0320EA6EEC68ED52EF68036A00
:1009C000C3C202F0D890023603360250580FE96EC7
:1009D000000E0320EA6EEC6AED52EF6A036AC3C2AE
:1009E00002F0D8900236033602505E0FE96E000E18
:1009F0000320EA6EEC6AED52EF6ADE6BC3C2DDF2F1
:100A0000E06B040EDF6F000189DF0150640FE96EB7
:100A1000000E0220EA6EEE52EE52EC6AED52EF6AE0
:100A2000ED52EF6AED52EF6A0201C32BA7D7010125
:100A3000826B816B846B836B866B856B886B876B3A
:100A40008A6B896B8C6B8B6B806B8D6B8E91906BD3
:100A50008F6B49C093F148C092F145C095F144C0F5
:100A600094F1976B966BF19CF19AF198000E050941
:100A7000CA6E4A0ECB6E9D82000196EF10F00900FF
:100A8000F6CFC5F2F7CFC6F2196AF2BC198CF29C08
:100A9000F2BE198EF29EF5CFE3F21EDE19BCF28C87
:100AA00019BEF28EC5C2F6FFC6C2F7FF0201C42FFF
:100AB00001D002D00001E3D7000112000900F55275
:100AC00017E0F6CFD5F2F7CFD6F2196AF2BC198C3F
:100AD000F29CF2BE198EF29EF5CFE3F2FDDD19BC59
:100AE000F28C19BEF28ED5C2F6FFD6C2F7FFE6D75A
:100AF00012000201C751016AC65D03E2C6C200F0DE
:100B00000CD0006A080EC86FC6370036C751005CAB
:100B1000D8B0006E0136C82FF7D70001120001507F
:100B2000C4C2C6F2640E0201C76F0001E2DF00C05A
:100B3000C4F20150300E08E10201C5A31AD0C5B7B6
:100B400018D0C5B9200E04D00201C597C599C5813A
:100B50000126196AF2BC198CF29CF2BE198EF29E23
:100B600001C0E3F20001B8DD19BCF28C19BEF28EAF
:100B70000201C4C2C6F20A0EC76F0001BADF00C08C
:100B8000C4F20150300E08E10201C5B715D0C5A16D
:100B900013D0C5B9200E00010126196AF2BC198CC8
:100BA000F29CF2BE198EF29E01C0E3F295DD19BCF3
:100BB000F28C19BEF28E0201300EC427196AF2BC03
:100BC000198CF29CF2BE198EF29EC4C2E3F20001AF
:100BD00083DD19BCF28C19BEF28E12000201CC6BBF
:100BE000CBC203F0CA51D8B4CB07CA07CD6F03C03C
:100BF000CEF2CD5302E1CE5333E0C9C203F0C85167
:100C0000E96E03C0EAFFC751036EC651C62BD8B4C4
:100C1000C72BCF6F03C0D0F2F2CFD1F2F29CF29E7D
:100C2000CFC2A9FFA69CA69EA680A850D1BDF28CDB
:100C3000D1BFF28EEF6EC9C203F0C851E96E03C096
:100C4000EAFFEFCFCDF2CCC2DEF2CDC2DFF2DE5151
:100C5000DF19016E01C0CCF2C82BD8B4C92BC0D7A4
:100C6000CCC201F00001D6EF06F00201DC6BDBC262
:100C700003F0DA51D8B4DB07DA07DD6F03C0DEF228
:100C8000DD5302E1DE533DE0D9C203F0D851E96EF5
:100C900003C0EAFFEFCFDDF2DCC2DEF2DDC2DFF23D
:100CA000DE51DF19016E01C0DCF2D751036ED6515F
:100CB000D62BD8B4D72BDD6F03C0DEF2D951036E2B
:100CC000D851D82BD8B4D92BE96E03C0EAFFEFCFA7
:100CD000DFF2DDC2A9FFDFC2A8FFA69CA69EA68404
:100CE000F250006EF29CF29E0F01550EA76EAA0EF6
:100CF000A76EA682A6B2FED7A6940050F2120201F9
:100D0000B6D7DCC201F0000196EF06F00201D56B08
:100D1000360ED46FD76B020ED66FD5C2D9F2D4C2BD
:100D2000D8F2DB6B160EDA6F00019FD701C0D3F249
:100D3000A96AD3C2A8FFA69CA69EA684F250006E04
:100D4000F29CF29E0F01550EA76EAA0EA76EA68208
:100D5000A6B2FED7A6940050F21200011200960E21
:100D60000101A96F3668500E386E260E3A6E940E49
:100D7000396E3C6A140E3B6E3D6A010E3F6E2E0EBC
:100D80003E6E020E406E0001C1DF12000201C56B13
:100D9000360EC46FC76B020EC66FC5C2C9F2C4C29D
:100DA000C8F2CB6B160ECA6F000118D701C0C3F290
:100DB000F2CFC4F2F29CF29EA96AA69CA69EA680DF
:100DC000A8500201C4BDF28CC4BFF28EC35D03E023
:100DD0000001C5DF0201000142EF11F09EAA0CD014
:100DE000A80EF66E030EF76E69DE6BDCC00EF66EB3
:100DF000030EF76E63DEF2D79D8A1200EFDFCA0E94
:100E0000F66E030EF76E5ADEC60ED56EEA0EF66E5D
:100E1000030EF76E53DE060EF66E040EF76E4EDE10
:100E2000C00EF212320EF66E040EF76E47DE63EF5E
:100E300011F00101802B80510F0801E2806B02014B
:100E4000C36BC3510708D8A082D0C32D28D0DE6B56
:100E5000C3C2DDF2E06B200EDF6F00015FDD02C078
:100E600003F00150340F0201C46F000E0220C56F61
:100E7000036A010180C102F0D890023603360250A5
:100E80000201C425016EC551032201504C0FE96EC9
:100E9000000E0320EA6EEC6AED52EF6A56D0036A48
:100EA000C3510001B8EC00F00201C46FC435006EFC
:100EB0000036FC0E0016C250C30B0010C26E0400B8
:100EC000020E006E002EFED70000DE6BC3C2DDF204
:100ED000E06B200EDF6F000121DD02C003F0015046
:100EE000340F0201C46F000E0220C56F036A0101B6
:100EF00080C102F0D8900236033602500201C425A8
:100F0000016EC551032201504C0FE96E000E032003
:100F1000EA6EC282C2B2FED7C3CFEFFFC4CFECFFEE
:100F2000036AC3C202F0D890023603360250700F33
:100F3000E96E000E0320EA6EEC6AED52EF6A0400DF
:100F4000020E006E002EFED70000C32B7AD70001E0
:100F500012000201DE6BD7C2DDF2E06B200EDF6F04
:100F60000001DCDC02C003F00150800F016E000EB6
:100F7000032201C0DBF2020103C0DCF2D96BD86BA3
:100F8000DA6BDA510F0811E3D890DA35036ADB2502
:100F9000E96EDC510320EA6EECCF03F0ED52EF5026
:100FA000D8270350D923DA2BECD7080ED825DD6FCC
:100FB000000ED921DE6FDE31036EDD31026E0332A9
:100FC000023203320232033202320F0E031602C023
:100FD00001F003C002F0000112000101AA95D890AF
:100FE0000201BE35C36FBF35C46F000E0101ACAB4B
:100FF000010E0201C313C3C2BEF2C451E009BF6FA8
:10100000BE5306E1BF51F00803E10101906B8F6B05
:101010000101983D04D0993D02D04D6A4C6A9A3D39
:1010200004D09B3D02D04F6A4E6A9C3D04D09D3D4A
:1010300002D0516A506A81CFABF182CFACF18EA160
:1010400002D08B8406D0A95302E18B9402D08B840A
:10105000A9078B3D03D08C3D01D003D08B2BD8B496
:101060008C2B0201BC2BD8B4BD2BBC51E80829E164
:10107000BD51030826E1BD6BBC6B01018F3D03D060
:10108000903D01D003D08F2BD8B4902B3E5202E17B
:101090003F5207E03F50905D04E303E18F513E5C17
:1010A00000E20201B92BB9513C080BE1B96B010117
:1010B000893D03D08A3D01D003D0892BD8B48A2B37
:1010C0000201C03D0AD0C13D08D0D76B000141DF0D
:1010D00002C0C1F201C0C0F202014750C15D12E37B
:1010E00003E1C051465C0EE20101925302E19353C9
:1010F00005E09251D8B49307920702D0010E916F88
:1011000005D0020149C093F148C092F10201C151DA
:10111000435C11E303E14250C05D0DE201019453D1
:1011200002E1955305E09451D8B49507940701D096
:10113000916B06D0020145C095F144C094F10101C4
:10114000AAA304D0AA930201BB6BBA6B0201BA2B0B
:10115000D8B4BB2B3B50BA5D0AE13C50BB5D07E104
:10116000BB6BBA6B0101AA810201C169C0690101AF
:10117000965302E1975304E09651D8B49707960727
:101180008B800001B6EF11F00101ADB104D0000E6B
:10119000016E0AD006D0B3AF04D0B5C1B4F1010ED0
:1011A000B26FAD91010E016E00013EEF0FF0020132
:1011B000CB511F080CE1CC514E0809E1CD5120085C
:1011C00006E1CE514E0803E1010E016E1CD0CC5158
:1011D00002080FE2FF0A03E1CB51E7080AE2CE5111
:1011E000030807E303E1CD51F30803E3010E016EA9
:1011F0000AD0CE5306E1CD51340803E3010E016E4F
:1012000002D0000E016E00017AEF0FF09EA8FED70B
:10121000AD6E0FEF09F00201D5510001F7D7196A41
:10122000F2BC198CF29CF2BE198EF29ED5C2E3F28A
:101230008FEC03F019BCF28C19BEF28E0400080E7C
:10124000006E002EFED7000012000101B069AF69E8
:10125000AD919D9A04001E0E006E002EFED7000078
:10126000D3C2D5F20001D7DFD4C2D5F2D4DF120049
:10127000ACA2FED747EF09F0B0C1D4F2AFC1D3F2B0
:10128000D4C2D5F2C8DFD3C2D5F2C5DFF1D704008E
:101290001E0E006E002EFED70000A0DD0101B06919
:1012A000AF69000112000201CA518009CD6FCBC2A3
:1012B000CEF2C9C2D3F2D46F0001C7DFCCC2D5F2DF
:1012C000AADFDADF1200F29CF29EF2BEFDD7020125
:1012D000DE6BD7C2DDF2E06B040EDF6F00018EEC37
:1012E00004F002C003F00150640FE96E000E02200A
:1012F000EA6EEFCF00F0ECCF01F0ECCF02F0ECCFD4
:1013000003F003C0DBF202C0DAF201C0D9F200C080
:10131000D8F2C00EF212D8C200F0D9C201F0DAC27F
:1013200002F0DBC203F01200F29CF29EF2BEFDD787
:101330005F6A5E6A616A606A636A626A5368526879
:101340005568546857685668596A586A5B6A5A6A99
:101350005D6A5C6A01018C6B8B6BC00EF21200013E
:1013600094EF0DF0F29CF29EF2BEFDD7676A666ABA
:10137000656A646A6B6A6A6A696A686A6F6A6E6AD1
:101380006D6A6C6AC00EF21299EF0DF00101826B6A
:10139000816B846B836B866B856B0001B0EF0DF006
:1013A0000201D551006ED651036E035005E1005283
:1013B0000001D8B4FDD10201035006E1010E005C2A
:1013C0000001D8B4FAD10201035006E1020E005C1C
:1013D0000001D8B4F7D10201035006E1030E005C0E
:1013E0000001D8B4F4D10201035006E1040E005C00
:1013F0000001D8B4F1D10201035006E1050E005CF2
:101400000001D8B4FBD10201035006E1060E005CD6
:101410000001D8B4F9D10201035006E1070E005CC7
:101420000001D8B4F6D10201035006E1080E005CB9
:101430000001D8B4F3D10201035006E1090E005CAB
:101440000001D8B4F0D10201035006E10A0E005C9D
:101450000001D8B4EDD10201035006E10B0E005C8F
:101460000001D8B4F8D10201035006E10C0E005C73
:101470000001D8B4F6D10201035006E10D0E005C64
:101480000001D8B4F3D10201035006E10E0E005C56
:101490000001D8B4F0D10201035006E10F0E005C48
:1014A0000001D8B4EDD10201035006E1100E005C3A
:1014B0000001D8B4EAD10201035006E1110E005C2C
:1014C0000001D8B4F5D10201035006E1120E005C10
:1014D0000001D8B4F3D10201035006E1130E005C01
:1014E0000001D8B401D20201035006E1140E005CE1
:1014F0000001D8B400D20201035006E1150E005CD1
:101500000001D8B4FDD10201035006E1160E005CC3
:101510000001D8B40BD20201035006E1170E005CA3
:101520000001D8B40BD20201035006E1180E005C92
:101530000001D8B408D20201035006E1190E005C84
:101540000001D8B416D20201035006E11A0E005C65
:101550000001D8B416D20201035006E11B0E005C54
:101560000001D8B413D20201035006E11C0E005C46
:101570000001D8B421D20201035006E11D0E005C27
:101580000001D8B421D20201035006E11E0E005C16
:101590000001D8B41ED20201035006E11F0E005C08
:1015A0000001D8B42BD20201035006E1200E005CEA
:1015B0000001D8B42BD20201035006E1210E005CD9
:1015C0000001D8B428D20201035006E1220E005CCB
:1015D0000001D8B436D20201035006E1230E005CAC
:1015E0000001D8B436D20201035006E1240E005C9B
:1015F0000001D8B433D20201035006E1250E005C8D
:101600000001D8B441D20201035006E1260E005C6D
:101610000001D8B441D20201035006E1270E005C5C
:101620000001D8B43ED20201035006E1280E005C4E
:101630000001D8B44CD20201035006E1290E005C2F
:101640000001D8B44CD20201035006E12A0E005C1E
:101650000001D8B449D20201035006E12B0E005C10
:101660000001D8B44DD20201035006E12C0E005CFB
:101670000001D8B44CD20201035006E12D0E005CEB
:101680000001D8B44AD20201035006E12E0E005CDC
:101690000001D8B448D20201035006E12F0E005CCD
:1016A0000001D8B445D20201035006E1300E005CBF
:1016B0000001D8B442D20201035006E1310E005CB1
:1016C0000001D8B440D20201035006E1320E005CA2
:1016D0000001D8B43ED20201035006E1330E005C93
:1016E0000001D8B43CD20201030E035C06E1E80E0F
:1016F000005C0001D8B438D20201030E035C06E19D
:10170000E90E005C0001D8B435D20201030E035C7F
:1017100006E1EA0E005C0001D8B431D20201030EEA
:10172000035C06E1EB0E005C0001D8B42DD202018F
:10173000030E035C06E1EC0E005C0001D8B429D274
:101740000201030E035C06E1ED0E005C0001D8B45B
:1017500025D20201030E035C06E1EE0E005C0001DF
:10176000D8B421D20201030E035C06E1EF0E005C47
:101770000001D8B41ED20201030E035C06E1F00E94
:10178000005C0001D8B41AD20201030E035C06E12A
:10179000F10E005C0001D8B417D20201030E035C05
:1017A00006E1F20E005C0001D8B413D2020118D297
:1017B0005EC001F05FC002F018D24CC001F04DC015
:1017C00002F013D252C001F053C002F00ED258C042
:1017D00001F059C002F009D20201D76B000173DD9C
:1017E00003C0B7F202C0B6F201C0B5F200C0B4F255
:1017F000B4C201F0B5C202F00001F7D1B6C201F0E7
:10180000B7C202F00001F1D160C001F061C002F086
:10181000ECD14EC001F04FC002F0E7D154C001F04E
:1018200055C002F0E2D15AC001F05BC002F0DDD138
:10183000010E0201D76F000146DD03C0B7F202C0FE
:10184000B6F201C0B5F200C0B4F2B4C201F0B5C244
:1018500002F00001CAD1B6C201F0B7C202F0000125
:10186000C4D162C001F063C002F0BFD150C001F02A
:1018700051C002F0BAD156C001F057C002F0B5D144
:101880005CC001F05DC002F0B0D1020E0201D76F62
:10189000000119DD03C0B7F202C0B6F201C0B5F213
:1018A00000C0B4F2B4C201F0B5C202F000019DD193
:1018B000B6C201F0B7C202F0000197D1036A01017C
:1018C00080C102F0D890023603360250800FE96ED4
:1018D000000E0320EA6EECCF03F0ED52EFCF01F0E3
:1018E00003C002F0000181D10201D76B0001A9EC15
:1018F00007F002507AD170C001F071C002F075D1CA
:10190000036A010180C102F0D8900236033602500A
:10191000A00FE96E000E0320EA6EECCF03F0ED524B
:10192000EFCF01F003C002F000015FD1010E020110
:10193000D76F0001A9EC07F0025057D172C001F037
:1019400073C002F052D1036A010180C102F0D89045
:10195000023603360250C00FE96E000E0320EA6E15
:10196000ECCF03F0ED52EFCF01F003C002F0000125
:101970003CD1020E0201D76F0001A9EC07F0025022
:1019800034D174C001F075C002F02FD1036A010197
:1019900080C102F0D890023603360250E00FE96EA3
:1019A000000E0320EA6EECCF03F0ED52EFCF01F012
:1019B00003C002F0000119D1030E0201D76F00012C
:1019C000A9EC07F0025011D176C001F077C002F007
:1019D0000CD1036A010180C102F0D89002360336AF
:1019E00002C0E9FF010E0324EA6EECCF03F0ED52D2
:1019F000EFCF01F003C002F00001F7D0040E0201A6
:101A0000D76F0001A9EC07F00250EFD078C001F0C9
:101A100079C002F0EAD0036A010180C102F0D890D7
:101A2000023603360250200FE96E010E0320EA6EE3
:101A3000ECCF03F0ED52EFCF01F003C002F0000154
:101A4000D4D0050E0201D76F0001A9EC07F00250B7
:101A5000CCD07AC001F07BC002F0C7D0036A01018C
:101A600080C102F0D890023603360250400FE96E72
:101A7000010E0320EA6EECCF03F0ED52EFCF01F040
:101A800003C002F00001B1D0060E0201D76F0001C1
:101A9000A9EC07F00250A9D07CC001F07DC002F093
:101AA000A4D0036A010180C102F0D8900236033647
:101AB0000250600FE96E010E0320EA6EECCF03F0D6
:101AC000ED52EFCF01F003C002F000018ED0070EFF
:101AD0000201D76F0001A9EC07F0025086D07EC04A
:101AE00001F07FC002F081D0010188C103F087516D
:101AF000872BD8B4882B016E03C002F0000175D08B
:101B00008C7C8BC101F08CC102F000016ED089C1C8
:101B100001F08AC102F0000168D08FC101F090C1CC
:101B200002F0000162D000D4000E016E026E5DD0A2
:101B300019D4000E016E026E58D081C101F082C12D
:101B400002F0000152D083C101F084C102F0000113
:101B50004CD085C101F086C102F0000146D016D4F8
:101B6000000E016E026E41D0036A38C001F003C05E
:101B700002F03BD039C001F03AC002F036D0500E2E
:101B8000016E000E026E31D0570E016E000E026E15
:101B90002CD0580E016E000E026E27D0010E016E81
:101BA000000E026E22D0036A36C001F003C002F0BC
:101BB0001CD03BC001F03CC002F017D0036A3DC00E
:101BC00001F003C002F011D03EC001F03FC002F0AE
:101BD0000CD0036A40C001F003C002F006D002013D
:101BE000FF0E016E026E000100D01EEF0EF0CAC2A1
:101BF000D3F2C9C2D4F225EC09F0D8900201CD3558
:101C0000D36FCE35D46FD3C2D5F200010BEC09F0FF
:101C10000201D06BCF6BD051CE5D25E303E1CD51F6
:101C2000CF5D21E2CF51CB25D36FD051CC21D46FE2
:101C3000D66FD3C2D5F20001D0EF09F002C0D2F2C4
:101C400001C0D1F2D2C2D3F2D2C2D5F20BEC09F06C
:101C5000D1C2D3F2D1C2D5F20BEC09F00201CF2BE5
:101C6000D8B4D02BD8D700013CEC09F09BEF0FF093
:101C700001018D531BE00201CF51E80809E1D05169
:101C8000030806E1D1C238F0000E016EABD00DD0D2
:101C9000CF51E9080AE1D051030807E1D2C23AF076
:101CA000D1C239F0000E016E9DD001010201CF5169
:101CB000006ED051036E030E035C05E1EE0E005C76
:101CC000000132E00201030E035C05E1EF0E005C4F
:101CD00000013AE00201030E035C05E1F00E005C36
:101CE00000013AE00201030E035C05E1F10E005C25
:101CF00000013EE00201030E035C05E1F20E005C10
:101D000000013CE00201070E035C05E1CF0E005C20
:101D1000000142E002014E0E035C05E11F0E005C73
:101D2000000147E0020159D00201D13D02D0D25357
:101D300008E0D25303E1D1517F0803E2030E016EA4
:101D400051D0D1C236F04CD00101AA83D2C23CF0AE
:101D5000D1C23BF0020144D00201D25303E1D15180
:101D6000010803E2030E016E3DD0D1C23DF038D030
:101D7000D2C23FF0D1C23EF0020132D00201D153B3
:101D800002E1D25303E0D251000803E2030E016ED8
:101D900029D0D1C240F024D00201D12D02D0D2539B
:101DA00003E0030E016E1ED0000186EC06F0020176
:101DB00017D00201D1510A0803E1D251070806E009
:101DC00001018D6B030E016E02010CD0010E0101A9
:101DD0008D6FC80EA96F020103D0020E016E02D0F2
:101DE000000E016E00011200CBC2D3F2060E0201FA
:101DF000D46F000125EC09F0CDC2D0F2CDC2D5F2EE
:101E00000BEC09F0CCC2D0F2CCC2D5F20BEC09F04D
:101E1000CFC2D0F2CFC2D5F20BEC09F0CEC2D0F2D5
:101E2000CEC2D5F20BEC09F03CEC09F0D4EF0FF088
:101E3000C9C2D3F2100E0201D46F000125EC09F0E3
:101E4000CBC2CEF2CBC2D5F20BEC09F0CAC2CEF2B5
:101E5000CAC2D5F20BEC09F0CDC2CEF2CDC2D5F29A
:101E60000BEC09F0CCC2CEF2CCC2D5F20BEC09F0EF
:101E70003CEC09F035EF10F0C4EF08F00152D8B493
:101E800011D1363C01D006D036500101B15DD8A445
:101E9000FFD000010101813D03D0823D01D003D07C
:101EA000812BD8B4822B140EA96FB351030A000101
:101EB00008E0070A06E0020A40E0160AD8B476D025
:101EC000D6D0B5C1C4F2B6C1C3F2B7C1C6F2B8C16B
:101ED000C5F20201C551C325C96FC651C421CA6FDD
:101EE000C4C2CCF2C3C2CBF2CE6FC9C2CDF20001E4
:101EF000D7EF08F0015212E1B1C1C9F20201CB6B78
:101F0000B3C1CAF2020ECC6F000153EC09F001011B
:101F1000866B020E856FA96B0FD00001B3C1C9F2A9
:101F2000B1C1CAF2C4C2CCF2C3C2CBF2C6C2CEF2B5
:101F3000C5C2CDF25CD60101AAD0B5C1C4F2B6C10A
:101F4000C3F2B7C1CAF2B8C1C9F2C4C2D0F2C3C2A7
:101F5000CFF2B7C1D2F2B8C1D1F28ADE01C0C7F266
:101F60000201C75311E0B1C1C9F2CB6BB3C1CAF2D0
:101F7000C7C2CCF2000153EC09F00101866BC7C265
:101F800085F1A96B12D00201B7C1CAF2B8C1C9F27A
:101F9000B1C1CBF2C4C2CDF2C3C2CCF2B7C1CFF251
:101FA000B8C1CEF2000120D7010171D0B5C1C4F291
:101FB000B6C1C3F2B7C1C6F2B8C1C5F20201C86B5F
:101FC000C65303E1C551C85D42E2C851C325C96F7C
:101FD000000EC421CA6FD890C835050FB50FE96E41
:101FE000010EEA6ED8B0EA2AEFCFCBF2D890C8350E
:101FF000060FB50FE96E010EEA6ED8B0EA2AEFCFF0
:10200000CCF2CBC2CEF2CCC2CDF2CAC2D0F2C9C29F
:10201000CFF2CBC2D2F2CCC2D1F2000129DE01C094
:10202000C7F20201C75311E0B1C1C9F2CB6BB3C112
:10203000CAF2C7C2CCF2000153EC09F00101866B71
:10204000C7C285F1A96B020102D0C82BB9D7C7530B
:102050000CE1B1C1C9F2C4C2CBF2C3C2CAF2C6C25A
:10206000CDF2C5C2CCF20001E3D6010110D0B1C15E
:10207000C9F20201CB6BB3C1CAF2010ECC6F0001F1
:1020800053EC09F00101866B010E856FA96B0AD034
:10209000833D03D0843D01D003D0832BD8B4842B5F
:1020A000140EA96F0001BFEF11F0F86AF1949F823E
:1020B0009F9AD08E078EEA6AE96A356AB8960C0E46
:1020C000AF6EA60EAC6E900EAB6E959C8C8C010123
:1020D000AD91AE6B0201B86B0101AD93AD95AD97BB
:1020E000AD99AD9BAD9D0201B96BBB6BBA6BBD6B7E
:1020F000BC6BBF6BBE6BC150C00B0F09C16E070E2E
:10210000B46E2F6A306AB46BB56BB66BB76BC06BCD
:10211000C16BD0500F0BD0A8000ED080D082D088D9
:10212000D886D888C26F00019FEF04F0C40EF66E07
:10213000070EF76E130E0201C46F00013FEC05F0AD
:10214000DC0EF66E070EF76E5EEC05F0196AF2BC57
:10215000198CF29CF2BE198EF29E0D0E0201E36FF5
:1021600000016CEC03F019BCF28C19BEF28E196AF6
:10217000F2BC198CF29CF2BE198EF29E0A0E02017C
:10218000E36F00016CEC03F019BCF28C19BEF28E07
:10219000E60EF66E070EF76E120E0201C46F000116
:1021A0003FEC05F0C2C2C4F21B0E0201C56F000174
:1021B0008FEC05F0196AF2BC198CF29CF2BE198EF4
:1021C000F29E200E0201E36F00016CEC03F019BCDB
:1021D000F28C19BEF28E0201C251070A00010DE015
:1021E0000C0A12E0040A17E0030A1CE0020A21E0CC
:1021F0000D0A26E0030A2BE031D0FC0EF66E070E26
:10220000F76E5EEC05F030D0080EF66E080EF76E35
:102210005EEC05F029D0180EF66E080EF76E5EEC37
:1022200005F022D0260EF66E080EF76E5EEC05F075
:102230001BD0360EF66E080EF76E5EEC05F014D06D
:10224000480EF66E080EF76E5EEC05F00DD0580ED7
:10225000F66E080EF76E5EEC05F006D06A0EF66EAE
:10226000080EF76E5EEC05F0740EF66E080EF76E53
:102270005EEC05F0780EF66E080EF76E5EEC05F07B
:10228000C6EF06F09A0EF66E080EF76E5EEC05F0DD
:1022900036507F080EE2A60EF66E080EF76E5EEC64
:1022A00005F0AFEC06F0D00EF66E080EF76E5EECA1
:1022B00005F0AB8EAB88DC0EF66E080EF76E5EECAA
:1022C00005F0FEEF06F0FA0EF66E080EF76E5EEC05
:1022D00005F0000E01018EB1010E0201C36F060E62
:1022E000F66E090EF76E100EC46F00013FEC05F09C
:1022F000C3C2C4F21B0E0201C56F00018FEC05F0D2
:10230000196AF2BC198CF29CF2BE198EF29E0D0E67
:102310000201E36F00016CEC03F019BCF28C19BEF2
:10232000F28E196AF2BC198CF29CF2BE198EF29EE2
:102330000A0E0201E36F00016CEC03F019BCF28C91
:1023400019BEF28E0201C26BC2511D0806E30001E4
:1023500019EC07F00201C22BF7D741C091F104003C
:102360000101AAA504D00001EDEF07F00101AAA127
:1023700004D0AA91000119EC07F000017DD50201FB
:04238000EED7030091
:020000040030CA
:0E00000000C21E1F000781000FC00FE00F405E
:00000001FF
;PIC18F4523
;CRC=A472  CREATED="27-Jul-15 11:43"
