:080008005FEF00F000000000B2
:100010000000000000000000046ED8CF05F0E0CF23
:1000200006F00001E9CF0CF0EACF07F0E1CF08F0CD
:10003000E2CF09F0D9CF0AF0DACF0BF0F3CF12F00C
:10004000F4CF13F0FACF14F0F5CF15F0F6CF16F089
:10005000F7CF17F000C00EF001C00FF002C010F093
:1000600003C011F0F2AA38EF00F0F2B498EF01F0FB
:100070000EC000F00FC001F010C002F011C003F07C
:100080000CC0E9FF07C0EAFF078E08C0E1FF09C006
:10009000E2FF0AC0D9FF0BC0DAFF12C0F3FF13C0A2
:1000A000F4FF14C0FAFF15C0F5FF16C0F6FF17C025
:1000B000F7FF045006C0E0FF05C0D8FF1000196E1E
:1000C000D8CF1AF0E0CF1BF00001E9CF21F0EACF42
:1000D0001CF0E1CF1DF0E2CF1EF0D9CF1FF0DACF38
:1000E00020F0F3CF27F0F4CF28F0FACF29F0F5CFA6
:1000F0002AF0F6CF2BF0F7CF2CF000C023F001C090
:1001000024F002C025F003C026F09DA28BEF00F082
:100110009EB2BEEF00F023C000F024C001F025C065
:1001200002F026C003F021C0E9FF1CC0EAFF1C8ECC
:100130001DC0E1FF1EC0E2FF1FC0D9FF20C0DAFFD3
:1001400027C0F3FF28C0F4FF29C0FAFF2AC0F5FF3B
:100150002BC0F6FF2CC0F7FF19501BC0E0FF1AC0E0
:10016000D8FF1000F76A740FF66E010EF72209002F
:10017000F550120009000607010204050201BEA1A4
:100180000CD00101863D05D0873D03D0020105D08A
:100190000101862BD8B4872B0201BEA50CD001012A
:1001A000883D05D0893D03D0020105D00101882B8F
:1001B000D8B4892B0201BEA90CD001018A3D05D01B
:1001C0008B3D03D0020105D001018A2BD8B48B2BC3
:1001D00002019380BE9381B0BE83BEB325D00101DE
:1001E0009BB102D0020120D0562AD8B4572A9BA333
:1001F00013D00201BE9187C145F086C144F045503D
:100200004B5C08E303E14A50445C04E245C04BF018
:1002100044C04AF001019B939BB306D0876B866B69
:100220000201BE8101019B8301019B910201BEA3DA
:1002300003D001019B8102019382BE9781B2BE87E8
:10024000BEB725D001019BB502D0020120D0582AAB
:10025000D8B4592A9BA713D00201BE9589C147F093
:1002600088C146F047504D5C08E303E14C50465CC2
:1002700004E247C04DF046C04CF001019B979BB78C
:1002800006D0896B886B0201BE8501019B87010145
:100290009B950201BEA703D001019B8502019384B7
:1002A000BE9B81B4BE8BBEBB25D001019BB902D0E1
:1002B000020120D05A2AD8B45B2A9BAB13D002018A
:1002C000BE998BC149F08AC148F049504F5C08E3A0
:1002D00003E14E50485C04E249C04FF048C04EF084
:1002E00001019B9B9BBB06D08B6B8A6B0201BE8975
:1002F00001019B8B01019B990201BEAB03D001015F
:100300009B89020101019A2B9A510A0802E19A6B1A
:1003100098859E9200018BEF00F0F29A0201BD5386
:1003200004E0D76AD66AF294F28A0001AEEF01F0D7
:100330000101A15102080AE1A25308E1A35306E119
:100340009BBD04D0020EA55F9B8D01D09B9DA36930
:10035000A269A16B0201BD6B0001DFD7F29438EFF7
:1003600000F02320706943616D65726157656174A7
:10037000686572582025730D0A0031382D4170725E
:100380002D3135002320726573746172745F63616F
:1003900075736528293D25750D0A00000201AF51CE
:1003A000B103F3CF01F0F4CF00F0B203F350002615
:1003B000B051B103F3500020026E000112000F0192
:1003C0005C51800B02095C6FF70E5D6FC196C188AE
:1003D000C19AC050C00B0709C06EC08EC280010117
:1003E000976B989198939895988799690201AE6B4D
:1003F000AE51020856E3036AAEC202F0D89002364C
:1004000003360250440FE96E000E0320EA6EEC6AD8
:10041000ED52EF6A036AAEC202F0D890023603369C
:1004200002504A0FE96E000E0320EA6EEC68ED52AE
:10043000EF68036AAEC202F0D8900236033602506B
:10044000500FE96E000E0320EA6EEC6AED52EF6A7F
:10045000036AAEC202F0D890023603360250560F3D
:10046000E96E000E0320EA6EEC6AED52EF6AB06BA3
:10047000AEC2AFF2B26B040EB16F00018FDF01505C
:100480005C0FE96E000E0220EA6EEE52EE52EC6A4C
:10049000ED52EF6AED52EF6AED52EF6A0201AE2BB8
:1004A000A7D701017A6B796B7C6B7B6B7E6B7D6B65
:1004B000806B7F6B826B816B846B836B786B856BDE
:1004C000F19CF288F19AF086F198F088000E050907
:1004D000CA6E4A0ECB6E9D820001DEEF04F0090069
:1004E000F6CFB0F2F7CFB1F2F550A4A8FED7796EEF
:1004F000B0C2F6FFB1C2F7FF0201AF2F01D002D0A8
:100500000001EDD7000112000900F5520DE0F6CF11
:10051000AEF2F7CFAFF2F550A4A8FED7796EAEC217
:10052000F6FFAFC2F7FFF0D7ECEF04F00201B251D3
:10053000016AB15D03E2B1C200F00CD0006A080E9E
:10054000B36FB1370036B251005CD8B0006E0136DF
:10055000B32FF7D7000112000150AFC2B1F2640E01
:100560000201B26F0001E2DF00C0AFF20150300EB5
:1005700008E10201B0A30ED0B0B70CD0B0B9200E84
:1005800004D00201B097B099B08101260150A4A80F
:10059000FED7796EAFC2B1F20A0EB26F0001C6DFAC
:1005A00000C0AFF20150300E08E10201B0B70BD02D
:1005B000B0A109D0B0B9200E000101260150A4A8B5
:1005C000FED7796E0201300EAF27AF51A4A8FED737
:1005D000796E00010EEF05F00201B76BB6C203F0B1
:1005E000B551D8B4B607B507B86F03C0B9F2B85360
:1005F00002E1B95335E0B4C203F0B351E96E03C070
:10060000EAFFB251036EB151B12BD8B4B22BBA6F1D
:1006100003C0BBF2F2CFBCF2F29CF29EBBC275FFEC
:10062000BAC274FF7F9C7F9E7F807350BCBDF28CEA
:10063000BCBFF28EEF6EB4C203F0B351E96E03C0DB
:10064000EAFFEFCFB8F2B7C2BAF2B8C2BBF2BA5102
:10065000BB19016E01C0B7F2B32BD8B4B42BBED70F
:10066000B7C201F00001D4EF03F00201B86BB7C2CA
:1006700003F0B651D8B4B707B607B96F03C0BAF2E2
:10068000B95302E1BA533FE0B5C203F0B451E96E89
:1006900003C0EAFFEFCFB9F2B8C2BAF2B9C2BBF2F7
:1006A000BA51BB19016E01C0B8F2B351036EB25119
:1006B000B22BD8B4B32BB96F03C0BAF2B551036EE5
:1006C000B451B42BD8B4B52BE96E03C0EAFFEFCF19
:1006D000BBF2BAC275FFB9C274FFBBC273FF7F9C85
:1006E0007F9E7F84F250006EF29CF29E0F01550EA9
:1006F0007E6EAA0E7E6E7F827FB2FED77F94005000
:10070000F2120201B4D7B8C201F0000198EF03F071
:100710000201B16B350EB06FB36B020EB26FB1C296
:10072000B5F2B0C2B4F2B76B0F0EB66F00019DD731
:1007300001C0AFF2756A746AAFC273FF7F9C7F9E7F
:100740007F84F250006EF29CF29E0F01550E7E6E79
:10075000AA0E7E6E7F827FB2FED77F940050F21287
:100760000001C3EF03F0960E0101976F180E356E6E
:10077000500E376E260E396E940E386E436A140E84
:10078000426E0001C5D712000201B06B350EAF6F8B
:10079000B26B020EB16FB0C2B4F2AFC2B3F2B66BBD
:1007A0000F0EB56F000118D701C0AEF2F2CFAFF255
:1007B000F29CF29E756A746A7F9C7F9E7F80735064
:1007C0000201AFBDF28CAFBFF28EAE5D03E000015F
:1007D000CADF0201000117EF05F09EAAFED7ABCFDA
:1007E00034F0AECF01F034A202D0AB98AB88FCEF6E
:1007F00003F09EAA02D0F1D7FCD7949A8B9A9D8AD7
:1008000005EF04F094988B98F4D7C40ED56EC00E03
:10081000F2121EEF05F00101782B78510F0801E26A
:10082000786B0201AE6BAE51070851E3036AAE511B
:10083000000198DC0201AF6FAF35006E0036FC0E90
:100840000016C250830B0010C26E000E016EC15024
:10085000F80B0110C16EB06BAEC2AFF2B26B200EDE
:10086000B16F00019BDD02C003F00150340F0201A3
:10087000AF6F000E0220B06F036A010178C102F071
:10088000D8900236033602500201AF25016EB051F6
:1008900003220150440FE96E000E0320EA6EC2826B
:1008A000C2B2FED7C3CFEFFFC4CFECFF036AAEC224
:1008B00002F0D890023603360250680FE96E000E3F
:1008C0000320EA6EEC6AED52EF6AAE2BACD7000162
:1008D000120001019895D8900201AB35AE6FAC358E
:1008E000AF6F000E010199A7010E0201AE13AEC257
:1008F000ABF2AF51E009AC6FAB5305E1AC51F0087E
:1009000002E1010198770101863D04D0873D02D0C4
:10091000456A446A883D04D0893D02D0476A466AE8
:100920008A3D04D08B3D02D0496A486A81CF99F153
:1009300000012EEF05F0F86AF1949F82D08E078EA9
:10094000EA6AE96A346AA786190EAF6E000E7D6EF8
:10095000A60EAC6E900EAB6EB986190E7B6E000EB5
:100960007C6EA60EBA6E900EA66E01019A6B9B91DC
:100970009B939B959B979B999B9B9D6B9C6B9F6B64
:100980009E6BA06B9B9DA16B0201AC6BAB6B0F01CF
:100990005C51800B5C6F000E5D6FC196C198C19A6F
:1009A0000101886B0F015E6B5F6B2E6A2F6A02017B
:1009B000A76BA86BA96BAA6B000101D5620EF66E3E
:1009C000030EF76E130E0201AF6F000188DD7A0E81
:1009D000F66E030EF76E98D50D0EA4A8FED7796EAD
:1009E0000A0EA4A8FED7796ED0500F0BD0A8000E27
:1009F000D080D082D088D886D8880201AE6F840E8D
:100A0000F66E030EF76E120EAF6F000168DDAEC218
:100A1000AFF21B0E0201B06F00019ED50D0EA4A80F
:100A2000FED7796E0A0EA4A8FED7796EADD63550E2
:100A30007F0801E298DEAB8EAB88E4D60201AD6B95
:100A4000AD511D0805E30001E6DE0201AD2BF8D72C
:100A50000400010198A503D000013BD7010198A132
:100A600004D098910001D7DE01010201F1D7030003
:047DBC009BEF04F045
:020000040030CA
:0E0000001DDF7E7F008991000FC00FE00F40D2
:00000001FF
;PIC18F45K80
;CRC=4225  CREATED="18-Apr-15 16:10"
