:040000009BEF0FF073
:080008006BEF00F000000000A6
:100010000000000000000000046ED8CF05F0E0CF23
:1000200006F00001E9CF0CF0EACF07F0E1CF08F0CD
:10003000E2CF09F0D9CF0AF0DACF0BF0F3CF12F00C
:10004000F4CF13F0FACF14F0F5CF15F0F6CF16F089
:10005000F7CF17F000C00EF001C00FF002C010F093
:1000600003C011F0F2AA38EF00F0F2B439EF02F059
:100070009DAA3EEF00F09EBA68EF03F0A3AA44EFFA
:1000800000F0A4BA32EF03F00EC000F00FC001F090
:1000900010C002F011C003F00CC0E9FF07C0EAFF76
:1000A000078E08C0E1FF09C0E2FF0AC0D9FF0BC0FC
:1000B000DAFF12C0F3FF13C0F4FF14C0FAFF15C03B
:1000C000F5FF16C0F6FF17C0F7FF045006C0E0FFAB
:1000D00005C0D8FF10001A6ED8CF1BF0E0CF1CF07F
:1000E0000001E9CF22F0EACF1DF0E1CF1EF0E2CF10
:1000F0001FF0D9CF20F0DACF21F0F3CF28F0F4CFE2
:1001000029F0FACF2AF0F5CF2BF0F6CF2CF0F7CF6D
:100110002DF000C024F001C025F002C026F003C07D
:1001200027F09DA297EF00F09EB252EF02F024C09C
:1001300000F025C001F026C002F027C003F022C065
:10014000E9FF1DC0EAFF1D8E1EC0E1FF1FC0E2FFD8
:1001500020C0D9FF21C0DAFF28C0F3FF29C0F4FF77
:100160002AC0FAFF2BC0F5FF2CC0F6FF2DC0F7FF09
:100170001A501CC0E0FF1BC0D8FF1000F76A8C0F9C
:10018000F66E010EF7220900F5501200090006076D
:1001900001020405F76AA40FF66E010EF7220900AA
:1001A000F550120000C1814001C0804101C0804172
:1001B00000C1814001C0804100C1814000C1814037
:1001C00001C0804101C0804100C1814000C1814027
:1001D00001C0804100C1814001C0804101C0804117
:1001E00000C1814001C0804100C1814000C1814007
:1001F00001C0804100C1814001C0804101C08041F7
:1002000000C1814000C1814001C0804101C08041E6
:1002100000C1814001C0804100C1814000C18140D6
:1002200001C0804101C0804100C1814000C18140C6
:1002300001C0804100C1814001C0804101C08041B6
:1002400000C1814000C1814001C0804101C08041A6
:1002500000C1814001C0804100C1814000C1814096
:1002600001C0804100C1814001C0804101C0804186
:1002700000C1814001C0804100C1814000C1814076
:1002800001C0804101C0804100C1814000C1814066
:1002900001C0804100C1814001C0804101C0804156
:1002A00000C18140F76AB40FF66E020EF722090012
:1002B000F550120000C0C101C30302C2C60607C741
:1002C00005C5C404CC0C0DCD0FCFCE0E0ACACB0B86
:1002D000C90908C8D81819D91BDBDA1A1EDEDF1FB6
:1002E000DD1D1CDC14D4D515D71716D6D21213D3A6
:1002F00011D1D010F03031F133F3F23236F6F73756
:10030000F53534F43CFCFD3DFF3F3EFEFA3A3BFB45
:1003100039F9F83828E8E929EB2B2AEAEE2E2FEFF5
:100320002DEDEC2CE42425E527E7E62622E2E32365
:10033000E12120E0A06061A163A3A26266A6A76795
:10034000A56564A46CACAD6DAF6F6EAEAA6A6BAB05
:1003500069A9A86878B8B979BB7B7ABABE7E7FBF35
:100360007DBDBC7CB47475B577B7B67672B2B37325
:10037000B17170B0509091519353529296565797D5
:10038000559594549C5C5D9D5F9F9E5E5A9A9B5BC5
:1003900099595898884849894B8B8A4A4E8E8F4F75
:1003A0008D4D4C8C448485458747468682424383E5
:1003B00041818040232072656164696E6720737497
:1003C000617274696E67202E2E2E000020636F6D9F
:1003D000706C65746500232073657475705F746953
:1003E0006D65725F30207374617274696E67202E60
:1003F0002E2E0D0A0000232073657475705F7469DA
:100400006D65725F3020636F6D706C6574650D0A89
:1004100000002320656E61626C655F696E746572B1
:10042000727570747328474C4F42414C2920737485
:10043000617274696E67202E2E2E0D0A0000232033
:10044000656E61626C6520696E7465727275707438
:100450007320636F6D706C6574650D0A0000F29A0D
:100460000201D25304E0D76AD66AF294F28A0001FC
:10047000120001019C5102080AE19D5308E19E53BC
:1004800006E19BB104D0020EA05F9B8101D09B913D
:100490009E699D699C6B0201D26B0001E0DFF294C2
:1004A00044EF00F00201D4A10CD00101863D05D03B
:1004B000873D03D0020105D00101862BD8B4872BDC
:1004C0000201D4A50CD00101883D05D0893D03D09F
:1004D000020105D00101882BD8B4892B0201D4A9CF
:1004E0000CD001018A3D05D08B3D03D0020105D01F
:1004F00001018A2BD8B48B2B02019380D49381B055
:10050000D483D4B325D001019BB302D0020120D003
:10051000532AD8B4542A9BA513D00201D49187C181
:1005200042F086C141F04250485C08E303E1475085
:10053000415C04E242C048F041C047F001019B9594
:100540009BB506D0876B866B0201D48101019B8528
:1005500001019B930201D4A303D001019B830201FB
:100560009382D49781B2D487D4B725D001019BB7A9
:1005700002D0020120D0552AD8B4562A9BA913D004
:100580000201D49589C144F088C143F044504A5CCB
:1005900008E303E14950435C04E244C04AF043C02D
:1005A00049F001019B999BB906D0896B886B0201C8
:1005B000D48501019B8901019B970201D4A703D037
:1005C00001019B8702019384D49B81B4D48BD4BB5B
:1005D00025D001019BBB02D0020120D0572AD8B4FC
:1005E000582A9BAD13D00201D4998BC146F08AC121
:1005F00045F046504C5C08E303E14B50455C04E297
:1006000046C04CF045C04BF001019B9D9BBD06D000
:100610008B6B8A6B0201D48901019B8D01019B9B2D
:100620000201D4AB03D001019B8B0201A62BA65182
:100630000A0804E1A66B0101988502019E9200015F
:1006400097EF00F0A4AAFED7A6CF35F07ACF01F03D
:1006500035A202D0A698A68833EF03F09EA8FED755
:10066000AD6E1200EFD701C0D1F2010183A106D017
:100670000201D1510001F2DF00D00101A49A000172
:1006800044EF00F09EAAFED7ABCF35F0AECF01F01D
:1006900035A202D0AB98AB881200A4A8FED7796E21
:1006A00072EF03F001019E510201D219D36F036A68
:1006B000D35100016FDD016E01019D5101189E6F44
:1006C000036A0201D3510001EDDDE8CF9DF1120074
:1006D000D9DF01C0D1F2010183A106D00201D151BD
:1006E0000001DBD72DD001019BB12BD09C5308E139
:1006F0009E699D69D1C29FF19C2BA06BA26B17D004
:100700009C2D04D0D1C2A1F19C2B11D09C51020888
:100710000EE1A03D02D0FE0EA06FA30EA025E96E53
:10072000010EEA6ED8B0EA2AD1C2EFFFA02BD1C2E7
:10073000D2F20001B7DF010E0201D26F00018FDE9D
:1007400001019E9A000144EF00F023206272696467
:100750006765643D25750D0A0000232070694361BB
:100760006D65726157656174686572582025730DF7
:100770000A0032352D4170722D313500232072650B
:1007800073746172745F636175736528293D2575A3
:1007900020005744545F54494D454F5554004D4334
:1007A0004C525F46524F4D5F534C454550004D43B0
:1007B0004C525F46524F4D5F52554E004E4F524D78
:1007C000414C5F504F5745525F55500042524F5772
:1007D0004E4F55545F5245535441525400005744B4
:1007E000545F46524F4D5F534C45455000005245B3
:1007F0005345545F494E535452554354494F4E004C
:10080000756E6B6E6F776E2100000D0A000023205D
:10081000726561645F706172616D5F66696C6528A5
:1008200029207374617274696E67202E2E2E000069
:1008300020636F6D706C6574650D0A0023207772FC
:100840006974655F64656661756C745F706172611F
:100850006D5F66696C652829207374617274696EB6
:1008600067202E2E2E0020636F6D706C6574650DF1
:100870000A0023206D6F646275735F696E69742866
:1008800029207374617274696E67202E2E2E000009
:1008900020636F6D706C6574650D0A0023206272B1
:1008A00069646765645F75617274733D25750D0ACF
:1008B00000000201CC51CE03F3CF01F0F4CF00F0E1
:1008C000CF03F3500026CD51CE03F3500020026E2B
:1008D000000112000F015C51800B02095C6FF70EE2
:1008E0005D6FC196C188C19AC050C00B0709C06E28
:1008F000C08EC2800101976B9891989398959969E1
:100900009A690201B36BB351020856E3036AB3C29A
:1009100002F0D890023603360250410FE96E000E05
:100920000320EA6EEC6AED52EF6A036AB3C202F08A
:10093000D890023603360250470FE96E000E0320AE
:10094000EA6EEC68ED52EF68036AB3C202F0D89029
:100950000236033602504D0FE96E000E0320EA6E98
:10096000EC6AED52EF6A036AB3C202F0D890023625
:1009700003360250530FE96E000E0320EA6EEC6A54
:10098000ED52EF6ACD6BB3C2CCF2CF6B040ECE6FDB
:1009900000018FDF0150590FE96E000E0220EA6E50
:1009A000EE52EE52EC6AED52EF6AED52EF6AED5202
:1009B000EF6A0201B32BA7D70101776B766B796BD6
:1009C000786B7B6B7A6B7D6B7C6B7F6B7E6B816BEB
:1009D000806B756B826B8391856B846BF19CF19A54
:1009E000F198000E0509CA6E4A0ECB6E9D82A38A4D
:1009F0000001EDEF0FF0020EEA6EB40EE96EEF505B
:100A000010E0030E016EBF0E006E0400002EFDD735
:100A1000012EF9D7E30E006E002EFED70400EF2E54
:100A2000F0D712000900F6CFB5F2F7CFB6F2F550C5
:100A3000A4A8FED7796EB5C2F6FFB6C2F7FF0201D1
:100A4000B42F01D002D00001EDD70001120009003F
:100A5000F5520DE0F6CFC5F2F7CFC6F2F550A4A8D7
:100A6000FED7796EC5C2F6FFC6C2F7FFF0D71200F7
:100A70000201B751016AB65D03E2B6C200F00CD0C4
:100A8000006A080EB86FB6370036B751005CD8B0B0
:100A9000006E0136B82FF7D7000112000150B4C222
:100AA000B6F2640E0201B76F0001E2DF00C0B4F2DB
:100AB0000150300E08E10201B5A30ED0B5B70CD03D
:100AC000B5B9200E04D00201B597B599B5810126BC
:100AD0000150A4A8FED7796EB4C2B6F20A0EB76F61
:100AE0000001C6DF00C0B4F20150300E08E102017F
:100AF000B5B70BD0B5A109D0B5B9200E00010126BC
:100B00000150A4A8FED7796E0201300EB427B4516B
:100B1000A4A8FED7796E000112000201BC6BBBC213
:100B200003F0BA51D8B4BB07BA07BD6F03C0BEF219
:100B3000BD5302E1BE5335E0B9C203F0B851E96ECE
:100B400003C0EAFFB751036EB651B62BD8B4B72B2A
:100B5000BF6F03C0C0F2F2CFC1F2F29CF29EC0C2DE
:100B600075FFBFC274FF7F9C7F9E7F807350C1BDA5
:100B7000F28CC1BFF28EEF6EB9C203F0B851E96ECC
:100B800003C0EAFFEFCFBDF2BCC2CEF2BDC2CFF2CE
:100B9000CE51CF19016E01C0BCF2B82BD8B4B92B1D
:100BA000BED7BCC201F0000179EF06F00201CC6BA8
:100BB000CBC203F0CA51D8B4CB07CA07CD6F03C06C
:100BC000CEF2CD5302E1CE533FE0C9C203F0C8518B
:100BD000E96E03C0EAFFEFCFCDF2CCC2CEF2CDC2B8
:100BE000CFF2CE51CF19016E01C0CCF2C751036EC6
:100BF000C651C62BD8B4C72BCD6F03C0CEF2C95196
:100C0000036EC851C82BD8B4C92BE96E03C0EAFFE4
:100C1000EFCFCFF2CEC275FFCDC274FFCFC273FF4C
:100C20007F9C7F9E7F84F250006EF29CF29E0F01AB
:100C3000550E7E6EAA0E7E6E7F827FB2FED77F94A7
:100C40000050F2120201B4D7CCC201F0000139EF1A
:100C500006F00201C56B360EC46FC76B020EC66F7D
:100C6000C5C2C9F2C4C2C8F2CB6B0B0ECA6F000179
:100C70009DD701C0C3F2756A746AC3C273FF7F9CBB
:100C80007F9E7F84F250006EF29CF29E0F01550E03
:100C90007E6EAA0E7E6E7F827FB2FED77F9400505A
:100CA000F21200011200960E0101976F180E366EB7
:100CB000500E386E260E3A6E940E396E3C6A140E43
:100CC0003B6E3D6A010E3F6E2E0E3E6E0001C1DF8F
:100CD00012000201B56B360EB46FB76B020EB66F21
:100CE000B5C2B9F2B4C2B8F2BB6B0B0EBA6F000159
:100CF00014D701C0B3F2F2CFB4F2F29CF29E756A3F
:100D0000746A7F9C7F9E7F8073500201B4BDF28C19
:100D1000B4BFF28EB35D03E00001C5DF0201000144
:100D200092EF10F09EAA0CD0B40EF66E030EF76E82
:100D30008EDEA8DCCC0EF66E030EF76E88DEF2D7E0
:100D40009D8A1200EFDFD60EF66E030EF76E7FDE81
:100D5000C60ED56EF60EF66E030EF76E78DE120E28
:100D6000F66E040EF76E73DEC00EF2123E0EF66ED5
:100D7000040EF76E6CDEB3EF10F00101752B7551A8
:100D80000F0801E2756B0201B36BB351070852E320
:100D9000036AB3510001BEEC00F00201B46FB43538
:100DA000006E0036FC0E0016C250830B0010C26E9F
:100DB000000E016EC150F80B0110C16ECD6BB3C2B5
:100DC000CCF2CF6B200ECE6F000173DD02C003F0BA
:100DD0000150340F0201B46F000E0220B56F036A98
:100DE000010175C102F0D8900236033602500201AB
:100DF000B425016EB55103220150410FE96E000E7A
:100E00000320EA6EC282C2B2FED7C3CFEFFFC4CFC7
:100E1000ECFF036AB3C202F0D890023603360250E8
:100E2000650FE96E000E0320EA6EEC6AED52EF6A80
:100E3000B32BABD70001120001019895D8900201A5
:100E4000AC35B36FAD35B46F000E010199A7010E3B
:100E50000201B313B3C2ACF2B451E009AD6FAC53AD
:100E600022E1AD51F0081FE101018371000E83B151
:100E7000010E0201B36F4A0EF66E070EF76E0A0EF0
:100E8000B46F0001CFDDB3C2B4F21B0E0201B56F27
:100E9000000104DE0D0EA4A8FED7796E0A0EA4A8E8
:100EA000FED7796E0201D890AE35B36FAF35B46F0F
:100EB000000E01019AA5010E0201B313B3C2AEF2F6
:100EC000B451E009AF6FAE5306E1AF51F00803E152
:100ED0003D5201E0FF00D890B035B36FB135B46F2B
:100EE000000E01019AAB010E0201B313B3C2B0F2BE
:100EF000B451E009B16FB05306E1B151F00803E11C
:100F00000101856B846B0101863D04D0873D02D0D1
:100F1000426A416A883D04D0893D02D0446A436AEE
:100F20008A3D04D08B3D02D0466A456A81CF99F153
:100F300082CF9AF183A103D094948B8408D09753E5
:100F400003E194948B9403D094948B849707803D11
:100F500003D0813D01D003D0802BD8B4812B020176
:100F6000AA2BD8B4AB2BAA51E80829E1AB5103084E
:100F700026E1AB6BAA6B0101843D03D0853D01D016
:100F800003D0842BD8B4852B3E5202E13F5207E0B8
:100F90003F50855D04E303E184513E5C00E20201C1
:100FA000A72BA7513C080BE1A76B01017E3D03D0A5
:100FB0007F3D01D003D07E2BD8B47F2B02010101ED
:100FC00098A304D098930201A96BA86B0201A82BE7
:100FD000D8B4A92B3B50A85D08E13C50A95D05E1C0
:100FE000A96BA86B0101988102010001EAEF10F0E2
:100FF00001019BB104D0000E016E0AD006D0A1AF52
:1010000004D0A3C1A2F1010EA06F9B91010E016E4D
:10101000000189EF0EF00201BB511F080CE1BC5129
:101020004E0809E1BD51200806E1BE514E0803E11A
:10103000010E016E1CD0BC5102080FE2FF0A03E151
:10104000BB51E7080AE2BE51030807E303E1BD51C3
:10105000FA0803E3010E016E0AD0BE5306E1BD514A
:10106000340803E3010E016E02D0000E016E000190
:10107000C0EF0EF00201C55100012EEC03F0196A19
:10108000F2BC198CF29CF2BE198EF29EC5C2D2F24D
:1010900052EC03F019BCF28C19BEF28E0400080E5B
:1010A000006E002EFED70000120001019E699D69AE
:1010B0009B919D9A04001E0E006E002EFED700002C
:1010C000C3C2C5F20001D6DFC4C2C5F2D3DF12002D
:1010D000ACA2FED777EF08F09EC1C4F29DC1C3F267
:1010E000C4C2C5F2C7DFC3C2C5F2C4DFF1D7040072
:1010F0001E0E006E002EFED7000014DE01019E6958
:101100009D69000112000201BA518009BD6FBBC286
:10111000BEF2B9C2C3F2C46F0001C7DFBCC2C5F2E0
:10112000A9DFDADF1200F29CF29EF2BEFDD70201C7
:10113000CD6BC7C2CCF2CF6B040ECE6F000159EC61
:1011400004F002C003F00150590FE96E000E0220B6
:10115000EA6EEFCF00F0ECCF01F0ECCF02F0ECCF75
:1011600003F003C0CBF202C0CAF201C0C9F200C052
:10117000C8F2C00EF212C8C200F0C9C201F0CAC261
:1011800002F0CBC203F012000201C96BC86BCA6B3C
:10119000CA510F082CE3CD6BC7C2CCF2CF6B200E27
:1011A000CE6F000159EC04F002C003F00150340F7F
:1011B0000201CB6F000E0220CC6F036ACAC202F09C
:1011C000D890023603360250CB25016ECC51032253
:1011D0000150410FE96E000E0320EA6EECCF03F0E0
:1011E000ED52EF50C8270350C923CA2BD1D7080EA0
:1011F000C825CB6F000EC921CC6FCC31036ECB312B
:10120000026E0332023203320232033202320F0E16
:10121000031602C001F003C002F000011200F29CAC
:10122000F29EF2BEFDD7546A536A566A556A586AEE
:10123000576A486847684A6849684C684B684E6A0C
:101240004D6A506A4F6A526A516A0101816B806B24
:10125000C00EF2120001FFEF0CF0F29CF29EF2BE03
:10126000FDD75C6A5B6A5A6A596A606B5F6A5E6A3C
:101270005D6A646B636B626B616BC00EF21204EFAC
:101280000DF00101776B766B796B786B7B6B7A6B0A
:1012900000011BEF0DF00201C551006EC651036E37
:1012A000035005E100520001D8B4F4D1020103500B
:1012B00006E1010E005C0001D8B4F1D10201035037
:1012C00006E1020E005C0001D8B4EED10201035029
:1012D00006E1030E005C0001D8B4EBD1020103501B
:1012E00006E1040E005C0001D8B4E8D1020103500D
:1012F00006E1050E005C0001D8B4F2D102010350F2
:1013000006E1060E005C0001D8B4F0D102010350E2
:1013100006E1070E005C0001D8B4EDD102010350D4
:1013200006E1080E005C0001D8B4EAD102010350C6
:1013300006E1090E005C0001D8B4E7D102010350B8
:1013400006E10A0E005C0001D8B4E4D102010350AA
:1013500006E10B0E005C0001D8B4EFD1020103508E
:1013600006E10C0E005C0001D8B4EDD1020103507F
:1013700006E10D0E005C0001D8B4EAD10201035071
:1013800006E10E0E005C0001D8B4E7D10201035063
:1013900006E10F0E005C0001D8B4E4D10201035055
:1013A00006E1100E005C0001D8B4E1D10201035047
:1013B00006E1110E005C0001D8B4ECD1020103502B
:1013C00006E1120E005C0001D8B4EAD1020103501C
:1013D00006E1130E005C0001D8B4F8D102010350FD
:1013E00006E1140E005C0001D8B4F6D102010350EE
:1013F00006E1150E005C0001D8B4F3D102010350E0
:1014000006E1160E005C0001D8B401D202010350BF
:1014100006E1170E005C0001D8B400D202010350AF
:1014200006E1180E005C0001D8B4FDD102010350A2
:1014300006E1190E005C0001D8B40BD20201035082
:1014400006E11A0E005C0001D8B40AD20201035072
:1014500006E11B0E005C0001D8B407D20201035064
:1014600006E11C0E005C0001D8B415D20201035045
:1014700006E11D0E005C0001D8B414D20201035035
:1014800006E11E0E005C0001D8B411D20201035027
:1014900006E11F0E005C0001D8B41FD20201035008
:1014A00006E1200E005C0001D8B41ED202010350F8
:1014B00006E1210E005C0001D8B41BD202010350EA
:1014C00006E1220E005C0001D8B429D202010350CB
:1014D00006E1230E005C0001D8B428D202010350BB
:1014E00006E1240E005C0001D8B425D202010350AD
:1014F00006E1250E005C0001D8B433D2020103508E
:1015000006E1260E005C0001D8B432D2020103507D
:1015100006E1270E005C0001D8B42FD2020103506F
:1015200006E1280E005C0001D8B43DD20201035050
:1015300006E1290E005C0001D8B43DD2020103503F
:1015400006E12A0E005C0001D8B43AD20201035031
:1015500006E12B0E005C0001D8B43ED2020103501C
:1015600006E12C0E005C0001D8B43CD2020103500D
:1015700006E12D0E005C0001D8B43AD202010350FE
:1015800006E12E0E005C0001D8B438D202010350EF
:1015900006E12F0E005C0001D8B435D202010350E1
:1015A00006E1300E005C0001D8B432D202010350D3
:1015B00006E1310E005C0001D8B430D202010350C4
:1015C00006E1320E005C0001D8B42ED202010350B5
:1015D00006E1330E005C0001D8B42CD20201030EE8
:1015E000035C06E1E80E005C0001D8B428D20201D9
:1015F000030E035C06E1E90E005C0001D8B425D2BD
:101600000201030E035C06E1EA0E005C0001D8B49F
:1016100021D20201030E035C06E1EB0E005C000127
:10162000D8B41DD20201030E035C06E1EC0E005C8F
:101630000001D8B419D20201030E035C06E1ED0EDD
:10164000005C0001D8B415D20201030E035C06E170
:10165000EE0E005C0001D8B411D20201030E035C4F
:1016600006E1EF0E005C0001D8B40ED20201030EB9
:10167000035C06E1F00E005C0001D8B40AD202015E
:10168000030E035C06E1F10E005C0001D8B407D242
:1016900002010BD253C001F054C002F00BD241C082
:1016A00001F042C002F006D247C001F048C002F08B
:1016B00001D24DC001F04EC002F0FCD10201C76B57
:1016C000000131DD03C0A5F202C0A4F201C0A3F203
:1016D00000C0A2F2A2C201F0A3C202F00001EAD14E
:1016E000A4C201F0A5C202F00001E4D155C001F08E
:1016F00056C002F0DFD143C001F044C002F0DAD19D
:1017000049C001F04AC002F0D5D14FC001F050C02D
:1017100002F0D0D1010E0201C76F000104DD03C049
:10172000A5F202C0A4F201C0A3F200C0A2F2A2C2BC
:1017300001F0A3C202F00001BDD1A4C201F0A5C214
:1017400002F00001B7D157C001F058C002F0B2D189
:1017500045C001F046C002F0ADD14BC001F04CC015
:1017600002F0A8D151C001F052C002F0A3D1020E84
:101770000201C76F0001D7DC03C0A5F202C0A4F2CA
:1017800001C0A3F200C0A2F2A2C201F0A3C202F003
:10179000000190D1A4C201F0A5C202F000018AD1DB
:1017A000036A010175C102F0D89002360336025077
:1017B000750FE96E000E0320EA6EECCF03F0ED52D8
:1017C000EFCF01F003C002F0000174D10201C76B3A
:1017D0000001DADC02506ED165C001F066C002F093
:1017E00069D1036A010175C102F0D890023603364F
:1017F0000250950FE96E000E0320EA6EECCF03F065
:10180000ED52EFCF01F003C002F0000153D1010E01
:101810000201C76F0001B8DC02504CD167C001F073
:1018200068C002F047D1036A010175C102F0D89087
:10183000023603360250B50FE96E000E0320EA6E41
:10184000ECCF03F0ED52EFCF01F003C002F0000146
:1018500031D1020E0201C76F000196DC02502AD17D
:1018600069C001F06AC002F025D1036A010175C1A7
:1018700002F0D890023603360250D50FE96E000E02
:101880000320EA6EECCF03F0ED52EFCF01F003C07E
:1018900002F000010FD1030E0201C76F000174DCDA
:1018A000025008D16BC001F06CC002F003D1036A92
:1018B000010175C102F0D890023603360250F50FCF
:1018C000E96E000E0320EA6EECCF03F0ED52EFCF8D
:1018D00001F003C002F00001EDD0040E0201C76F59
:1018E000000152DC0250E6D06DC001F06EC002F083
:1018F000E1D0036A010175C102F0D89002360336C7
:101900000250150FE96E010E0320EA6EECCF03F0D2
:10191000ED52EFCF01F003C002F00001CBD0050E75
:101920000201C76F000130DC0250C4D06FC001F06B
:1019300070C002F0BFD0036A010175C102F0D890F7
:10194000023603360250350FE96E010E0320EA6EAF
:10195000ECCF03F0ED52EFCF01F003C002F0000135
:10196000A9D0060E0201C76F00010EDC0250A2D002
:1019700071C001F072C002F09DD0036A010175C10F
:1019800002F0D890023603360250550FE96E010E70
:101990000320EA6EECCF03F0ED52EFCF01F003C06D
:1019A00002F0000187D0070E0201C76F0001C4ECEE
:1019B00008F002507FD073C001F074C002F07AD0FA
:1019C00001017DC103F07C517C2BD8B47D2B016ECD
:1019D00003C002F000016ED080C101F081C102F0AD
:1019E000000168D07EC101F07FC102F0000162D029
:1019F00084C101F085C102F000015CD010D4000E5A
:101A0000016E026E57D029D4000E016E026E52D0C4
:101A100076C101F077C102F000014CD078C101F02D
:101A200079C102F0000146D07AC101F07BC102F019
:101A3000000140D026D4000E016E026E3BD0036A36
:101A400038C001F003C002F035D039C001F03AC00F
:101A500002F030D0500E016E000E026E2BD0570EE9
:101A6000016E000E026E26D0580E016E000E026E40
:101A700021D0010E016E000E026E1CD0036A36C02A
:101A800001F003C002F016D03BC001F03CC002F0F0
:101A900011D0036A3DC001F003C002F00BD03EC07C
:101AA00001F03FC002F006D00201FF0E016E026E8F
:101AB000000100D083EF0DF0BAC2C3F2B9C2C4F284
:101AC00055EC08F0D8900201BD35C36FBE35C46F28
:101AD000C3C2C5F200013AEC08F00201C06BBF6B53
:101AE000C051BE5D25E303E1BD51BF5D21E2BF51A1
:101AF000BB25C36FC051BC21C46FC66FC3C2C5F242
:101B000000014BEF09F002C0C2F201C0C1F2C2C233
:101B1000C3F2C2C2C5F23AEC08F0C1C2C3F2C1C2FC
:101B2000C5F23AEC08F00201BF2BD8B4C02BD8D7CD
:101B300000016CEC08F0E1EF0EF0010182531BE0B4
:101B40000201BF51E80809E1C051030806E1C1C222
:101B500038F0000E016E91D00DD0BF51E9080AE1B6
:101B6000C051030807E1C2C23AF0C1C239F0000E09
:101B7000016E83D001010201BF51006EC051036E9E
:101B8000030E035C05E1EE0E005C00012AE0020199
:101B9000030E035C05E1EF0E005C00012EE0020184
:101BA000030E035C05E1F00E005C00012EE0020173
:101BB000030E035C05E1F10E005C000132E002015E
:101BC000070E035C05E1CF0E005C000130E002016E
:101BD0004E0E035C05E11F0E005C000135E00201C2
:101BE00047D00201C25303E1C1517F0803E2030E53
:101BF000016E43D0C1C236F03ED001019883C2C20B
:101C00003CF0C1C23BF0020136D00201C25303E1F5
:101C1000C151010803E2030E016E2FD0C1C23DF095
:101C20002AD0C2C23FF0C1C23EF0020124D002015C
:101C3000C12D02D0C25303E0030E016E1ED000017D
:101C400029EC06F0020117D00201C1510A0803E194
:101C5000C251070806E00101826B030E016E02010A
:101C60000CD0010E0101826FC80E976F020103D0E4
:101C7000020E016E02D0000E016E00011200BBC206
:101C8000C3F2060E0201C46F000155EC08F0BDC29C
:101C9000C0F2BDC2C5F23AEC08F0BCC2C0F2BCC290
:101CA000C5F23AEC08F0BFC2C0F2BFC2C5F23AECCE
:101CB00008F0BEC2C0F2BEC2C5F23AEC08F06CEC4D
:101CC00008F01AEF0FF0B9C2C3F2100E0201C46F90
:101CD000000155EC08F0BBC2BEF2BBC2C5F23AEC43
:101CE00008F0BAC2BEF2BAC2C5F23AEC08F0BDC200
:101CF000BEF2BDC2C5F23AEC08F0BCC2BEF2BCC234
:101D0000C5F23AEC08F06CEC08F07BEF0FF0F8EF5E
:101D100007F00152D8B40CD1365001019F5DD8A410
:101D2000FDD0763D03D0773D01D003D0762BD8B4DB
:101D3000772B140E976FA151030A000108E0070AE0
:101D400006E0020A40E0160AD8B476D0D6D0A3C185
:101D5000B4F2A4C1B3F2A5C1B6F2A6C1B5F20201B4
:101D6000B551B325B96FB651B421BA6FB4C2BCF244
:101D7000B3C2BBF2BE6FB9C2BDF200010BEF08F0F7
:101D8000015212E136C0B9F20201BB6BA1C1BAF235
:101D9000020EBC6F000183EC08F001017B6B020EA8
:101DA0007A6F976B0FD00001A1C1B9F236C0BAF2B9
:101DB000B4C2BCF2B3C2BBF2B6C2BEF2B5C2BDF28F
:101DC0007BD60101AAD0A3C1B4F2A4C1B3F2A5C1CC
:101DD000BAF2A6C1B9F2B4C2C0F2B3C2BFF2A5C191
:101DE000C2F2A6C1C1F2A9DE01C0B7F20201B75327
:101DF00011E036C0B9F2BB6BA1C1BAF2B7C2BCF2F6
:101E0000000183EC08F001017B6BB7C27AF1976B9C
:101E100012D00201A5C1BAF2A6C1B9F236C0BBF216
:101E2000B4C2BDF2B3C2BCF2A5C1BFF2A6C1BEF23C
:101E3000000125D7010171D0A3C1B4F2A4C1B3F24E
:101E4000A5C1B6F2A6C1B5F20201B86BB65303E163
:101E5000B551B85D42E2B851B325B96F000EB42157
:101E6000BA6FD890B835050FA30FE96E010EEA6E70
:101E7000D8B0EA2AEFCFBBF2D890B835060FA30F3F
:101E8000E96E010EEA6ED8B0EA2AEFCFBCF2BBC20F
:101E9000BEF2BCC2BDF2BAC2C0F2B9C2BFF2BBC28E
:101EA000C2F2BCC2C1F2000148DE01C0B7F20201B9
:101EB000B75311E036C0B9F2BB6BA1C1BAF2B7C2D9
:101EC000BCF2000183EC08F001017B6BB7C27AF130
:101ED000976B020102D0B82BB9D7B7530CE136C0CB
:101EE000B9F2B4C2BBF2B3C2BAF2B6C2BDF2B5C265
:101EF000BCF20001E8D6010110D036C0B9F20201EF
:101F0000BB6BA1C1BAF2010EBC6F000183EC08F0FB
:101F100001017B6B010E7A6F976B0AD0783D03D07D
:101F2000793D01D003D0782BD8B4792B140E976F5C
:101F30000001F6EF10F0F86AF1949F829F9AA59A3B
:101F4000D08E078EEA6AE96A356AA7960C0EAF6EE4
:101F5000A60EAC6E900EAB6EB9960C0E7B6EA60EF6
:101F6000BA6E900EA66E01019B919C6B0201A66B4E
:101F700001019B939B959B979B999B9B9B9D02012A
:101F8000A76BA96BA86BAB6BAA6BAD6BAC6BAF6BA4
:101F9000AE6BB16BB06B0F015C51800B5C6F000ED0
:101FA0005D6FC196C198C19A0101886B0F015E6B8C
:101FB0005F6B2F6A306A0201A26BA36BA46BA56BE7
:101FC000D0500F0BD0A8000ED080D082D088D886F9
:101FD000D888B26F00016AEF04F094948B849490D7
:101FE0008B80040E0201B36FFA0EB46F0001FBEC9C
:101FF00004F00201B32FF8D794948B9494908B90B3
:10200000040EB36FFA0EB46F0001FBEC04F0020192
:10201000B32FF8D794948B8494908B805A0EF66EDD
:10202000070EF76E130EB46F000112EC05F0720E7E
:10203000F66E070EF76E27EC05F00D0EA4A8FED77E
:10204000796E0A0EA4A8FED7796E7C0EF66E070E86
:10205000F76E120E0201B46F000112EC05F0B2C26D
:10206000B4F21B0E0201B56F00014EEC05F0200E1C
:10207000A4A8FED7796E0201B251070A00010DE053
:102080000C0A12E0040A17E0030A1CE0020A21E02D
:102090000D0A26E0030A2BE031D0920EF66E070EF1
:1020A000F76E27EC05F030D09E0EF66E070EF76E39
:1020B00027EC05F029D0AE0EF66E070EF76E27EC72
:1020C00005F022D0BC0EF66E070EF76E27EC05F079
:1020D0001BD0CC0EF66E070EF76E27EC05F014D071
:1020E000DE0EF66E070EF76E27EC05F00DD0EE0E45
:1020F000F66E070EF76E27EC05F006D0000EF66EB2
:10210000080EF76E27EC05F00A0EF66E080EF76E55
:1021100027EC05F00E0EF66E080EF76E27EC05F0B4
:1021200069EF06F0300EF66E080EF76E27EC05F03C
:1021300036507F080EE23C0EF66E080EF76E27EC66
:1021400005F053EC06F0660EF66E080EF76E27ECFF
:1021500005F0AB8EAB88720EF66E080EF76E27ECAC
:1021600005F0A2EF06F0900EF66E080EF76E27EC63
:1021700005F0000E010183B1010E0201B36F9C0E48
:10218000F66E080EF76E100EB46F000112EC05F03B
:10219000B3C2B4F21B0E0201B56F00014EEC05F0A4
:1021A0000D0EA4A8FED7796E0A0EA4A8FED7796EEC
:1021B0000201B26BB2511D0806E30001BDEC06F04E
:1021C0000201B22BF7D70400010198A504D0000149
:1021D0001CEF07F0010198A105D098910001BDEC1A
:1021E00006F0010183B103D0000191D50101020184
:0421F000EAD7030027
:020000040030CA
:0E0000001503663F000991000FC00FE00F408E
:00000001FF
;PIC18F45K80
;CRC=F34D  CREATED="25-Apr-15 12:01"
