:080008006BEF00F000000000A6
:100010000000000000000000046ED8CF05F0E0CF23
:1000200006F00001E9CF0CF0EACF07F0E1CF08F0CD
:10003000E2CF09F0D9CF0AF0DACF0BF0F3CF12F00C
:10004000F4CF13F0FACF14F0F5CF15F0F6CF16F089
:10005000F7CF17F000C00EF001C00FF002C010F093
:1000600003C011F0F2AA38EF00F0F2B4E4EF01F0AF
:100070009DAA3EEF00F09EBA14EF03F0A3AA44EF4E
:1000800000F0A4BADEEF02F00EC000F00FC001F0E5
:1000900010C002F011C003F00CC0E9FF07C0EAFF76
:1000A000078E08C0E1FF09C0E2FF0AC0D9FF0BC0FC
:1000B000DAFF12C0F3FF13C0F4FF14C0FAFF15C03B
:1000C000F5FF16C0F6FF17C0F7FF045006C0E0FFAB
:1000D00005C0D8FF10001A6ED8CF1BF0E0CF1CF07F
:1000E0000001E9CF22F0EACF1DF0E1CF1EF0E2CF10
:1000F0001FF0D9CF20F0DACF21F0F3CF28F0F4CFE2
:1001000029F0FACF2AF0F5CF2BF0F6CF2CF0F7CF6D
:100110002DF000C024F001C025F002C026F003C07D
:1001200027F09DA297EF00F09EB2FDEF01F024C0F2
:1001300000F025C001F026C002F027C003F022C065
:10014000E9FF1DC0EAFF1D8E1EC0E1FF1FC0E2FFD8
:1001500020C0D9FF21C0DAFF28C0F3FF29C0F4FF77
:100160002AC0FAFF2BC0F5FF2CC0F6FF2DC0F7FF09
:100170001A501CC0E0FF1BC0D8FF1000F76A8C0F9C
:10018000F66E010EF7220900F5501200090006076D
:1001900001020405F76AA40FF66E010EF7220900AA
:1001A000F550120000C1814001C0804101C0804172
:1001B00000C1814001C0804100C1814000C1814037
:1001C00001C0804101C0804100C1814000C1814027
:1001D00001C0804100C1814001C0804101C0804117
:1001E00000C1814001C0804100C1814000C1814007
:1001F00001C0804100C1814001C0804101C08041F7
:1002000000C1814000C1814001C0804101C08041E6
:1002100000C1814001C0804100C1814000C18140D6
:1002200001C0804101C0804100C1814000C18140C6
:1002300001C0804100C1814001C0804101C08041B6
:1002400000C1814000C1814001C0804101C08041A6
:1002500000C1814001C0804100C1814000C1814096
:1002600001C0804100C1814001C0804101C0804186
:1002700000C1814001C0804100C1814000C1814076
:1002800001C0804101C0804100C1814000C1814066
:1002900001C0804100C1814001C0804101C0804156
:1002A00000C18140F76AB40FF66E020EF722090012
:1002B000F550120000C0C101C30302C2C60607C741
:1002C00005C5C404CC0C0DCD0FCFCE0E0ACACB0B86
:1002D000C90908C8D81819D91BDBDA1A1EDEDF1FB6
:1002E000DD1D1CDC14D4D515D71716D6D21213D3A6
:1002F00011D1D010F03031F133F3F23236F6F73756
:10030000F53534F43CFCFD3DFF3F3EFEFA3A3BFB45
:1003100039F9F83828E8E929EB2B2AEAEE2E2FEFF5
:100320002DEDEC2CE42425E527E7E62622E2E32365
:10033000E12120E0A06061A163A3A26266A6A76795
:10034000A56564A46CACAD6DAF6F6EAEAA6A6BAB05
:1003500069A9A86878B8B979BB7B7ABABE7E7FBF35
:100360007DBDBC7CB47475B577B7B67672B2B37325
:10037000B17170B0509091519353529296565797D5
:10038000559594549C5C5D9D5F9F9E5E5A9A9B5BC5
:1003900099595898884849894B8B8A4A4E8E8F4F75
:1003A0008D4D4C8C448485458747468682424383E5
:1003B00041818040F29A0201B85304E0D76AD66ABC
:1003C000F294F28A000112000101955102080AE13B
:1003D000965308E1975306E194B104D0020E995F59
:1003E000948101D0949197699669956B0201B86BDD
:1003F0000001E0DFF29444EF00F00201BAA10CD05A
:100400000101803D05D0813D03D0020105D00101ED
:10041000802BD8B4812B0201BAA50CD00101823DFA
:1004200005D0833D03D0020105D00101822BD8B451
:10043000832B0201BAA90CD00101843D05D0853D72
:1004400003D0020105D00101842BD8B4852B020111
:100450009380BA9381B0BA83BAB325D0010194B323
:1004600002D0020120D04F2AD8B4502A94A513D02C
:100470000201BA9181C13EF080C13DF03E50445C22
:1004800008E303E143503D5C04E23EC044F03DC05C
:1004900043F00101949594B506D0816B806B020105
:1004A000BA8101019485010194930201BAA303D09A
:1004B0000101948302019382BA9781B2BA87BAB7D5
:1004C00025D0010194B702D0020120D0512AD8B41E
:1004D000522A94A913D00201BA9583C140F082C177
:1004E0003FF04050465C08E303E145503F5C04E2C6
:1004F00040C046F03FC045F00101949994B906D040
:10050000836B826B0201BA85010194890101949782
:100510000201BAA703D00101948702019384BA9B18
:1005200081B4BA8BBABB25D0010194BB02D00201C1
:1005300020D0532AD8B4542A94AD13D00201BA99CA
:1005400085C142F084C141F04250485C08E303E1B8
:100550004750415C04E242C048F041C047F001010D
:10056000949D94BD06D0856B846B0201BA8901010C
:10057000948D0101949B0201BAAB03D00101948BCD
:1005800002019F2B9F510A0804E19F6B0101928594
:1005900002019E92000197EF00F0A4AAFED7A6CF19
:1005A00035F07ACF01F035A202D0A698A688DFEF09
:1005B00002F09EA8FED7AD6EE8EF02F0EED701C0C4
:1005C000B7F201017FA105D00201B7510001F1D7B7
:1005D0000101A49A000144EF00F09EAAFED7ABCF20
:1005E00035F0AECF01F035A202D0AB98AB88120047
:1005F000A4A8FED7796E1EEF03F001019751020106
:10060000B819B96F036AB9510001C4DD016E010167
:1006100096510118976F036A0201B951000142DE39
:10062000E8CF96F147EF03F0D8DF01C0B7F2010140
:100630007FA106D00201B7510001DAD72DD0010108
:1006400094B12BD0955308E197699669B7C298F198
:10065000952B996B9B6B17D0952D04D0B7C29AF14F
:10066000952B11D0955102080EE1993D02D0FE0E56
:10067000996F9C0E9925E96E010EEA6ED8B0EA2AB0
:10068000B7C2EFFF992BB7C2B8F20001B6D7010E7F
:100690000201B86F00018EDE01019E9A000144EF55
:1006A00000F02320706943616D6572615765617464
:1006B000686572582025730D0A0031382D4170721B
:1006C0002D3135002320726573746172745F63612C
:1006D00075736528293D25750D0A00000201A95191
:1006E000AB03F3CF01F0F4CF00F0AC03F3500026DE
:1006F000AA51AB03F3500020026E000112000F015B
:100700005C51800B02095C6FF70E5D6FC196C1886A
:10071000C19AC050C00B0709C06EC08EC2800101D3
:10072000916B9291929392957F8193690201A86B4C
:10073000A851020856E3036AA8C202F0D890023614
:10074000033602503D0FE96E000E0320EA6EEC6A9C
:10075000ED52EF6A036AA8C202F0D890023603365F
:100760000250430FE96E000E0320EA6EEC68ED5272
:10077000EF68036AA8C202F0D8900236033602502E
:10078000490FE96E000E0320EA6EEC6AED52EF6A43
:10079000036AA8C202F0D8900236033602504F0F07
:1007A000E96E000E0320EA6EEC6AED52EF6AAA6B66
:1007B000A8C2A9F2AC6B040EAB6F00018FDF015031
:1007C000550FE96E000E0220EA6EEE52EE52EC6A10
:1007D000ED52EF6AED52EF6AED52EF6A0201A82B7B
:1007E000A7D70101736B726B756B746B776B766B4C
:1007F000796B786B7B6B7A6B7D6B7C6B716B7E6BD3
:10080000F19CF288F19AF086F198F088000E0509C3
:10081000CA6E4A0ECB6E9D82A38A0001BDEF06F020
:100820000900F6CFAAF2F7CFABF2F550A4A8FED795
:10083000796EAAC2F6FFABC2F7FF0201A92F01D061
:1008400002D00001EDD7000112000900F5520DE0C1
:10085000F6CFA8F2F7CFA9F2F550A4A8FED7796E8B
:10086000A8C2F6FFA9C2F7FFF0D7CBEF06F002014E
:10087000AC51016AAB5D03E2ABC200F00CD0006A80
:10088000080EAD6FAB370036AC51005CD8B0006ECF
:100890000136AD2FF7D7000112000150A9C2ABF20B
:1008A000640E0201AC6F0001E2DF00C0A9F201504A
:1008B000300E08E10201AAA30ED0AAB70CD0AAB943
:1008C000200E04D00201AA97AA99AA8101260150FC
:1008D000A4A8FED7796EA9C2ABF20A0EAC6F0001D4
:1008E000C6DF00C0A9F20150300E08E10201AAB72C
:1008F0000BD0AAA109D0AAB9200E000101260150EF
:10090000A4A8FED7796E0201300EA927A951A4A888
:10091000FED7796E0001EDEF06F00201B16BB0C2B7
:1009200003F0AF51D8B4B007AF07B26F03C0B3F252
:10093000B25302E1B35335E0AEC203F0AD51E96EFC
:1009400003C0EAFFAC51036EAB51AB2BD8B4AC2B58
:10095000B46F03C0B5F2F2CFB6F2F29CF29EB5C20C
:1009600075FFB4C274FF7F9C7F9E7F807350B6BDBD
:10097000F28CB6BFF28EEF6EAEC203F0AD51E96EEF
:1009800003C0EAFFEFCFB2F2B1C2B4F2B2C2B5F225
:10099000B451B519016E01C0B1F2AD2BD8B4AE2B74
:1009A000BED7B1C201F0000175EF05F00201B26BD4
:1009B000B1C203F0B051D8B4B107B007B36F03C0F0
:1009C000B4F2B35302E1B4533FE0AFC203F0AE510F
:1009D000E96E03C0EAFFEFCFB3F2B2C2B4F2B3C222
:1009E000B5F2B451B519016E01C0B2F2AD51036E4A
:1009F000AC51AC2BD8B4AD2BB36F03C0B4F2AF5134
:100A0000036EAE51AE2BD8B4AF2BE96E03C0EAFF34
:100A1000EFCFB5F2B4C275FFB3C274FFB5C273FFB6
:100A20007F9C7F9E7F84F250006EF29CF29E0F01AD
:100A3000550E7E6EAA0E7E6E7F827FB2FED77F94A9
:100A40000050F2120201B4D7B2C201F0000139EF36
:100A500005F00201AB6B360EAA6FAD6B020EAC6FE8
:100A6000ABC2AFF2AAC2AEF2B16B070EB06F00011B
:100A70009DD701C0A9F2756A746AA9C273FF7F9CF1
:100A80007F9E7F84F250006EF29CF29E0F01550E05
:100A90007E6EAA0E7E6E7F827FB2FED77F9400505C
:100AA000F212000164EF05F0960E0101916F180E2D
:100AB000366E500E386E260E3A6E940E396E3C6AC3
:100AC000140E3B6E0001C5D712000201AA6B360E50
:100AD000A96FAC6B020EAB6FAAC2AEF2A9C2ADF2A7
:100AE000B06B070EAF6F000118D701C0A8F2F2CFAC
:100AF000A9F2F29CF29E756A746A7F9C7F9E7F8049
:100B000073500201A9BDF28CA9BFF28EA85D03E06B
:100B10000001CADF02010001F6EF06F09EAA02D032
:100B20005CDDFCD7949A8B9A9D8A9AEF05F0949895
:100B30008B98F4D7C60ED56EC00EF212FDEF06F0FC
:100B40000101712B71510F0801E2716B0201A86B59
:100B5000A851070852E3036AA8510001BEEC00F057
:100B60000201A96FA935006E0036FC0E0016C250B6
:100B7000830B0010C26E000E016EC150F80B011005
:100B8000C16EAA6BA8C2A9F2AC6B200EAB6F0001BC
:100B9000A5DD02C003F00150340F0201A96F000E61
:100BA0000220AA6F036A010171C102F0D8900236D7
:100BB000033602500201A925016EAA5103220150F9
:100BC0003D0FE96E000E0320EA6EC282C2B2FED76C
:100BD000C3CFEFFFC4CFECFF036AA8C202F0D890E6
:100BE000023603360250610FE96E000E0320EA6EF2
:100BF000EC6AED52EF6AA82BABD70001120001019D
:100C00009295D8900201A535A86FA635A96F000E60
:100C1000010193A7010E0201A813A8C2A5F2A951D0
:100C2000E009A66FA55305E1A651F00802E1010114
:100C300092770101803D04D0813D02D03E6A3D6A39
:100C4000823D04D0833D02D0406A3F6A843D04D097
:100C5000853D02D0426A416A81CF93F17FA103D0E2
:100C600094948B8408D0915303E194948B9403D093
:100C700094948B8491077C3D03D07D3D01D003D0BB
:100C80007C2BD8B47D2B0201A42BA451640801E174
:100C9000A46BA02BD8B4A12BA05170080EE1A151D8
:100CA00017080BE1A16BA06B01017A3D03D07B3DDE
:100CB00001D003D07A2BD8B47B2B010192A304D0AE
:100CC00092930201A36BA26B0201A22BD8B4A32BB7
:100CD0003B50A25D08E13C50A35D05E1A36BA26B14
:100CE00001019281020100010DEF07F0F86AF19411
:100CF0009F829F9AA59AD08E078EEA6AE96A356A22
:100D0000A786190EAF6E000E7D6EA60EAC6E900E0D
:100D1000AB6EB986190E7B6E000E7C6EA60EBA6E97
:100D2000900EA66E01019491956B02019F6B0101DB
:100D30009493949594979499949B949D0201A16B9C
:100D4000A06BA36BA26BA46BA66BA56B0F015C5190
:100D5000800B5C6F000E5D6FC196C198C19A010156
:100D6000886B0F015E6B5F6B2F6A306A02019B6BB1
:100D70009C6B9D6B9E6B0001C2D4A20EF66E060E9C
:100D8000F76E130E0201A96F00014ADDBA0EF66E6E
:100D9000060EF76E5AD50D0EA4A8FED7796E0A0E70
:100DA000A4A8FED7796ED0500F0BD0A8000ED0802B
:100DB000D082D088D886D8880201A86FC40EF66E7B
:100DC000060EF76E120EA96F00012ADDA8C2A9F265
:100DD0001B0E0201AA6F000160D50D0EA4A8FED75C
:100DE000796E0A0EA4A8FED7796E6FD636507F08AA
:100DF00001E25ADEAB8EAB889AD60201A76BA751EF
:100E00001D0805E300019CDE0201A72BF8D70400B2
:100E1000010192A503D00001F2D6010192A104D0F4
:0E0E2000929100018DDE01010201F1D7030065
:047DBC0076EF06F068
:020000040030CA
:0E0000001DDF7E7F008991000FC00FE00F40D2
:00000001FF
;PIC18F45K80
;CRC=B66B  CREATED="18-Apr-15 16:45"
