:040000000FEF10F0FE
:0800080065EF00F000000000AC
:100010000000000000000000046ED8CF05F0E0CF23
:1000200006F00001E9CF0CF0EACF07F0E1CF08F0CD
:10003000E2CF09F0D9CF0AF0DACF0BF0F3CF12F00C
:10004000F4CF13F0FACF14F0F5CF15F0F6CF16F089
:10005000F7CF17F000C00EF001C00FF002C010F093
:1000600003C011F0F2AA38EF00F0F2B433EF02F05F
:100070009DAA3EEF00F09EBA74EF03F00EC000F0B0
:100080000FC001F010C002F011C003F00CC0E9FF76
:1000900007C0EAFF078E08C0E1FF09C0E2FF0AC0FF
:1000A000D9FF0BC0DAFF12C0F3FF13C0F4FF14C076
:1000B000FAFF15C0F5FF16C0F6FF17C0F7FF045092
:1000C00006C0E0FF05C0D8FF10001A6ED8CF1BF0A5
:1000D000E0CF1CF00001E9CF22F0EACF1DF0E1CF24
:1000E0001EF0E2CF1FF0D9CF20F0DACF21F0F3CF0E
:1000F00028F0F4CF29F0FACF2AF0F5CF2BF0F6CF85
:100100002CF0F7CF2DF000C024F001C025F002C084
:1001100026F003C027F09DA291EF00F09EB24CEFB5
:1001200002F024C000F025C001F026C002F027C074
:1001300003F022C0E9FF1DC0EAFF1D8E1EC0E1FFD3
:100140001FC0E2FF20C0D9FF21C0DAFF28C0F3FFA3
:1001500029C0F4FF2AC0FAFF2BC0F5FF2CC0F6FF20
:100160002DC0F7FF1A501CC0E0FF1BC0D8FF1000C5
:10017000F76A800FF66E010EF7220900F5501200A3
:100180000900060701020405F76A980FF66E010ED2
:10019000F7220900F550120000C1814001C08041E2
:1001A00001C0804100C1814001C0804100C1814047
:1001B00000C1814001C0804101C0804100C1814037
:1001C00000C1814001C0804100C1814001C0804127
:1001D00001C0804100C1814001C0804100C1814017
:1001E00000C1814001C0804100C1814001C0804107
:1001F00001C0804100C1814000C1814001C08041F7
:1002000001C0804100C1814001C0804100C18140E6
:1002100000C1814001C0804101C0804100C18140D6
:1002200000C1814001C0804100C1814001C08041C6
:1002300001C0804100C1814000C1814001C08041B6
:1002400001C0804100C1814001C0804100C18140A6
:1002500000C1814001C0804100C1814001C0804196
:1002600001C0804100C1814001C0804100C1814086
:1002700000C1814001C0804101C0804100C1814076
:1002800000C1814001C0804100C1814001C0804166
:1002900001C0804100C18140F76AA80FF66E020ECE
:1002A000F7220900F550120000C0C101C30302C2C9
:1002B000C60607C705C5C404CC0C0DCD0FCFCE0EA6
:1002C0000ACACB0BC90908C8D81819D91BDBDA1A16
:1002D0001EDEDF1FDD1D1CDC14D4D515D71716D686
:1002E000D21213D311D1D010F03031F133F3F232F6
:1002F00036F6F737F53534F43CFCFD3DFF3F3EFE66
:10030000FA3A3BFB39F9F83828E8E929EB2B2AEAD5
:10031000EE2E2FEF2DEDEC2CE42425E527E7E62645
:1003200022E2E323E12120E0A06061A163A3A262B5
:1003300066A6A767A56564A46CACAD6DAF6F6EAE25
:10034000AA6A6BAB69A9A86878B8B979BB7B7ABA95
:10035000BE7E7FBF7DBDBC7CB47475B577B7B67605
:1003600072B2B373B17170B0509091519353529275
:1003700096565797559594549C5C5D9D5F9F9E5EE5
:100380005A9A9B5B99595898884849894B8B8A4A55
:100390004E8E8F4F8D4D4C8C4484854587474686C5
:1003A0008242438341818040232072656164696E8B
:1003B00067207374617274696E67202E2E2E0000A0
:1003C00020636F6D706C65746500232073657475B0
:1003D000705F74696D65725F3020737461727469E7
:1003E0006E67202E2E2E0D0A000023207365747573
:1003F000705F74696D65725F3020636F6D706C65DE
:1004000074650D0A00002320656E61626C655F698A
:100410006E746572727570747328474C4F42414C0C
:1004200029207374617274696E67202E2E2E0D0A56
:1004300000002320656E61626C6520696E746572D0
:10044000727570747320636F6D706C6574650D0ADE
:100450000000F29A0201D25304E0D76AD66AF294FD
:10046000F28A0001120001019C5102080AE19D5329
:1004700008E19E5306E19BB104D0020EA05F9B8170
:1004800001D09B919E699D699C6B0201D26B00011A
:10049000E0DFF2943EEF00F00201D4A10CD00101A4
:1004A000863D05D0873D03D0020105D00101862B92
:1004B000D8B4872B0201D4A50CD00101883D05D00A
:1004C000893D03D0020105D00101882BD8B4892BC6
:1004D0000201D4A90CD001018A3D05D08B3D03D087
:1004E000020105D001018A2BD8B48B2B0201D493D1
:1004F00081B0D483D4B32DD001019BB302D00201CB
:1005000028D0532AD8B4542A010E5926D8B05A2AD2
:10051000D8B45B2AD8B45C2A9BA513D00201D4912D
:1005200087C142F086C141F04250485C08E303E1D4
:100530004750415C04E242C048F041C047F001012D
:100540009B959BB506D0876B866B0201D481010118
:100550009B8501019B930201D4A303D001019B83DE
:100560000201D49781B2D487D4B72DD001019BB7B3
:1005700002D0020128D0552AD8B4562A010E5D2691
:10058000D8B05E2AD8B45F2AD8B4602A9BA913D009
:100590000201D49589C144F088C143F044504A5CBB
:1005A00008E303E14950435C04E244C04AF043C01D
:1005B00049F001019B999BB906D0896B886B0201B8
:1005C000D48501019B8901019B970201D4A703D027
:1005D00001019B870201D49B81B4D48BD4BB2DD065
:1005E00001019BBB02D0020128D0572AD8B4582A57
:1005F000010E6126D8B0622AD8B4632AD8B4642A1E
:100600009BAD13D00201D4998BC146F08AC145F04D
:1006100046504C5C08E303E14B50455C04E246C0A5
:100620004CF045C04BF001019B9D9BBD06D08B6BF0
:100630008A6B0201D48901019B8D01019B9B020100
:10064000D4AB03D001019B8B0201A62BA6510A0853
:1006500004E1A66B0101988502019E92000191EFD1
:1006600000F09EAAFED7ABCF35F0AECF01F035A299
:1006700002D0AB98AB881200959C8C9C080E016E42
:1006800000D00000018E10D0019E0201D233000183
:10069000D8B08C8CD8A08C9C018C06D0019C012EEB
:1006A000F4D700D000008C8C0B0EE96EE92EFED73B
:1006B000000001BEE9D701BCF1D7120001019E5133
:1006C0000201D219D36F036AD35100015DDD016EBF
:1006D00001019D5101189E6F036A0201D35100016F
:1006E000DBDDE8CF9DF11200BCDF01C0D1F20101DA
:1006F00083A106D0D1C2D2F20001BEDF2DD001010C
:100700009BB12BD09C5308E19E699D69D1C29FF19A
:100710009C2BA06BA26B17D09C2D04D0D1C2A1F151
:100720009C2B11D09C5102080EE1A03D02D0FE0E80
:10073000A06FA30EA025E96E010EEA6ED8B0EA2ADA
:10074000D1C2EFFFA02BD1C2D2F20001B7DF010E60
:100750000201D26F00017DDE01019E9A00013EEF91
:1007600000F02320627269646765643D25750D0A97
:1007700000002320706943616D6572615765617483
:10078000686572582025730D0A0032382D4A756E3F
:100790002D3135002320726573746172745F63615B
:1007A00075736528293D257520005744545F5449C9
:1007B0004D454F5554004D434C525F46524F4D5F8F
:1007C000534C454550004D434C525F46524F4D5F90
:1007D00052554E004E4F524D414C5F504F5745526F
:1007E0005F55500042524F574E4F55545F5245533C
:1007F0005441525400005744545F46524F4D5F538A
:100800004C454550000052455345545F494E5354A2
:1008100052554354494F4E00756E6B6E6F776E2183
:1008200000000D0A00002320726561645F70617230
:10083000616D5F66696C65282920737461727469E3
:100840006E67202E2E2E000020636F6D706C657415
:10085000650D0A00232077726974655F64656661BF
:10086000756C745F706172616D5F66696C65282973
:10087000207374617274696E67202E2E2E002063BF
:100880006F6D706C6574650D0A0023206D6F646276
:1008900075735F696E697428292073746172746955
:1008A0006E67202E2E2E000020636F6D706C6574B5
:1008B000650D0A002320627269646765645F756173
:1008C0007274733D25750D0A00000201CC51CE03F0
:1008D000F3CF01F0F4CF00F0CF03F3500026CD5159
:1008E000CE03F3500020026E00011200C150C00B75
:1008F0001709C16EC050C00B0509C06EC08EC28002
:100900002F0E926EDF0E936EA20E946EA40E956E55
:1009100096809682968496960101976B989198930B
:10092000989599699A690201B36BB351020856E32D
:10093000036AB3C202F0D890023603360250410F68
:10094000E96E000E0320EA6EEC6AED52EF6A036A6C
:10095000B3C202F0D890023603360250470FE96E58
:10096000000E0320EA6EEC68ED52EF68036AB3C232
:1009700002F0D8900236033602504D0FE96E000E99
:100980000320EA6EEC6AED52EF6A036AB3C202F02A
:10099000D890023603360250530FE96E000E032042
:1009A000EA6EEC6AED52EF6ACD6BB3C2CCF2CF6B5C
:1009B000040ECE6F000189DF0150590FE96E000E61
:1009C0000220EA6EEE52EE52EC6AED52EF6AED5200
:1009D000EF6AED52EF6A0201B32BA7D70101776BE3
:1009E000766B796B786B7B6B7A6B7D6B7C6B7F6BDB
:1009F0007E6B816B806B756B826B8391856B846B77
:100A0000F19CF19AF198000E0509CA6E4A0ECB6E60
:100A10009D82000152EF10F0020EEA6EB40EE96EF4
:100A2000EF5010E0030E016EBF0E006E0400002EAA
:100A3000FDD7012EF9D7E30E006E002EFED704007D
:100A4000EF2EF0D712000900F6CFB5F2F7CFB6F2CD
:100A5000196AF2BC198CF29CF2BE198EF29EF5CF87
:100A6000D2F20ADE19BCF28C19BEF28EB5C2F6FFC4
:100A7000B6C2F7FF0201B42F01D002D00001E3D7C4
:100A8000000112000900F55217E0F6CFC5F2F7CFCA
:100A9000C6F2196AF2BC198CF29CF2BE198EF29E53
:100AA000F5CFD2F2E9DD19BCF28C19BEF28EC5C2C7
:100AB000F6FFC6C2F7FFE6D712000201B751016A7E
:100AC000B65D03E2B6C200F00CD0006A080EB86F43
:100AD000B6370036B751005CD8B0006E0136B82F7B
:100AE000F7D7000112000150B4C2B6F2640E020141
:100AF000B76F0001E2DF00C0B4F20150300E08E130
:100B00000201B5A31AD0B5B718D0B5B9200E04D0DC
:100B10000201B597B599B5810126196AF2BC198C05
:100B2000F29CF2BE198EF29E01C0D2F20001A4DD49
:100B300019BCF28C19BEF28E0201B4C2B6F20A0ED2
:100B4000B76F0001BADF00C0B4F20150300E08E107
:100B50000201B5B715D0B5A113D0B5B9200E00016B
:100B60000126196AF2BC198CF29CF2BE198EF29E13
:100B700001C0D2F281DD19BCF28C19BEF28E0201E5
:100B8000300EB427196AF2BC198CF29CF2BE198E91
:100B9000F29EB4C2D2F200016FDD19BCF28C19BE14
:100BA000F28E12000201BC6BBBC203F0BA51D8B482
:100BB000BB07BA07BD6F03C0BEF2BD5302E1BE530F
:100BC00033E0B9C203F0B851E96E03C0EAFFB75190
:100BD000036EB651B62BD8B4B72BBF6F03C0C0F2AB
:100BE000F2CFC1F2F29CF29EBFC2A9FFA69CA69EC4
:100BF000A680A850C1BDF28CC1BFF28EEF6EB9C203
:100C000003F0B851E96E03C0EAFFEFCFBDF2BCC2FA
:100C1000CEF2BDC2CFF2CE51CF19016E01C0BCF2EF
:100C2000B82BD8B4B92BC0D7BCC201F00001B8EFC3
:100C300006F00201CC6BCBC203F0CA51D8B4CB078B
:100C4000CA07CD6F03C0CEF2CD5302E1CE533DE0D3
:100C5000C9C203F0C851E96E03C0EAFFEFCFCDF27D
:100C6000CCC2CEF2CDC2CFF2CE51CF19016E01C0AF
:100C7000CCF2C751036EC651C62BD8B4C72BCD6F6B
:100C800003C0CEF2C951036EC851C82BD8B4C92BCA
:100C9000E96E03C0EAFFEFCFCFF2CDC2A9FFCFC20A
:100CA000A8FFA69CA69EA684F250006EF29CF29E1F
:100CB0000F01550EA76EAA0EA76EA682A6B2FED78A
:100CC000A6940050F2120201B6D7CCC201F0000186
:100CD0007AEF06F00201C56B360EC46FC76B020EC9
:100CE000C66FC5C2C9F2C4C2C8F2CB6B0B0ECA6FC5
:100CF00000019FD701C0C3F2A96AC3C2A8FFA69C86
:100D0000A69EA684F250006EF29CF29E0F01550E34
:100D1000A76EAA0EA76EA682A6B2FED7A694005012
:100D2000F21200011200960E0101976F3668500E04
:100D3000386E260E3A6E940E396E3C6A140E3B6E77
:100D40003D6A010E3F6E2E0E3E6E0001C3DF1200A3
:100D50000201B56B360EB46FB76B020EB66FB5C23B
:100D6000B9F2B4C2B8F2BB6B0B0EBA6F00011AD75E
:100D700001C0B3F2F2CFB4F2F29CF29EA96AA69C33
:100D8000A69EA680A8500201B4BDF28CB4BFF28E1C
:100D9000B35D03E00001C7DF0201000118EF11F0AD
:100DA0009EAA0CD0A80EF66E030EF76E6BDE59DC11
:100DB000C00EF66E030EF76E65DEF2D79D8A120046
:100DC000EFDFCA0EF66E030EF76E5CDEC60ED56E52
:100DD000EA0EF66E030EF76E55DE060EF66E040E84
:100DE000F76E50DEC00EF212320EF66E040EF76E83
:100DF00049DE39EF11F00101752B75510F0801E241
:100E0000756B0201B36BB351070864E3036AB35116
:100E10000001B8EC00F0016E090805E1C150C00BFB
:100E20001309C16E04D0C150C00B1709C16E036A0B
:100E30000201B3510001B8EC00F00201B46FB43507
:100E4000006E0036FC0E0016C250C30B0010C26EBE
:100E50000400040E006E002EFED70000CD6BB3C25E
:100E6000CCF2CF6B200ECE6F00012FDD02C003F05D
:100E70000150340F0201B46F000E0220B56F036AF7
:100E8000010175C102F0D89002360336025002010A
:100E9000B425016EB55103220150410FE96E000ED9
:100EA0000320EA6EC282C2B2FED7C3CFEFFFC4CF27
:100EB000ECFF036AB3C202F0D89002360336025048
:100EC000650FE96E000E0320EA6EEC6AED52EF6AE0
:100ED000B32B99D70001120001019895D890020117
:100EE000AC35B36FAD35B46F000E010199A7010E9B
:100EF0000201B313B3C2ACF2B451E009AD6FAC530D
:100F00003CE1AD51F00839E101018371000E83B17C
:100F1000010E0201B36F620EF66E070EF76E0A0E37
:100F2000B46F000190DDB3C2B4F21B0E0201B56FC5
:100F30000001D9DD196AF2BC198CF29CF2BE198E3F
:100F4000F29E0D0E0201D26F00013CEC03F019BCC1
:100F5000F28C19BEF28E196AF2BC198CF29CF2BEA8
:100F6000198EF29E0A0E0201D26F00013CEC03F0D2
:100F700019BCF28C19BEF28E0201D890AE35B36F57
:100F8000AF35B46F000E01019AA5010E0201B31333
:100F9000B3C2AEF2B451E009AF6FAE5306E1AF5148
:100FA000F00803E13D5201E0FF00D890B035B36F87
:100FB000B135B46F000E01019AAB010E0201B313FB
:100FC000B3C2B0F2B451E009B16FB05306E1B15110
:100FD000F00803E10101856B846B0101863D04D0BB
:100FE000873D02D0426A416A883D04D0893D02D0E3
:100FF000446A436A8A3D04D08B3D02D0466A456A02
:1010000081CF99F182CF9AF183A102D08B8406D04F
:10101000975302E18B9402D08B849707803D03D0D5
:10102000813D01D003D0802BD8B4812B0201AA2BA3
:10103000D8B4AB2BAA51E80829E1AB51030826E14B
:10104000AB6BAA6B0101843D03D0853D01D003D079
:10105000842BD8B4852B3E5202E13F5207E03F502B
:10106000855D04E303E184513E5C00E20201A72BAD
:10107000A7513C080BE1A76B01017E3D03D07F3DEA
:1010800001D003D07E2BD8B47F2B0201010198A39D
:1010900004D098930201A96BA86B0201A82BD8B4C5
:1010A000A92B3B50A85D08E13C50A95D05E1A96B67
:1010B000A86B01019881020100018AEF11F0010182
:1010C0009BB104D0000E016E0AD006D0A1AF04D0AF
:1010D000A3C1A2F1010EA06F9B91010E016E000150
:1010E000F8EF0EF00201BB511F080CE1BC514E0895
:1010F00009E1BD51200806E1BE514E0803E1010E91
:10110000016E1CD0BC5102080FE2FF0A03E1BB5183
:10111000E7080AE2BE51030807E303E1BD51FA08FC
:1011200003E3010E016E0AD0BE5306E1BD5134083F
:1011300003E3010E016E02D0000E016E000134EFD8
:101140000FF09EA8FED7AD6EAAEF08F00201C551C0
:101150000001F7D7196AF2BC198CF29CF2BE198E05
:10116000F29EC5C2D2F25EEC03F019BCF28C19BE3D
:10117000F28E0400080E006E002EFED70000120052
:1011800001019E699D699B919D9A04001E0E006E4F
:10119000002EFED70000C3C2C5F20001D7DFC4C2D3
:1011A000C5F2D4DF1200ACA2FED7E2EF08F09EC178
:1011B000C4F29DC1C3F2C4C2C5F2C8DFC3C2C5F246
:1011C000C5DFF1D704001E0E006E002EFED7000012
:1011D000E7DD01019E699D69000112000201BA511B
:1011E0008009BD6FBBC2BEF2B9C2C3F2C46F0001B9
:1011F000C7DFBCC2C5F2AADFDADF1200F29CF29EA2
:10120000F2BEFDD70201CD6BC7C2CCF2CF6B040E8C
:10121000CE6F000165EC04F002C003F00150590FDD
:10122000E96E000E0220EA6EEFCF00F0ECCF01F085
:10123000ECCF02F0ECCF03F003C0CBF202C0CAF255
:1012400001C0C9F200C0C8F2C00EF212C8C200F05C
:10125000C9C201F0CAC202F0CBC203F012000201FF
:10126000C96BC86BCA6BCA510F082CE3CD6BC7C2E0
:10127000CCF2CF6B200ECE6F000165EC04F002C003
:1012800003F00150340F0201CB6F000E0220CC6F2F
:10129000036ACAC202F0D890023603360250CB2548
:1012A000016ECC5103220150410FE96E000E032064
:1012B000EA6EECCF03F0ED52EF50C8270350C9237C
:1012C000CA2BD1D7080EC825CB6F000EC921CC6F11
:1012D000CC31036ECB31026E033202320332023262
:1012E000033202320F0E031602C001F003C002F0F7
:1012F00000011200F29CF29EF2BEFDD7546A536ABE
:10130000566A556A586A576A486847684A68496819
:101310004C684B684E6A4D6A506A4F6A526A516A0D
:101320000101816B806BC00EF21200016AEF0DF0BB
:10133000F29CF29EF2BEFDD75C6A5B6A5A6A596AF9
:10134000606A5F6A5E6A5D6A646A636A626A616A49
:10135000C00EF2126FEF0DF00101776B766B796BB7
:10136000786B7B6B7A6B000186EF0DF00201C55143
:10137000006EC651036E035005E100520001D8B45F
:10138000F4D10201035006E1010E005C0001D8B463
:10139000F1D10201035006E1020E005C0001D8B455
:1013A000EED10201035006E1030E005C0001D8B447
:1013B000EBD10201035006E1040E005C0001D8B439
:1013C000E8D10201035006E1050E005C0001D8B42B
:1013D000F2D10201035006E1060E005C0001D8B410
:1013E000F0D10201035006E1070E005C0001D8B401
:1013F000EDD10201035006E1080E005C0001D8B4F3
:10140000EAD10201035006E1090E005C0001D8B4E4
:10141000E7D10201035006E10A0E005C0001D8B4D6
:10142000E4D10201035006E10B0E005C0001D8B4C8
:10143000EFD10201035006E10C0E005C0001D8B4AC
:10144000EDD10201035006E10D0E005C0001D8B49D
:10145000EAD10201035006E10E0E005C0001D8B48F
:10146000E7D10201035006E10F0E005C0001D8B481
:10147000E4D10201035006E1100E005C0001D8B473
:10148000E1D10201035006E1110E005C0001D8B465
:10149000ECD10201035006E1120E005C0001D8B449
:1014A000EAD10201035006E1130E005C0001D8B43A
:1014B000F8D10201035006E1140E005C0001D8B41B
:1014C000F6D10201035006E1150E005C0001D8B40C
:1014D000F3D10201035006E1160E005C0001D8B4FE
:1014E00001D20201035006E1170E005C0001D8B4DE
:1014F00000D20201035006E1180E005C0001D8B4CE
:10150000FDD10201035006E1190E005C0001D8B4C0
:101510000BD20201035006E11A0E005C0001D8B4A0
:101520000AD20201035006E11B0E005C0001D8B490
:1015300007D20201035006E11C0E005C0001D8B482
:1015400015D20201035006E11D0E005C0001D8B463
:1015500014D20201035006E11E0E005C0001D8B453
:1015600011D20201035006E11F0E005C0001D8B445
:101570001FD20201035006E1200E005C0001D8B426
:101580001ED20201035006E1210E005C0001D8B416
:101590001BD20201035006E1220E005C0001D8B408
:1015A00029D20201035006E1230E005C0001D8B4E9
:1015B00028D20201035006E1240E005C0001D8B4D9
:1015C00025D20201035006E1250E005C0001D8B4CB
:1015D00033D20201035006E1260E005C0001D8B4AC
:1015E00032D20201035006E1270E005C0001D8B49C
:1015F0002FD20201035006E1280E005C0001D8B48E
:101600003DD20201035006E1290E005C0001D8B46E
:101610003DD20201035006E12A0E005C0001D8B45D
:101620003AD20201035006E12B0E005C0001D8B44F
:101630003ED20201035006E12C0E005C0001D8B43A
:101640003CD20201035006E12D0E005C0001D8B42B
:101650003AD20201035006E12E0E005C0001D8B41C
:1016600038D20201035006E12F0E005C0001D8B40D
:1016700035D20201035006E1300E005C0001D8B4FF
:1016800032D20201035006E1310E005C0001D8B4F1
:1016900030D20201035006E1320E005C0001D8B4E2
:1016A0002ED20201035006E1330E005C0001D8B4D3
:1016B0002CD20201030E035C06E1E80E005C00017F
:1016C000D8B428D20201030E035C06E1E90E005CE7
:1016D0000001D8B425D20201030E035C06E1EA0E34
:1016E000005C0001D8B421D20201030E035C06E1C4
:1016F000EB0E005C0001D8B41DD20201030E035CA6
:1017000006E1EC0E005C0001D8B419D20201030E10
:10171000035C06E1ED0E005C0001D8B415D20201B5
:10172000030E035C06E1EE0E005C0001D8B411D29A
:101730000201030E035C06E1EF0E005C0001D8B469
:101740000ED20201030E035C06E1F00E005C000104
:10175000D8B40AD20201030E035C06E1F10E005C6C
:101760000001D8B407D202010BD253C001F054C01B
:1017700002F00BD241C001F042C002F006D247C0D5
:1017800001F048C002F001D24DC001F04EC002F09D
:10179000FCD10201C76B000131DD03C0A5F202C01C
:1017A000A4F201C0A3F200C0A2F2A2C201F0A3C23F
:1017B00002F00001EAD1A4C201F0A5C202F00001CA
:1017C000E4D155C001F056C002F0DFD143C001F0B2
:1017D00044C002F0DAD149C001F04AC002F0D5D1CC
:1017E0004FC001F050C002F0D0D1010E0201C76F0E
:1017F000000104DD03C0A5F202C0A4F201C0A3F2FF
:1018000000C0A2F2A2C201F0A3C202F00001BDD149
:10181000A4C201F0A5C202F00001B7D157C001F087
:1018200058C002F0B2D145C001F046C002F0ADD1BF
:101830004BC001F04CC002F0A8D151C001F052C021
:1018400002F0A3D1020E0201C76F0001D7DC03C072
:10185000A5F202C0A4F201C0A3F200C0A2F2A2C28B
:1018600001F0A3C202F0000190D1A4C201F0A5C210
:1018700002F000018AD1036A010175C102F0D8901B
:10188000023603360250750FE96E000E0320EA6E31
:10189000ECCF03F0ED52EFCF01F003C002F00001F6
:1018A00074D10201C76B0001DADC02506ED165C051
:1018B00001F066C002F069D1036A010175C102F04E
:1018C000D890023603360250950FE96E000E0320C1
:1018D000EA6EECCF03F0ED52EFCF01F003C002F05F
:1018E000000153D1010E0201C76F0001B8DC0250A4
:1018F0004CD167C001F068C002F047D1036A010112
:1019000075C102F0D890023603360250B50FE96E69
:10191000000E0320EA6EECCF03F0ED52EFCF01F0A2
:1019200003C002F0000131D1020E0201C76F0001B5
:1019300096DC02502AD169C001F06AC002F025D1BC
:10194000036A010175C102F0D890023603360250D5
:10195000D50FE96E000E0320EA6EECCF03F0ED52D6
:10196000EFCF01F003C002F000010FD1030E02011E
:10197000C76F000174DC025008D16BC001F06CC06D
:1019800002F003D1036A010175C102F0D89002365A
:1019900003360250F50FE96E000E0320EA6EECCF1D
:1019A00003F0ED52EFCF01F003C002F00001EDD0E3
:1019B000040E0201C76F000152DC0250E6D06DC078
:1019C00001F06EC002F0E1D0036A010175C102F0BE
:1019D000D890023603360250150FE96E010E03202F
:1019E000EA6EECCF03F0ED52EFCF01F003C002F04E
:1019F0000001CBD0050E0201C76F000130DC0250A0
:101A0000C4D06FC001F070C002F0BFD0036A010102
:101A100075C102F0D890023603360250350FE96ED8
:101A2000010E0320EA6EECCF03F0ED52EFCF01F090
:101A300003C002F00001A9D0060E0201C76F000129
:101A40000EDC0250A2D071C001F072C002F09DD035
:101A5000036A010175C102F0D890023603360250C4
:101A6000550FE96E010E0320EA6EECCF03F0ED5244
:101A7000EFCF01F003C002F0000187D0070E020192
:101A8000C76F00012FEC09F002507FD073C001F046
:101A900074C002F07AD001017DC103F07C517C2B2F
:101AA000D8B47D2B016E03C002F000016ED080C15E
:101AB00001F081C102F0000168D07EC101F07FC158
:101AC00002F0000162D084C101F085C102F0000182
:101AD0005CD010D4000E016E026E57D029D4000ED7
:101AE000016E026E52D076C101F077C102F00001A2
:101AF0004CD078C101F079C102F0000146D07AC122
:101B000001F07BC102F0000140D026D4000E016E2E
:101B1000026E3BD0036A38C001F003C002F035D03A
:101B200039C001F03AC002F030D0500E016E000E04
:101B3000026E2BD0570E016E000E026E26D0580E8C
:101B4000016E000E026E21D0010E016E000E026EBB
:101B50001CD0036A36C001F003C002F016D03BC0AF
:101B600001F03CC002F011D0036A3DC001F003C097
:101B700002F00BD03EC001F03FC002F006D00201DF
:101B8000FF0E016E026E000100D0EEEF0DF0BAC242
:101B9000C3F2B9C2C4F2C0EC08F0D8900201BD355E
:101BA000C36FBE35C46FC3C2C5F20001A6EC08F016
:101BB0000201C06BBF6BC051BE5D25E303E1BD51A7
:101BC000BF5D21E2BF51BB25C36FC051BC21C46FB3
:101BD000C66FC3C2C5F20001B6EF09F002C0C2F27F
:101BE00001C0C1F2C2C2C3F2C2C2C5F2A6EC08F083
:101BF000C1C2C3F2C1C2C5F2A6EC08F00201BF2BFC
:101C0000D8B4C02BD8D70001D7EC08F055EF0FF0AF
:101C1000010182531BE00201BF51E80809E1C051F4
:101C2000030806E1C1C238F0000E016E95D00DD058
:101C3000BF51E9080AE1C051030807E1C2C23AF006
:101C4000C1C239F0000E016E87D001010201BF51FF
:101C5000006EC051036E030E035C05E1EE0E005CE6
:101C600000012AE00201030E035C05E1EF0E005CB7
:101C7000000132E00201030E035C05E1F00E005C9E
:101C8000000132E00201030E035C05E1F10E005C8D
:101C9000000136E00201070E035C05E1CF0E005C97
:101CA000000134E002014E0E035C05E11F0E005CF2
:101CB000000139E002014BD00201C13D02D0C25304
:101CC00008E0C25303E1C1517F0803E2030E016E35
:101CD00043D0C1C236F03ED001019883C2C23CF06D
:101CE000C1C23BF0020136D00201C25303E1C1512F
:101CF000010803E2030E016E2FD0C1C23DF02AD0CD
:101D0000C2C23FF0C1C23EF0020124D00201C12D87
:101D100002D0C25303E0030E016E1ED000016AEC34
:101D200006F0020117D00201C1510A0803E1C251B5
:101D3000070806E00101826B030E016E02010CD060
:101D4000010E0101826FC80E976F020103D0020ECF
:101D5000016E02D0000E016E00011200BBC2C3F280
:101D6000060E0201C46F0001C0EC08F0BDC2C0F253
:101D7000BDC2C5F2A6EC08F0BCC2C0F2BCC2C5F23E
:101D8000A6EC08F0BFC2C0F2BFC2C5F2A6EC08F0D4
:101D9000BEC2C0F2BEC2C5F2A6EC08F0D7EC08F095
:101DA0008EEF0FF0B9C2C3F2100E0201C46F000132
:101DB000C0EC08F0BBC2BEF2BBC2C5F2A6EC08F094
:101DC000BAC2BEF2BAC2C5F2A6EC08F0BDC2BEF2FB
:101DD000BDC2C5F2A6EC08F0BCC2BEF2BCC2C5F2E0
:101DE000A6EC08F0D7EC08F0EFEF0FF05FEF08F08B
:101DF0000152D8B411D1363C01D006D03650010181
:101E00009F5DD8A4FFD000010101763D03D0773D4E
:101E100001D003D0762BD8B4772B140E976FA15135
:101E2000030A000108E0070A06E0020A40E0160A79
:101E3000D8B476D0D6D0A3C1B4F2A4C1B3F2A5C1B0
:101E4000B6F2A6C1B5F20201B551B325B96FB651CC
:101E5000B421BA6FB4C2BCF2B3C2BBF2BE6FB9C296
:101E6000BDF2000172EF08F0015212E19FC1B9F218
:101E70000201BB6BA1C1BAF2020EBC6F0001EEEC15
:101E800008F001017B6B020E7A6F976B0FD0000197
:101E9000A1C1B9F29FC1BAF2B4C2BCF2B3C2BBF2E3
:101EA000B6C2BEF2B5C2BDF272D60101AAD0A3C1BC
:101EB000B4F2A4C1B3F2A5C1BAF2A6C1B9F2B4C2D8
:101EC000C0F2B3C2BFF2A5C1C2F2A6C1C1F2A0DE88
:101ED00001C0B7F20201B75311E09FC1B9F2BB6B69
:101EE000A1C1BAF2B7C2BCF20001EEEC08F00101E8
:101EF0007B6BB7C27AF1976B12D00201A5C1BAF21F
:101F0000A6C1B9F29FC1BBF2B4C2BDF2B3C2BCF26A
:101F1000A5C1BFF2A6C1BEF2000120D7010171D058
:101F2000A3C1B4F2A4C1B3F2A5C1B6F2A6C1B5F281
:101F30000201B86BB65303E1B551B85D42E2B85146
:101F4000B325B96F000EB421BA6FD890B835050F1C
:101F5000A30FE96E010EEA6ED8B0EA2AEFCFBBF20A
:101F6000D890B835060FA30FE96E010EEA6ED8B00F
:101F7000EA2AEFCFBCF2BBC2BEF2BCC2BDF2BAC20B
:101F8000C0F2B9C2BFF2BBC2C2F2BCC2C1F2000110
:101F90003FDE01C0B7F20201B75311E09FC1B9F2B1
:101FA000BB6BA1C1BAF2B7C2BCF20001EEEC08F003
:101FB00001017B6BB7C27AF1976B020102D0B82B9B
:101FC000B9D7B7530CE19FC1B9F2B4C2BBF2B3C2E7
:101FD000BAF2B6C2BDF2B5C2BCF20001E3D601014D
:101FE00010D09FC1B9F20201BB6BA1C1BAF2010EC0
:101FF000BC6F0001EEEC08F001017B6B010E7A6F03
:10200000976B0AD0783D03D0793D01D003D0782B6F
:10201000D8B4792B140E976F000196EF11F0F86A7F
:10202000F1949F829F9AD08E078EEA6AE96A356A98
:10203000B8960C0EAF6EA60EAC6E900EAB6E959C65
:102040008C8C01019B919C6B0201A66B01019B93FF
:102050009B959B979B999B9B9B9D0201A76BA96B53
:10206000A86BAB6BAA6BAD6BAC6BAF6BAE6BB16BB4
:10207000B06BC150C00B0F09C16E070EB46E2F6A52
:10208000306AA26BA36BA46BA56BD0500F0BD0A8CA
:10209000000ED080D082D088D886D888B26F000158
:1020A00076EF04F08B848B80040E0201B36FFA0E7E
:1020B000B46F00010CEC05F00201B32FF8D78B943C
:1020C0008B90040EB36FFA0EB46F00010CEC05F0A8
:1020D0000201B32FF8D78B848B80720EF66E070E39
:1020E000F76E130EB46F000123EC05F08A0EF66E46
:1020F000070EF76E42EC05F0196AF2BC198CF29CDF
:10210000F2BE198EF29E0D0E0201D26F00013CEC60
:1021100003F019BCF28C19BEF28E196AF2BC198C4C
:10212000F29CF2BE198EF29E0A0E0201D26F0001DD
:102130003CEC03F019BCF28C19BEF28E940EF66ED4
:10214000070EF76E120E0201B46F000123EC05F0CA
:10215000B2C2B4F21B0E0201B56F000173EC05F0C0
:10216000196AF2BC198CF29CF2BE198EF29E200EF6
:102170000201D26F00013CEC03F019BCF28C19BED5
:10218000F28E0201B251070A00010DE00C0A12E0C2
:10219000040A17E0030A1CE0020A21E00D0A26E007
:1021A000030A2BE031D0AA0EF66E070EF76E42EC52
:1021B00005F030D0B60EF66E070EF76E42EC05F065
:1021C00029D0C60EF66E070EF76E42EC05F022D04F
:1021D000D40EF66E070EF76E42EC05F01BD0E40E3F
:1021E000F66E070EF76E42EC05F014D0F60EF66EA2
:1021F000070EF76E42EC05F00DD0060EF66E080ED7
:10220000F76E42EC05F006D0180EF66E080EF76E6B
:1022100042EC05F0220EF66E080EF76E42EC05F069
:10222000260EF66E080EF76E42EC05F0A8EF06F0EB
:10223000480EF66E080EF76E42EC05F036507F0839
:102240000EE2540EF66E080EF76E42EC05F093ECBB
:1022500006F07E0EF66E080EF76E42EC05F0AB8EC1
:10226000AB888A0EF66E080EF76E42EC05F0E0EFD2
:1022700006F0A80EF66E080EF76E42EC05F0000EA2
:10228000010183B1010E0201B36FB40EF66E080EA8
:10229000F76E100EB46F000123EC05F0B3C2B4F278
:1022A0001B0E0201B56F000173EC05F0196AF2BC58
:1022B000198CF29CF2BE198EF29E0D0E0201D26FA5
:1022C00000013CEC03F019BCF28C19BEF28E196AC5
:1022D000F2BC198CF29CF2BE198EF29E0A0E02011B
:1022E000D26F00013CEC03F019BCF28C19BEF28EE7
:1022F0000201B26BB2511D0806E30001FBEC06F0CF
:102300000201B22BF7D70400010198A504D0000107
:102310006CEF07F0010198A105D098910001FBEC4A
:1023200006F0010183B103D0000160D50101020173
:04233000EAD70300E5
:020000040030CA
:0E00000000C21E1F000781000FC00FE00F405E
:00000001FF
;PIC18F4523
;CRC=EDAA  CREATED="28-Jun-15 10:41"
